:020000040800F2
:1000000000000120C5020008CB020008CF02000852
:1000100041030008450300088D03000800000000AC
:10002000000000000000000000000000D5030008F0
:10003000D903000800000000DD030008C91700080C
:10004000F1030008F1030008F1030008F1030008C0
:10005000F1030008F1030008112200083122000812
:10006000F1030008F103000851220008F103000821
:10007000F1030008F1030008F1030008F103000890
:10008000F1030008F1030008F1030008000000007C
:10009000000000000000000000000000F103000864
:1000A000F1030008F1030008F1030008F103000860
:1000B00099300008F1030008F1030008F10300087B
:1000C000F1030008F1030008F1030008F103000840
:1000D000F1030008791600088316000800000000EC
:1000E000F1030008F1030008F1030008000000001C
:1000F000000000000000000000000000F103000804
:1001000000000000F1030008F1030008F1030008FB
:1001100000000000000000000000000000000000DF
:10012000F1030008F1030008F1030008F1030008DF
:10013000F1030008000000000000000000000000C3
:10014000000000000000000000000000F1030008B3
:10015000F1030008F1030008F10300088D16000800
:10016000F1030008F1030008000000000000000097
:10017000000000000000000000000000000000007F
:1001800000000000F1030008000000000000000073
:10019000F103000800B583B000F046FE384B394A41
:1001A0001360394A1360394900E02146384B9942BF
:1001B0000BD20A684B6801F10C0488689842F4D9A4
:1001C0001168196004330432F8E72E4B1A68314B7A
:1001D0009A4200D0FEE72C4B1A682F4B9A42F9D175
:1001E000274B2E4A13602E4A13602E4B05E0002049
:1001F000106004329342FAD80B462B4A934204D241
:10020000194651F8082B5B68F4E7244B1B6813B9B7
:10021000234B1B6803B1FEE703F078FA694601A897
:1002200000F094FD214C224BE41AA4100025AC42AE
:1002300014DC204C204BE41AA4100025AC4213DC43
:100240000099019803F0E6F905461C4C1C4BE41A92
:10025000A410002C0EDC284600F04AFD144B53F885
:10026000253098470135E2E7134B53F8253098477E
:100270000135E3E7013C124B53F824309847E8E797
:10028000BABADECA00000020C0000020F403000853
:100290000C0400087856341232547698C4000020BA
:1002A000B43A00200C0400081C0400081C040008D8
:1002B0001C0400081C0400081C0400081C0400089E
:1002C0001C04000808B5FFF765FF00BEFEE71EF03E
:1002D000040F0CBFEFF30880EFF309807146414A29
:1002E00010472DE9F04182B004468846124B5E6B00
:1002F0009F6B9D6A1B6B13F0020F03D00E4BDB6AE2
:10030000002B0CDB0D4800F033FDCDF800803B46A0
:1003100032462946204600F093FD00BEFEE74BF62C
:10032000AB6100F007FE0028ECD0034B4FF0004219
:10033000DA6202B0BDE8F08100ED00E0584C000840
:1003400000BEFEE71EF0040F0CBFEFF30880EFF3D2
:1003500009807146244A10472DE9F04182B00446D5
:100360008846084B5E6B9F6B9D6A074800F000FD56
:10037000CDF800803B4632462946204600F060FD1D
:1003800000BEFEE700ED00E0684C00081EF0040F20
:100390000CBFEFF30880EFF309807146134A104752
:1003A0002DE9F04182B004468846084B5E6B9F6B96
:1003B0009D6A074800F0DCFCCDF800803B463246E1
:1003C0002946204600F03CFD00BEFEE700ED00E0BF
:1003D000744C000800BEFEE700BEFEE700BEFEE76C
:1003E00070470000E302000859030008A103000859
:0403F00000BEFEE766
:1003F40064DF000800000020C400002064DF00085F
:100404000000001000000010C4000020B83A0020D2
:080414000000001000000010C0
:1004200010B50446074B1868074BA3FB0030800942
:1004300000F090F8002221464FF0FF3000F044F821
:10044000002010BD0C000020D34D621008B50B4BEE
:100450001A6842F400721A601A6842F480621A60E4
:100460001A6842F480721A60032000F00FF80F201F
:10047000FFF7D6FF03F052F9002008BD003C024010
:10048000014B1868704700BFA832002010B5044621
:10049000C31E042B0FD80A4AD36823F4E0631B045D
:1004A0001B0C240204F4E064234343F0BF6343F4D1
:1004B0000033D36010BDA421024800F04FFCEAE7EE
:1004C00000ED00E0884A000870B505460C46164667
:1004D0000F2A25D80F2C28D81B4BDB68C3F3022327
:1004E000C3F10702042A28BF0422191D062921D9B5
:1004F000033B4FF0FF3101FA02F224EA02049C4070
:1005000001FA03F326EA03063443002D14DB240129
:10051000E4B205F1604505F5614585F8004370BD1D
:10052000BC210A4800F01AFCD4E7BD21074800F0BE
:1005300015FCD1E70023DCE705F00F052401E4B248
:10054000034B5C55EBE700BF00ED00E0884A000874
:1005500014ED00E00138B0F1807F0AD2064B5860FC
:10056000064AF02182F823100020986007221A60C2
:1005700070470120704700BF10E000E000ED00E090
:1005800010B50446042800D038B9042C0BD0094A11
:10059000136823F00403136010BD40F2B311064842
:1005A00000F0DCFBF1E7034A136843F00403136037
:1005B000F2E700BF10E000E0884A000830B583B0E1
:1005C000044603680F2B29D8236813F0010F3DD090
:1005D0006368012B01D9052B25D1A34B9B6803F040
:1005E0000C03042B29D0A04B9B6803F00C03082BB1
:1005F0001ED022799D4B1A706368002B50D0FFF7F4
:100600003FFF0546984B1B6813F4003F1ED1FFF7D0
:1006100037FF401B6428F5D90320E3E1F521944816
:1006200000F09CFBD0E7FA21914800F097FBD4E75B
:100630008D4B5B6813F4800FDBD08B4B1B6813F47E
:10064000003F03D06368002B00F0C981236813F0DA
:10065000020F5DD0E368012B31D823691F2B34D8FA
:10066000814B9B6813F00C0F3AD07F4B9B6803F0D3
:100670000C03082B2FD0E368002B74D07D4B012294
:100680001A60FFF7FDFE0546774B1B6813F0020F5B
:100690005AD1FFF7F5FE401B0228F5D90320A1E14E
:1006A000FFF7EEFE0546704B1B6813F4003FCDD0FC
:1006B000FFF7E6FE401B6428F5D9032092E14FF4D2
:1006C00096716B4800F04AFBC7E740F22D1168486D
:1006D00000F044FBC4E7644B5B6813F4800FCAD19D
:1006E000614B1B6813F0020F04D0E368012B01D0AB
:1006F000012077E15C48036823F0F8032169F822C0
:1007000092FAA2F2B2FA82F201FA02F21343036001
:10071000236813F0080F50D06369012B35D8636943
:10072000002B38D0544B01221A60FFF7A9FE054672
:100730004D4B5B6F13F0020F3FD1FFF7A1FE401B43
:100740000228F5D903204DE14748036823F0F80358
:100750002169F82292FAA2F2B2FA82F201FA02F2C6
:1007600013430360D4E7434B00221A60FFF788FE6F
:1007700005463D4B1B6813F0020FC9D0FFF780FE02
:10078000401B0228F5D903202CE140F26D113848B6
:1007900000F0E4FAC3E7384B00221A60FFF770FE5E
:1007A0000546314B5B6F13F0020F06D0FFF768FE72
:1007B000401B0228F5D9032014E1236813F0040F2D
:1007C00060D0A368012B01D9052B1FD10023019311
:1007D000254B1A6C42F080521A641B6C03F0805354
:1007E0000193019B254A136843F480731360FFF75C
:1007F00047FE0546214B1B6813F4807F0CD1FFF7A1
:100800003FFE401B0228F5D90320EBE040F2971190
:10081000174800F0A3FAD9E7227A194B1A70A36897
:1008200083B1FFF72DFE05460F4B1B6F13F0020F30
:1008300028D1FFF725FE401B41F288339842F3D9B7
:100840000320CFE0FFF71CFE0546074B1B6F13F09C
:10085000020F17D0FFF714FE401B41F28833984275
:10086000F3D90320BEE000BF003802400238024046
:10087000CC4A000800004742800E4742007000400A
:1008800070380240A369022B39D8A369002B00F00D
:10089000A880564A926802F00C02082A00F0A48050
:1008A000022B40F08880E36913B1B3F5800F2CD19F
:1008B000236A3F2B2FD8636A323BB3F5BF7F30D812
:1008C000A36A022B05D0042B03D0062B01D0082BE2
:1008D0002DD1E36A043B0B2B2FD8454B00221A6025
:1008E000FFF7CEFD0546414B1B6813F0007F2AD071
:1008F000FFF7C6FD401B0228F5D9032072E04FF434
:10090000E6713C4800F02AFABFE740F2D5113948B9
:1009100000F024FACCE74FF4EB71364800F01EFAF1
:10092000C9E740F2D711334800F018FAC8E74FF48E
:10093000EC71304800F012FACBE740F2D9112D48A3
:1009400000F00CFAC9E7E369226A1343616A47F6CB
:10095000C07292FAA2F2B2FA82F201FA02F21343E0
:10096000A26A5208013A4FF4403191FAA1F1B1FA6A
:1009700081F18A401343E16A4FF0706292FAA2F269
:10098000B2FA82F201FA02F21343184A5360184B8A
:1009900001221A60FFF774FD0446144B1B6813F024
:1009A000007F06D1FFF76CFD001B0228F5D903205C
:1009B00018E0002016E00E4B00221A60FFF760FDE1
:1009C00004460A4B1B6813F0007F06D0FFF758FD62
:1009D000001B0228F5D9032004E0002002E00120DA
:1009E00000E0002003B030BD0120FBE700380240EA
:1009F00060004742CC4A0008214B9B6803F00C037F
:100A0000042B3AD0082B01D01E4870471C4B586865
:100A100000F03F005B6813F4800F1ED01A4AB2FB4F
:100A2000F0F2174B586847F6C073184093FAA3F3D7
:100A3000B3FA83F3D84000FB02F0114B5B6803F478
:100A400040334FF4403292FAA2F2B2FA82F2D3402B
:100A500001335B00B0FBF3F070470A4AB2FBF0F2DF
:100A6000074B586847F6C073184093FAA3F3B3FADC
:100A700083F3D84000FB02F0DFE70348704700BF74
:100A8000003802400024F40040787D0170B504462F
:100A90000D460368013B0E2B11D8072D15D88C4B42
:100AA0001B6803F00F03AB4215D2EBB2884A1370F8
:100AB000136803F00F03AB420DD0012070BD40F26C
:100AC0003721844800F04AF9E7E74FF40E71814876
:100AD00000F044F9E3E7236813F0020F18D0A3688D
:100AE0007BB1802B0DD0902B0BD0A02B09D0B02B3D
:100AF00007D0C02B05D0D02B03D0E02B01D0F02B9A
:100B000037D1754A936823F0F003A1680B439360D3
:100B1000236813F0010F73D06368032B2FD8636829
:100B2000012B32D09A1E012A36D96B4A126812F074
:100B3000020F00F0CA8068498A6822F0030213435A
:100B40008B60FFF79DFC06466368012B2BD0022BC0
:100B500038D0032B45D0604B9B6813F00C0F4FD05F
:100B6000FFF78EFC801B41F288339842F3D90320B3
:100B7000A4E740F24F21574800F0F0F8C1E740F2F7
:100B80005621544800F0EAF8C9E7534A126812F4B3
:100B9000003FD0D1012091E74F4A126812F0007F48
:100BA000C9D101208AE74C4B9B6803F00C03042B4E
:100BB00026D0FFF765FC801B41F288339842F2D9BA
:100BC00003207BE7444B9B6803F00C03082B17D0F2
:100BD000FFF756FC801B41F288339842F2D903207C
:100BE0006CE73D4B9B6803F00C030C2B08D0FFF720
:100BF00047FC801B41F288339842F2D903205DE71D
:100C0000334B1B6803F00F03AB4209D9EAB2304BF8
:100C10001A701B6803F00F03AB4201D001204DE7AF
:100C2000236813F0040F14D0E3685BB1B3F5805F61
:100C300008D0B3F5A05F05D0B3F5C05F02D0B3F51F
:100C4000E05F36D1244A936823F4E053E1680B4314
:100C50009360236813F0080F15D023695BB1B3F5D7
:100C6000805F08D0B3F5A05F05D0B3F5C05F02D0B8
:100C7000B3F5E05F23D1184A936823F460432169F8
:100C800043EAC1039360FFF7B7FE134B9B6803F081
:100C9000F003F02292FAA2F2B2FA82F2D3400F4AA3
:100CA000D35CD8400E4B18600F20FFF7B9FB002033
:100CB00004E74FF42D71074800F050F8C2E740F206
:100CC000BB21044800F04AF8D5E70120F6E600BF52
:100CD000003C0240CC4A000800380240BC4A0008F0
:100CE0000C000020014B1868704700BF0C0000206A
:100CF000FEE7000008B5034800F052F80120FFF7B6
:100D0000F7FF00BFFC4A000808B503460C4A12680A
:100D10005AB10B4A1068033323F003030344094A12
:100D2000934206D8064A136008BD054A0649116079
:100D3000EFE703F0CBF90C2303604FF0FF30F3E74C
:100D4000C800002000FC0020B83A00200123036006
:100D5000014B0B60704700BF0400002008B50A4635
:100D60000146024800F004F8FFF7C4FF104B0008EA
:100D70000FB400B583B004AB53F8042B019380216A
:100D8000064803F039FA002803DD0146034800F065
:100D900047F803B05DF804EB04B07047D0000020C2
:100DA00010B5044603F0F4F90146204600F038F887
:100DB0000121024800F034F810BD00BFD44B0008F8
:100DC0002DE9F04385B004460F4643560BB10E465D
:100DD0001EE0042528462146ABBE0446384605B031
:100DE000BDE8F08314F9011B04AA1A4402F8101C90
:100DF0000133AB42F6D304AA1344002203F8102CAB
:100E00004FF00408E94640464946ABBE8046761B93
:100E1000002EE3D03546102E28BF10250023E8E72A
:100E200008B5FFF7CDFF08BD08B500F093F8024AFA
:100E3000024B9A6008BD00BF0000000800ED00E012
:100E4000F8B504460D4617461E462748FFF790FFA3
:100E500021682648FFF78CFF61682548FFF788FF67
:100E6000A1682448FFF784FFE1682348FFF780FF6B
:100E700021692248FFF77CFF61692148FFF778FF6D
:100E8000A1692048FFF774FFE1691F48FFF770FF71
:100E90001E48FFF76DFF29461D48FFF769FF1D4CEF
:100EA000E16A1D48FFF764FF216B1C48FFF760FFF4
:100EB000E16B1B48FFF75CFF15F0800F0AD115F4BA
:100EC000004F0CD11748FFF753FF06991648FFF75C
:100ED0004FFFF8BD39461548FFF74AFFEFE73146A7
:100EE0001348FFF745FFEDE73C4B00084C4B00086B
:100EF0005C4B00086C4B00087C4B00088C4B0008D6
:100F00009C4B0008AC4B0008BC4B0008CC4B0008C5
:100F1000D84B000800ED00E0E84B0008F84B000853
:100F2000084C0008384C0008404C0008184C0008D9
:100F3000284C000883691A888A4201D00020704733
:100F40000268033A012A03D8023383610120704703
:100F5000002070470C4B1A6842F001021A60002111
:100F600099601A6822F0847222F480321A60074A6B
:100F70005A601A6822F480221A60D960044B4FF03C
:100F800000629A60704700BF0038024010300024B1
:100F900000ED00E0224B9B6803F00C03042B14D0FF
:100FA000082B16D01BB11F4B1F4A1A6002E01D4BC5
:100FB0001D4A1A601A4B9B68C3F303131B4AD15C8A
:100FC000184A1368CB4013607047164B184A1A60D2
:100FD000F0E7134B5A685B6803F03F0312F4800F8D
:100FE00013D0134AB2FBF3F20D4B5B68C3F38813C3
:100FF00003FB02F30A4A5268C2F301420132520073
:10100000B3FBF2F3074A1360D4E7074AB2FBF3F2EB
:10101000034B5B68C3F3881303FB02F3EAE700BFEB
:10102000003802400C0000200024F400844C00082A
:1010300040787D0110B586B00021084600F02AFDF9
:101040000821032000F026FD00248DF810408DF8C3
:10105000114003238DF812308DF813408DF81440A1
:101060008DF81540ADF8164004A801F073F802940D
:101070008DF80C4002A801F065F9064B1B68ADF82D
:1010800004301B0C8DF8063001A801F09BF906B066
:1010900010BD00BF944C000800B583B0114B1B6815
:1010A000ADF804301B0C8DF8063001A801F0A2F950
:1010B00040F63443984206D840F6C323984204D8F9
:1010C00040F6C42001E040F63440A0F6C42064237A
:1010D00003FB00F0044BA3FB0030C0F3072003B078
:1010E0005DF804FB944C0008C94216B270B58AB092
:1010F0000021084600F0CEFC1C4C08AB94E803002D
:1011000083E8030006AD04F1080292E8030085E8D5
:101110000300184601F01EF8284601F01BF80025D0
:10112000ADF814508DF8165005A800F0E7FD03AB9C
:1011300004F1100292E8030083E8030001AE1834C2
:1011400094E8030086E80300184601F003F83046EF
:1011500001F000F8009502E0009B01330093009A33
:1011600042F20F739A42F7DD0AB070BD984C000846
:1011700010B5044600220621104600F059FF002257
:101180000A21104600F054FF2146012000F010FE15
:101190002146022000F00CFE10BD10B504460122CD
:1011A0000621002000F044FF01220A21002000F067
:1011B0003FFF2146012000F0FBFD2146022000F008
:1011C000F7FD10BD08B50021012000F0F1FD002160
:1011D000022000F0EDFD08BD10B5044600220621F6
:1011E000104600F025FF2146012000F0E1FD10BD72
:1011F00010B5044601220621002000F019FF214607
:10120000012000F0D5FD10BD10B5044600220A21D2
:10121000104600F00DFF2146022000F0C9FD10BD70
:1012200010B5044601220A21002000F001FF2146EA
:10123000022000F0BDFD10BD20B400FB01F5B2FBA3
:10124000F5F0186005FB102000FB01F0B0FBF5F095
:10125000C0B2082902D0187120BC704700F0070006
:10126000F9E70000002800F0F98070B582B004466C
:10127000C27A0AB90222C272227B0AB902222273FE
:10128000627B0AB903226273A27A0AB90122A272AE
:10129000227A0AB901222272627A0AB902226272A1
:1012A0002278704E06FB02F6627832B1012A1BD01A
:1012B000022A40F0D5806C4D00E06C4D012A19D017
:1012C000A2B1022A1AD0EB6843F40053EB60237AF0
:1012D000012B17D0022B1AD0637A013B032B21D8A4
:1012E000DFE803F0581A464F614DE7E7252000F08C
:1012F00085FDE8E7262000F081FDE4E7472000F0C7
:101300007DFDE0E7EB6823F48053EB60E4E7EB68F6
:1013100043F48053EB60DFE72B6923F440532B61E8
:101320002B692B61A37A022B42D0032B49D0012BCE
:1013300039D0E37A012B4DD0022B51D1EB6823F445
:101340000043EB601021237B012B4BD0022B4ED0AE
:10135000637B022B59D0032B60D0012B4CD06378D8
:10136000002B64D0012B77D0022B65D13E4A5FE081
:101370002B6923F440532B612B6943F440532B61B9
:10138000D0E72B6923F440532B612B6943F40053BE
:101390002B61C7E72B6923F440532B612B6943F47E
:1013A00080532B61BEE7EB6823F48063EB60C0E7FA
:1013B000EB6843F48063EB60EB6823F40073EB604D
:1013C000B7E7EB6843F48063EB60EB6843F40073CA
:1013D000EB60AEE7EB6843F40043EB600821B2E753
:1013E0001021B0E76B6943F400636B61B0E76B6990
:1013F00023F400636B61ABE7EB6843F00803EB6039
:10140000EB6823F00403EB60A9E7EB6843F0040307
:10141000EB60EB6823F00803EB60A0E7EB6843F0B8
:101420000803EB60EB6843F00403EB6097E70F4AB7
:10143000D36843F02003D3606B4632466068FFF701
:10144000FBFE9DF8043003F00F03009A43EA0213F9
:10145000AB60002002B070BD054AE9E7012070478B
:101460000220F7E740420F00001401400010014045
:101470000044004002285FD800295FD070B5830285
:1014800003449C002F4A224402F580531B78013309
:101490005C42C4F30A0458BF63421D469BB241F24A
:1014A0000104125D9A424BD00E46044601281ED01C
:1014B000C8B102281FD0234AA1020819830013448F
:1014C00003F580500078C0B21E54EBB2214488006E
:1014D000024402F5805213708CB1012C1BD0022CF7
:1014E00012D1194A0CE0252000F09AFCE3E72620EF
:1014F00000F096FCDFE7472000F092FCDBE7134AA0
:10150000D36843F08003D360012C0BD02CB1022CA4
:101510000DD0002015E00E4AF2E7252000F06EFC09
:1015200000200EE0262000F069FC002009E04720A2
:1015300000F064FC002004E00220704700207047A7
:10154000052070BD50010020001401400010014032
:101550000044004038B505460C46217851B10134AD
:101560002846FFF787FF03460028F6D00528F4D069
:10157000184638BD0023FBE7F0B401280ED018B19F
:10158000022809D002206DE0374C48B1012827D04D
:1015900002281ED1354B04E0344CF6E7344CF4E716
:1015A000314B1B6813F0200F13D065688202024490
:1015B0009100304B0B4441F20202995CEDB21944A8
:1015C00081F80058995C0131C9B29954995CC9B24B
:1015D000995448B1012832D0022803D0002041E0BC
:1015E000234BDEE7214B00E01F4B1B6813F0800FFD
:1015F00037D08202024491001E4B0B4403F5805207
:101600001278D2B241F201015B5CDBB29A4218D08F
:10161000184D820211188B002B4441F201015E5CCF
:10162000F6B2771CFFB25F549E5DF6B266605B5CFB
:10163000DBB21044820015446B54002012E00C4BC6
:10164000D3E728B101280AD0022806D1074A00E0D2
:10165000054AD36823F08003D360002002E0044AE7
:10166000F7E70020F0BC7047001001400014014073
:10167000004400405001002008B50020FFF77CFF27
:1016800008BD08B50120FFF777FF08BD08B50220A7
:10169000FFF772FF08BD0000114A136823F0010331
:1016A00013600378012B0AD00D4A136823F002035C
:1016B00013604378012B07D0022B0BD070471368BF
:1016C00043F002031360F4E7054A136843F0040390
:1016D00013607047024A136823F004031360EDE7B8
:1016E00010E000E0044B586000229A601A6842F053
:1016F00001021A60704700BF10E000E0024A136860
:1017000023F001031360704710E000E008B540F6D5
:10171000354303FB00F0094B00229A60421E084B40
:101720009A4200D908BDFFF7DDFF044B1B6813F494
:10173000803FFAD0FFF7E2FFF4E700BF10E000E0DF
:10174000FDFFFF00024B58689B68C01A704700BF3E
:1017500010E000E008B50A4B01221A7040F635434C
:1017600003FB00F0074B1960074B00229A60421EF2
:10177000064B9A4200D908BDFFF7B4FFFBE700BF54
:101780005C3100206031002010E000E0FDFFFF0030
:1017900008B50022084B1A7040F6354303FB00F0F1
:1017A000064B1960064B9A60421E064B9A4200D9BE
:1017B00008BDFFF797FFFBE75C3100206031002098
:1017C00010E000E0FDFFFF0008B5064B1B6803B109
:1017D0009847054B1B78012B00D008BDFFF78EFF03
:1017E000FBE700BF603100205C31002030B483088B
:1017F00000F003008000094A023352F823400F250D
:10180000854024EA050442F8234052F823408140F1
:10181000214342F8231030BC704700BF003801401C
:10182000036843F400730360036843F48073036048
:10183000036823F400630360036823F080030360FC
:10184000036823F038030360036843F02803036050
:10185000036843F004030360036823F0020303609A
:10186000036823F001030360036843F0400303604F
:10187000704700000F4B00E01346826812F0020F21
:1018800003D15A1E002BF7D113467BB1C160094B1F
:1018900000E01346826812F0010F03D15A1E002B9C
:1018A000F7D1134623B1C068C0B27047FF2070471C
:1018B000FF207047A0860100F8B507460E46154682
:1018C000002404E0315D3846FFF7D4FF0134AC4218
:1018D000F8D3F8BD00F00F02030903EB83035800AF
:1018E0001044C0B270470000394B1A6C42F080526D
:1018F0001A6438490A6842F480720A601A6F42F426
:1019000080321A671A6F22F480321A671A6F42F017
:1019100001021A67304B00E013462D4A126F12F095
:10192000020F02D15A1E002BF6D1294B1B6F13F068
:10193000020F3ED1264A536F43F001035367244BF5
:101940005B6F13F0020FFAD0214B1A6F22F4407232
:101950001A671A6F42F400721A671D4A136F43F434
:10196000004313671D4BCA225A6253225A62DA6837
:1019700042F08002DA60194BDB6813F0400FFAD0B6
:10198000134B1B6F13F0020F1DD0144B144A1A6136
:10199000124BDA6822F08002DA60FF225A62DA68BB
:1019A00022F02002DA600D4BDB6813F0200FFAD032
:1019B0007047074B1A6F22F440721A671A6F42F48D
:1019C00080721A67C9E7054B064A1A61E0E700BF53
:1019D000003802400070004040420F0000280040E4
:1019E000FF007F00F9007F0070B50446124B1E68AF
:1019F0005D68C6F30540FFF76DFF2070C6F3062053
:101A0000FFF768FF607006F07F00FFF763FFA070CC
:101A1000C5F30740FFF75EFF2071C5F30420FFF711
:101A200059FF607105F03F00FFF754FFA071C5F347
:101A30004235E571204670BD0028004038B50446A7
:101A40000D46FFF7D1FF21782944172900DD183909
:101A5000002902DB2170204638BD1831FAE700006A
:101A60000B4B1A6842F480221A601A6842F48032E2
:101A70001A60074B1B6813F4003FFAD0044B9A68B6
:101A800022F002029A609A6842F001029A6070475E
:101A900000380240032800F22181DFE810F0040042
:101AA0005D006600D000162912D8DFE801F00C199D
:101AB0001F252B31373D1111111143111111111136
:101AC000111111494F00864A136B43F00103136350
:101AD0008348036B012202FA01F119430163704745
:101AE0007F4A136B43F002031363F1E77C4A136BE5
:101AF00043F004031363EBE7794A136B43F00803E5
:101B00001363E5E7764A136B43F010031363DFE7D3
:101B1000734A136B43F020031363D9E7704A136BC6
:101B200043F040031363D3E76D4A136B43F0800324
:101B30001363CDE76A4A136B43F480531363C7E71B
:101B4000674A136B43F400131363C1E7644A136BD2
:101B500043F480031363BBE7072940F0BF80604A6A
:101B6000536B43F08003536370471C2900F2B68027
:101B7000DFE811F01D00230029002F00B400B4009D
:101B8000B400B400B400B400B4003500B400B40034
:101B90003B004100B4004700B400B400B4004D0065
:101BA00053005900B400B400B400B4005F004C4AC4
:101BB000136C43F0010313647047494A136C43F0FC
:101BC000020313647047464A136C43F00403136422
:101BD0007047434A136C43F0080313647047404A4C
:101BE000136C43F40063136470473D4A136C43F471
:101BF0008043136470473A4A136C43F40043136400
:101C00007047374A136C43F4003313647047344A07
:101C1000136C43F4001313647047314A136C43F49C
:101C20008003136470472E4A136C43F4000313645B
:101C300070472B4A136C43F080531364704712298A
:101C40004CD8DFE801F00A4B4B4B10164B4B1C4BAA
:101C50004B22282E344B3A404600214A536C43F025
:101C60000103536470471E4A536C43F010035364DE
:101C700070471B4A536C43F0200353647047184A63
:101C8000536C43F4807353647047154A536C43F4A8
:101C9000006353647047124A536C43F48053536497
:101CA00070470F4A536C43F40053536470470C4A17
:101CB000536C43F4804353647047094A536C43F4B4
:101CC000803353647047064A536C43F400335364C3
:101CD0007047034A536C43F480235364704700BF3A
:101CE00000380240044B9A6822F0F0029A609A6829
:101CF00042EA0010986070470038024010B5044670
:101D000000210320FFF7C6FE274A1823936240F202
:101D1000E733D362A17803FB01F32449A1FB03134A
:101D20005B0953639363D3631364916921F4E041C6
:101D300021F07001D36923F4E04323F0700340F6EF
:101D40000800014391610343D36122784AB1012A1B
:101D500022D0154A46F26000014391610343D361EA
:101D600006E0114A46F26000014391610343D361EA
:101D70000D4B1A6A42F4885242F011021A625A6CF0
:101D800042F400425A641A68596941F001015961EC
:101D900042F081021A6010BD034A47F2700001430D
:101DA00091610343D361E3E7000001401F85EB51DC
:101DB000642900D9642140F2E73303FB01F10D4BA4
:101DC000A3FB013149090138032812D8DFE800F0EC
:101DD00002060A0E89B2084B5963704789B2064B56
:101DE0009963704789B2044BD963704789B2024B3B
:101DF000196470471F85EB510000014010B444097D
:101E0000064951F8243000F01F00012202FA00F0C8
:101E1000184341F8240010BC704700BF00E100E007
:101E200010B44309074C203354F8232000F01F005E
:101E3000012101FA00F022EA000044F8230010BC5E
:101E4000704700BF00E100E010B4044620B9A1F1E2
:101E50000D03DBB2022B24D9012C07D0072C20D88C
:101E6000DFE804F009130B0D0F1F1F11CB1EDBB2AF
:101E7000012BF3D815E00C4C08E00C4C06E00C4CA0
:101E800004E00C4C02E00C4C00E00C4C4900032335
:101E900003FA01F0236823EA000302FA01F119436F
:101EA000216010BC704700BF0000024000080240E3
:101EB000000C024000100240001C024000040240DE
:101EC000034620B9A1F10D00C0B202281CD9012B94
:101ED00007D0072B18D8DFE803F009130B0D0F17F5
:101EE0001711C81EC0B20128F3D80DE00E4B08E050
:101EF0000E4B06E00E4B04E00E4B02E00E4B00E0F2
:101F00000E4B12B1012A08D07047012202FA01F1EA
:101F10005A6822EA01025A60704702FA01F15A68CF
:101F20000A435A60F0E700BF000002400008024088
:101F3000000C024000100240001C0240000402405D
:101F400010B4044620B9A1F10D03DBB2022B24D951
:101F5000012C07D0072C20D8DFE804F009130B0D63
:101F60000F1F1F11CB1EDBB2012BF3D815E00C4C59
:101F700008E00C4C06E00C4C04E00C4C02E00C4C6D
:101F800000E00C4C4900032303FA01F0A36823EAA4
:101F9000000302FA01F11943A16010BC704700BFB1
:101FA0000000024000080240000C02400010024005
:101FB000001C02400004024010B4044620B9A1F104
:101FC0000D03DBB2022B24D9012C07D0072C20D81B
:101FD000DFE804F009130B0D0F1F1F11CB1EDBB23E
:101FE000012BF3D815E00C4C08E00C4C06E00C4C2F
:101FF00004E00C4C02E00C4C00E00C4C49000323C4
:1020000003FA01F0E36823EA000302FA01F119433D
:10201000E16010BC704700BF0000024000080240B1
:10202000000C024000100240001C0240000402406C
:10203000034620B9A1F10D00C0B2022822D9012B1C
:1020400007D0072B1ED8DFE803F009130B0D0F1D77
:102050001D11C81EC0B20128F3D813E00D4B08E0D3
:102060000D4B06E00D4B04E00D4B02E00D4B00E084
:102070000D4B012A07D0012202FA01F15A6922EA26
:1020800001025A61704702FA01F15A690A435A6122
:10209000704700BF0000024000080240000C0240F0
:1020A00000100240001C024000040240034620B918
:1020B000A1F10D00C0B202280DD9012B07D0072BCA
:1020C00009D8DFE803F009130B0D0F080811C81E2B
:1020D000C0B20128F3D87047184808E0184806E055
:1020E000184804E0184802E0184800E0184810B406
:1020F000072913D9A1F10803DBB2072B1BD8083934
:1021000089000F2303FA01F4436A23EA040302F06F
:102110000F0202FA01F1194341620CE089000F231A
:1021200003FA01F4036A23EA040302F00F0202FA3D
:1021300001F11943016210BC704700BF000002406A
:1021400000080240000C024000100240001C024047
:102150000004024010B50446827841780078FFF709
:1021600073FEE27861782078FFF7AAFE2279617821
:102170002078FFF7E5FE627961782078FFF71CFF91
:10218000A378022B00D010BDA27961782078FFF7E8
:102190008DFFF8E7024B4FF0FF325A61704700BFE6
:1021A000003C01400F2828D810B4144A13680124B9
:1021B00004FA00F003431360A1420DD019B10229C3
:1021C00013D010BC70470D4B9A6802439A60DA68CE
:1021D00022EA0000D860F4E7084B9A6822EA00027D
:1021E0009A60DA681043D860EBE7044B9A680243C0
:1021F0009A60DA681043D860E3E77047003C01401A
:102200000F2902D8014B43F82100704764310020A8
:1022100008B5054B1B6803B19847044A536943F05E
:102220000103536108BD00BF64310020003C014040
:1022300008B5054B5B6803B19847044A536943F0FE
:102240000203536108BD00BF64310020003C01401F
:1022500008B5054B1B6903B19847044A536943F01D
:102260001003536108BD00BF64310020003C0140F1
:1022700010B4092812D90F281ED8104AD468A0F12A
:102280000A0303EB43030720984024EA0000D060D0
:10229000D46801FA03F02043D0600DE0074B1A69BF
:1022A00000EB40000724844022EA04021A611A6904
:1022B00001FA00F01043186110BC70470020014083
:1022C00010B4431EDBB2052B18D9C31FDBB2052B9C
:1022D00025D9A0F10D03DBB2032B1ED8184BDA6A07
:1022E0000D3800EB80001F24844022EA0402DA62E9
:1022F000DA6A01FA00F01043D8620EE0104B5A6B14
:10230000013800EB80001F24844022EA04025A6353
:102310005A6B01FA00F01043586310BC7047084A2A
:10232000146BC31F03EB83031F20984024EA0000B3
:102330001063146B01FA03F020431063EDE700BF54
:102340000020014010B50446FFF78AFB0821032056
:10235000FFF7A0FB1A4B5A6822F040725A605A6885
:10236000217842EA01625A606378012B1BD0144A3B
:10237000936823F002039360114B9A6822F0706215
:102380009A609A68A17842EA01629A60237983B1DF
:102390000B4A936843F400639360094A936843F0DF
:1023A0000103936010BD064A936843F002039360F3
:1023B000E2E7034A936823F400639360EDE700BF0C
:1023C0000020014010B5044641780078FFF750FF27
:1023D0002178A078FFF774FF054BDA6A22F47002C7
:1023E000DA62DA6AA178013942EA0152DA6210BD92
:1023F0000020014030B583B0044605784178284676
:10240000FFF736FF2946A078FFF75AFF084A93687E
:1024100043F080439360064B1B6813F0020FFAD021
:10242000034BD86C1B68019380B203B030BD00BF72
:102430000020014070470000F8B507460D46FFF741
:1024400081F9064600220D210120FFF7F1FD00244D
:10245000AC4213D2FFF776F9801B642807D801221B
:1024600039190A48FFF728FA0134A4B2F0E701222B
:102470000D211046FFF7DCFD002005E001220D21B3
:102480001046FFF7D5FD0120F8BD00BF0030014028
:1024900070B582B001258DF800500E238DF8013003
:1024A0008DF8025000248DF8034002268DF8046058
:1024B0008DF805406846FFF74DFE0F238DF801307B
:1024C0006846FFF747FE8DF800500D238DF8013068
:1024D0006846FFF73FFE8DF8004005258DF8015056
:1024E0008DF802606846FFF735FE2A4629462046E9
:1024F000FFF7DCFD07268DF801606846FFF72AFE2E
:102500002A4631462046FFF7D1FD02B070BD08B51E
:1025100000220E210120FFF78BFD6420FFF7F6F863
:1025200001220E211046FFF783FDC820FFF7EEF8C9
:1025300008BD10B582B002AC04F8010D00220F21D5
:102540000120FFF775FD01212046FFF775FF02B05E
:1025500010BD10B582B002AC04F8010D01220F21AC
:102560001046FFF765FD01212046FFF765FF02B029
:1025700010BD30B583B0FFF75DFFC0F30725C4B2CF
:1025800001220F211046FFF753FD8DF804508DF8FE
:102590000540022101A8FFF74FFF03B030BDF8B599
:1025A00007460D4616461C462A20FFF7C2FF380A8A
:1025B000FFF7CFFFF8B2FFF7CCFF300AFFF7C9FFF4
:1025C000F0B2FFF7C6FF2B20FFF7B3FF280AFFF793
:1025D000C0FFE8B2FFF7BDFF200AFFF7BAFFE0B285
:1025E000FFF7B7FF2C20FFF7A4FFF8BD30B5A1B06F
:1025F00004467F239F2200210846FFF7D0FF204694
:10260000FFF718FF002306E020AA02EB430222F89E
:10261000800C01339BB23F2BF6D901220F211046CB
:10262000FFF706FD00220D210120FFF701FD4FF409
:10263000A04409E02546402C28BF40256A00694691
:102640000648FFF739F9641B002CF3D101220D2154
:102650001046FFF7EDFC21B030BD00BF0030014057
:10266000F0B5A1B005460C4617461E46904201D86B
:1026700007461546B44202D8334626461C46234632
:102680002A4631463846FFF78AFFED1BA41B01346A
:1026900005FB0444BDF89800FFF7CCFE002306E0DC
:1026A00020AA02EB430222F8800C01339BB23F2B9D
:1026B000F6D901220F211046FFF7BAFC00220D21A6
:1026C0000120FFF7B5FC09E02546402C28BF402536
:1026D0006A0069460648FFF7EFF8641B002CF3D147
:1026E00001220D211046FFF7A3FC21B0F0BD00BF71
:1026F0000030014010B504463620FFF71AFF032CC6
:1027000006D8DFE804F002060A0EC020FFF721FF1A
:1027100010BDA020FFF71DFFFAE70020FFF719FF0B
:10272000F6E76020FFF715FFF2E708B5FFF7B0FE08
:10273000FFF7EDFE0120FFF7FCFE9620FEF7E6FF17
:102740001120FFF7F6FE9620FEF7E0FF3A20FFF794
:10275000F0FE5520FFF7FDFE3620FFF7EAFEC82009
:10276000FFF7F7FE2920FFF7E4FE3220FEF7CEFF49
:102770000020FFF73BFF08BD9F2801D87F2900D923
:10278000704710B514460B460246FFF708FF204677
:10279000FFF7EFFE10BD2DE9F04F83B004460D4664
:1027A00091460193BDF830300093824223D9A2EBC9
:1027B0000008A14522D94FF0010A019BAB4220D964
:1027C000EF1A019BAB421FD94FF0010B08EB070634
:1027D000009A29462046FFF7CFFF4C4517D07300DB
:1027E0009F4202DC3E445444A4B29845F0DB464488
:1027F0005D44ADB2ECE7A0EB0208DAE74FF0FF3A38
:10280000DBE7019B5F1BDCE74FF0FF3BDEE7019B53
:102810009D42E4D103B0BDE8F08F2DE9F04182B0D4
:1028200080460F4616461C46BDF8205000950B46C4
:10283000FFF7B1FF00952346324621464046FFF799
:10284000AAFF00952346424639464046FFF7A3FFBC
:1028500000952346324639463046FFF79CFF02B0CA
:10286000BDE8F0812DE9F04F83B0BDF83090A2F1C2
:102870002004E4B25E2C2CD8019388460746A2F1CE
:10288000200A9DF835B00BFB0AFA002518E04A46ED
:10289000FFF772FF0134E4B29DF83430A3420DD942
:1028A000381980B208EB050189B2013B1B1B46FABF
:1028B00003F313F0010FEAD0019AE9E70135EDB215
:1028C000AB4506D905EB0A030E9A32F813600024D3
:1028D000E2E703B0BDE8F08F2DE9F04184B0054692
:1028E000884614461F46BDF828600FE001AB0BA9CF
:1028F00003C983E8030000963B4641462846FFF79C
:10290000B1FF9DF82C00284485B2013494F90020D1
:10291000002AEBD104B0BDE8F0810000F0B585B02D
:10292000114C2478052C01D005B0F0BD0E460546AB
:10293000C2EB021202F12804A4B200270097372349
:10294000C82221460A20FFF78BFE084A01AB92E815
:10295000030083E80300009733462A4621460A20F5
:10296000FFF7BAFFE0E700BFA5310020100000200C
:10297000F8B507460E462A20FFF7DBFD0020FFF7DB
:10298000E8FD0020FFF7E5FD0020FFF7E2FD9F20B6
:10299000FFF7DFFD2B20FFF7CCFD0020FFF7D9FD6F
:1029A0000020FFF7D6FD0020FFF7D3FD7F20FFF7C3
:1029B000D0FD2C20FFF7BDFD00240AE037F81400FD
:1029C000C5B2000AFFF7C5FD2846FFF7C2FD013476
:1029D000A4B2B442F2D3F8BDF0B583B006460C46BB
:1029E000154602F1140301F128024FF6FF77009714
:1029F0009BB292B229462046FFF70FFF05F10F0365
:102A000004F12C02691D04F1290000979BB292B2D7
:102A100089B280B2FFF724FE132E04D9312E0ED8CE
:102A20004FF6E07701E04FF4784706EBC606B300B7
:102A30000C4A82FB03235B0904D103B0F0BD4FF4C1
:102A4000FC67F2E723449AB205F112030232A91C93
:102A5000A01C00979BB292B289B280B2FFF700FE31
:102A6000EBE700BF1F85EB51014B1860704700BFBB
:102A7000A8310020014B1868704700BFA831002022
:102A8000014B1870704700BFAC310020014B187823
:102A9000704700BFA531002070B584B00025104BF1
:102AA0001D702846FFF7A2FD0E4E304601F070FB68
:102AB0000D4B1C7804FB00F4C4F34F04C4F1500424
:102AC00001AA93E8030082E8030000954FF47843DD
:102AD00032463221A0B2FFF7FFFE04B070BD00BF46
:102AE000A5310020044D00081000002070B58AB008
:102AF000FEF7A0FA174B02221A700020FFF776FDAE
:102B0000154D01AC95E8030084E80300002600960B
:102B100040F2FF73114A14211E20FFF7DDFEFEF77D
:102B2000BBFA3C222821FFF757FFFEF7B5FA024611
:102B30000B4905A801F00CFB95E8030084E80300AD
:102B400000964FF4FC6305AA3C215A20FFF7C4FE0F
:102B50000AB070BDA531002010000020B84C00085C
:102B6000C04C00082DE9F04184B0284B03221A70B4
:102B70000020FFF73BFD264A01AB92E8030083E803
:102B80000300002300934FF6E073224A142128200B
:102B9000FFF7A2FE204B1B78ABB3DFF880804046E6
:102BA00001F0F6FA1A4D2C7804FB00F4C4F34F043C
:102BB000C4F1500401AE95E8030086E80300002745
:102BC00000974FF4FC6342463C21A0B2FFF784FE1D
:102BD000DFF84C80404601F0DBFA2C7804FB00F46F
:102BE000C4F34F04C4F1500495E8030086E80300E1
:102BF00000974FF4FC6342466421A0B2FFF76CFEDD
:102C000004B0BDE8F081DFF81C80C8E7A5310020E2
:102C100010000020444D0008A43100203C4D000865
:102C20004C4D0008344D000810B58CB03F4B0422C9
:102C30001A700020FFF7DAFC3D4A01AB92E803006E
:102C400083E803000023009340F2FF73394A142104
:102C50001E20FFF741FE384B1C680021204601F082
:102C6000DBF9A8B93549204601F0B8F900284CD065
:102C70002F4A01AB92E8030083E80300002300938E
:102C80004FF6E0732E4A3C210A20FFF725FE1CE098
:102C9000204600F0A9FE02460B462A4904A801F08E
:102CA00057FA2949244B186801F0A2F950B34FF4A0
:102CB00078431F4901AA03C982E803000022009259
:102CC00004AA3C210A20FFF707FE1B4B1C681E4983
:102CD000204601F08DF998B10021204601F09CF9C1
:102CE00070B1134A01AB92E8030083E803000023AC
:102CF00000934FF47843154A5A210A20FFF7ECFD60
:102D00000CB010BD4FF4FC63D3E7094A01AB92E865
:102D1000030083E80300002300934FF478430C4A38
:102D20003C210A20FFF7D8FDCFE700BFA5310020E6
:102D300010000020804D0008A8310020000080BF56
:102D4000A04D00088C4D000800002041C44D000833
:102D5000B44D000800B585B0134B05221A70002051
:102D6000FFF744FC114A01AB92E8030083E803003B
:102D70000023009340F2FF730D4A14211E20FFF739
:102D8000ABFD0C4B1B7843B901224FF478410A4844
:102D9000FFF7C4FD05B05DF804FB01224FF4FC61B0
:102DA0000648FFF7BBFDF5E7A53100201000002025
:102DB000D04C0008AC310020F04C0008E04C00087A
:102DC00070B58EB0154B06221A700020FFF70EFC6E
:102DD000134E01AD96E8030085E80300002400943B
:102DE0004FF6E0730F4A0A211E20FFF775FD02948B
:102DF00001940094234622460B4904A801F0A8F947
:102E000096E8030085E8030000944FF6FF7304AAD8
:102E10003C211420FFF760FD0EB070BDA5310020ED
:102E200010000020104D0008204D0008F0B59DB0A6
:102E300007460C46224B07221A700020FFF7D6FBEC
:102E40002246204917A801F083F91F4D01AC95E8EF
:102E5000030084E80300002600964FF4FC6317AAE1
:102E600005210846FFF738FD384600F0BDFD024653
:102E70000B4616490FA801F06BF995E8030084E8AA
:102E8000030000964FF6FF730FAA1E210520FFF7DF
:102E900023FD384601F0D4F802460D4905A801F09B
:102EA00057F995E8030084E8030000964FF6E073B5
:102EB00005AA3C210520FFF70FFD1DB0F0BD00BFA6
:102EC000A5310020584D000810000020644D000876
:102ED000704D000808B5074A1378B3FA83F35B090D
:102EE0001370054B1B78032B00D008BDFFF73AFE8B
:102EF000FBE700BFA4310020A53100201B4B1B784D
:102F0000012B00D0704730B58DB002210AA8FEF722
:102F100095FD9DF828209DF829309DF82A100091F4
:102F2000134905A801F014F9002500956423A02297
:102F30003C212846FFF794FB05A801F029F90D4B29
:102F40001C7804FB00F4C4F34F04C4F1500401AA3C
:102F500093E8030082E8030000954FF4FC6305AAA0
:102F60003C21A0B2FFF7B8FC0DB030BDA531002068
:102F7000DC4D00081000002000B585B00C4B01228C
:102F80001A700020FFF732FB0A4A01AB92E80300F7
:102F900083E80300002300934FF6E073064A1421F0
:102FA0002820FFF799FCFFF7A9FF05B05DF804FBA7
:102FB000A531002010000020C84C000808B5044BC3
:102FC0001B78022B00D008BDFFF790FDFBE700BF88
:102FD000A531002008B5044B1B78042B00D008BD98
:102FE000FFF722FEFBE700BFA531002008B5072848
:102FF00020D8DFE800F004070A0D10131619FFF7B8
:103000004BFD08BDFFF7B8FFFBE7FFF76FFDF8E7E3
:10301000FFF7A8FDF5E7FFF707FEF2E7FFF79AFED7
:10302000EFE7FFF7CDFEECE74621044B1868FFF70A
:10303000FDFEE6E7FFF730FDE3E700BFA831002023
:10304000B42800D9B42040F2DC5303FB00F0800820
:10305000034BA3FB0030800800F5FA7080B2704784
:10306000176CC11610B500240AE0084B19782144EA
:103070000022C9B2064B1878FEF7DAFF0134E4B239
:10308000044B1B78A342F0D810BD00BFAE31002026
:10309000B0310020AF310020364B1B6813F0010F18
:1030A00066D010B5334A136823F001031360324A27
:1030B00013680A331360314A93422BD8304B1B8874
:1030C000002B33D02F4A13880A339BB213802C492C
:1030D0000A880A320A802C4A128893423CD2284B32
:1030E0001A882A4B1B889A421FD30023244A138034
:1030F000244A138026490B785A1C264B187892FBD9
:10310000F0F300FB1323DBB20B7073B91A4B0022F0
:103110001A600AE0FFF7A6FF0023174A1360184A57
:103120001380184A13801A4A137010BD184C1A4B9A
:103130001978237819440122C9B2184B1878FEF780
:1031400077FF2378164AD05CFFF77AFF0E4B188082
:103150000C4B00221A80B5E70F4B19780C4B1B78EB
:1031600019440022C9B20D4B1878FEF761FFB6E78B
:10317000704700BF10000040B43100209F8601005E
:10318000C0310020B2310020C4310020C231002003
:10319000AD310020AF310020AE310020B031002031
:1031A000B831002010B5002318460AE0A2F5FA62F3
:1031B000B2F5E17F03D201229A401043C0B201333D
:1031C000DBB2072B0ED803F11102104901EB82028A
:1031D0005268A2F57A71F929E8D801229A4020EACA
:1031E0000200ECE7094A907000231370537006E068
:1031F000064A02EB8302002151600133DBB2312B1E
:10320000F6D9034B1B6803B1984710BDC8310020A5
:103210009432002008B5144B1B78DBB1FEF792FA0C
:1032200000F0F0FC114900F0F9FD00F02FFF0E4B0B
:103230005B78DBB2312B08D80B4B5A78D2B2511CD9
:10324000C9B2597003EB8203586009490420FEF7A4
:1032500081FA08BD044B01221A7000225A700449F9
:103260000F20FEF777FAF4E7C8310020000048404D
:10327000A531000870B584B0064600210846FEF767
:1032800009FC0E210320FEF705FC002402940394A0
:1032900004258DF8095002A8FEF75CFF8DF8044064
:1032A0008DF805400DEB0500FEF774FF012128465F
:1032B000FEF778FF29460948FEF7A2FF0A20FEF72D
:1032C0009DFD21462846FEF791FA054B1E60054BF1
:1032D0001C705C709C7004B070BD00BF153200089B
:1032E00094320020C831002010B592B0254C4FF424
:1032F00000620021204600F0EFFE234B1B68234AAA
:1033000012681192224A12681092224A12680F9291
:10331000214A12680E92214A12680D92204A1268C0
:103320000C92204A12680B921F4A12680A921F4A96
:10333000126809921E4A126808921E4A1268079281
:103340001D4A126806921D4A126805921C4A1268AC
:1033500004921C4A126803921B4A126802921B4A8A
:10336000126801921A4A126800921A4A4FF40061D8
:10337000204600F0B9FE21460220FEF7EBF812B01D
:1033800010BD00BFB43200201C000020440000200B
:103390003C000020480000204000002028000020C1
:1033A0002C0000209C32002038000020300000203B
:1033B00098320020340000205400002058000020E3
:1033C000500000204C0000202000002018000020A9
:1033D0002400002080DD000808B50738572830D8C1
:1033E000DFE800F05B40622F2F342F2F2F2F2F2F7D
:1033F0002F2F69302F386C2F2F442F2F2F2F2F2F47
:103400002F2F2F2F2F2F2F2F2F2F2F2F2F2F2F2FCC
:103410002F2F2F2F2F2F2F2F2F2F2F2F2F572F4E75
:103420002F2F2C542F2F2F2F2F2F2F2F2F2F2F2F8A
:103430002F2F2F2F2F2F2F482F2F2F3C0020FFF71C
:10344000D5FD08BD0120FFF7D1FDFAE70220FFF707
:10345000CDFDF6E70320FFF7C9FDF2E70420FFF7F3
:10346000C5FDEEE70520FFF7C1FDEAE70620FFF7FF
:10347000BDFDE6E7FFF7FEFA4621FFF7D7FCE0E7E0
:1034800044F2E0210F48FFF773FADAE7FFF722FD75
:10349000D7E72820FDF76CFED3E71E20FDF7A8FE36
:1034A0001E20FDF7B1FECCE71E20FDF795FE1E2085
:1034B000FDF7B6FEC5E7FDF785FEC2E72820FDF75C
:1034C0006CFEBEE7A8570008F0B58BB0FEF7C8FA4F
:1034D0000020FEF707FC00210846FEF7DBFA012179
:1034E0000020FEF7D7FA05210320FEF7D3FA0C21BE
:1034F0000320FEF7CFFAFDF7F9FD00240894ADF89C
:1035000024400B238DF8213002278DF822700326EA
:103510008DF824600825ADF8265008A8FEF71AFE9D
:103520000694ADF81C400C238DF819308DF81A70F4
:103530008DF81C60ADF81E5006A8FEF70BFE104D6E
:1035400002AE95E80F0086E80F003046FDF78AFED0
:103550002B8A0AA820F8243DFEF79EF8FEF798FF74
:103560000848FEF75DF9FFF7E0F80120FFF7C2F821
:10357000FEF7BAF92046FFF783FA0BB0F0BD00BFA3
:10358000945700080030014008B50D494FF47A7097
:10359000FEF7FEF80B494FF4FA60FEF7F9F80A4916
:1035A0004FF4FA70FEF7F4F808494FF49670FEF7FE
:1035B000EFF807494FF47A60FEF7EAF808BD00BF5C
:1035C00003360008F1350008DF350008D53500085E
:1035D000E932000808B50020FFF746FA08BD08B533
:1035E000FFF754FA042800D008BDFFF7F3FCFBE70F
:1035F00008B5FFF74BFA022800D008BDFFF7DEFC44
:10360000FBE708B5FFF742FA012800D008BDFFF735
:1036100075FCFBE700B585B0FFF756FFFFF7B4FF79
:103620001148FFF727FEFFF737FA002400945F23C5
:10363000C82250210A20FFF713F80C4A01AB92E888
:10364000030083E8030000944FF6E073084A50211A
:103650000A20FFF741F900945F23C82250210A2075
:10366000FEF7FEFFFEE700BFD93300081000002080
:1036700068DD000870B594B000240194204B1A6CEA
:1036800042F080521A641B6C03F080530193019B3B
:1036900002941C4B1A6842F440421A601B6803F4FF
:1036A00040430293029B0123089309934FF4800344
:1036B0000F93192310934FF4A873119304261296B5
:1036C0000723139302250E9508A8FCF777FF0F2315
:1036D0000393049505944FF4805306930794294669
:1036E00003A8FDF7D3F9FDF7FDFA074BA3FB003064
:1036F0008009FCF72FFF3046FCF742FF14B070BD85
:103700000038024000700040D34D621008B5FCF74D
:103710009DFEFFF7AFFFFDF73DFC08BD70470000C1
:1037200081F0004102E000BF83F0004330B54FEA72
:1037300041044FEA430594EA050F08BF90EA020FDF
:103740001FBF54EA000C55EA020C7FEA645C7FEA72
:10375000655C00F0E2804FEA5454D4EB5555B8BF95
:103760006D420CDD2C4480EA020281EA030382EA06
:10377000000083EA010180EA020281EA0303362D98
:1037800088BF30BD11F0004F4FEA01314FF4801C6B
:103790004CEA113102D0404261EB410113F0004F7D
:1037A0004FEA03334CEA133302D0524263EB430334
:1037B00094EA050F00F0A780A4F10104D5F1200ED2
:1037C0000DDB02FA0EFC22FA05F2801841F100012D
:1037D00003FA0EF2801843FA05F359410EE0A5F101
:1037E00020050EF1200E012A03FA0EFC28BF4CF032
:1037F000020C43FA05F3C01851EBE37101F00045E8
:1038000007D54FF0000EDCF1000C7EEB00006EEBF4
:103810000101B1F5801F1BD3B1F5001F0CD349087E
:103820005FEA30004FEA3C0C04F101044FEA4452D5
:1038300012F5800F80F09A80BCF1004F08BF5FEA5C
:10384000500C50F1000041EB045141EA050130BD3C
:103850005FEA4C0C404141EB010111F4801FA4F1DF
:103860000104E9D191F0000F04BF01460020B1FA34
:1038700081F308BF2033A3F10B03B3F120020CDA6C
:103880000C3208DD02F1140CC2F10C0201FA0CF04A
:1038900021FA02F10CE002F11402D8BFC2F1200CAF
:1038A00001FA02F120FA0CFCDCBF41EA0C01904065
:1038B000E41AA2BF01EB0451294330BD6FEA0404AE
:1038C0001F3C1CDA0C340EDC04F11404C4F1200299
:1038D00020FA04F001FA02F340EA030021FA04F3AB
:1038E00045EA030130BDC4F10C04C4F1200220FA02
:1038F00002F001FA04F340EA0300294630BD21FA40
:1039000004F0294630BD94F0000F83F4801306BF05
:1039100081F480110134013D4EE77FEA645C18BFF9
:103920007FEA655C29D094EA050F08BF90EA020F90
:1039300005D054EA000C04BF1946104630BD91EA88
:10394000030F1EBF0021002030BD5FEA545C05D18B
:103950004000494128BF41F0004130BD14F58004CA
:103960003CBF01F5801130BD01F0004545F0FE413E
:1039700041F470014FF0000030BD7FEA645C1ABF73
:10398000194610467FEA655C1CBF0B46024650EAAA
:10399000013406BF52EA033591EA030F41F40021D6
:1039A00030BD00BF90F0000F04BF0021704730B55C
:1039B0004FF4806404F132044FF000054FF0000131
:1039C00050E700BF90F0000F04BF0021704730B5F2
:1039D0004FF4806404F1320410F0004548BF4042C7
:1039E0004FF000013EE700BF42004FEAE2014FEA1C
:1039F00031014FEA02701FBF12F07F4393F07F4FF7
:103A000081F06051704732F07F4208BF704793F0F9
:103A10007F4F04BF41F40021704730B54FF460740C
:103A200001F0004521F000411CE700BF50EA01020F
:103A300008BF704730B54FF000050AE050EA0102B8
:103A400008BF704730B511F0004502D5404261EB28
:103A500041014FF4806404F132045FEA915C3FF469
:103A6000D8AE4FF003025FEADC0C18BF03325FEA06
:103A7000DC0C18BF033202EBDC02C2F1200300FAB7
:103A800003FC20FA02F001FA03FE40EA0E0021FADC
:103A900002F11444BDE600BF80F0004002E000BF28
:103AA00081F0004142001FBF5FEA410392EA030F29
:103AB0007FEA226C7FEA236C6AD04FEA1262D2EB73
:103AC0001363C1BFD218414048404140B8BF5B4278
:103AD000192B88BF704710F0004F40F4000020F011
:103AE0007F4018BF404211F0004F41F4000121F027
:103AF0007F4118BF494292EA030F3FD0A2F1010271
:103B000041FA03FC10EB0C00C3F1200301FA03F1AE
:103B100000F0004302D5494260EB4000B0F5000FD1
:103B200013D3B0F1807F06D340084FEA310102F190
:103B30000102FE2A51D2B1F1004F40EBC25008BF42
:103B400020F0010040EA03007047490040EB00000C
:103B500010F4000FA2F10102EDD1B0FA80FCACF13B
:103B6000080CB2EB0C0200FA0CF0AABF00EBC2503A
:103B700052421843BCBFD0401843704792F0000F28
:103B800081F4000106BF80F400000132013BB5E77B
:103B90004FEA41037FEA226C18BF7FEA236C21D0F1
:103BA00092EA030F04D092F0000F08BF0846704756
:103BB00090EA010F1CBF0020704712F07F4F04D124
:103BC000400028BF40F00040704712F100723CBF37
:103BD00000F50000704700F0004343F0FE4040F461
:103BE000000070477FEA226216BF08467FEA23631F
:103BF0000146420206BF5FEA412390EA010F40F40A
:103C0000800070474FF0000304E000BF10F0004355
:103C100048BF40425FEA000C08BF704743F096433C
:103C200001464FF000001CE050EA010208BF704757
:103C30004FF000030AE000BF50EA010208BF7047DE
:103C400011F0004302D5404261EB41015FEA010CF3
:103C500002BF84460146002043F0B64308BFA3F1EB
:103C60008053A3F50003BCFA8CF2083AA3EBC253CD
:103C700010DB01FA02FC634400FA02FCC2F12002EC
:103C8000BCF1004F20FA02F243EB020008BF20F023
:103C90000100704702F1200201FA02FCC2F1200289
:103CA00050EA4C0021FA02F243EB020008BF20EA7E
:103CB000DC7070474FF0FF0C1CEAD0521EBF1CEAAC
:103CC000D15392EA0C0F93EA0C0F6FD01A4480EA9A
:103CD000010C400218BF5FEA41211ED04FF0006383
:103CE00043EA501043EA5111A0FB01310CF00040AF
:103CF000B1F5000F3EBF490041EAD3715B0040EAD5
:103D0000010062F17F02FD2A1DD8B3F1004F40EBA4
:103D1000C25008BF20F00100704790F0000F0CF077
:103D2000004C08BF49024CEA502040EA51207F3A3B
:103D3000C2BFD2F1FF0340EAC250704740F4000016
:103D40004FF00003013A5DDC12F1190FDCBF00F007
:103D500000407047C2F10002410021FA02F1C2F1B5
:103D6000200200FA02FC5FEA310040F1000053EA51
:103D70004C0308BF20EADC70704792F0000F00F09F
:103D8000004C02BF400010F4000F013AF9D040EAA5
:103D90000C0093F0000F01F0004C02BF490011F439
:103DA000000F013BF9D041EA0C018FE70CEAD15337
:103DB00092EA0C0F18BF93EA0C0F0AD030F0004CB7
:103DC00018BF31F0004CD8D180EA010000F000406B
:103DD000704790F0000F17BF90F0004F084691F029
:103DE000000F91F0004F14D092EA0C0F01D1420263
:103DF0000FD193EA0C0F03D14B0218BF084608D12C
:103E000080EA010000F0004040F0FE4040F4000075
:103E1000704740F0FE4040F4400070474FF0FF0C08
:103E20001CEAD0521EBF1CEAD15392EA0C0F93EA4F
:103E30000C0F69D0A2EB030280EA010C49024FEAA1
:103E4000402037D04FF0805343EA111143EA10135A
:103E50000CF000408B4238BF5B0042F17D024FF412
:103E6000000C8B4224BF5B1A40EA0C00B3EB510FED
:103E700024BFA3EB510340EA5C00B3EB910F24BFD6
:103E8000A3EB910340EA9C00B3EBD10F24BFA3EB5B
:103E9000D10340EADC001B0118BF5FEA1C1CE0D123
:103EA000FD2A3FF650AF8B4240EBC25008BF20F0D6
:103EB000010070470CF0004C4CEA50207F32C2BF2A
:103EC000D2F1FF0340EAC250704740F400004FF0C7
:103ED0000003013A37E792F0000F00F0004C02BFF8
:103EE000400010F4000F013AF9D040EA0C0093F0C2
:103EF000000F01F0004C02BF490011F4000F013B1C
:103F0000F9D041EA0C0195E70CEAD15392EA0C0F83
:103F100008D142027FF47DAF93EA0C0F7FF470AFBB
:103F2000084676E793EA0C0F04D14B023FF44CAFFE
:103F300008466EE730F0004C18BF31F0004CCAD193
:103F400030F000427FF45CAF31F000437FF43CAFCF
:103F50005FE700BF4FF0FF3C06E000BF4FF0010CF1
:103F600002E000BF4FF0010C4DF804CD4FEA4002D3
:103F70004FEA41037FEA226C18BF7FEA236C11D01D
:103F800001B052EA530C18BF90EA010F58BFB2EBD0
:103F9000030088BFC81738BF6FEAE17018BF40F050
:103FA000010070477FEA226C02D15FEA402C05D104
:103FB0007FEA236CE4D15FEA412CE1D05DF8040B89
:103FC000704700BF844608466146FFE70FB5FFF71C
:103FD000C9FF002848BF10F1000F0FBD4DF808EDD4
:103FE000FFF7F4FF0CBF012000205DF808FB00BFC5
:103FF0004DF808EDFFF7EAFF34BF012000205DF81F
:1040000008FB00BF4DF808EDFFF7E0FF94BF01206B
:1040100000205DF808FB00BF4DF808EDFFF7D2FF68
:1040200094BF012000205DF808FB00BF4DF808EDAB
:10403000FFF7C8FF34BF012000205DF808FB00BF78
:104040004FEA4002B2F1FE4F0FD34FF09E03B3EBA5
:1040500012620DD94FEA002343F0004310F0004FE5
:1040600023FA02F018BF404270474FF0000070473B
:1040700012F1610F01D1420205D110F0004008BFDA
:104080006FF0004070474FF00000704742000ED2C2
:10409000B2F1FE4F0BD34FF09E03B3EB126209D483
:1040A0004FEA002343F0004323FA02F070474FF039
:1040B0000000704712F1610F01D1420202D14FF0AE
:1040C000FF3070474FF00000704700BF014B186889
:1040D000704700BF5C00002002440346934200D1B9
:1040E000704703F8011BF9E70CB430B5174B0C1EF1
:1040F0009DB01D6808DA8B232B604FF0FF301DB098
:10410000BDE8304002B070474FF40273ADF8143090
:1041100014BF04F1FF332346049307934FF6FF7354
:1041200002900690ADF81630209A21AB02A92846DD
:10413000019300F0C9F8431CBCBF8B232B60002CFB
:10414000DDD0029B00221A70D9E700BF5C0000207E
:104150000EB400B59CB01DAB029006906FF000410C
:10416000094807910491094953F8042B0591006807
:10417000019302A900F0A8F8029B00221A701CB05B
:104180005DF804EB03B070475C0000200802FFFFFD
:10419000034613F8012B002AFBD1181A0138704787
:1041A00030B5141E05469BB0184605DA8B232B60EC
:1041B0004FF0FF301BB030BD4FF40273ADF80C3040
:1041C00014BF04F1FF332346029305934FF6FF73A8
:1041D00000910491ADF80E3002461E9B69462846B8
:1041E00000F072F8431CBCBF8B232B60002CE1D085
:1041F000009B00221A70DDE707B5009313460A46BC
:10420000014603480068FFF7CBFF03B05DF804FBED
:104210005C0000202DE9F0478E689E4282460C46E5
:104220009046994637D88A8912F4906F31D0256824
:1042300009696F1A6569022305EB450595FBF3F5DE
:1042400009F101033B449D4238BF1D46530530D55B
:10425000294600F07FFB064650B90C23CAF800300F
:10426000A38943F04003A3814FF0FF30BDE8F087FE
:104270003A46216900F0FCFAA38923F4906343F0E5
:104280008003A381266165613E44ED1B2660A56025
:104290004E464E4500D94E4632464146206800F013
:1042A000F2FAA3689B1BA36023681E4426600020CB
:1042B000DCE72A4600F0A8FB06460028E2D1216987
:1042C000504600F0F9FAC8E72DE9F04F9DB080465E
:1042D00003938B891D060C4616460FD50B696BB9E7
:1042E000402100F037FB2060206128B90C23C8F87A
:1042F00000304FF0FF30C7E0402363610023099393
:1043000020238DF8293030238DF82A304FF0010B0F
:1043100037463D4615F8013B0BB1252B3ED1B7EB97
:10432000060A0BD05346324621464046FFF772FF3D
:10433000013000F0A480099B534409933B78002B83
:1043400000F09D8000234FF0FF32CDE90523049358
:1043500007938DF853301A932F46052217F8011B47
:104360004F4800F035FA049BD0B9D90644BF20224B
:104370008DF853201A0744BF2B228DF853202A783A
:104380002A2A15D0079A2F4600200A25394611F807
:10439000013B303B092B4DD9B8B10FE02F46B8E7B0
:1043A0003F4A801A0BFA00F0184304903D46D3E7C9
:1043B000039A111D12680391002A01DB079204E0A1
:1043C000524243F00203079204933B782E2B0CD108
:1043D0007B782A2B33D1039B1A1D1B680392002B79
:1043E000B8BF4FF0FF33023705932E4D39780322C3
:1043F000284600F0EDF938B14023401B03FA00F0E5
:10440000049B034301370493397827488DF828101B
:1044100006227E1C00F0DCF9002838D0234B13BBA9
:10442000039B073323F0070308330393099B4B4493
:1044300009936DE705FB023201200F46A6E7002332
:104440000137059319460A25384610F8012B303AF2
:10445000092A03D9002BC8D00591C6E705FB012125
:1044600001230746F0E703AB00932246104B04A953
:104470004046AFF30080B0F1FF3F8146D6D1A3891B
:104480005B063FF536AF09981DB0BDE8F08F03AB72
:1044900000932246064B04A9404600F081F8EAE763
:1044A00030DF000836DF00083ADF000800000000B7
:1044B000154200082DE9F04791461F468A680B69AE
:1044C000DDF820809342B8BF1346C9F8003091F858
:1044D000432006460C4612B10133C9F80030236868
:1044E000990642BFD9F800300233C9F80030256878
:1044F00015F0060507D104F1190AE368D9F8002080
:104500009B1AAB4228DC94F843302268003318BF72
:10451000012392062DD404F1430239463046C047A8
:10452000013020D02368E568D9F8002003F00603A5
:10453000042B08BFAD1AA36822690CBF25EAE575F4
:1045400000259342C4BF9B1AED184FF000091A349E
:104550004D451AD1002008E0012352463946304625
:10456000C047013003D14FF0FF30BDE8F08701357F
:10457000C3E7E1185A1C302081F84300224494F824
:10458000451082F843100233C5E70123224639461D
:104590003046C0470130E6D009F10109D8E70000F4
:1045A0002DE9F04301F1430C0C46097E85B06E29DC
:1045B0001746064698460C9A00F0B38022D8632925
:1045C00036D00AD8002900F0B980582900F083803D
:1045D00004F1420584F8421032E0642901D06929CF
:1045E000F6D120681368050603F104012AD51B687B
:1045F0001160002B03DA2D225B4284F843206F48C0
:104600000A2239E0732900F09D8008D86F2920D054
:104610007029DDD1236843F02003236003E075296E
:1046200017D07829D4D1782384F84530644855E0F0
:104630001368191D1B68116004F1420584F84230AB
:1046400001238CE01B68116010F0400F18BF1BB2F3
:10465000CFE713682568181D1060280601D51B6870
:1046600002E06806FBD51B8854486F2914BF0A2254
:104670000822002184F843106568A560002DC0F26F
:104680009580216821F004012160002B3DD1002D8F
:1046900040F08E806546082A0BD12368DB0708D5D9
:1046A000236962689A42DEBF302305F8013C05F1B8
:1046B000FF35ACEB05032361CDF800803B4603AA30
:1046C00021463046FFF7F6FE01304DD14FF0FF3066
:1046D00005B0BDE8F083394884F8451013682168B7
:1046E0001D1D1B6815600A060BD5CA0744BF41F0A3
:1046F000200121601BB9226822F0200222601022D2
:10470000B7E74D0648BF9BB2EFE76546B3FBF2F152
:1047100002FB1133C35C05F8013D0B460029F5D1BE
:10472000B9E7136825686169181D106028061B68C1
:1047300001D5196002E06A06FBD5198000232361C8
:104740006546B9E71368191D11601D68626800218C
:10475000284600F03DF808B1401B606063682361A3
:10476000002384F84330A7E723692A4639463046B8
:10477000C0470130AAD023689B0713D4E068039B8D
:104780009842B8BF1846A3E701234A463946304647
:10479000C04701309AD00135E368039A9B1AAB42B7
:1047A000F2DCEBE7002504F11909F5E7002BACD1A9
:1047B000037884F8423004F142056CE741DF0008D9
:1047C00052DF0008000000000000000000000000B0
:1047D00001F0FF01102A2BDB10F0070F08D010F8B2
:1047E000013B013A8B422DD010F0070F42B3F6D1B6
:1047F000F0B441EA012141EA014122F007047FF0CF
:1048000000070023F0E80256083C85EA010586EA25
:10481000010685FA47F5A3FA87F586FA47F6A5FA61
:1048200087F68EB9EED1F0BC01F0FF0102F007026D
:1048300032B110F8013B013A83EA010313B1F8D118
:104840000020704701387047002D06BF35460338F9
:10485000073815F0010F07D1013015F4807F02BF32
:10486000013015F4C03F0130F0BC0138704700BF83
:1048700010B5431E0A44914200D110BD11F8014BFE
:1048800003F8014FF7E7884210B501EB020307D8A0
:10489000421E99420AD011F8014B02F8014FF8E785
:1048A0008342F5D98118D21AD34200D110BD13F832
:1048B000014D01F8014DF7E738B50546002945D00F
:1048C00051F8043C0C1F002BB8BFE41800F0D2F8DC
:1048D0001F4A1368104633B9636014602846BDE868
:1048E000384000F0C8B8A3420CD92168621893423E
:1048F00004BF1A685B68636004BF521822600460DA
:10490000ECE713465A680AB1A242FAD91968581856
:10491000A0420BD120680144581882421960DDD1B1
:10492000106852685A6001441960D7E702D90C2315
:104930002B60D3E7206821188A4204BF11685268AF
:10494000626004BF091821605C60C7E738BD00BF22
:10495000A032002070B5CD1C25F0030508350C2DC4
:1049600038BF0C25002D064601DBA94203D90C23D4
:104970003360002070BD00F07DF8214A14682146A4
:1049800091B9204C23681BB9304600F063F82060D1
:104990002946304600F05EF8431C24D10C233360D6
:1049A000304600F068F8E4E70B685B1B18D40B2B6B
:1049B0000FD90B60CD50CC18304600F05CF804F1F4
:1049C0000B00231D20F00700C31AD3D05A42E25037
:1049D000D0E78C424B6816BF636013600C46EBE770
:1049E0000C464968CCE7C41C24F00304A04205D05F
:1049F000211A304600F02EF80130CFD02560DBE7D9
:104A0000A0320020A4320020F8B5074614460E4616
:104A100021B91146BDE8F840FFF79CBF22B9FFF766
:104A20004BFF25462846F8BD00F026F8A0420FD2DD
:104A300021463846FFF78EFF05460028F2D0314662
:104A40002246FFF715FF31463846FFF735FFE9E705
:104A50003546E7E738B5064C00230546084623608F
:104A6000FCF752F9431C02D1236803B12B6038BD17
:104A7000AC3200207047704751F8043C181F002BDF
:104A8000BCBF0B58C01870472E2E2F7379737465F6
:104A90006D2F7372632F73746D333266342D6861BA
:104AA0006C2F73746D3332663478785F68616C5F35
:104AB000636F727465782E630000000000000000D0
:104AC0000102030401020304060708092E2E2F73B6
:104AD000797374656D2F7372632F73746D333266DF
:104AE000342D68616C2F73746D3332663478785F5F
:104AF00068616C5F7263632E6300000061626F72B5
:104B00007428292C2065786974696E672E2E2E0012
:104B10006173736572745F706172616D28292066BC
:104B200061696C65643A2066696C65202225732290
:104B30002C206C696E652025640A00005374616343
:104B40006B206672616D653A0A00000020523020C9
:104B50003D2020253038580A000000002052312026
:104B60003D2020253038580A000000002052322015
:104B70003D2020253038580A000000002052332004
:104B80003D2020253038580A0000000020523132E4
:104B9000203D20253038580A00000000204C5220CB
:104BA0003D2020253038580A0000000020504320C6
:104BB0003D2020253038580A000000002050535274
:104BC000203D20253038580A000000004653522F5F
:104BD0004641523A0A0000002043465352203D20ED
:104BE00020253038580A00002048465352203D20E6
:104BF00020253038580A00002044465352203D20DA
:104C000020253038580A00002041465352203D20CC
:104C100020253038580A0000204D4D464152203D95
:104C200020253038580A00002042464152203D20BD
:104C300020253038580A00004D6973630A000000CF
:104C4000204C522F4558435F52455455524E3D20FB
:104C5000253038580A0000005B486172644661756F
:104C60006C745D0A000000005B4275734661756CF0
:104C7000745D0A005B55736167654661756C745DB0
:104C80000A00000000000000000000000102030410
:104C900006070809000301000008020002000100E5
:104CA00000090200020001000006010000000000EF
:104CB000000A01000000000042617474657279000E
:104CC0002575252500000000436C6F636B00000014
:104CD0004553502D303120537461747573000000BA
:104CE0004553503A20436F6E6E65637465640000EF
:104CF0004553503A20446973636F6E6E6563746503
:104D00006400000041524D6174726F6E000000003B
:104D10004C696E652053656E736F727300000000FE
:104D200049523A20256420256420256420256420EA
:104D3000256400004E6F726D616C000054616E6BF3
:104D4000000000004D6F646500000000537465654D
:104D500072696E67000000004261743A2025642584
:104D60002500000055533A20252E316620636D0042
:104D700049523A2030203020302030202564000075
:104D8000556C747261736F6E69630000446973746B
:104D9000616E63653A20252E316620636D00000048
:104DA0004E6F206F626A6563742064657465637416
:104DB0006564000053656E736F72204572726F7286
:104DC000000000005741524E494E473A204F626A58
:104DD00065637420636C6F73652100002530327544
:104DE0003A253032753A2530327500000000000057
:104DF00000000000000000000000000000000000B3
:104E00000000000000007000700070007000700072
:104E10007000000000007000700000000000000042
:104E2000D800D800D80000000000000000000000FA
:104E30000000000000000000000050005000FC01D5
:104E400050005000FC015000500000000000000025
:104E5000000000002000F800A000F0002800F8008A
:104E60002000000000000000000000000000C4005E
:104E7000C800100020004000980018010000000049
:104E80000000000000000000600090009000600042
:104E9000A200940068000000000000000000000074
:104EA0000000300030003000000000000000000072
:104EB00000000000000000000000000018003000AA
:104EC00060006000600060006000300018000000BA
:104ED00000000000000060003000180018001800FA
:104EE0001800180030006000000000000000000002
:104EF000000044002800FE002800440000000000DC
:104F00000000000000000000000000001000100081
:104F10001000FE0010001000100000000000000053
:104F20000000000000000000000000000000000081
:104F30003000300030006000000000000000000081
:104F4000000000000000FE00000000000000000063
:104F50000000000000000000000000000000000051
:104F600000000000300030000000000000000000E1
:104F70000000020004000800100020004000800033
:104F80000000000000000000000000007800CC00DD
:104F9000C600C600C600C600CC00780000000000B5
:104FA00000000000000030007000300030003000D1
:104FB00030003000FC000000000000000000000095
:104FC0007800CC000C00180030006000C000FC002D
:104FD000000000000000000000007800CC000C0081
:104FE00038000C000C00CC0078000000000000002D
:104FF000000000001C003C006C00CC00FE000C0017
:105000000C001E0000000000000000000000FC007A
:10501000C000C000F8000C000C00CC0078000000BC
:10502000000000000000000038006000C000F80030
:10503000CC00CC00CC007800000000000000000094
:105040000000FC000C001800300030006000600020
:105050006000000000000000000000007800CC00AC
:10506000CC007800CC00CC00CC0078000000000020
:105070000000000000007800CC00CC00CC007C00D8
:105080000C0018007000000000000000000000008C
:105090000000000030003000000000003000300050
:1050A00000000000000000000000000000003000D0
:1050B0003000000000003000300020004000000000
:1050C00000000000000006001C006000800060007E
:1050D0001C000600000000000000000000000000AE
:1050E00000000000FE000000FE00000000000000C4
:1050F00000000000000000000000C00070000C0074
:1051000002000C007000C000000000000000000061
:1051100000007800CC000C001800300030000000C7
:105120003000000000000000000000007C00820051
:105130009A00AA00AA009E0080007C0000000000E7
:1051400000000000000030004800CC00CC00FC0053
:10515000CC00CC00CC0000000000000000000000EB
:10516000F800CC00CC00F800CC00CC00CC00F8005B
:10517000000000000000000000007800CC00C0002B
:10518000C000C000C000CC0078000000000000009B
:1051900000000000F000C800CC00CC00CC00CC0027
:1051A000C800F00000000000000000000000FC004B
:1051B000C000C000F800C000C000C000FC0000003B
:1051C0000000000000000000FC00C000C000F8006B
:1051D000C000C000C000C0000000000000000000CF
:1051E00000007800CC00C000C000CE00CC00CC0095
:1051F000780000000000000000000000CC00CC009F
:10520000CC00FC00CC00CC00CC00CC0000000000A6
:10521000000000000000FC003000300030003000D2
:1052200030003000FC000000000000000000000022
:105230001E000C000C000C000C000C00CC007800D0
:1052400000000000000000000000CC00D800F000CA
:10525000E000F000D800CC00C60000000000000014
:1052600000000000C000C000C000C000C000C000BE
:10527000C000FC00000000000000000000008200F0
:10528000C600EE00FE00D600C600C600C600000044
:105290000000000000000000CC00EC00FC00DC007E
:1052A000CC00CC00CC00CC000000000000000000CE
:1052B00000007800CC00CC00CC00CC00CC00CC00AE
:1052C000780000000000000000000000F800CC00A2
:1052D000CC00F800C000C000C000C000000000000A
:1052E0000000000000007800CC00CC00CC00CC0016
:1052F000DC0078001C00000000000000000000003E
:10530000F800CC00CC00F800D800CC00CC00CC00D9
:10531000000000000000000000007800CC00C00089
:10532000700018000C00CC007800000000000000A5
:1053300000000000FC003000300030003000300081
:105340003000300000000000000000000000CC0031
:10535000CC00CC00CC00CC00CC00CC00780000000D
:105360000000000000000000CC00CC00CC00CC000D
:10537000CC00780078003000000000000000000041
:105380000000C600C600C600D600FE00EE00C60043
:10539000820000000000000000000000CC00CC00F3
:1053A000780030007800CC00CC00CC000000000079
:1053B000000000000000CC00CC00CC0078003000E1
:1053C000300030003000000000000000000000004D
:1053D000FC000C00180030006000C000C000FC00A1
:1053E00000000000000000000000F000C000C0004D
:1053F000C000C000C000C000C000C000F00000003D
:1054000000000000800040002000100008000400A0
:105410000200000000000000000000000000780012
:1054200018001800180018001800180018001800BC
:105430007800000000000000100038006C00C6007A
:10544000000000000000000000000000000000005C
:10545000000000000000000000000000000000004C
:1054600000000000FF0000000000000030001800F5
:10547000000000000000000000000000000000002C
:105480000000000000000000000078000C007C001C
:10549000CC00CC00760000000000000000000000FE
:1054A000C000C000C000F800CC00CC00CC00F80068
:1054B0000000000000000000000000000000780074
:1054C000CC00C000C000CC0078000000000000004C
:1054D000000000000C000C000C007C00CC00CC0094
:1054E000CC0076000000000000000000000000007A
:1054F00000007800CC00FC00C000CC007800000068
:10550000000000000000000038006C006000F8009F
:10551000600060006000600000000000000000000B
:105520000000000000007600CC00CC00CC007C0025
:105530000C00CC007800000000000000C000C0009B
:10554000D800EC00CC00CC00CC00CC000000000067
:10555000000000000000300000007000300030004B
:105560003000300078000000000000000000000063
:105570000C0000000C000C000C000C000C000C00D7
:10558000CC007800000000000000C000C000CC008B
:10559000D800F000D800CC00C600000000000000D9
:1055A000000000007000300030003000300030009B
:1055B0003000780000000000000000000000000043
:1055C0000000CC00FE00FE00D600C600C6000000B1
:1055D000000000000000000000000000D800EC0007
:1055E000CC00CC00CC00CC0000000000000000008B
:1055F0000000000000007800CC00CC00CC00CC0003
:105600007800000000000000000000000000000022
:10561000F800CC00CC00CC00F800C000C000C000F6
:10562000000000000000000000007600CC00CC006C
:10563000CC007C000C000C000C00000000000000FE
:1056400000000000DC007600600060006000600088
:1056500000000000000000000000000000007C00CE
:10566000C00070001C000C00F800000000000000EA
:105670000000000010003000FC003000300030005E
:1056800034001800000000000000000000000000CE
:105690000000CC00CC00CC00CC00CC007600000098
:1056A000000000000000000000000000CC00CC0062
:1056B000CC007800780030000000000000000000FE
:1056C000000000000000C600D600FE00FE006C00D6
:1056D0004400000000000000000000000000000086
:1056E000CC00780030007800CC00CC000000000036
:1056F00000000000000000000000CC00CC00CC0046
:105700007800300030006000C000000000000000A1
:1057100000000000FC00180030006000C000FC0029
:10572000000000000000000000001C0030003000FD
:10573000E0003000300030001C00000000000000DD
:1057400000000000180018001800000018001800E1
:105750001800180000000000000000000000E00039
:10576000300030001C00300030003000E00000004D
:10577000000000000000000000007600DC000000D7
:105780000000000000000000000000000000000019
:10579000000000001902000000C201000102010225
:1057A00002030000010200000532053205322532F5
:1057B000263226322532263A2532453245324532C6
:1057C000653A653A853AA53AA53AA53AC542E54211
:1057D0000543254B454B454B6553A653C75BE75BDC
:1057E000E85B29648B74CC7C3085718DB39DF6A504
:1057F00018A639AE5BB65BB65BB65BB65BB65BB69E
:105800005BB67BB67BB67BB65AB63AB639B639B616
:1058100039AE38AE17A6F6A5D49DB3959295708D86
:105820002E7DEC74CB74AA6CE874E8740875087566
:10583000287D287D487D487D487D487D687D688538
:1058400088858885A985A985A995A995A995C995CA
:10585000C995C995C995C895C995C995C995C8955A
:10586000C895A88DA88D888D678568854785277D13
:10587000077DE774C774C874A8748874886C696CF1
:10588000496C496C296C296CE963E863E963C86376
:10589000A85B885B67536753275327530753E75227
:1058A000E752C752C64AA752A64A254A097352C5AB
:1058B0006E9C0442653A443A2442C3398652496B8D
:1058C000075B243AA22961292121212121210119E3
:1058D0000119E118C010C010E118C110E118021937
:1058E00002194319263A2A5B053205322532253240
:1058F00026322632263A263A45324532453245325C
:10590000653A853A853AA53AA53AC53AE54205434E
:10591000054B454B454B654B8553A653C65BE75B33
:10592000E75B08646A74CB7C0F85508D9395D59D99
:10593000F7A518A639AE3AAE3AAE3AAE5AB65AB64E
:105940005AB65AB65AB65AB639B639B619AE18AEAC
:1059500018AE17AEF6A5D59DB3959295708D4E8570
:105960000D7DEB74CA74AA6C087509750975297DDB
:10597000297D497D497D6985487D687D6885688583
:105980008885A985A985A98DA995C995C995C99520
:10599000C995C995C995C895C995C995C895C8951A
:1059A000C895A88D888D878D688567854785277DF3
:1059B000077DE77CC774C87487748874886C696CC9
:1059C000486C296C296C2964E963E863E963C8635E
:1059D000A85B885B675367532753275307530753C5
:1059E000E752C752C752C652A64A6652CC8B52BD26
:1059F000AB83043A653A653A4542454AE762496BEA
:105A0000A64AC32961212121212121212121011916
:105A10000119E118C118C010E11801190219021981
:105A20002219C529884A2A5B0532253225322632B9
:105A30002632263A263A453A453245324532653ACB
:105A4000653A853AA53AA542C542C542E5420543B5
:105A5000254B454B654B654B8553A553C65BC65BD4
:105A6000E75B0864696CAA74ED7C2F85718DB39532
:105A7000B59DD6A5F7A5F8A518AE18AE18AE38AEE8
:105A800038AE39AE39AE39AE38B618AE17AE16A646
:105A9000F6A5F5A5D49DB395718D50852E850C7D09
:105AA000EB74CA74CA74CA74097D297D297D297D65
:105AB000497D698569856985688568858885898561
:105AC0008985A98DA98DA98DC995C995C995E9958E
:105AD000E995E995C995C995E895E895C895C8955A
