:020000040800F2
:1000000000000120C5020008CB020008CF02000852
:1000100041030008450300088D03000800000000AC
:10002000000000000000000000000000D5030008F0
:10003000D903000800000000DD030008E9150008EE
:10004000F1030008F1030008F1030008F1030008C0
:10005000F1030008F10300083D1D00085D1D0008C4
:10006000F1030008F1030008F1030008F1030008A0
:10007000F1030008F1030008F1030008F103000890
:10008000F1030008F1030008F1030008000000007C
:10009000000000000000000000000000F103000864
:1000A000F1030008F1030008F1030008F103000860
:1000B000BD200008F1030008F1030008F103000867
:1000C000F1030008F1030008F1030008F103000840
:1000D000F10300081D1500082715000800000000A6
:1000E000F1030008F1030008F1030008000000001C
:1000F000000000000000000000000000F103000804
:1001000000000000F1030008F1030008F1030008FB
:1001100000000000000000000000000000000000DF
:10012000F1030008F1030008F1030008F1030008DF
:10013000F1030008000000000000000000000000C3
:10014000000000000000000000000000F1030008B3
:10015000F1030008F1030008F1030008311500085D
:10016000F1030008F1030008000000000000000097
:10017000000000000000000000000000000000007F
:1001800000000000F1030008000000000000000073
:10019000F103000800B583B000F046FE384B394A41
:1001A0001360394A1360394900E02146384B9942BF
:1001B0000BD20A684B6801F10C0488689842F4D9A4
:1001C0001168196004330432F8E72E4B1A68314B7A
:1001D0009A4200D0FEE72C4B1A682F4B9A42F9D175
:1001E000274B2E4A13602E4A13602E4B05E0002049
:1001F000106004329342FAD80B462B4A934204D241
:10020000194651F8082B5B68F4E7244B1B6813B9B7
:10021000234B1B6803B1FEE702F00EFA694601A802
:1002200000F094FD214C224BE41AA4100025AC42AE
:1002300014DC204C204BE41AA4100025AC4213DC43
:100240000099019802F012F805461C4C1C4BE41A68
:10025000A410002C0EDC284600F04AFD144B53F885
:10026000253098470135E2E7134B53F8253098477E
:100270000135E3E7013C124B53F824309847E8E797
:10028000BABADECA000000207C000020F403000897
:100290000C040008785634123254769880000020FE
:1002A000AC0800200C0400081C0400081C04000812
:1002B0001C0400081C0400081C0400081C0400089E
:1002C0001C04000808B5FFF765FF00BEFEE71EF03E
:1002D000040F0CBFEFF30880EFF309807146414A29
:1002E00010472DE9F04182B004468846124B5E6B00
:1002F0009F6B9D6A1B6B13F0020F03D00E4BDB6AE2
:10030000002B0CDB0D4800F033FDCDF800803B46A0
:1003100032462946204600F093FD00BEFEE74BF62C
:10032000AB6100F007FE0028ECD0034B4FF0004219
:10033000DA6202B0BDE8F08100ED00E0C8310008EB
:1003400000BEFEE71EF0040F0CBFEFF30880EFF3D2
:1003500009807146244A10472DE9F04182B00446D5
:100360008846084B5E6B9F6B9D6A074800F000FD56
:10037000CDF800803B4632462946204600F060FD1D
:1003800000BEFEE700ED00E0D83100081EF0040FCB
:100390000CBFEFF30880EFF309807146134A104752
:1003A0002DE9F04182B004468846084B5E6B9F6B96
:1003B0009D6A074800F0DCFCCDF800803B463246E1
:1003C0002946204600F03CFD00BEFEE700ED00E0BF
:1003D000E431000800BEFEE700BEFEE700BEFEE717
:1003E00070470000E302000859030008A103000859
:0403F00000BEFEE766
:1003F400A44700080000002080000020A447000853
:10040400000000100000001080000020B008002050
:080414000000001000000010C0
:1004200010B50446074B1868074BA3FB0030800942
:1004300000F090F8002221464FF0FF3000F044F821
:10044000002010BD0C000020D34D621008B50B4BEE
:100450001A6842F400721A601A6842F480621A60E4
:100460001A6842F480721A60032000F00FF80F201F
:10047000FFF7D6FF02F0E8F8002008BD003C02407C
:10048000014B1868704700BF7807002010B504467C
:10049000C31E042B0FD80A4AD36823F4E0631B045D
:1004A0001B0C240204F4E064234343F0BF6343F4D1
:1004B0000033D36010BDA421024800F04FFCEAE7EE
:1004C00000ED00E0F82F000870B505460C46164612
:1004D0000F2A25D80F2C28D81B4BDB68C3F3022327
:1004E000C3F10702042A28BF0422191D062921D9B5
:1004F000033B4FF0FF3101FA02F224EA02049C4070
:1005000001FA03F326EA03063443002D14DB240129
:10051000E4B205F1604505F5614585F8004370BD1D
:10052000BC210A4800F01AFCD4E7BD21074800F0BE
:1005300015FCD1E70023DCE705F00F052401E4B248
:10054000034B5C55EBE700BF00ED00E0F82F00081F
:1005500014ED00E00138B0F1807F0AD2064B5860FC
:10056000064AF02182F823100020986007221A60C2
:1005700070470120704700BF10E000E000ED00E090
:1005800010B50446042800D038B9042C0BD0094A11
:10059000136823F00403136010BD40F2B311064842
:1005A00000F0DCFBF1E7034A136843F00403136037
:1005B000F2E700BF10E000E0F82F000830B583B08C
:1005C000044603680F2B29D8236813F0010F3DD090
:1005D0006368012B01D9052B25D1A34B9B6803F040
:1005E0000C03042B29D0A04B9B6803F00C03082BB1
:1005F0001ED022799D4B1A706368002B50D0FFF7F4
:100600003FFF0546984B1B6813F4003F1ED1FFF7D0
:1006100037FF401B6428F5D90320E3E1F521944816
:1006200000F09CFBD0E7FA21914800F097FBD4E75B
:100630008D4B5B6813F4800FDBD08B4B1B6813F47E
:10064000003F03D06368002B00F0C981236813F0DA
:10065000020F5DD0E368012B31D823691F2B34D8FA
:10066000814B9B6813F00C0F3AD07F4B9B6803F0D3
:100670000C03082B2FD0E368002B74D07D4B012294
:100680001A60FFF7FDFE0546774B1B6813F0020F5B
:100690005AD1FFF7F5FE401B0228F5D90320A1E14E
:1006A000FFF7EEFE0546704B1B6813F4003FCDD0FC
:1006B000FFF7E6FE401B6428F5D9032092E14FF4D2
:1006C00096716B4800F04AFBC7E740F22D1168486D
:1006D00000F044FBC4E7644B5B6813F4800FCAD19D
:1006E000614B1B6813F0020F04D0E368012B01D0AB
:1006F000012077E15C48036823F0F8032169F822C0
:1007000092FAA2F2B2FA82F201FA02F21343036001
:10071000236813F0080F50D06369012B35D8636943
:10072000002B38D0544B01221A60FFF7A9FE054672
:100730004D4B5B6F13F0020F3FD1FFF7A1FE401B43
:100740000228F5D903204DE14748036823F0F80358
:100750002169F82292FAA2F2B2FA82F201FA02F2C6
:1007600013430360D4E7434B00221A60FFF788FE6F
:1007700005463D4B1B6813F0020FC9D0FFF780FE02
:10078000401B0228F5D903202CE140F26D113848B6
:1007900000F0E4FAC3E7384B00221A60FFF770FE5E
:1007A0000546314B5B6F13F0020F06D0FFF768FE72
:1007B000401B0228F5D9032014E1236813F0040F2D
:1007C00060D0A368012B01D9052B1FD10023019311
:1007D000254B1A6C42F080521A641B6C03F0805354
:1007E0000193019B254A136843F480731360FFF75C
:1007F00047FE0546214B1B6813F4807F0CD1FFF7A1
:100800003FFE401B0228F5D90320EBE040F2971190
:10081000174800F0A3FAD9E7227A194B1A70A36897
:1008200083B1FFF72DFE05460F4B1B6F13F0020F30
:1008300028D1FFF725FE401B41F288339842F3D9B7
:100840000320CFE0FFF71CFE0546074B1B6F13F09C
:10085000020F17D0FFF714FE401B41F28833984275
:10086000F3D90320BEE000BF003802400238024046
:100870003C30000800004742800E474200700040B4
:1008800070380240A369022B39D8A369002B00F00D
:10089000A880564A926802F00C02082A00F0A48050
:1008A000022B40F08880E36913B1B3F5800F2CD19F
:1008B000236A3F2B2FD8636A323BB3F5BF7F30D812
:1008C000A36A022B05D0042B03D0062B01D0082BE2
:1008D0002DD1E36A043B0B2B2FD8454B00221A6025
:1008E000FFF7CEFD0546414B1B6813F0007F2AD071
:1008F000FFF7C6FD401B0228F5D9032072E04FF434
:10090000E6713C4800F02AFABFE740F2D5113948B9
:1009100000F024FACCE74FF4EB71364800F01EFAF1
:10092000C9E740F2D711334800F018FAC8E74FF48E
:10093000EC71304800F012FACBE740F2D9112D48A3
:1009400000F00CFAC9E7E369226A1343616A47F6CB
:10095000C07292FAA2F2B2FA82F201FA02F21343E0
:10096000A26A5208013A4FF4403191FAA1F1B1FA6A
:1009700081F18A401343E16A4FF0706292FAA2F269
:10098000B2FA82F201FA02F21343184A5360184B8A
:1009900001221A60FFF774FD0446144B1B6813F024
:1009A000007F06D1FFF76CFD001B0228F5D903205C
:1009B00018E0002016E00E4B00221A60FFF760FDE1
:1009C00004460A4B1B6813F0007F06D0FFF758FD62
:1009D000001B0228F5D9032004E0002002E00120DA
:1009E00000E0002003B030BD0120FBE700380240EA
:1009F000600047423C300008214B9B6803F00C0329
:100A0000042B3AD0082B01D01E4870471C4B586865
:100A100000F03F005B6813F4800F1ED01A4AB2FB4F
:100A2000F0F2174B586847F6C073184093FAA3F3D7
:100A3000B3FA83F3D84000FB02F0114B5B6803F478
:100A400040334FF4403292FAA2F2B2FA82F2D3402B
:100A500001335B00B0FBF3F070470A4AB2FBF0F2DF
:100A6000074B586847F6C073184093FAA3F3B3FADC
:100A700083F3D84000FB02F0DFE70348704700BF74
:100A8000003802400024F40040787D0170B504462F
:100A90000D460368013B0E2B11D8072D15D88C4B42
:100AA0001B6803F00F03AB4215D2EBB2884A1370F8
:100AB000136803F00F03AB420DD0012070BD40F26C
:100AC0003721844800F04AF9E7E74FF40E71814876
:100AD00000F044F9E3E7236813F0020F18D0A3688D
:100AE0007BB1802B0DD0902B0BD0A02B09D0B02B3D
:100AF00007D0C02B05D0D02B03D0E02B01D0F02B9A
:100B000037D1754A936823F0F003A1680B439360D3
:100B1000236813F0010F73D06368032B2FD8636829
:100B2000012B32D09A1E012A36D96B4A126812F074
:100B3000020F00F0CA8068498A6822F0030213435A
:100B40008B60FFF79DFC06466368012B2BD0022BC0
:100B500038D0032B45D0604B9B6813F00C0F4FD05F
:100B6000FFF78EFC801B41F288339842F3D90320B3
:100B7000A4E740F24F21574800F0F0F8C1E740F2F7
:100B80005621544800F0EAF8C9E7534A126812F4B3
:100B9000003FD0D1012091E74F4A126812F0007F48
:100BA000C9D101208AE74C4B9B6803F00C03042B4E
:100BB00026D0FFF765FC801B41F288339842F2D9BA
:100BC00003207BE7444B9B6803F00C03082B17D0F2
:100BD000FFF756FC801B41F288339842F2D903207C
:100BE0006CE73D4B9B6803F00C030C2B08D0FFF720
:100BF00047FC801B41F288339842F2D903205DE71D
:100C0000334B1B6803F00F03AB4209D9EAB2304BF8
:100C10001A701B6803F00F03AB4201D001204DE7AF
:100C2000236813F0040F14D0E3685BB1B3F5805F61
:100C300008D0B3F5A05F05D0B3F5C05F02D0B3F51F
:100C4000E05F36D1244A936823F4E053E1680B4314
:100C50009360236813F0080F15D023695BB1B3F5D7
:100C6000805F08D0B3F5A05F05D0B3F5C05F02D0B8
:100C7000B3F5E05F23D1184A936823F460432169F8
:100C800043EAC1039360FFF7B7FE134B9B6803F081
:100C9000F003F02292FAA2F2B2FA82F2D3400F4AA3
:100CA000D35CD8400E4B18600F20FFF7B9FB002033
:100CB00004E74FF42D71074800F050F8C2E740F206
:100CC000BB21044800F04AF8D5E70120F6E600BF52
:100CD000003C02403C300008003802402C30000844
:100CE0000C000020014B1868704700BF0C0000206A
:100CF000FEE7000008B5034800F052F80120FFF7B6
:100D0000F7FF00BF6C30000808B503460C4A1268B4
:100D10005AB10B4A1068033323F003030344094A12
:100D2000934206D8064A136008BD054A0649116079
:100D3000EFE701F08BFC0C2303604FF0FF30F3E78B
:100D40008400002000FC0020B00800200123036084
:100D5000014B0B60704700BF0400002008B50A4635
:100D60000146024800F004F8FFF7C4FF8030000895
:100D70000FB400B583B004AB53F8042B019380216A
:100D8000064801F0F3FC002803DD0146034800F0AB
:100D900047F803B05DF804EB04B070478C00002006
:100DA00010B5044601F094FC0146204600F038F8E6
:100DB0000121024800F034F810BD00BF44310008A2
:100DC0002DE9F04385B004460F4643560BB10E465D
:100DD0001EE0042528462146ABBE0446384605B031
:100DE000BDE8F08314F9011B04AA1A4402F8101C90
:100DF0000133AB42F6D304AA1344002203F8102CAB
:100E00004FF00408E94640464946ABBE8046761B93
:100E1000002EE3D03546102E28BF10250023E8E72A
:100E200008B5FFF7CDFF08BD08B500F093F8024AFA
:100E3000024B9A6008BD00BF0000000800ED00E012
:100E4000F8B504460D4617461E462748FFF790FFA3
:100E500021682648FFF78CFF61682548FFF788FF67
:100E6000A1682448FFF784FFE1682348FFF780FF6B
:100E700021692248FFF77CFF61692148FFF778FF6D
:100E8000A1692048FFF774FFE1691F48FFF770FF71
:100E90001E48FFF76DFF29461D48FFF769FF1D4CEF
:100EA000E16A1D48FFF764FF216B1C48FFF760FFF4
:100EB000E16B1B48FFF75CFF15F0800F0AD115F4BA
:100EC000004F0CD11748FFF753FF06991648FFF75C
:100ED0004FFFF8BD39461548FFF74AFFEFE73146A7
:100EE0001348FFF745FFEDE7AC300008BC300008C1
:100EF000CC300008DC300008EC300008FC30000882
:100F00000C3100081C3100082C3100083C3100086D
:100F10004831000800ED00E0583100086831000851
:100F200078310008A8310008B03100088831000885
:100F30009831000883691A888A4201D000207047DE
:100F40000268033A012A03D8023383610120704703
:100F5000002070470C4B1A6842F001021A60002111
:100F600099601A6822F0847222F480321A60074A6B
:100F70005A601A6822F480221A60D960044B4FF03C
:100F800000629A60704700BF0038024010300024B1
:100F900000ED00E0224B9B6803F00C03042B14D0FF
:100FA000082B16D01BB11F4B1F4A1A6002E01D4BC5
:100FB0001D4A1A601A4B9B68C3F303131B4AD15C8A
:100FC000184A1368CB4013607047164B184A1A60D2
:100FD000F0E7134B5A685B6803F03F0312F4800F8D
:100FE00013D0134AB2FBF3F20D4B5B68C3F38813C3
:100FF00003FB02F30A4A5268C2F301420132520073
:10100000B3FBF2F3074A1360D4E7074AB2FBF3F2EB
:10101000034B5B68C3F3881303FB02F3EAE700BFEB
:10102000003802400C0000200024F400F4310008D5
:1010300040787D0120B400FB01F5B2FBF5F01860AB
:1010400005FB102000FB01F0B0FBF5F0C0B2082951
:1010500002D0187120BC704700F00700F9E70000CB
:10106000002800F0FB8070B582B00446C27A0AB94D
:101070000222C272227B0AB902222273627B0AB95F
:1010800003226273A27A0AB90122A272227A0AB9F1
:1010900001222272627A0AB9022262722278714EA9
:1010A00006FB02F6627832B1012A1DD0022A40F016
:1010B000D7806D4D00E06D4D012A1BD0B2B1022AE0
:1010C0001CD000F0A3FAEB6843F40053EB60237AE2
:1010D000012B17D0022B1AD0637A013B032B21D8A6
:1010E000DFE803F0581A464F614DE5E7252000F090
:1010F00035FCE6E7262000F031FCE2E7472000F06F
:101100002DFCDEE7EB6823F48053EB60E4E7EB684B
:1011100043F48053EB60DFE72B6923F440532B61EA
:101120002B692B61A37A022B42D0032B49D0012BD0
:1011300039D0E37A012B4DD0022B51D1EB6823F447
:101140000043EB601021237B012B4BD0022B4ED0B0
:10115000637B022B59D0032B60D0012B4CD06378DA
:10116000002B64D0012B77D0022B65D13E4A5FE083
:101170002B6923F440532B612B6943F440532B61BB
:10118000D0E72B6923F440532B612B6943F40053C0
:101190002B61C7E72B6923F440532B612B6943F480
:1011A00080532B61BEE7EB6823F48063EB60C0E7FC
:1011B000EB6843F48063EB60EB6823F40073EB604F
:1011C000B7E7EB6843F48063EB60EB6843F40073CC
:1011D000EB60AEE7EB6843F40043EB600821B2E755
:1011E0001021B0E76B6943F400636B61B0E76B6992
:1011F00023F400636B61ABE7EB6843F00803EB603B
:10120000EB6823F00403EB60A9E7EB6843F0040309
:10121000EB60EB6823F00803EB60A0E7EB6843F0BA
:101220000803EB60EB6843F00403EB6097E70F4AB9
:10123000D36843F02003D3606B4632466068FFF703
:10124000F9FE9DF8043003F00F03009A43EA0213FD
:10125000AB60002002B070BD054AE9E7012070478D
:101260000220F7E740420F00001401400010014047
:101270000044004038B5022847D8C201024491001A
:10128000244B0B4493F80322D2B293F80232DBB220
:101290009A423CD00446012827D010B3022828D017
:1012A0001C48E1010A199300034493F80322D2B2C7
:1012B000551CEDB283F803521A4492F80051EDB276
:1012C00093F80322D2B20B199900084480F8032244
:1012D000012C16D08CB1022C1AD1472000F03EFB15
:1012E00016E0252000F04CFBDAE7262000F048FB52
:1012F000D6E7472000F044FBD2E7252000F02EFB84
:1013000006E0262000F02AFB02E0022500E000258E
:10131000284638BD0C01002002285AD800295AD08E
:1013200070B5C201024494002D4B234493F800523F
:1013300001356A42EDB2D2B258BF5542AAB293F813
:101340000132934249D00E46044601281CD0B8B160
:1013500002281DD02249E301181982000A4492F89C
:101360000002C0B21654EDB223449A00114481F831
:1013700000528CB1012C1BD0022C12D1194A0CE066
:10138000252000F0FDFAE5E7262000F0F9FAE1E774
:10139000472000F0F5FADDE7134AD36843F08003F5
:1013A000D360012C0BD02CB1022C0DD0002015E005
:1013B0000E4AF2E7252000F0D1FA00200EE02620A8
:1013C00000F0CCFA002009E0472000F0C7FA002026
:1013D00004E00220704700207047052070BD00BF68
:1013E0000C010020001401400010014000440040A6
:1013F00038B505460C46217851B101342846FFF72F
:101400008BFF03460028F6D00528F4D0184638BDD7
:101410000023FBE701280FD018B102280AD00220D0
:1014200070473A4970B448B101282AD0022821D126
:10143000374B04E03649F5E73649F3E7334B1B6891
:1014400013F0200F16D04C68C20102449500324BB5
:101450002B4493F80222E4B21A4482F8004193F834
:1014600002220132D2B283F8022293F80222D2B2CF
:1014700083F8022248B1012832D0022803D000208C
:1014800041E0244BDBE7224B00E0204B1B6813F0CC
:10149000800F37D0C201024494001F4B234493F8BD
:1014A0000022D2B293F80132DBB29A421AD01A4C1F
:1014B000C2011518AB00234493F80152EDB26E1C23
:1014C000F6B283F801625D5DEDB24D6093F80132D2
:1014D000DBB210448200144484F80132002012E090
:1014E0000C4BD3E728B101280AD0022806D1084ABC
:1014F00000E0064AD36823F08003D360002002E0B6
:10150000044AF7E7002070BC704700BF001001409C
:1015100000140140004400400C01002008B50020E8
:10152000FFF778FF08BD08B50120FFF773FF08BD7E
:1015300008B50220FFF76EFF08BD0000114A1368CE
:1015400023F0010313600378012B0AD00D4A1368BE
:1015500023F0020313604378012B07D0022B0BD03A
:101560007047136843F002031360F4E7054A1368F9
:1015700043F0040313607047024A136823F0040326
:101580001360EDE710E000E0044B586000229A6021
:101590001A6842F001021A60704700BF10E000E0D4
:1015A000024A136823F001031360704710E000E063
:1015B00008B540F6354303FB00F0094B00229A6062
:1015C000421E084B9A4200D908BDFFF7DDFF044BCD
:1015D0001B6813F4803FFAD0FFF7E2FFF4E700BF87
:1015E00010E000E0FDFFFF0008B5064B1B6803B1EB
:1015F0009847054B1B78012B00D008BDFFF7D0FFA3
:10160000FBE700BF1C070020180700207047036895
:1016100043F400730360036843F48073036003685A
:1016200023F400630360036823F08003036003680E
:1016300023F038030360036843F028030360036862
:1016400043F004030360036823F0020303600368AC
:1016500023F001030360036843F040030360704715
:101660000F4B00E01346826812F0020F03D15A1E9E
:10167000002BF7D113467BB1C160094B00E0134644
:10168000826812F0010F03D15A1E002BF7D11346C6
:1016900023B1C068C0B27047FF207047FF20704779
:1016A000A0860100F8B507460E461546002404E062
:1016B000315D3846FFF7D4FF0134AC42F8D3F8BDB2
:1016C0000B4B1A6842F480221A601A6842F4803286
:1016D0001A60074B1B6813F4003FFAD0044B9A685A
:1016E00022F002029A609A6842F001029A60704702
:1016F00000380240032800F22181DFE810F00400E6
:101700005D006600D000162912D8DFE801F00C1940
:101710001F252B31373D11111111431111111111D9
:10172000111111494F00864A136B43F001031363F3
:101730008348036B012202FA01F1194301637047E8
:101740007F4A136B43F002031363F1E77C4A136B88
:1017500043F004031363EBE7794A136B43F0080388
:101760001363E5E7764A136B43F010031363DFE777
:10177000734A136B43F020031363D9E7704A136B6A
:1017800043F040031363D3E76D4A136B43F08003C8
:101790001363CDE76A4A136B43F480531363C7E7BF
:1017A000674A136B43F400131363C1E7644A136B76
:1017B00043F480031363BBE7072940F0BF80604A0E
:1017C000536B43F08003536370471C2900F2B680CB
:1017D000DFE811F01D00230029002F00B400B40041
:1017E000B400B400B400B400B4003500B400B400D8
:1017F0003B004100B4004700B400B400B4004D0009
:1018000053005900B400B400B400B4005F004C4A67
:10181000136C43F0010313647047494A136C43F09F
:10182000020313647047464A136C43F004031364C5
:101830007047434A136C43F0080313647047404AEF
:10184000136C43F40063136470473D4A136C43F414
:101850008043136470473A4A136C43F400431364A3
:101860007047374A136C43F4003313647047344AAB
:10187000136C43F4001313647047314A136C43F440
:101880008003136470472E4A136C43F400031364FF
:1018900070472B4A136C43F080531364704712292E
:1018A0004CD8DFE801F00A4B4B4B10164B4B1C4B4E
:1018B0004B22282E344B3A404600214A536C43F0C9
:1018C0000103536470471E4A536C43F01003536482
:1018D00070471B4A536C43F0200353647047184A07
:1018E000536C43F4807353647047154A536C43F44C
:1018F000006353647047124A536C43F4805353643B
:1019000070470F4A536C43F40053536470470C4ABA
:10191000536C43F4804353647047094A536C43F457
:10192000803353647047064A536C43F40033536466
:101930007047034A536C43F480235364704700BFDD
:1019400000380240044B9A6822F0F0029A609A68CC
:1019500042EA0010986070470038024010B4440911
:10196000064951F8243000F01F00012202FA00F06D
:10197000184341F8240010BC704700BF00E100E0AC
:1019800010B44309074C203354F8232000F01F0003
:10199000012101FA00F022EA000044F8230010BC03
:1019A000704700BF00E100E010B4044620B9A1F187
:1019B0000D03DBB2022B24D9012C07D0072C20D831
:1019C000DFE804F009130B0D0F1F1F11CB1EDBB254
:1019D000012BF3D815E00C4C08E00C4C06E00C4C45
:1019E00004E00C4C02E00C4C00E00C4C49000323DA
:1019F00003FA01F0236823EA000302FA01F1194314
:101A0000216010BC704700BF000002400008024087
:101A1000000C024000100240001C02400004024082
:101A2000034620B9A1F10D00C0B202281CD9012B38
:101A300007D0072B18D8DFE803F009130B0D0F1799
:101A40001711C81EC0B20128F3D80DE00E4B08E0F4
:101A50000E4B06E00E4B04E00E4B02E00E4B00E096
:101A60000E4B12B1012A08D07047012202FA01F18F
:101A70005A6822EA01025A60704702FA01F15A6874
:101A80000A435A60F0E700BF00000240000802402D
:101A9000000C024000100240001C02400004024002
:101AA00010B4044620B9A1F10D03DBB2022B24D9F6
:101AB000012C07D0072C20D8DFE804F009130B0D08
:101AC0000F1F1F11CB1EDBB2012BF3D815E00C4CFE
:101AD00008E00C4C06E00C4C04E00C4C02E00C4C12
:101AE00000E00C4C4900032303FA01F0A36823EA49
:101AF000000302FA01F11943A16010BC704700BF56
:101B00000000024000080240000C024000100240A9
:101B1000001C02400004024010B4044620B9A1F1A8
:101B20000D03DBB2022B24D9012C07D0072C20D8BF
:101B3000DFE804F009130B0D0F1F1F11CB1EDBB2E2
:101B4000012BF3D815E00C4C08E00C4C06E00C4CD3
:101B500004E00C4C02E00C4C00E00C4C4900032368
:101B600003FA01F0E36823EA000302FA01F11943E2
:101B7000E16010BC704700BF000002400008024056
:101B8000000C024000100240001C02400004024011
:101B9000034620B9A1F10D00C0B2022822D9012BC1
:101BA00007D0072B1ED8DFE803F009130B0D0F1D1C
:101BB0001D11C81EC0B20128F3D813E00D4B08E078
:101BC0000D4B06E00D4B04E00D4B02E00D4B00E029
:101BD0000D4B012A07D0012202FA01F15A6922EACB
:101BE00001025A61704702FA01F15A690A435A61C7
:101BF000704700BF0000024000080240000C024095
:101C000000100240001C02400004024001280BD0DA
:101C100010B1022810D070470B484369012202FA24
:101C200001F159404161704708484369012202FAB5
:101C300001F159404161704705484369012202FAA8
:101C400001F1594041617047000002400004024028
:101C500000080240034620B9A1F10D00C0B20228DD
:101C60000DD9012B07D0072B09D8DFE803F00913A2
:101C70000B0D0F080811C81EC0B20128F3D8704719
:101C8000184808E0184806E0184804E0184802E040
:101C9000184800E0184810B4072913D9A1F1080327
:101CA000DBB2072B1BD8083989000F2303FA01F494
:101CB000436A23EA040302F00F0202FA01F1194316
:101CC00041620CE089000F2303FA01F4036A23EA5E
:101CD000040302F00F0202FA01F11943016210BC81
:101CE000704700BF0000024000080240000C0240A4
:101CF00000100240001C02400004024010B50446DF
:101D0000827841780078FFF74FFEE278617820789A
:101D1000FFF786FE227961782078FFF7C1FE6279AD
:101D200061782078FFF7F8FEA378022B00D010BD71
:101D3000A27961782078FFF78DFFF8E708B5054BA9
:101D40001B6803B19847044A536943F00103536188
:101D500008BD00BF20070020003C014008B5054B2E
:101D60005B6803B19847044A536943F00203536127
:101D700008BD00BF20070020003C0140F0B583B043
:101D800000248DF8004006258DF8015001278DF8BC
:101D900002708DF8034002268DF804608DF805402E
:101DA0006846FFF7ABFF09238DF801306846FFF75F
:101DB000A5FF8DF800708DF801506846FFF79EFF73
:101DC0008DF8004005258DF801508DF802606846B9
:101DD000FFF794FF2A4629462046FFF73BFF0726D8
:101DE0008DF801606846FFF789FF2A463146204694
:101DF000FFF730FF03B0F0BD08B500220621104602
:101E0000FFF7C6FE6420FFF7D3FB01220621002066
:101E1000FFF7BEFEC820FFF7CBFB08BD10B582B0B0
:101E200002AC04F8010D002209211046FFF7B0FEB4
:101E3000002206210120FFF7ABFE012221460548C2
:101E4000FFF730FC012206211046FFF7A1FE02B089
:101E500010BD00BF0030014010B582B002AC04F8E4
:101E6000010D012209210020FFF792FE0022062128
:101E70000120FFF78DFE012221460548FFF712FCE5
:101E8000012206211046FFF783FE02B010BD00BFFD
:101E900000300140F8B507460D4616461C462A207C
:101EA000FFF7BCFF380AFFF7D7FFF8B2FFF7D4FF00
:101EB000300AFFF7D1FFF0B2FFF7CEFF2B20FFF77C
:101EC000ADFF280AFFF7C8FFE8B2FFF7C5FF200AF9
:101ED000FFF7C2FFE0B2FFF7BFFF2C20FFF79EFF26
:101EE000F8BD10B5C4B2000AFFF7B6FF2046FFF7F1
:101EF000B3FF10BD70B5A0B004467F239F22002120
:101F00000846FFF7C7FF002306E020AA02EB4302C2
:101F100022F8804C0133DBB23F2BF6D94FF4A046B8
:101F20000AE020AB03EB440333F8800CFFF7D9FF42
:101F30000134AC42F5D3761B2EB13546402E28BF76
:101F400040250024F5E720B070BD10B504463620CA
:101F5000FFF764FF032C06D8DFE804F002060A0E40
:101F6000C020FFF779FF10BDA020FFF775FFFAE74B
:101F70000020FFF771FFF6E76020FFF76DFFF2E743
:101F800008B5FFF7FBFEFFF737FF0120FFF746FF1D
:101F90009620FFF70DFB1120FFF740FF9620FFF77B
:101FA00007FB3A20FFF73AFF5520FFF755FF362091
:101FB000FFF734FFC820FFF74FFF2920FFF72EFF60
:101FC0003220FFF7F5FA0020FFF794FF08BD10B5A7
:101FD00014460B460246FFF75DFF2046FFF781FFE0
:101FE00010BD2DE9F04F83B0BDF83090A2F1200470
:101FF000E4B25E2C2CD8019388460746A2F1200A51
:102000009DF835B00BFB0AFA002518E04A46FFF7A9
:10201000DEFF0134E4B29DF83430A3420DD9381903
:1020200080B208EB050189B2013B1B1B46FA03F3A2
:1020300013F0010FEAD0019AE9E70135EDB2AB45A3
:1020400006D905EB0A030E9A32F813600024E2E782
:1020500003B0BDE8F08F2DE9F04184B00546884615
:1020600014461F46BDF828600FE001AB0BA903C959
:1020700083E8030000963B4641462846FFF7B1FF40
:102080009DF82C00284485B2013494F90020002AE0
:10209000EBD104B0BDE8F081B42800D9B42040F2FF
:1020A000DC5303FB00F08008034BA3FB00308008E7
:1020B00000F5FA7080B27047176CC116284B1B6888
:1020C00013F0010F4BD010B5254A136823F001031C
:1020D0001360244B1B881BB3224A13880A339BB21C
:1020E0001380214A128893422DD8204A13880A333C
:1020F0009BB2138040F6C312934210D900231B4AAF
:102100001380184A13801A4A13780133DBB2137014
:10211000184A1278934202D3154B00221A7010BD50
:10212000134C154B1978237819440122C9B2134B6B
:102130001878FFF72DFD2378114AD05CFFF7ACFF2C
:10214000094B1880C8E70C4B1978094B1B781944C8
:102150000022C9B2094B1878FFF71AFDC5E770478E
:1021600010000040640700206C0700206A07002070
:10217000600700206207002061070020630700203D
:10218000680700202DE9F04385B08046894602EBC0
:10219000820202EB820202F10A040E4E01AD96E8C1
:1021A000030085E80300002700973B460A4A2146C2
:1021B0000A20FFF750FF96E8030085E80300009728
:1021C0004B46424621460A20FFF745FF05B0BDE8D1
:1021D000F08300BF10000020744500082DE9F8438B
:1021E0000746884615460A46002100F035FA0024C5
:1021F000264603E00120FFF7DBF9013405EB8502F9
:102200005300A34221D90020FFF734F8431EDBB26C
:10221000FD2BEFD808F1FF33B342EBD906F10109EA
:10222000B855002307F809300D49384600F058FA30
:1022300080B90C49384600F053FA68B90A49384663
:1022400000F04EFA50B94E46D4E7301C18BF0120BA
:10225000BDE8F8830120FBE70120F9E70120F7E75B
:102260009045000894450008984500082DE9F04184
:102270009AB0FFF725FA0020FFF764FB002108461B
:10228000FFF738FA01210020FFF734FA0421032078
:10229000FFF730FA0C210320FFF72CFAA34D18ABFF
:1022A00095E8030083E803001846FFF727FD16AB07
:1022B00005F1080292E8030083E803001846FFF7DF
:1022C0001DFD0024149415944FF003088DF85180DF
:1022D00001278DF8527002238DF854308DF8553057
:1022E00014A8FFF70BFD10AE05F110030FCB86E825
:1022F0000F003046FEF7B4FE2B8C1AA820F82C3DB8
:10230000FFF71CF9FFF73AFD8948FFF780F9FFF75F
:1023100037FE3846FFF719FE2046FFF7EBFD224651
:102320004FF6FF718348FFF72DFF3A464FF6FF71D6
:102330008148FFF727FF4FF4FA60FFF739F942466B
:102340004FF6E0717D48FFF71DFF7D492046FFF7FE
:102350004FF84FF47A70FFF72BF940F6B8324FF48C
:1023600096717848FFF73AFF00285AD076497548A9
:1023700000F0B6F9002841D004224FF4FC61734804
:10238000FFF700FF40F6B830FFF712F908224FF6CA
:10239000E0716F48FFF7F6FE6E490020FFF728F85E
:1023A00040F6B8324FF496716648FFF717FF0028E1
:1023B0006DD009224FF4FC616748FFF7E3FE4FF44C
:1023C000FA60FFF7F5F80A224FF6E0716348FFF76D
:1023D000D9FE63490020FFF70BF840F6B8324FF4FE
:1023E00096715848FFF7FAFE002857D00B224FF499
:1023F000FC615C48FFF7C6FE002466E004224FF64D
:10240000E0715948FFF7BEFE4E4B584A192107A804
:1024100000F02AF9052240F2FF7107A8FFF7B2FE8B
:10242000B0E704224FF478415148FFF7ABFE052294
:102430004FF6FF714F48FFF7A5FE06224FF6E071F9
:102440004D48FFF79FFE4FF41653119310A8FEF767
:1024500007FE4FF4FA70FFF7ABF839490020FEF79A
:10246000C7FF40F6B8324FF496713648FFF7B6FE14
:1024700030B107224FF4FC614048FFF783FE81E74B
:1024800007224FF478413E48FFF77CFE7AE70922A5
:102490004FF478413B48FFF775FE90E70B224FF46D
:1024A00078413948FFF76EFEA6E70E224FF47841D7
:1024B0003648FFF767FE0F224FF6FF713448FFF7EB
:1024C00061FE41F28830FFF773F801342346314A48
:1024D0001E2107A800F0C8F80D224FF6FF7107A8CB
:1024E000FFF750FE16490020FEF782FF4FF4FA6214
:1024F0004FF496711348FFF771FE0028D5D00E22D5
:102500004FF4FC612448FFF73DFE03210020FFF754
:102510007DFB0C4B214A1921684600F0A5F80F22DB
:1025200040F2FF716846FFF72DFECAE750450008EC
:1025300000300140A0450008B8450008D04500081B
:10254000E44500088007002094450008EC45000899
:1025500094460008A8460008B4460008DC46000877
:10256000F04600080047000808460008204600081A
:102570002C460008404600085446000868460008FB
:102580007C460008CC460008104700084C4700086D
:102590005C47000824470008344700084447000807
:1025A00070B594B000240194204B1A6C42F0805214
:1025B0001A641B6C03F080530193019B02941C4B23
:1025C0001A6842F440421A601B6803F440430293C5
:1025D000029B0123089309934FF480030F9319235F
:1025E00010934FF4A87311930426129607231393A4
:1025F00002250E9508A8FDF7E1FF0F23039304952C
:1026000005944FF4805306930794294603A8FEF7D8
:102610003DFAFEF767FB074BA3FB00308009FDF78F
:1026200099FF3046FDF7ACFF14B070BD0038024092
:1026300000700040D34D621008B5FDF707FFFFF7AB
:10264000AFFFFEF7A7FC08BD70470000014B1868FC
:10265000704700BF1800002002440346934200D197
:10266000704703F8011BF9E70CB430B5174B0C1E8B
:102670009DB01D6808DA8B232B604FF0FF301DB032
:10268000BDE8304002B070474FF40273ADF814302B
:1026900014BF04F1FF332346049307934FF6FF73EF
:1026A00002900690ADF81630209A21AB02A9284678
:1026B000019300F0C3F8431CBCBF8B232B60002C9C
:1026C000DDD0029B00221A70D9E700BF180000205D
:1026D000034613F8012B002AFBD1181A0138704762
:1026E000F0B503787BB1044623782046661C7BB1A5
:1026F0004A1E631E12F8015F4DB113F8017FAF420D
:102700003446F7D0F0E70B78002B18BF0020F0BD5F
:102710001846FCE730B5141E05469BB0184605DA8E
:102720008B232B604FF0FF301BB030BD4FF4027392
:10273000ADF80C3014BF04F1FF3323460293059328
:102740004FF6FF7300910491ADF80E3002461E9BC8
:102750006946284600F072F8431CBCBF8B232B60EF
:10276000002CE1D0009B00221A70DDE707B5009332
:1027700013460A46014603480068FFF7CBFF03B043
:102780005DF804FB180000202DE9F0478E689E429A
:1027900082460C469046994637D88A8912F4906F43
:1027A00031D0256809696F1A6569022305EB450573
:1027B00095FBF3F509F101033B449D4238BF1D46EB
:1027C000530530D5294600F07DFB064650B90C2351
:1027D000CAF80030A38943F04003A3814FF0FF30D3
:1027E000BDE8F0873A46216900F0FAFAA38923F49C
:1027F000906343F08003A381266165613E44ED1B35
:102800002660A5604E464E4500D94E4632464146AA
:10281000206800F0F0FAA3689B1BA36023681E44A5
:1028200026600020DCE72A4600F0A6FB06460028CA
:10283000E2D12169504600F0F7FAC8E72DE9F04FE0
:102840009DB0804603938B891D060C4616460FD516
:102850000B696BB9402100F035FB2060206128B97D
:102860000C23C8F800304FF0FF30C7E0402363610D
:102870000023099320238DF8293030238DF82A3046
:102880004FF0010B37463D4615F8013B0BB1252BA8
:102890003ED1B7EB060A0BD053463246214640469E
:1028A000FFF772FF013000F0A480099B53440993A5
:1028B0003B78002B00F09D8000234FF0FF32CDE9E4
:1028C0000523049307938DF853301A932F4605225E
:1028D00017F8011B4F4800F033FA049BD0B9D90612
:1028E00044BF20228DF853201A0744BF2B228DF8B5
:1028F00053202A782A2A15D0079A2F4600200A2525
:10290000394611F8013B303B092B4DD9B8B10FE0E6
:102910002F46B8E73F4A801A0BFA00F0184304909C
:102920003D46D3E7039A111D12680391002A01DB8B
:10293000079204E0524243F00203079204933B786B
:102940002E2B0CD17B782A2B33D1039B1A1D1B68AD
:102950000392002BB8BF4FF0FF33023705932E4D83
:1029600039780322284600F0EBF938B14023401BA8
:1029700003FA00F0049B0343013704933978274896
:102980008DF8281006227E1C00F0DAF9002838D0D5
:10299000234B13BB039B073323F007030833039335
:1029A000099B4B4409936DE705FB023201200F465A
:1029B000A6E700230137059319460A25384610F883
:1029C000012B303A092A03D9002BC8D00591C6E75C
:1029D00005FB012101230746F0E703AB00932246E4
:1029E000104B04A94046AFF30080B0F1FF3F814691
:1029F000D6D1A3895B063FF536AF09981DB0BDE877
:102A0000F08F03AB00932246064B04A9404600F02A
:102A100081F8EAE770470008764700087A4700081F
:102A200000000000892700082DE9F04791461F4665
:102A30008A680B69DDF820809342B8BF1346C9F855
:102A4000003091F8432006460C4612B10133C9F814
:102A500000302368990642BFD9F800300233C9F824
:102A60000030256815F0060507D104F1190AE3685E
:102A7000D9F800209B1AAB4228DC94F84330226836
:102A8000003318BF012392062DD404F143023946C6
:102A90003046C047013020D02368E568D9F80020CF
:102AA00003F00603042B08BFAD1AA36822690CBF0C
:102AB00025EAE57500259342C4BF9B1AED184FF037
:102AC00000091A344D451AD1002008E0012352466E
:102AD00039463046C047013003D14FF0FF30BDE8E2
:102AE000F0870135C3E7E1185A1C302081F8430014
:102AF000224494F8451082F843100233C5E70123BD
:102B0000224639463046C0470130E6D009F1010976
:102B1000D8E700002DE9F04301F1430C0C46097E93
:102B200085B06E291746064698460C9A00F0B38089
:102B300022D8632936D00AD8002900F0B980582954
:102B400000F0838004F1420584F8421032E06429E9
:102B500001D06929F6D120681368050603F1040144
:102B60002AD51B681160002B03DA2D225B4284F802
:102B700043206F480A2239E0732900F09D8008D86D
:102B80006F2920D07029DDD1236843F02003236012
:102B900003E0752917D07829D4D1782384F84530FB
:102BA000644855E01368191D1B68116004F1420563
:102BB00084F8423001238CE01B68116010F0400F54
:102BC00018BF1BB2CFE713682568181D10602806D0
:102BD00001D51B6802E06806FBD51B8854486F29A5
:102BE00014BF0A220822002184F843106568A560FA
:102BF000002DC0F29580216821F004012160002B96
:102C00003DD1002D40F08E806546082A0BD1236807
:102C1000DB0708D5236962689A42DEBF302305F8D6
:102C2000013C05F1FF35ACEB05032361CDF80080D5
:102C30003B4603AA21463046FFF7F6FE01304DD150
:102C40004FF0FF3005B0BDE8F083394884F84510F7
:102C5000136821681D1D1B6815600A060BD5CA077D
:102C600044BF41F0200121601BB9226822F02002FC
:102C700022601022B7E74D0648BF9BB2EFE76546DA
:102C8000B3FBF2F102FB1133C35C05F8013D0B46C7
:102C90000029F5D1B9E7136825686169181D10602E
:102CA00028061B6801D5196002E06A06FBD5198069
:102CB000002323616546B9E71368191D11601D687B
:102CC00062680021284600F03BF808B1401B6060B4
:102CD00063682361002384F84330A7E723692A4609
:102CE00039463046C0470130AAD023689B0713D429
:102CF000E068039B9842B8BF1846A3E701234A4601
:102D000039463046C04701309AD00135E368039A0E
:102D10009B1AAB42F2DCEBE7002504F11909F5E759
:102D2000002BACD1037884F8423004F142056CE703
:102D300081470008924700080000000000000000E2
:102D400001F0FF01102A2BDB10F0070F08D010F85C
:102D5000013B013A8B422DD010F0070F42B3F6D160
:102D6000F0B441EA012141EA014122F007047FF079
:102D700000070023F0E80256083C85EA010586EAD0
:102D8000010685FA47F5A3FA87F586FA47F6A5FA0C
:102D900087F68EB9EED1F0BC01F0FF0102F0070218
:102DA00032B110F8013B013A83EA010313B1F8D1C3
:102DB0000020704701387047002D06BF35460338A4
:102DC000073815F0010F07D1013015F4807F02BFDD
:102DD000013015F4C03F0130F0BC0138704700BF2E
:102DE00010B5431E0A44914200D110BD11F8014BA9
:102DF00003F8014FF7E7884210B501EB020307D84B
:102E0000421E99420AD011F8014B02F8014FF8E72F
:102E10008342F5D98118D21AD34200D110BD13F8DC
:102E2000014D01F8014DF7E738B50546002945D0B9
:102E300051F8043C0C1F002BB8BFE41800F0D2F886
:102E40001F4A1368104633B9636014602846BDE812
:102E5000384000F0C8B8A3420CD9216862189342E8
:102E600004BF1A685B68636004BF52182260046084
:102E7000ECE713465A680AB1A242FAD91968581801
:102E8000A0420BD120680144581882421960DDD15C
:102E9000106852685A6001441960D7E702D90C23C0
:102EA0002B60D3E7206821188A4204BF116852685A
:102EB000626004BF091821605C60C7E738BD00BFCD
:102EC0007007002070B5CD1C25F0030508350C2DCA
:102ED00038BF0C25002D064601DBA94203D90C237F
:102EE0003360002070BD00F07DF8214A146821464F
:102EF00091B9204C23681BB9304600F063F820607C
:102F00002946304600F05EF8431C24D10C23336080
:102F1000304600F068F8E4E70B685B1B18D40B2B15
:102F20000FD90B60CD50CC18304600F05CF804F19E
:102F30000B00231D20F00700C31AD3D05A42E250E1
:102F4000D0E78C424B6816BF636013600C46EBE71A
:102F50000C464968CCE7C41C24F00304A04205D009
:102F6000211A304600F02EF80130CFD02560DBE783
:102F70007007002074070020F8B5074614460E4677
:102F800021B91146BDE8F840FFF79CBF22B9FFF711
:102F90004BFF25462846F8BD00F026F8A0420FD288
:102FA00021463846FFF78EFF05460028F2D031460D
:102FB0002246FFF715FF31463846FFF735FFE9E7B0
:102FC0003546E7E738B5064C00230546084623603A
:102FD000FDF79AFE431C02D1236803B12B6038BD74
:102FE0007C0700207047704751F8043C181F002BE5
:102FF000BCBF0B58C01870472E2E2F7379737465A1
:103000006D2F7372632F73746D333266342D686164
:103010006C2F73746D3332663478785F68616C5FDF
:10302000636F727465782E6300000000000000007A
:103030000102030401020304060708092E2E2F7360
:10304000797374656D2F7372632F73746D33326689
:10305000342D68616C2F73746D3332663478785F09
:1030600068616C5F7263632E6300000061626F725F
:103070007428292C2065786974696E672E2E2E00BD
:103080006173736572745F706172616D2829206667
:1030900061696C65643A2066696C6520222573223B
:1030A0002C206C696E652025640A000053746163EE
:1030B0006B206672616D653A0A0000002052302074
:1030C0003D2020253038580A0000000020523120D1
:1030D0003D2020253038580A0000000020523220C0
:1030E0003D2020253038580A0000000020523320AF
:1030F0003D2020253038580A00000000205231328F
:10310000203D20253038580A00000000204C522075
:103110003D2020253038580A000000002050432070
:103120003D2020253038580A00000000205053521E
:10313000203D20253038580A000000004653522F09
:103140004641523A0A0000002043465352203D2097
:1031500020253038580A00002048465352203D2090
:1031600020253038580A00002044465352203D2084
:1031700020253038580A00002041465352203D2077
:1031800020253038580A0000204D4D464152203D40
:1031900020253038580A00002042464152203D2068
:1031A00020253038580A00004D6973630A0000007A
:1031B000204C522F4558435F52455455524E3D20A6
:1031C000253038580A0000005B486172644661751A
:1031D0006C745D0A000000005B4275734661756C9B
:1031E000745D0A005B55736167654661756C745D5B
:1031F0000A000000000000000000000001020304BB
:1032000006070809000000000000000000000000A0
:1032100000000000000000000000000000000000AE
:10322000000000000000000000000000000000009E
:103230000000000000000000E003E003E003E00302
:10324000E003E003E003E003C003C003C001C001EA
:10325000C001C001C001000000000000E003E00365
:10326000E003000000000000000000003C1E3C1EC7
:103270003C1E3C1E3C1E3C1E3C1E0000000000008C
:10328000000000000000000000000000000000003E
:10329000000000000000000000000000000000002E
:1032A000CE01CE03DE039E039C039C07FF3FFF7FFE
:1032B0003807380F780F780F780EFFFFFFFFF01EEA
:1032C000F01CE01CE03CE03DE039000000000000A4
:1032D00000000000FC03FE0FEE1FE01EE01EE01EDB
:1032E000E01EE01FE00FE007F003FC01FE01FE011D
:1032F000FE01FE01FE01FE01FE3DFC3FF00FE0017C
:10330000E001000000000000033E07F78FE78EE7B2
:103310009EE3BCE3B8E7F8E7F0F7E03FC001FF0346
:10332000FF07F307F30FF31EF33CF338F3787FF056
:103330003FE000000000000000000000E007F80F80
:10334000780F781F781F781F780FF00FE00F801F1D
:10335000C37FC3FBE7F3F7F1F7F0FFF07FF03EF830
:103360007F7CFF3FEF1F0000000000000000000016
:10337000E003E003E003E003E003C003C00100005A
:10338000000000000000000000000000000000003D
:10339000000000000000000000000000000000002D
:1033A000000000003F007C00F001E001C003C00706
:1033B00080078007800F000F000F000F000F000F25
:1033C000000F800F80078007C007C003E001F001F5
:1033D0007C003F000F000000007E001FC007C003FC
:1033E000E001F001F000F000F800780078007800CB
:1033F000780078007800F800F000F000F001E001BB
:10340000C003C007001F007E00780000E003C00377
:10341000C001CE39FF3F7F3F20037003F807780FCC
:103420003C1F380600000000000000000000000003
:10343000000000000000000000000000000000008C
:10344000000000000000000000000000C001C001FA
:10345000C001C001C001C001C001FFFFFFFFC001EA
:10346000C001C001C001C001C00100000000000097
:10347000000000000000000000000000000000004C
:10348000000000000000000000000000000000003C
:10349000000000000000E003E003E003E003E001BF
:1034A000E001E001C0018003000000000000000016
:1034B0000000000000000000000000000000FE3FCF
:1034C000FE3F0000000000000000000000000000BF
:1034D00000000000000000000000000000000000EC
:1034E00000000000000000000000000000000000DC
:1034F0000000000000000000000000000000E003E9
:10350000E003E003E0030000000000000000000012
:103510000F000F001E001E003C003C0078007800E9
:10352000F000F000E001E001C003C0038007800765
:10353000000F000F001E001E003C003C00780078C9
:1035400000F00000F007F80F7C1F3E3E1E3C1F7C81
:103550001F7C0F780F780F780F780F780F780F781F
:103560001F7C1F7C1E3C3E3E7C1FF80FF0070000B6
:103570000000000000000000F000F007F03FF03F06
:10358000F001F001F001F001F001F001F001F001B3
:10359000F001F001F001F001F001F001F001FF3F56
:1035A000FF3F00000000000000000000E00FF83FB7
:1035B0007C3C3C003E003E003E003C003C007C0069
:1035C000F800F001E003C0078007000F001E003E76
:1035D000003CFE3FFE3F0000000000000000000035
:1035E000F00FF81F7C1C3E003E003E003C003C00FB
:1035F000F800F00FF80F7C003E001E001E001E00B9
:103600001E003E007C1CF81FE01F000000000000B0
:10361000000000007800F800F800F801F803F8074F
:10362000F807780F781E781E783C78787878FFFF56
:10363000FFFF7800780078007800780078000000BC
:103640000000000000000000FC1FFC1FFC1F001E0B
:10365000001E001E001E001EE01FF81FFC007C0064
:103660003E003E001E003E003E003C007C1CF81F59
:10367000E01F00000000000000000000FC01FE0749
:103680008E0F001F001E003E003C003CF83DFC3F3A
:103690003E7F1F7E0F3C0F3C0F3C0F3C0F3E1F1E1A
:1036A0003E1FFC0FF00300000000000000000000BF
:1036B000FF3FFF3FFF3F0F001E001E003C00380091
:1036C0007800F000F000E001E001C003C0038007D3
:1036D000800F800F000F001F001F0000000000007F
:1036E00000000000F807FC0F3E1F1E1E1E3E1E3E7F
:1036F0001E1E3C1FF80FF007F80FFC1E3E3E1F3C3D
:103700001F7C0F7C0F7C1F3C3E3FFC1FF00700001E
:103710000000000000000000F007F80F7C1E3E3C97
:103720001E3C1F7C1F7C1F7C1F7C1F3C3F3EFF1FDD
:10373000EF071F001E001E003E003C00F838F03F5F
:10374000E01F00000000000000000000000000007A
:103750000000000000000000E003E003E003E003DD
:103760000000000000000000000000000000E00376
:10377000E003E003E00300000000000000000000A0
:10378000000000000000000000000000E003E00373
:10379000E003E00300000000000000000000000063
:1037A0000000E003E003E003E003E001E001E001EA
:1037B000C0038003000000000000000000000000C3
:1037C00003000F003F00FC00F003C00F003F00FEAD
:1037D000003FC00FF003FC003F000F00030000009B
:1037E00000000000000000000000000000000000D9
:1037F000000000000000000000000000FFFFFFFFCD
:10380000000000000000FFFFFFFF000000000000BC
:1038100000000000000000000000000000000000A8
:10382000000000000000000000E000F8007E801FA3
:10383000E007F8017E001F007E00F801E007801F0E
:10384000007E00F800E00000000000000000000022
:10385000F01FFC3F3E381F381F381E001E003C0082
:103860007800F000E001C003C003C007C0070000FB
:1038700000000000C007C007C007000000000000F3
:1038800000000000F803FE0F1E1F0F3E7F3CFF7874
:10389000EF79C773C7F38FF38FF38FF39FF39FF322
:1038A000FF73FF7BF779003C1C1FFC0FF80300003F
:1038B0000000000000000000000000000000E00325
:1038C000E003F007F007F007780F780F7C0E3C1E3E
:1038D0003C1E3E3CFE3FFF3F1F780F780FF007F085
:1038E00007F00000000000000000000000000000E1
:1038F0000000F83FFC3F3E3C1E3C1E3C1E3C3E3C54
:103900007C3CF03FF83F7E3C1F3C1F3C0F3C0F3C93
:103910001F3CFE3FF83F00000000000000000000D8
:10392000000000000000FF01FF07871F003E003C71
:10393000007C00780078007800780078007C007CBB
:10394000003E003F831FFF07FF0100000000000052
:1039500000000000000000000000F07FFC7F7E7887
:103960001F781F780F780F780F780F780F780F78FF
:103970000F780F781F781E787E78F87FE07F000040
:103980000000000000000000000000000000FF3FF9
:10399000FF3F003E003E003E003E003E003EFE3F38
:1039A000FE3F003E003E003E003E003E003EFF3F28
:1039B000FF3F0000000000000000000000000000C9
:1039C0000000FF1FFF1F001E001E001E001E001E25
:1039D000001EFF1FFF1F001E001E001E001E001EF7
:1039E000001E001E001E000000000000000000007D
:1039F000000000000000FE03FF0F871F003E007C58
:103A0000007C007800F800F87FF87FF80F780F7CD2
:103A10000F7C0F3E8F1FFF0FFE0300000000000011
:103A2000000000000000000000001F7C1F7C1F7CC5
:103A30001F7C1F7C1F7C1F7C1F7CFF7FFF7F1F7CE8
:103A40001F7C1F7C1F7C1F7C1F7C1F7C1F7C000039
:103A50000000000000000000000000000000FF3F28
:103A6000FF3FE003E003E003E003E003E003E003E3
:103A7000E003E003E003E003E003E003E003FF3FD3
:103A8000FF3F0000000000000000000000000000F8
:103A90000000FC1FFC1F7C007C007C007C007C0084
:103AA0007C007C007C007C007C007C00780078003E
:103AB000F838F03FC03F00000000000000000000A8
:103AC0000000000000001F3C1E3C3C3C783CF03CE9
:103AD000E03DE03FC03F803FC03FE03FF03DF03C75
:103AE000783C7C3C3E3C1F3C0F3C0000000000004A
:103AF00000000000000000000000003E003E003E0C
:103B0000003E003E003E003E003E003E003E003EC5
:103B1000003E003E003E003E003EFF3FFF3F0000F3
:103B200000000000000000000000000000001FF87E
:103B30001FFC1FFC3FFE3FFE3FFE7FFF77FF77FF2E
:103B4000F7F7E7F7E7F3E7F3C7F307F007F007F056
:103B500007F000000000000000000000000000006E
:103B600000000F7C0F7C0F7E0F7F0F7F8F7F8F7F7A
:103B7000CF7FEF7BEF79FF79FF78FF787F783F7811
:103B80003F781F781F780000000000000000000050
:103B9000000000000000F007FC1F3E3E1F7C0F7875
:103BA0000F780FF80FF80FF80FF80FF80FF80F78DD
:103BB0000F781F7C3E3EFC1FF00700000000000055
:103BC00000000000000000000000FC3FFF3F1F3E1F
:103BD0000F3E0F3E0F3E0F3E1F3E3F3EFC3FF03F6D
:103BE000003E003E003E003E003E003E003E000023
:103BF0000000000000000000000000000000F007CE
:103C0000FC1F3E3E1F7C0F780F780FF80FF80FF85F
:103C10000FF80FF80FF80F780F781F7C3E3EFC1F4F
:103C2000F8077C003F000F000300000000000000C8
:103C30000000F03FFC3F7E3C3E3C1E3C1E3C3E3CB8
:103C40003C3CFC3CF03FE03FF03DF83C7C3C3E3CE3
:103C50001E3C1F3C0F3C0000000000000000000064
:103C6000000000000000FC07FE1F0E3E003C003C70
:103C7000003C003EC01FF80FFE037F001F000F0036
:103C80000F001F203E3CFC3FF01F00000000000022
:103C900000000000000000000000FFFFFFFFE00345
:103CA000E003E003E003E003E003E003E003E003FC
:103CB000E003E003E003E003E003E003E0030000CF
:103CC00000000000000000000000000000000F7C69
:103CD0000F7C0F7C0F7C0F7C0F7C0F7C0F7C0F7C8C
:103CE0000F7C0F7C0F7C0F7C1E3C1E3C3E3EFC1F5D
:103CF000F0070000000000000000000000000000CD
:103D0000000007F007F007F80F780F7C1E3C1E3C00
:103D10001E3E3C1E3C1F781F780FF80FF007F0077F
:103D2000F007E003E00300000000000000000000D6
:103D300000000000000003E003F003F007F0E7F3E9
:103D4000E7F3E7F3E773F77BF77FFF7F7F7F7F7F03
:103D50007E7F7E3F3E3E3E3E3E3E00000000000035
:103D60000000000000000000000007F80F7C1E3E6D
:103D70003E3E3C1FF80FF007E007E003E003F007CA
:103D8000F80F7C0F7C1E3E3C1F780F780FF0000070
:103D9000000000000000000000000000000007F824
:103DA00007780F7C1E3C1E3E3C1F780FF80FF00773
:103DB000E003E003E003E003E003E003E003E003EB
:103DC000E003000000000000000000000000000010
:103DD0000000FF7FFF7F0F001F003E007C00F80007
:103DE000F000E001E003C007800F000F001E003E5E
:103DF000007CFF7FFF7F000000000000000000004B
:103E0000FF078007800780078007800780078007FB
:103E1000800780078007800780078007800780076A
:103E20008007800780078007800780078007FF07DB
:103E3000FF07000000780078003C003C001E001ED8
:103E4000000F000F80078007C003C003E001E001FE
:103E5000F000F000780078003C003C001E001E00DE
:103E60000F000F0007000000F07FF000F000F000EE
:103E7000F000F000F000F000F000F000F000F000C2
:103E8000F000F000F000F000F000F000F000F000B2
:103E9000F000F000F000F07FF07F0000C000C001F3
:103EA000C001E003E003F007F0077807780F380F50
:103EB0003C1E3C1E1E3C1E3C0F380F78077800004D
:103EC00000000000000000000000000000000000F2
:103ED00000000000000000000000000000000000E2
:103EE00000000000000000000000000000000000D2
:103EF00000000000000000000000FFFFFFFF0000C6
:103F000000000000F00000000000000000000000C1
:103F100000000000000000000000000000000000A1
:103F20000000000000000000000000000000000091
:103F30000000000000000000000000000000000081
:103F400000000000F80FFC3F7C3C3E003E003E00BD
:103F5000FE07FE1F3E3E3E7C3E783E7C7E7CFF3F61
:103F6000CF1F00000000000000000000003C003CEB
:103F7000003C003C003C003CF83DFE3F3E3F1F3E05
:103F80000F3C0F3C0F3C0F3C0F3C0F3C1F3C1E3CBA
:103F90003E3FFC3FF03B000000000000000000003E
:103FA000000000000000000000000000FE03FF0F02
:103FB000871F003E003E003C007C007C007C003CF3
:103FC000003E003E871FFF0FFE03000000000000C0
:103FD000000000001F001F001F001F001F001F0027
:103FE000FF07FF1F3F3E1F3C1F7C1F7C1F7C1F786D
:103FF0001F781F7C1F7C3F3C7F3EFF1FDF0F0000B0
:1040000000000000000000000000000000000000B0
:1040100000000000F803FC0F3E1F1E3E1F3C1F7CEB
:10402000FF7FFF7F007C007C003C003E071FFF0FEE
:10403000FE0300000000000000000000FF01E1039B
:10404000C003C007C007C007FF7FFF7FC007C007CE
:10405000C007C007C007C007C007C007C007C00728
:10406000C007C007C00700000000000000000000FB
:10407000000000000000000000000000EF07FF1F2C
:104080007F3E1F3C1F7C1F7C1F781F781F781F7C82
:104090001F7C3F3C7F3EFF1FDF0F1E001E001E00E7
:1040A0007C38F83F003C003C003C003C003C003CBD
:1040B000FC3DFE3F9E3F1F3F1F3E1F3C1F3C1F3CE1
:1040C0001F3C1F3C1F3C1F3C1F3C1F3C1F3C000073
:1040D0000000000000000000F001F00100000000FE
:1040E00000000000E07FE07FE001E001E001E0018E
:1040F000E001E001E001E001E001E001E001E001B8
:10410000E00100000000000000000000F800F800DE
:104110000000000000000000F83FF83FF800F80041
:10412000F800F800F800F800F800F800F800F800CF
:10413000F800F800F800F800F800F000F071E07FF7
:10414000003C003C003C003C003C003C1F3C3E3C32
:104150007C3CF83CF03DE03DC03FC03FE03FF03DDF
:10416000F83C7C3C3E3C1F3C1F3C00000000000033
:1041700000000000F07FF001F001F001F001F0011B
:10418000F001F001F001F001F001F001F001F001A7
:10419000F001F001F001F001F001F001F001000088
:1041A000000000000000000000000000000000000F
:1041B000000000009EF7FFFFFFFFFFFFE7FBE7F9AE
:1041C000C7F1C7F1C7F1C7F1C7F1C7F1C7F1C7F12F
:1041D000C7F1000000000000000000000000000027
:1041E0000000000000000000FC3DFE3F9E3F1F3F1E
:1041F0001F3E1F3C1F3C1F3C1F3C1F3C1F3C1F3CE5
:104200001F3C1F3C1F3C000000000000000000009D
:10421000000000000000000000000000F007FC1F8C
:104220003E3E1F3C1F7C0F780F780F780F780F7879
:104230001F7C1F3C3E3EFC1FF007000000000000FA
:10424000000000000000000000000000000000006E
:10425000F83DFE3F3E3F1F3E0F3C0F3C0F3C0F3CE6
:104260000F3C0F3C1F3C1E3E3E3FFC3FF83F003CD6
:10427000003C003C003C003C00000000000000004E
:1042800000000000EE07FE1F7E3E1E3C1E7C1E78D6
:104290001E781E781E781E781E7C3E7C7E3EFE1F99
:1042A000DE0F1E001E001E001E001E00000000008B
:1042B00000000000000000007F1FFF1FE71FC71F56
:1042C000871F001F001F001F001F001F001F001F6F
:1042D000001F001F001F0000000000000000000081
:1042E000000000000000000000000000FC07FE1FAE
:1042F0000E1E003E003E003FE01FFC07FE003E0099
:104300001E001E003E3CFC3FF01F000000000000AD
:104310000000000000000000000080078007800708
:10432000FF7FFF7F80078007800780078007800767
:104330008007800780078007C007FF03FF01000098
:10434000000000000000000000000000000000006D
:10435000000000001E3C1E3C1E3C1E3C1E3C1E3C41
:104360001E3C1E3C1E3C1E3C3E3C7E3CFE3EFE1F58
:10437000DE0F000000000000000000000000000050
:10438000000000000000000007F00F780F781E3CCE
:104390001E3C1E3E3C1E3C1E780F780FF00FF007AF
:1043A000F007E003E0030000000000000000000050
:1043B00000000000000000000000000003F0E3F136
:1043C000E3F3E7F3F7F3F7F3F77F777F7F7F7F7F01
:1043D0007F7F3E3E3E3E3E3E3E3E000000000000EF
:1043E00000000000000000000000000000000000CD
:1043F0000F7C1E3E3C3E3C1FF80FF007F007E00329
:10440000F007F807F80F7C1E3E3E1F3C1F780000A7
:10441000000000000000000000000000000000009C
:104420000000000007F80F780F7C1E3C1E3C3C1E6D
:104430003C1E3C1F780FF80FF007F007E003E00385
:10444000C003C003C0038007800F007F000000008E
:104450000000000000000000FF3FFF3F1F003E0083
:104460007C00F800F001E003C007800F001F001E71
:10447000003CFF7FFF7F0000000000000000000004
:10448000FE01E003C003C003C003C003E001E0017C
:10449000E001C001C003803F803FC003C001E001D4
:1044A000E001E001C003C003C003C003E003FE015C
:1044B0007E000000C001C001C001C001C001C001F8
:1044C000C001C001C001C001C001C001C001C001E4
:1044D000C001C001C001C001C001C001C001C001D4
:1044E000C001C001C0010000C03FE003E001E001E5
:1044F000E001E001C001C003C003C001E001FE0013
:10450000FE00E001C001C003C003C001E001E00102
:10451000E001E001E003C03F003F000000000000B8
:10452000000000000000000000000000000000008B
:104530000000073FC77FE773FFF17EF00000000037
:10454000000000000000000000000000000000006B
:104550000001020002010700000202000201070040
:104560001900000000C20100010201020203000064
:1045700001020000202020202020202020202020B8
:1045800020202020202020202020202000000000AB
:104590000D0A00004F4B00004552524F52000000E0
:1045A0004553502D30312048617264776172652027
:1045B00054657374000000003D3D3D3D3D3D3D3D73
:1045C0003D3D3D3D3D3D3D3D3D3D3D3D000000000F
:1045D0005465737420313A204261736963204154F9
:1045E0000000000041540D0A0000000041543A2030
:1045F0004F4B202D2045535020726573706F6E64B1
:10460000696E67210000000041543A20476F742012
:104610006461746120627574206E6F74204F4B006A
:10462000446174613A20252E3230730041543A209F
:104630004E6F20726573706F6E736521000000000D
:10464000436865636B20776972696E672F706F7757
:1046500065720000547279696E67203936303020F7
:10466000626175642E2E2E003936303020626175FD
:104670006420776F726B7321000000003936303090
:104680002062617564206661696C656420746F6F77
:10469000000000005465737420323A20476574208E
:1046A00056657273696F6E0041542B474D520D0A67
:1046B0000000000056657273696F6E20696E666F48
:1046C0002072656365697665640000004E6F207630
:1046D000657273696F6E20696E666F0054657374DE
:1046E00020333A20436865636B204D6F646500009A
:1046F00041542B43574D4F44453F0D0A00000000E5
:104700004D6F6465207175657279204F4B00000014
:104710004D6F6465207175657279206661696C659D
:104720006400000054657374206379636C653A20FB
:10473000256C750045535020726573706F6E646907
:104740006E670000252E3230730000004E6F20454A
:10475000535020726573706F6E73650043686563B4
:104760006B20636F6E6E656374696F6E73210000FA
:10477000232D302B2000686C4C006566674546474A
:1047800000303132333435363738394142434445CD
:10479000460030313233343536373839616263643C
:0347A0006566004B
:1047A4007856341288000020000000000024F40031
:1047B400101A0000043200081C0000200000000051
:1047C40000000000000000000000000000000000E5
:1047D40000000000000000000000000000000000D5
:1047E40000000000000000000000000000000000C5
:1047F40000000000000000000000000000000000B5
:1048040000000000000000000000000000000000A4
:104814000000000000000000000000003254769800
:040000050800019559
:00000001FF
