:020000040800F2
:1000000000000120C5020008CB020008CF02000852
:1000100041030008450300088D03000800000000AC
:10002000000000000000000000000000D5030008F0
:10003000D903000800000000DD030008C513000814
:10004000F1030008F1030008F1030008F1030008C0
:10005000F1030008F1030008B11D0008D11D0008DC
:10006000F1030008F1030008F1030008F1030008A0
:10007000F1030008F1030008F1030008F103000890
:10008000F1030008F1030008F1030008000000007C
:10009000000000000000000000000000F103000864
:1000A000F1030008F1030008F1030008F103000860
:1000B0004D2A0008F1030008F1030008F1030008CD
:1000C000F1030008F1030008F1030008F103000840
:1000D000F1030008751200087F12000800000000FC
:1000E000F1030008F1030008F1030008000000001C
:1000F000000000000000000000000000F103000804
:1001000000000000F1030008F1030008F1030008FB
:1001100000000000000000000000000000000000DF
:10012000F1030008F1030008F1030008F1030008DF
:10013000F1030008000000000000000000000000C3
:10014000000000000000000000000000F1030008B3
:10015000F1030008F1030008F10300088912000808
:10016000F1030008F1030008000000000000000097
:10017000000000000000000000000000000000007F
:1001800000000000F1030008000000000000000073
:10019000F103000800B583B000F046FE384B394A41
:1001A0001360394A1360394900E02146384B9942BF
:1001B0000BD20A684B6801F10C0488689842F4D9A4
:1001C0001168196004330432F8E72E4B1A68314B7A
:1001D0009A4200D0FEE72C4B1A682F4B9A42F9D175
:1001E000274B2E4A13602E4A13602E4B05E0002049
:1001F000106004329342FAD80B462B4A934204D241
:10020000194651F8082B5B68F4E7244B1B6813B9B7
:10021000234B1B6803B1FEE702F0B2FE694601A85A
:1002200000F094FD214C224BE41AA4100025AC42AE
:1002300014DC204C204BE41AA4100025AC4213DC43
:100240000099019802F016FE05461C4C1C4BE41A5E
:10025000A410002C0EDC284600F04AFD144B53F885
:10026000253098470135E2E7134B53F8253098477E
:100270000135E3E7013C124B53F824309847E8E797
:10028000BABADECA000000207C000020F403000897
:100290000C040008785634123254769880000020FE
:1002A000640800200C0400081C0400081C0400085A
:1002B0001C0400081C0400081C0400081C0400089E
:1002C0001C04000808B5FFF765FF00BEFEE71EF03E
:1002D000040F0CBFEFF30880EFF309807146414A29
:1002E00010472DE9F04182B004468846124B5E6B00
:1002F0009F6B9D6A1B6B13F0020F03D00E4BDB6AE2
:10030000002B0CDB0D4800F033FDCDF800803B46A0
:1003100032462946204600F093FD00BEFEE74BF62C
:10032000AB6100F007FE0028ECD0034B4FF0004219
:10033000DA6202B0BDE8F08100ED00E04844000858
:1003400000BEFEE71EF0040F0CBFEFF30880EFF3D2
:1003500009807146244A10472DE9F04182B00446D5
:100360008846084B5E6B9F6B9D6A074800F000FD56
:10037000CDF800803B4632462946204600F060FD1D
:1003800000BEFEE700ED00E0584400081EF0040F38
:100390000CBFEFF30880EFF309807146134A104752
:1003A0002DE9F04182B004468846084B5E6B9F6B96
:1003B0009D6A074800F0DCFCCDF800803B463246E1
:1003C0002946204600F03CFD00BEFEE700ED00E0BF
:1003D0006444000800BEFEE700BEFEE700BEFEE784
:1003E00070470000E302000859030008A103000859
:0403F00000BEFEE766
:1003F40098D50008000000208000002098D500084F
:100404000000001000000010800000206808002098
:080414000000001000000010C0
:1004200010B50446074B1868074BA3FB0030800942
:1004300000F090F8002221464FF0FF3000F044F821
:10044000002010BD0C000020D34D621008B50B4BEE
:100450001A6842F400721A601A6842F480621A60E4
:100460001A6842F480721A60032000F00FF80F201F
:10047000FFF7D6FF02F08CFD002008BD003C0240D3
:10048000014B1868704700BF5C08002010B5044697
:10049000C31E042B0FD80A4AD36823F4E0631B045D
:1004A0001B0C240204F4E064234343F0BF6343F4D1
:1004B0000033D36010BDA421024800F04FFCEAE7EE
:1004C00000ED00E07842000870B505460C4616467F
:1004D0000F2A25D80F2C28D81B4BDB68C3F3022327
:1004E000C3F10702042A28BF0422191D062921D9B5
:1004F000033B4FF0FF3101FA02F224EA02049C4070
:1005000001FA03F326EA03063443002D14DB240129
:10051000E4B205F1604505F5614585F8004370BD1D
:10052000BC210A4800F01AFCD4E7BD21074800F0BE
:1005300015FCD1E70023DCE705F00F052401E4B248
:10054000034B5C55EBE700BF00ED00E0784200088C
:1005500014ED00E00138B0F1807F0AD2064B5860FC
:10056000064AF02182F823100020986007221A60C2
:1005700070470120704700BF10E000E000ED00E090
:1005800010B50446042800D038B9042C0BD0094A11
:10059000136823F00403136010BD40F2B311064842
:1005A00000F0DCFBF1E7034A136843F00403136037
:1005B000F2E700BF10E000E07842000830B583B0F9
:1005C000044603680F2B29D8236813F0010F3DD090
:1005D0006368012B01D9052B25D1A34B9B6803F040
:1005E0000C03042B29D0A04B9B6803F00C03082BB1
:1005F0001ED022799D4B1A706368002B50D0FFF7F4
:100600003FFF0546984B1B6813F4003F1ED1FFF7D0
:1006100037FF401B6428F5D90320E3E1F521944816
:1006200000F09CFBD0E7FA21914800F097FBD4E75B
:100630008D4B5B6813F4800FDBD08B4B1B6813F47E
:10064000003F03D06368002B00F0C981236813F0DA
:10065000020F5DD0E368012B31D823691F2B34D8FA
:10066000814B9B6813F00C0F3AD07F4B9B6803F0D3
:100670000C03082B2FD0E368002B74D07D4B012294
:100680001A60FFF7FDFE0546774B1B6813F0020F5B
:100690005AD1FFF7F5FE401B0228F5D90320A1E14E
:1006A000FFF7EEFE0546704B1B6813F4003FCDD0FC
:1006B000FFF7E6FE401B6428F5D9032092E14FF4D2
:1006C00096716B4800F04AFBC7E740F22D1168486D
:1006D00000F044FBC4E7644B5B6813F4800FCAD19D
:1006E000614B1B6813F0020F04D0E368012B01D0AB
:1006F000012077E15C48036823F0F8032169F822C0
:1007000092FAA2F2B2FA82F201FA02F21343036001
:10071000236813F0080F50D06369012B35D8636943
:10072000002B38D0544B01221A60FFF7A9FE054672
:100730004D4B5B6F13F0020F3FD1FFF7A1FE401B43
:100740000228F5D903204DE14748036823F0F80358
:100750002169F82292FAA2F2B2FA82F201FA02F2C6
:1007600013430360D4E7434B00221A60FFF788FE6F
:1007700005463D4B1B6813F0020FC9D0FFF780FE02
:10078000401B0228F5D903202CE140F26D113848B6
:1007900000F0E4FAC3E7384B00221A60FFF770FE5E
:1007A0000546314B5B6F13F0020F06D0FFF768FE72
:1007B000401B0228F5D9032014E1236813F0040F2D
:1007C00060D0A368012B01D9052B1FD10023019311
:1007D000254B1A6C42F080521A641B6C03F0805354
:1007E0000193019B254A136843F480731360FFF75C
:1007F00047FE0546214B1B6813F4807F0CD1FFF7A1
:100800003FFE401B0228F5D90320EBE040F2971190
:10081000174800F0A3FAD9E7227A194B1A70A36897
:1008200083B1FFF72DFE05460F4B1B6F13F0020F30
:1008300028D1FFF725FE401B41F288339842F3D9B7
:100840000320CFE0FFF71CFE0546074B1B6F13F09C
:10085000020F17D0FFF714FE401B41F28833984275
:10086000F3D90320BEE000BF003802400238024046
:10087000BC42000800004742800E47420070004022
:1008800070380240A369022B39D8A369002B00F00D
:10089000A880564A926802F00C02082A00F0A48050
:1008A000022B40F08880E36913B1B3F5800F2CD19F
:1008B000236A3F2B2FD8636A323BB3F5BF7F30D812
:1008C000A36A022B05D0042B03D0062B01D0082BE2
:1008D0002DD1E36A043B0B2B2FD8454B00221A6025
:1008E000FFF7CEFD0546414B1B6813F0007F2AD071
:1008F000FFF7C6FD401B0228F5D9032072E04FF434
:10090000E6713C4800F02AFABFE740F2D5113948B9
:1009100000F024FACCE74FF4EB71364800F01EFAF1
:10092000C9E740F2D711334800F018FAC8E74FF48E
:10093000EC71304800F012FACBE740F2D9112D48A3
:1009400000F00CFAC9E7E369226A1343616A47F6CB
:10095000C07292FAA2F2B2FA82F201FA02F21343E0
:10096000A26A5208013A4FF4403191FAA1F1B1FA6A
:1009700081F18A401343E16A4FF0706292FAA2F269
:10098000B2FA82F201FA02F21343184A5360184B8A
:1009900001221A60FFF774FD0446144B1B6813F024
:1009A000007F06D1FFF76CFD001B0228F5D903205C
:1009B00018E0002016E00E4B00221A60FFF760FDE1
:1009C00004460A4B1B6813F0007F06D0FFF758FD62
:1009D000001B0228F5D9032004E0002002E00120DA
:1009E00000E0002003B030BD0120FBE700380240EA
:1009F00060004742BC420008214B9B6803F00C0397
:100A0000042B3AD0082B01D01E4870471C4B586865
:100A100000F03F005B6813F4800F1ED01A4AB2FB4F
:100A2000F0F2174B586847F6C073184093FAA3F3D7
:100A3000B3FA83F3D84000FB02F0114B5B6803F478
:100A400040334FF4403292FAA2F2B2FA82F2D3402B
:100A500001335B00B0FBF3F070470A4AB2FBF0F2DF
:100A6000074B586847F6C073184093FAA3F3B3FADC
:100A700083F3D84000FB02F0DFE70348704700BF74
:100A8000003802400024F40040787D0170B504462F
:100A90000D460368013B0E2B11D8072D15D88C4B42
:100AA0001B6803F00F03AB4215D2EBB2884A1370F8
:100AB000136803F00F03AB420DD0012070BD40F26C
:100AC0003721844800F04AF9E7E74FF40E71814876
:100AD00000F044F9E3E7236813F0020F18D0A3688D
:100AE0007BB1802B0DD0902B0BD0A02B09D0B02B3D
:100AF00007D0C02B05D0D02B03D0E02B01D0F02B9A
:100B000037D1754A936823F0F003A1680B439360D3
:100B1000236813F0010F73D06368032B2FD8636829
:100B2000012B32D09A1E012A36D96B4A126812F074
:100B3000020F00F0CA8068498A6822F0030213435A
:100B40008B60FFF79DFC06466368012B2BD0022BC0
:100B500038D0032B45D0604B9B6813F00C0F4FD05F
:100B6000FFF78EFC801B41F288339842F3D90320B3
:100B7000A4E740F24F21574800F0F0F8C1E740F2F7
:100B80005621544800F0EAF8C9E7534A126812F4B3
:100B9000003FD0D1012091E74F4A126812F0007F48
:100BA000C9D101208AE74C4B9B6803F00C03042B4E
:100BB00026D0FFF765FC801B41F288339842F2D9BA
:100BC00003207BE7444B9B6803F00C03082B17D0F2
:100BD000FFF756FC801B41F288339842F2D903207C
:100BE0006CE73D4B9B6803F00C030C2B08D0FFF720
:100BF00047FC801B41F288339842F2D903205DE71D
:100C0000334B1B6803F00F03AB4209D9EAB2304BF8
:100C10001A701B6803F00F03AB4201D001204DE7AF
:100C2000236813F0040F14D0E3685BB1B3F5805F61
:100C300008D0B3F5A05F05D0B3F5C05F02D0B3F51F
:100C4000E05F36D1244A936823F4E053E1680B4314
:100C50009360236813F0080F15D023695BB1B3F5D7
:100C6000805F08D0B3F5A05F05D0B3F5C05F02D0B8
:100C7000B3F5E05F23D1184A936823F460432169F8
:100C800043EAC1039360FFF7B7FE134B9B6803F081
:100C9000F003F02292FAA2F2B2FA82F2D3400F4AA3
:100CA000D35CD8400E4B18600F20FFF7B9FB002033
:100CB00004E74FF42D71074800F050F8C2E740F206
:100CC000BB21044800F04AF8D5E70120F6E600BF52
:100CD000003C0240BC42000800380240AC42000820
:100CE0000C000020014B1868704700BF0C0000206A
:100CF000FEE7000008B5034800F052F80120FFF7B6
:100D0000F7FF00BFEC42000808B503460C4A126822
:100D10005AB10B4A1068033323F003030344094A12
:100D2000934206D8064A136008BD054A0649116079
:100D3000EFE702F005FE0C2303604FF0FF30F3E70E
:100D40008400002000FC00206808002001230360CC
:100D5000014B0B60704700BF0400002008B50A4635
:100D60000146024800F004F8FFF7C4FF0043000802
:100D70000FB400B583B004AB53F8042B019380216A
:100D8000064802F037FE002803DD0146034800F064
:100D900047F803B05DF804EB04B070478C00002006
:100DA00010B5044602F0F2FD0146204600F038F886
:100DB0000121024800F034F810BD00BFC443000810
:100DC0002DE9F04385B004460F4643560BB10E465D
:100DD0001EE0042528462146ABBE0446384605B031
:100DE000BDE8F08314F9011B04AA1A4402F8101C90
:100DF0000133AB42F6D304AA1344002203F8102CAB
:100E00004FF00408E94640464946ABBE8046761B93
:100E1000002EE3D03546102E28BF10250023E8E72A
:100E200008B5FFF7CDFF08BD08B500F093F8024AFA
:100E3000024B9A6008BD00BF0000000800ED00E012
:100E4000F8B504460D4617461E462748FFF790FFA3
:100E500021682648FFF78CFF61682548FFF788FF67
:100E6000A1682448FFF784FFE1682348FFF780FF6B
:100E700021692248FFF77CFF61692148FFF778FF6D
:100E8000A1692048FFF774FFE1691F48FFF770FF71
:100E90001E48FFF76DFF29461D48FFF769FF1D4CEF
:100EA000E16A1D48FFF764FF216B1C48FFF760FFF4
:100EB000E16B1B48FFF75CFF15F0800F0AD115F4BA
:100EC000004F0CD11748FFF753FF06991648FFF75C
:100ED0004FFFF8BD39461548FFF74AFFEFE73146A7
:100EE0001348FFF745FFEDE72C4300083C4300089B
:100EF0004C4300085C4300086C4300087C43000836
:100F00008C4300089C430008AC430008BC43000825
:100F1000C843000800ED00E0D8430008E84300089B
:100F2000F84300082844000830440008084400083A
:100F30001844000883691A888A4201D0002070474B
:100F40000268033A012A03D8023383610120704703
:100F5000002070470C4B1A6842F001021A60002111
:100F600099601A6822F0847222F480321A60074A6B
:100F70005A601A6822F480221A60D960044B4FF03C
:100F800000629A60704700BF0038024010300024B1
:100F900000ED00E0224B9B6803F00C03042B14D0FF
:100FA000082B16D01BB11F4B1F4A1A6002E01D4BC5
:100FB0001D4A1A601A4B9B68C3F303131B4AD15C8A
:100FC000184A1368CB4013607047164B184A1A60D2
:100FD000F0E7134B5A685B6803F03F0312F4800F8D
:100FE00013D0134AB2FBF3F20D4B5B68C3F38813C3
:100FF00003FB02F30A4A5268C2F301420132520073
:10100000B3FBF2F3074A1360D4E7074AB2FBF3F2EB
:10101000034B5B68C3F3881303FB02F3EAE700BFEB
:10102000003802400C0000200024F4007444000842
:1010300040787D0170B58AB00021084600F00EFBB3
:101040001C4C08AB94E8030083E8030006AD04F1F0
:10105000080292E8030085E80300184600F04AFE03
:10106000284600F047FE0025ADF814508DF81650C4
:1010700005A800F027FC03AB04F1100292E803007E
:1010800083E8030001AE183494E8030086E8030007
:10109000184600F02FFE304600F02CFE009502E0CE
:1010A000009B01330093009A42F20F739A42F7DDDE
:1010B0000AB070BD8444000810B504460022062121
:1010C000104600F085FD00220A21104600F080FD48
:1010D0002146012000F050FC2146022000F04CFC8B
:1010E00010BD10B5044601220621002000F070FD5D
:1010F00001220A21002000F06BFD2146012000F0B2
:101100003BFC2146022000F037FC10BD10B5044620
:1011100000220621104600F05BFD2146012000F070
:101120002BFC10BD10B5044601220621002000F062
:101130004FFD2146012000F01FFC10BD10B50446F4
:1011400000220A21104600F043FD2146022000F053
:1011500013FC10BD10B5044601220A21002000F046
:1011600037FD2146022000F007FC10BD01280FD0FA
:1011700018B102280AD0022070473A4970B448B129
:1011800001282AD0022821D1374B04E03649F5E75F
:101190003649F3E7334B1B6813F0200F16D04C6829
:1011A000C20102449500324B2B4493F80222E4B270
:1011B0001A4482F8004193F802220132D2B283F835
:1011C000022293F80222D2B283F8022248B1012807
:1011D00032D0022803D0002041E0244BDBE7224B31
:1011E00000E0204B1B6813F0800F37D0C20102448F
:1011F00094001F4B234493F80022D2B293F801329B
:10120000DBB29A421AD01A4CC2011518AB00234423
:1012100093F80152EDB26E1CF6B283F801625D5D87
:10122000EDB24D6093F80132DBB2104482001444F9
:1012300084F80132002012E00C4BD3E728B10128DA
:101240000AD0022806D1084A00E0064AD36823F0F3
:101250008003D360002002E0044AF7E7002070BC5E
:10126000704700BF001001400014014000440040DE
:101270000C01002008B50020FFF778FF08BD08B575
:101280000120FFF773FF08BD08B50220FFF76EFFCE
:1012900008BD0000114A136823F0010313600378AE
:1012A000012B0AD00D4A136823F002031360437820
:1012B000012B07D0022B0BD07047136843F00203B9
:1012C0001360F4E7054A136843F0040313607047A2
:1012D000024A136823F004031360EDE710E000E016
:1012E000044B586000229A601A6842F001021A60AA
:1012F000704700BF10E000E0024A136823F00103CA
:101300001360704710E000E008B540F6354303FB7A
:1013100000F0094B00229A60421E084B9A4200D905
:1013200008BDFFF7DDFF044B1B6813F4803FFAD0C4
:10133000FFF7E2FFF4E700BF10E000E0FDFFFF0071
:10134000024B58689B68C01A704700BF10E000E06D
:1013500008B50A4B01221A7040F6354303FB00F032
:10136000074B1960074B00229A60421E064B9A42B7
:1013700000D908BDFFF7B4FFFBE700BF1807002046
:101380001C07002010E000E0FDFFFF0008B5002270
:10139000084B1A7040F6354303FB00F0064B19600A
:1013A000064B9A60421E064B9A4200D908BDFFF7D1
:1013B00097FFFBE7180700201C07002010E000E063
:1013C000FDFFFF0008B5064B1B6803B19847054BAE
:1013D0001B78012B00D008BDFFF78EFFFBE700BF95
:1013E0001C07002018070020036843F40073036003
:1013F000036843F480730360036823F400630360AD
:10140000036823F080030360036823F0380303605C
:10141000036843F028030360036843F00403036098
:10142000036823F002030360036823F001030360F1
:10143000036843F040030360704700000F4B00E077
:101440001346826812F0020F03D15A1E002BF7D107
:1014500013467BB1C160094B00E01346826812F06D
:10146000010F03D15A1E002BF7D1134623B1C068D8
:10147000C0B27047FF207047FF207047A086010070
:10148000F8B507460E461546002404E0315D38469F
:10149000FFF7D4FF0134AC42F8D3F8BD00F00F02DF
:1014A000030903EB830358001044C0B270470000E7
:1014B000394B1A6C42F080521A6438490A6842F477
:1014C00080720A601A6F42F480321A671A6F22F42F
:1014D00080321A671A6F42F001021A67304B00E03F
:1014E00013462D4A126F12F0020F02D15A1E002B22
:1014F000F6D1294B1B6F13F0020F3ED1264A536FD2
:1015000043F001035367244B5B6F13F0020FFAD0D3
:10151000214B1A6F22F440721A671A6F42F400725C
:101520001A671D4A136F43F4004313671D4BCA2209
:101530005A6253225A62DA6842F08002DA60194B2A
:10154000DB6813F0400FFAD0134B1B6F13F0020F40
:101550001DD0144B144A1A61124BDA6822F0800233
:10156000DA60FF225A62DA6822F02002DA600D4B5C
:10157000DB6813F0200FFAD07047074B1A6F22F484
:1015800040721A671A6F42F480721A67C9E7054BF6
:10159000064A1A61E0E700BF0038024000700040D0
:1015A00040420F0000280040FF007F00F9007F004C
:1015B00070B50446124B1E685D68C6F30540FFF720
:1015C0006DFF2070C6F30620FFF768FF607006F01D
:1015D0007F00FFF763FFA070C5F30740FFF75EFFD2
:1015E0002071C5F30420FFF759FF607105F03F003B
:1015F000FFF754FFA071C5F34235E571204670BD79
:101600000028004038B504460D46FFF7D1FF217889
:101610002944172900DD1839002902DB21702046F2
:1016200038BD1831FAE700000B4B1A6842F48022EB
:101630001A601A6842F480321A60074B1B6813F470
:10164000003FFAD0044B9A6822F002029A609A682E
:1016500042F001029A60704700380240032800F20D
:101660002181DFE810F004005D006600D00016293B
:1016700012D8DFE801F00C191F252B31373D11116D
:101680001111431111111111111111494F00864A05
:10169000136B43F0010313638348036B012202FAC7
:1016A00001F11943016370477F4A136B43F0020352
:1016B0001363F1E77C4A136B43F004031363EBE716
:1016C000794A136B43F008031363E5E7764A136B1B
:1016D00043F010031363DFE7734A136B43F02003F7
:1016E0001363D9E7704A136B43F040031363D3E7E6
:1016F0006D4A136B43F080031363CDE76A4A136BA3
:1017000043F480531363C7E7674A136B43F4001332
:101710001363C1E7644A136B43F480031363BBE7AD
:10172000072940F0BF80604A536B43F08003536346
:1017300070471C2900F2B680DFE811F01D0023007D
:1017400029002F00B400B400B400B400B400B40009
:10175000B4003500B400B4003B004100B4004700C1
:10176000B400B400B4004D0053005900B400B400FC
:10177000B400B4005F004C4A136C43F001031364DF
:101780007047494A136C43F0020313647047464A9A
:10179000136C43F0040313647047434A136C43F023
:1017A000080313647047404A136C43F400631364E6
:1017B00070473D4A136C43F48043136470473A4AC0
:1017C000136C43F4004313647047374A136C43F4BB
:1017D000003313647047344A136C43F400131364EA
:1017E0007047314A136C43F48003136470472E4AE8
:1017F000136C43F40003136470472B4A136C43F0DB
:1018000080531364704712294CD8DFE801F00A4B6B
:101810004B4B10164B4B1C4B4B22282E344B3A4053
:101820004600214A536C43F00103536470471E4A3B
:10183000536C43F01003536470471B4A536C43F0DE
:10184000200353647047184A536C43F48073536405
:101850007047154A536C43F4006353647047124A4F
:10186000536C43F48053536470470F4A536C43F4F2
:101870000053536470470C4A536C43F480435364E1
:101880007047094A536C43F4803353647047064AE7
:10189000536C43F4003353647047034A536C43F46E
:1018A00080235364704700BF00380240044B9A689D
:1018B00022F0F0029A609A6842EA0010986070473D
:1018C0000038024010B5044600210320FFF7C6FE91
:1018D000274A1823936240F2E733D362A17803FBCF
:1018E00001F32449A1FB03135B0953639363D3639F
:1018F0001364916921F4E04121F07001D36923F46C
:10190000E04323F0700340F6080001439161034374
:10191000D36122784AB1012A22D0154A46F26000EA
:10192000014391610343D36106E0114A46F260002E
:10193000014391610343D3610D4B1A6A42F488520B
:1019400042F011021A625A6C42F400425A641A6858
:10195000596941F00101596142F081021A6010BDDC
:10196000034A47F27000014391610343D361E3E707
:10197000000001401F85EB51642900D9642140F229
:10198000E73303FB01F10D4BA3FB0131490901389A
:10199000032812D8DFE800F002060A0E89B2084BCD
:1019A0005963704789B2064B9963704789B2044BFB
:1019B000D963704789B2024B196470471F85EB5198
:1019C0000000014010B44409064951F8243000F0E9
:1019D0001F00012202FA00F0184341F8240010BC55
:1019E000704700BF00E100E010B4044620B9A1F147
:1019F0000D03DBB2022B24D9012C07D0072C20D8F1
:101A0000DFE804F009130B0D0F1F1F11CB1EDBB213
:101A1000012BF3D815E00C4C08E00C4C06E00C4C04
:101A200004E00C4C02E00C4C00E00C4C4900032399
:101A300003FA01F0236823EA000302FA01F11943D3
:101A4000216010BC704700BF000002400008024047
:101A5000000C024000100240001C02400004024042
:101A6000034620B9A1F10D00C0B202281CD9012BF8
:101A700007D0072B18D8DFE803F009130B0D0F1759
:101A80001711C81EC0B20128F3D80DE00E4B08E0B4
:101A90000E4B06E00E4B04E00E4B02E00E4B00E056
:101AA0000E4B12B1012A08D07047012202FA01F14F
:101AB0005A6822EA01025A60704702FA01F15A6834
:101AC0000A435A60F0E700BF0000024000080240ED
:101AD000000C024000100240001C024000040240C2
:101AE00010B4044620B9A1F10D03DBB2022B24D9B6
:101AF000012C07D0072C20D8DFE804F009130B0DC8
:101B00000F1F1F11CB1EDBB2012BF3D815E00C4CBD
:101B100008E00C4C06E00C4C04E00C4C02E00C4CD1
:101B200000E00C4C4900032303FA01F0A36823EA08
:101B3000000302FA01F11943A16010BC704700BF15
:101B40000000024000080240000C02400010024069
:101B5000001C02400004024010B4044620B9A1F168
:101B60000D03DBB2022B24D9012C07D0072C20D87F
:101B7000DFE804F009130B0D0F1F1F11CB1EDBB2A2
:101B8000012BF3D815E00C4C08E00C4C06E00C4C93
:101B900004E00C4C02E00C4C00E00C4C4900032328
:101BA00003FA01F0E36823EA000302FA01F11943A2
:101BB000E16010BC704700BF000002400008024016
:101BC000000C024000100240001C024000040240D1
:101BD000034620B9A1F10D00C0B2022822D9012B81
:101BE00007D0072B1ED8DFE803F009130B0D0F1DDC
:101BF0001D11C81EC0B20128F3D813E00D4B08E038
:101C00000D4B06E00D4B04E00D4B02E00D4B00E0E8
:101C10000D4B012A07D0012202FA01F15A6922EA8A
:101C200001025A61704702FA01F15A690A435A6186
:101C3000704700BF0000024000080240000C024054
:101C400000100240001C024000040240034620B97C
:101C5000A1F10D00C0B202280DD9012B07D0072B2E
:101C600009D8DFE803F009130B0D0F080811C81E8F
:101C7000C0B20128F3D87047184808E0184806E0B9
:101C8000184804E0184802E0184800E0184810B46A
:101C9000072913D9A1F10803DBB2072B1BD8083998
:101CA00089000F2303FA01F4436A23EA040302F0D4
:101CB0000F0202FA01F1194341620CE089000F237F
:101CC00003FA01F4036A23EA040302F00F0202FAA2
:101CD00001F11943016210BC704700BF00000240CF
:101CE00000080240000C024000100240001C0240AC
:101CF0000004024010B50446827841780078FFF76E
:101D000073FEE27861782078FFF7AAFE2279617885
:101D10002078FFF7E5FE627961782078FFF71CFFF5
:101D2000A378022B00D010BDA27961782078FFF74C
:101D30008DFFF8E7024B4FF0FF325A61704700BF4A
:101D4000003C01400F2828D810B4144A136801241D
:101D500004FA00F003431360A1420DD019B1022927
:101D600013D010BC70470D4B9A6802439A60DA6832
:101D700022EA0000D860F4E7084B9A6822EA0002E1
:101D80009A60DA681043D860EBE7044B9A68024324
:101D90009A60DA681043D860E3E77047003C01407E
:101DA0000F2902D8014B43F821007047200700207B
:101DB00008B5054B1B6803B19847044A536943F0C3
:101DC0000103536108BD00BF20070020003C014013
:101DD00008B5054B5B6803B19847044A536943F063
:101DE0000203536108BD00BF20070020003C0140F2
:101DF00070470000F8B507460D46FFF7A1FA064602
:101E0000002206210120FFF7E3FE0024AC4213D29A
:101E1000FFF796FA801B642807D8012239190A486F
:101E2000FFF72EFB0134A4B2F0E701220621104691
:101E3000FFF7CEFE002005E0012206211046FFF745
:101E4000C7FE0120F8BD00BF00300140F0B583B0EF
:101E500000248DF8004006258DF8015001278DF8EB
:101E600002708DF8034002268DF804608DF805405D
:101E70006846FFF73FFF09238DF801306846FFF7FA
:101E800039FF8DF800708DF801506846FFF732FF7A
:101E90008DF8004005258DF801508DF802606846E8
:101EA000FFF728FF2A4629462046FFF7CFFE0726E0
:101EB0008DF801606846FFF71DFF2A46314620462F
:101EC000FFF7C4FE03B0F0BD08B50022062110469E
:101ED000FFF77EFE6420FFF717FA0122062100209B
:101EE000FFF776FEC820FFF70FFA08BD10B582B0E5
:101EF00002AC04F8010D002209211046FFF768FE2C
:101F000001212046FFF776FF02B010BD10B582B068
:101F100002AC04F8010D012209210020FFF758FE50
:101F200001212046FFF766FF02B010BD30B583B037
:101F3000FFF75EFFC0F30725C4B20122092100208C
:101F4000FFF746FE8DF804508DF80540022101A8E8
:101F5000FFF750FF03B030BDF8B507460D461646F3
:101F60001C462A20FFF7C2FF380AFFF7CFFFF8B25E
:101F7000FFF7CCFF300AFFF7C9FFF0B2FFF7C6FF4B
:101F80002B20FFF7B3FF280AFFF7C0FFE8B2FFF7E7
:101F9000BDFF200AFFF7BAFFE0B2FFF7B7FF2C2022
:101FA000FFF7A4FFF8BD000030B5A1B004467F23C1
:101FB0009F2200210846FFF7CFFF2046FFF718FFBA
:101FC000002306E020AA02EB430222F8800C013332
:101FD0009BB23F2BF6D9012209210020FFF7F8FD23
:101FE000002206210120FFF7F3FD4FF4A04409E091
:101FF0002546402C28BF40256A0069460648FFF761
:102000003FFA641B002CF3D1012206211046FFF792
:10201000DFFD21B030BD00BF00300140F0B5A1B000
:1020200005460C4617461E46904201D807461546FF
:10203000B44202D8334626461C4623462A46314639
:102040003846FFF789FFED1BA41B013405FB044450
:10205000BDF89800FFF7CCFE002306E020AA02EBB3
:10206000430222F8800C01339BB23F2BF6D90122A8
:1020700009210020FFF7ACFD002206210120FFF717
:10208000A7FD09E02546402C28BF40256A00694687
:102090000648FFF7F5F9641B002CF3D10122062155
:1020A0001046FFF795FD21B0F0BD00BF00300140A4
:1020B00010B504463620FFF719FF032C06D8DFE8D9
:1020C00004F002060A0EC020FFF720FF10BDA0207A
:1020D000FFF71CFFFAE70020FFF718FFF6E7602084
:1020E000FFF714FFF2E708B5FFF7B0FEFFF7ECFECD
:1020F0000120FFF7FBFE9620FFF706F91120FFF7FE
:10210000F5FE9620FFF700F93A20FFF7EFFE552085
:10211000FFF7FCFE3620FFF7E9FEC820FFF7F6FECA
:102120002920FFF7E3FE3220FFF7EEF80020FFF74B
:102130003BFF08BD9F2801D87F2900D9704710B503
:1021400014460B460246FFF707FF2046FFF7EEFE58
:1021500010BD2DE9F04F83B004460D469146019322
:10216000BDF830300093824223D9A2EB0008A1458C
:1021700022D94FF0010A019BAB4220D9EF1A019BF3
:10218000AB421FD94FF0010B08EB0706009A294616
:102190002046FFF7CFFF4C4517D073009F4202DC6B
:1021A0003E445444A4B29845F0DB46445D44ADB28D
:1021B000ECE7A0EB0208DAE74FF0FF3ADBE7019B20
:1021C0005F1BDCE74FF0FF3BDEE7019B9D42E4D164
:1021D00003B0BDE8F08F2DE9F04182B080460F4694
:1021E00016461C46BDF8205000950B46FFF7B1FF80
:1021F00000952346324621464046FFF7AAFF009548
:102200002346424639464046FFF7A3FF0095234642
:10221000324639463046FFF79CFF02B0BDE8F081F8
:102220002DE9F04F83B0BDF83090A2F12004E4B264
:102230005E2C2CD8019388460746A2F1200A9DF80F
:1022400035B00BFB0AFA002518E04A46FFF772FF8B
:102250000134E4B29DF83430A3420DD9381980B26C
:1022600008EB050189B2013B1B1B46FA03F313F08F
:10227000010FEAD0019AE9E70135EDB2AB4506D985
:1022800005EB0A030E9A32F813600024E2E703B06C
:10229000BDE8F08F2DE9F04184B00546884614462C
:1022A0001F46BDF828600FE001AB0BA903C983E806
:1022B000030000963B4641462846FFF7B1FF9DF8D4
:1022C0002C00284485B2013494F90020002AEBD177
:1022D00004B0BDE8F0810000F0B585B0114C247861
:1022E000052C01D005B0F0BD0E460546C2EB02122A
:1022F00002F12804A4B2002700973723C822214600
:102300000A20FFF78BFE084A01AB92E8030083E83E
:102310000300009733462A4621460A20FFF7BAFFFA
:10232000E0E700BF6107002010000020F8B5074675
:102330000E462A20FFF7DAFD0020FFF7E7FD002018
:10234000FFF7E4FD0020FFF7E1FD9F20FFF7DEFD32
:102350002B20FFF7CBFD0020FFF7D8FD0020FFF773
:10236000D5FD0020FFF7D2FD7F20FFF7CFFD2C2009
:10237000FFF7BCFD00240AE037F81400C5B2000ADC
:10238000FFF7C4FD2846FFF7C1FD0134A4B2B442F3
:10239000F2D3F8BDF0B583B006460C46154602F1FF
:1023A000140301F128024FF6FF7700979BB292B217
:1023B00029462046FFF70FFF05F10F0304F12C0219
:1023C000691D04F1290000979BB292B289B280B2D4
:1023D000FFF724FE132E04D9312E0ED84FF6E077E6
:1023E00001E04FF4784706EBC606B3000C4A82FBC7
:1023F00003235B0904D103B0F0BD4FF4FC67F2E79F
:1024000023449AB205F112030232A91CA01C0097C2
:102410009BB292B289B280B2FFF700FEEBE700BF39
:102420001F85EB51014B1860704700BF6407002007
:10243000014B1868704700BF64070020014B1870FB
:10244000704700BF68070020014B1878704700BF35
:102450006107002070B584B00025104B1D70284620
:10246000FFF7A2FD0E4E304601F090FA0D4B1C789E
:1024700004FB00F4C4F34F04C4F1500401AA93E830
:10248000030082E8030000954FF47843324632217E
:10249000A0B2FFF7FFFE04B070BD00BF61070020CF
:1024A000F04400081000002070B58AB0164B0222DC
:1024B0001A700020FFF778FD144D01AC95E8030079
:1024C00084E803000026009640F2FF73104A1421AE
:1024D0001E20FFF7DFFE3C2228215520FFF75AFF80
:1024E00055220C4905A801F031FA95E8030084E86B
:1024F000030000964FF4FC6305AA3C215A20FFF725
:10250000C9FE0AB070BD00BF6107002010000020A6
:10251000A4440008AC4400082DE9F04184B0284BE5
:1025200003221A700020FFF73FFD264A01AB92E814
:10253000030083E80300002300934FF6E073224A70
:1025400014212820FFF7A6FE204B1B78ABB3DFF841
:102550008080404601F01AFA1A4D2C7804FB00F4F2
:10256000C4F34F04C4F1500401AE95E8030086E8BB
:102570000300002700974FF4FC6342463C21A0B2C1
:10258000FFF788FEDFF84C80404601F0FFF92C7819
:1025900004FB00F4C4F34F04C4F1500495E80300B5
:1025A00086E8030000974FF4FC6342466421A0B222
:1025B000FFF770FE04B0BDE8F081DFF81C80C8E7CB
:1025C000610700201000002030450008600700204F
:1025D00028450008384500082045000810B58CB093
:1025E0003F4B04221A700020FFF7DEFC3D4A01AB8E
:1025F00092E8030083E803000023009340F2FF7396
:10260000394A14211E20FFF745FE384B1C68002173
:10261000204601F03BF9A8B93549204601F018F9E8
:1026200000284CD02F4A01AB92E8030083E8030056
:10263000002300934FF6E0732E4A3C210A20FFF757
:1026400029FE1CE0204600F009FE02460B462A49FE
:1026500004A801F07BF92949244B186801F002F91C
:1026600050B34FF478431F4901AA03C982E803001D
:102670000022009204AA3C210A20FFF70BFE1B4B0C
:102680001C681E49204601F0EDF898B10021204653
:1026900001F0FCF870B1134A01AB92E8030083E843
:1026A0000300002300934FF47843154A5A210A206F
:1026B000FFF7F0FD0CB010BD4FF4FC63D3E7094AFF
:1026C00001AB92E8030083E80300002300934FF47A
:1026D00078430C4A3C210A20FFF7DCFDCFE700BF1E
:1026E00061070020100000206C45000864070020EE
:1026F000000080BF8C45000878450008000020419C
:10270000B0450008A045000800B585B0134B052270
:102710001A700020FFF748FC114A01AB92E8030051
:1027200083E803000023009340F2FF730D4A142155
:102730001E20FFF7AFFD0C4B1B7843B901224FF46D
:1027400078410A48FFF7C8FD05B05DF804FB012297
:102750004FF4FC610648FFF7BFFDF5E76107002075
:1027600010000020BC44000868070020DC4400087A
:10277000CC44000870B58EB0154B06221A700020AC
:10278000FFF712FC134E01AD96E8030085E8030045
:10279000002400944FF6E0730F4A0A211E20FFF731
:1027A00079FD029401940094234622460B4904A823
:1027B00001F0CCF896E8030085E8030000944FF69A
:1027C000FF7304AA3C211420FFF764FD0EB070BD16
:1027D0006107002010000020FC4400080C450008A0
:1027E000F0B59DB007460C46224B07221A70002018
:1027F000FFF7DAFB2246204917A801F0A7F81F4D82
:1028000001AC95E8030084E80300002600964FF42D
:10281000FC6317AA05210846FFF73CFD384600F087
:102820001DFD02460B4616490FA801F08FF895E8EA
:10283000030084E8030000964FF6FF730FAA1E21E1
:102840000520FFF727FD384601F034F802460D4910
:1028500005A801F07BF895E8030084E803000096E2
:102860004FF6E07305AA3C210520FFF713FD1DB0CC
:10287000F0BD00BF610700204445000810000020A3
:10288000504500085C45000808B5074A1378B3FABC
:1028900083F35B091370054B1B78032B00D008BD35
:1028A000FFF73AFEFBE700BF60070020610700204A
:1028B0001B4B1B78012B00D0704730B58DB0022127
:1028C0000AA8FEF79FFE9DF828209DF829309DF864
:1028D0002A100091134905A801F038F80025009549
:1028E0006423A0223C212846FFF798FB05A801F0AD
:1028F0004DF80D4B1C7804FB00F4C4F34F04C4F1F5
:10290000500401AA93E8030082E8030000954FF405
:10291000FC6305AA3C21A0B2FFF7BCFC0DB030BDA2
:1029200061070020C84500081000002000B585B0F0
:102930000C4B01221A700020FFF736FB0A4A01AB4C
:1029400092E8030083E80300002300934FF6E0734E
:10295000064A14212820FFF79DFCFFF7A9FF05B0C8
:102960005DF804FB6107002010000020B44400085B
:1029700008B5044B1B78022B00D008BDFFF794FD6F
:10298000FBE700BF6107002008B5044B1B78042B50
:1029900000D008BDFFF722FEFBE700BF6107002063
:1029A00008B5072820D8DFE800F004070A0D101347
:1029B0001619FFF74FFD08BDFFF7B8FFFBE7FFF75C
:1029C00073FDF8E7FFF7A8FDF5E7FFF707FEF2E76D
:1029D000FFF79AFEEFE7FFF7CDFEECE74621044B49
:1029E0001868FFF7FDFEE6E7FFF734FDE3E700BFF9
:1029F00064070020B42800D9B42040F2DC5303FB64
:102A000000F08008034BA3FB0030800800F5FA704B
:102A100080B27047176CC11610B500240AE0084B4D
:102A2000197821440022C9B2064B1878FFF7D0F874
:102A30000134E4B2044B1B78A342F0D810BD00BFB0
:102A40006A0700206C0700206B070020364B1B68CC
:102A500013F0010F66D010B5334A136823F0010359
:102A60001360324A13680A331360314A93422BD8F9
:102A7000304B1B88002B33D02F4A13880A339BB26C
:102A800013802C490A880A320A802C4A1288934201
:102A90003CD2284B1A882A4B1B889A421FD300230A
:102AA000244A1380244A138026490B785A1C264B4B
:102AB000187892FBF0F300FB1323DBB20B7073B9B1
:102AC0001A4B00221A600AE0FFF7A6FF0023174AFC
:102AD0001360184A1380184A13801A4A137010BDE5
:102AE000184C1A4B1978237819440122C9B2184B93
:102AF0001878FFF76DF82378164AD05CFFF77AFF55
:102B00000E4B18800C4B00221A80B5E70F4B19783A
:102B10000C4B1B7819440022C9B20D4B1878FFF7F3
:102B200057F8B6E7704700BF10000040700700205C
:102B30009F8601007C0700206E0700208007002090
:102B40007E070020690700206B0700206A0700202D
:102B50006C0700207407002010B5002318460AE017
:102B6000A2F5FA62B2F5E17F03D201229A40104346
:102B7000C0B20133DBB2072B0ED803F111021049AA
:102B800001EB82025268A2F57A71F929E8D8012294
:102B90009A4020EA0200ECE7094A90700023137083
:102BA000537006E0064A02EB8302002151600133B4
:102BB000DBB2312BF6D9034B1B6803B1984710BD2C
:102BC000840700205008002008B5144B1B78DBB1A7
:102BD000FEF7B6FB00F050FC114900F059FD00F083
:102BE0008FFE0E4B5B78DBB2312B08D80B4B5A783B
:102BF000D2B2511CC9B2597003EB82035860094923
:102C00000420FEF7A5FB08BD044B01221A70002228
:102C10005A7004490F20FEF79BFBF4E7840700205D
:102C200000004840592B000830B585B0054600210A
:102C30000846FEF713FD0E210320FEF70FFD0024CA
:102C40000294039404238DF8093002A8FFF752F888
:102C50008DF804408DF8054001A8FFF76BF80121BD
:102C60002046FFF76FF821460648FFF799F806203F
:102C7000FEF7A8FE044B1D60044B1C705C709C703A
:102C800005B030BDC92B0008500800208407002083
:102C900008B50738572830D8DFE800F05B40622FCE
:102CA0002F342F2F2F2F2F2F2F2F2F302F38692FEB
:102CB0002F442F2F2F2F2F2F2F2F2F2F2F2F2F2F0F
:102CC0002F2F2F2F2F2F2F2F2F2F2F2F2F2F2F2F14
:102CD0002F2F2F2F2F572F4E2F2F2C542F2F2F2F9B
:102CE0002F2F2F2F2F2F2F2F2F2F2F2F2F2F2F48DB
:102CF0002F2F2F3C0020FFF753FE08BD0120FFF7C8
:102D00004FFEFAE70220FFF74BFEF6E70320FFF73E
:102D100047FEF2E70420FFF743FEEEE70520FFF74A
:102D20003FFEEAE70620FFF73BFEE6E7FFF780FB02
:102D30004621FFF755FDE0E744F2E0210E48FFF79A
:102D4000F5FADAE7FFF7A0FDD7E74620FEF7B4F97A
:102D5000D3E74620FEF7E6F94620FEF7EFF9CCE789
:102D60004620FEF7D3F94620FEF7F4F9C5E74620E2
:102D7000FEF7B7F9C1E700BF8C4F000810B584B06B
:102D8000FEF752FC0020FEF791FD00210846FEF7F9
:102D900065FC01210020FEF761FC0C210320FEF7F9
:102DA0005DFC11210220FEF759FCFEF743F9104C9F
:102DB00002AB94E8030083E803001846FEF79AFF8D
:102DC000238904A820F80C3DFEF764FAFFF73EF8CB
:102DD0000848FEF709FBFFF786F90120FFF768F9BD
:102DE000FEF766FB0020FFF729FB04B010BD00BF13
:102DF000804F00080030014008B50A494FF47A704E
:102E0000FEF7C4FA08494FF4FA60FEF7BFFA074923
:102E10004FF4FA70FEF7BAFA05494FF49670FEF7D0
:102E2000B5FA08BD632E0008512E00083F2E000899
:102E3000352E000808B50020FFF7F4FA08BD08B5E4
:102E4000FFF702FB042800D008BDFFF79DFDFBE75C
:102E500008B5FFF7F9FA022800D008BDFFF788FD92
:102E6000FBE708B5FFF7F0FA012800D008BDFFF72F
:102E70001FFDFBE700B585B0FFF780FFFFF7BCFF44
:102E80001648FFF7D1FEFFF7E5FA002400945F2310
:102E9000C82250210A20FFF7C1F8114A01AB92E87D
:102EA000030083E8030000944FF6E0730D4A5021BD
:102EB0000A20FFF7EFF940F6B830FEF725FA4FF495
:102EC000FA60FEF721FA00945F23C82250210A20FD
:102ED000FFF7A4F86420FEF717FAFBE7912C00082F
:102EE000100000204CD5000870B594B00024019467
:102EF000204B1A6C42F080521A641B6C03F0805312
:102F00000193019B02941C4B1A6842F440421A60E0
:102F10001B6803F440430293029B01230893099327
:102F20004FF480030F93192310934FF4A873119358
:102F3000042612960723139302250E9508A8FDF781
:102F40003DFB0F230393049505944FF480530693A0
:102F50000794294603A8FDF799FDFDF7C3FE074B2B
:102F6000A3FB00308009FDF7F5FA3046FDF708FBBA
:102F700014B070BD0038024000700040D34D6210A4
:102F800008B5FDF763FAFFF7AFFFFEF703F808BDDA
:102F90007047000081F0004102E000BF83F0004371
:102FA00030B54FEA41044FEA430594EA050F08BFE4
:102FB00090EA020F1FBF54EA000C55EA020C7FEAA8
:102FC000645C7FEA655C00F0E2804FEA5454D4EB25
:102FD0005555B8BF6D420CDD2C4480EA020281EAEF
:102FE000030382EA000083EA010180EA020281EA27
:102FF0000303362D88BF30BD11F0004F4FEA013179
:103000004FF4801C4CEA113102D0404261EB410187
:1030100013F0004F4FEA03334CEA133302D052420D
:1030200063EB430394EA050F00F0A780A4F10104C9
:10303000D5F1200E0DDB02FA0EFC22FA05F2801803
:1030400041F1000103FA0EF2801843FA05F35941E9
:103050000EE0A5F120050EF1200E012A03FA0EFC68
:1030600028BF4CF0020C43FA05F3C01851EBE37192
:1030700001F0004507D54FF0000EDCF1000C7EEBAF
:1030800000006EEB0101B1F5801F1BD3B1F5001FED
:103090000CD349085FEA30004FEA3C0C04F101040C
:1030A0004FEA445212F5800F80F09A80BCF1004F35
:1030B00008BF5FEA500C50F1000041EB045141EAB7
:1030C000050130BD5FEA4C0C404141EB010111F4B8
:1030D000801FA4F10104E9D191F0000F04BF014663
:1030E0000020B1FA81F308BF2033A3F10B03B3F141
:1030F00020020CDA0C3208DD02F1140CC2F10C02D1
:1031000001FA0CF021FA02F10CE002F11402D8BF2E
:10311000C2F1200C01FA02F120FA0CFCDCBF41EAFA
:103120000C019040E41AA2BF01EB0451294330BDC9
:103130006FEA04041F3C1CDA0C340EDC04F11404A6
:10314000C4F1200220FA04F001FA02F340EA03007D
:1031500021FA04F345EA030130BDC4F10C04C4F1C3
:10316000200220FA02F001FA04F340EA03002946A3
:1031700030BD21FA04F0294630BD94F0000F83F4ED
:10318000801306BF81F480110134013D4EE77FEAD0
:10319000645C18BF7FEA655C29D094EA050F08BF1C
:1031A00090EA020F05D054EA000C04BF19461046FD
:1031B00030BD91EA030F1EBF0021002030BD5FEA41
:1031C000545C05D14000494128BF41F0004130BD69
:1031D00014F580043CBF01F5801130BD01F00045BD
:1031E00045F0FE4141F470014FF0000030BD7FEA30
:1031F000645C1ABF194610467FEA655C1CBF0B462B
:10320000024650EA013406BF52EA033591EA030F41
:1032100041F4002130BD00BF90F0000F04BF002139
:10322000704730B54FF4806404F132044FF000056C
:103230004FF0000150E700BF90F0000F04BF0021E5
:10324000704730B54FF4806404F1320410F000454B
:1032500048BF40424FF000013EE700BF42004FEA46
:10326000E2014FEA31014FEA02701FBF12F07F43C3
:1032700093F07F4F81F06051704732F07F4208BF7A
:10328000704793F07F4F04BF41F40021704730B581
:103290004FF4607401F0004521F000411CE700BFCD
:1032A00050EA010208BF704730B54FF000050AE050
:1032B00050EA010208BF704730B511F0004502D551
:1032C000404261EB41014FF4806404F132045FEA53
:1032D000915C3FF4D8AE4FF003025FEADC0C18BFFC
:1032E00003325FEADC0C18BF033202EBDC02C2F1EE
:1032F000200300FA03FC20FA02F001FA03FE40EA80
:103300000E0021FA02F11444BDE600BF80F0004037
:1033100002E000BF81F0004142001FBF5FEA4103AD
:1033200092EA030F7FEA226C7FEA236C6AD04FEAAD
:103330001262D2EB1363C1BFD218414048404140F2
:10334000B8BF5B42192B88BF704710F0004F40F4A4
:10335000000020F07F4018BF404211F0004F41F4C0
:10336000000121F07F4118BF494292EA030F3FD08C
:10337000A2F1010241FA03FC10EB0C00C3F120039F
:1033800001FA03F100F0004302D5494260EB40002E
:10339000B0F5000F13D3B0F1807F06D340084FEA99
:1033A000310102F10102FE2A51D2B1F1004F40EB8E
:1033B000C25008BF20F0010040EA030070474900F6
:1033C00040EB000010F4000FA2F10102EDD1B0FAC1
:1033D00080FCACF1080CB2EB0C0200FA0CF0AABFB6
:1033E00000EBC25052421843BCBFD0401843704754
:1033F00092F0000F81F4000106BF80F4000001325A
:10340000013BB5E74FEA41037FEA226C18BF7FEA30
:10341000236C21D092EA030F04D092F0000F08BF72
:103420000846704790EA010F1CBF0020704712F059
:103430007F4F04D1400028BF40F00040704712F198
:1034400000723CBF00F50000704700F0004343F0FD
:10345000FE4040F4000070477FEA226216BF084633
:103460007FEA23630146420206BF5FEA412390EAF6
:10347000010F40F4800070474FF0000304E000BFEC
:1034800010F0004348BF40425FEA000C08BF70479D
:1034900043F0964301464FF000001CE050EA010261
:1034A00008BF70474FF000030AE000BF50EA010276
:1034B00008BF704711F0004302D5404261EB410163
:1034C0005FEA010C02BF84460146002043F0B64388
:1034D00008BFA3F18053A3F50003BCFA8CF2083AAD
:1034E000A3EBC25310DB01FA02FC634400FA02FCB6
:1034F000C2F12002BCF1004F20FA02F243EB0200BD
:1035000008BF20F00100704702F1200201FA02FC1E
:10351000C2F1200250EA4C0021FA02F243EB020011
:1035200008BF20EADC7070474FF0FF0C1CEAD05255
:103530001EBF1CEAD15392EA0C0F93EA0C0F6FD016
:103540001A4480EA010C400218BF5FEA41211ED0F4
:103550004FF0006343EA501043EA5111A0FB0131E0
:103560000CF00040B1F5000F3EBF490041EAD371B5
:103570005B0040EA010062F17F02FD2A1DD8B3F131
:10358000004F40EBC25008BF20F00100704790F0A0
:10359000000F0CF0004C08BF49024CEA502040EAF2
:1035A00051207F3AC2BFD2F1FF0340EAC2507047B8
:1035B00040F400004FF00003013A5DDC12F1190FF6
:1035C000DCBF00F000407047C2F10002410021FA68
:1035D00002F1C2F1200200FA02FC5FEA310040F180
:1035E000000053EA4C0308BF20EADC70704792F0F9
:1035F000000F00F0004C02BF400010F4000F013A31
:10360000F9D040EA0C0093F0000F01F0004C02BF2B
:10361000490011F4000F013BF9D041EA0C018FE79A
:103620000CEAD15392EA0C0F18BF93EA0C0F0AD0A0
:1036300030F0004C18BF31F0004CD8D180EA0100C6
:1036400000F00040704790F0000F17BF90F0004F5F
:10365000084691F0000F91F0004F14D092EA0C0F41
:1036600001D142020FD193EA0C0F03D14B0218BFD4
:10367000084608D180EA010000F0004040F0FE401A
:1036800040F40000704740F0FE4040F440007047B6
:103690004FF0FF0C1CEAD0521EBF1CEAD15392EA35
:1036A0000C0F93EA0C0F69D0A2EB030280EA010C25
:1036B00049024FEA402037D04FF0805343EA1111BE
:1036C00043EA10130CF000408B4238BF5B0042F11C
:1036D0007D024FF4000C8B4224BF5B1A40EA0C00C1
:1036E000B3EB510F24BFA3EB510340EA5C00B3EBF3
:1036F000910F24BFA3EB910340EA9C00B3EBD10FE1
:1037000024BFA3EBD10340EADC001B0118BF5FEA32
:103710001C1CE0D1FD2A3FF650AF8B4240EBC2505B
:1037200008BF20F0010070470CF0004C4CEA50201C
:103730007F32C2BFD2F1FF0340EAC250704740F46B
:1037400000004FF00003013A37E792F0000F00F05D
:10375000004C02BF400010F4000F013AF9D040EADB
:103760000C0093F0000F01F0004C02BF490011F46F
:10377000000F013BF9D041EA0C0195E70CEAD15367
:1037800092EA0C0F08D142027FF47DAF93EA0C0F4E
:103790007FF470AF084676E793EA0C0F04D14B0232
:1037A0003FF44CAF08466EE730F0004C18BF31F0E4
:1037B000004CCAD130F000427FF45CAF31F00043DE
:1037C0007FF43CAF5FE700BF4FF0FF3C06E000BF77
:1037D0004FF0010C02E000BF4FF0010C4DF804CD9A
:1037E0004FEA40024FEA41037FEA226C18BF7FEAAA
:1037F000236C11D001B052EA530C18BF90EA010FAC
:1038000058BFB2EB030088BFC81738BF6FEAE1703A
:1038100018BF40F0010070477FEA226C02D15FEAD6
:10382000402C05D17FEA236CE4D15FEA412CE1D042
:103830005DF8040B704700BF844608466146FFE709
:103840000FB5FFF7C9FF002848BF10F1000F0FBDEB
:103850004DF808EDFFF7F4FF0CBF012000205DF8E4
:1038600008FB00BF4DF808EDFFF7EAFF34BF012069
:1038700000205DF808FB00BF4DF808EDFFF7E0FF02
:1038800094BF012000205DF808FB00BF4DF808ED53
:10389000FFF7D2FF94BF012000205DF808FB00BFB6
:1038A0004DF808EDFFF7C8FF34BF012000205DF898
:1038B00008FB00BF4FEA4002B2F1FE4F0FD34FF0BA
:1038C0009E03B3EB12620DD94FEA002343F000438D
:1038D00010F0004F23FA02F018BF404270474FF03B
:1038E0000000704712F1610F01D1420205D110F0C2
:1038F000004008BF6FF0004070474FF00000704775
:1039000042000ED2B2F1FE4F0BD34FF09E03B3EB49
:10391000126209D44FEA002343F0004323FA02F075
:1039200070474FF00000704712F1610F01D1420261
:1039300002D14FF0FF3070474FF00000704700BFDA
:10394000014B1868704700BF180000200EB400B586
:103950009CB01DAB029006906FF0004109480791A2
:103960000491094953F8042B05910068019302A9B9
:1039700000F0A8F8029B00221A701CB05DF804EB5E
:1039800003B07047180000200802FFFF034613F839
:10399000012B002AFBD1181A0138704730B5141ECC
:1039A00005469BB0184605DA8B232B604FF0FF309D
:1039B0001BB030BD4FF40273ADF80C3014BF04F1EE
:1039C000FF332346029305934FF6FF730091049152
:1039D000ADF80E3002461E9B6946284600F072F88C
:1039E000431CBCBF8B232B60002CE1D0009B00222A
:1039F0001A70DDE707B5009313460A4601460348EF
:103A00000068FFF7CBFF03B05DF804FB180000204F
:103A10002DE9F0478E689E4282460C4690469946B4
:103A200037D88A8912F4906F31D0256809696F1AE6
:103A30006569022305EB450595FBF3F509F10103E3
:103A40003B449D4238BF1D46530530D5294600F002
:103A500079FB064650B90C23CAF80030A38943F01D
:103A60004003A3814FF0FF30BDE8F0873A4621695B
:103A700000F0F6FAA38923F4906343F08003A38156
:103A8000266165613E44ED1B2660A5604E464E45AD
:103A900000D94E4632464146206800F0ECFAA36851
:103AA0009B1BA36023681E4426600020DCE72A4697
:103AB00000F0A2FB06460028E2D12169504600F042
:103AC000F3FAC8E72DE9F04F9DB0804603938B8948
:103AD0001D060C4616460FD50B696BB9402100F048
:103AE00031FB2060206128B90C23C8F800304FF06A
:103AF000FF30C7E0402363610023099320238DF842
:103B0000293030238DF82A304FF0010B37463D46DF
:103B100015F8013B0BB1252B3ED1B7EB060A0BD0B4
:103B20005346324621464046FFF772FF013000F00F
:103B3000A480099B534409933B78002B00F09D809F
:103B400000234FF0FF32CDE90523049307938DF84E
:103B500053301A932F46052217F8011B4F4800F0E7
:103B60002FFA049BD0B9D90644BF20228DF85320E8
:103B70001A0744BF2B228DF853202A782A2A15D001
:103B8000079A2F4600200A25394611F8013B303BA1
:103B9000092B4DD9B8B10FE02F46B8E73F4A801A3C
:103BA0000BFA00F0184304903D46D3E7039A111D29
:103BB00012680391002A01DB079204E0524243F0AD
:103BC0000203079204933B782E2B0CD17B782A2B8F
:103BD00033D1039B1A1D1B680392002BB8BF4FF013
:103BE000FF33023705932E4D39780322284600F023
:103BF000E7F938B14023401B03FA00F0049B03436C
:103C000001370493397827488DF8281006227E1C46
:103C100000F0D6F9002838D0234B13BB039B0733A1
:103C200023F0070308330393099B4B4409936DE783
:103C300005FB023201200F46A6E70023013705935A
:103C400019460A25384610F8012B303A092A03D9BB
:103C5000002BC8D00591C6E705FB012101230746CB
:103C6000F0E703AB00932246104B04A94046AFF3A4
:103C70000080B0F1FF3F8146D6D1A3895B063FF5B6
:103C800036AF09981DB0BDE8F08F03AB0093224614
:103C9000064B04A9404600F081F8EAE764D5000825
:103CA0006AD500086ED5000800000000113A00082F
:103CB0002DE9F04791461F468A680B69DDF82080A0
:103CC0009342B8BF1346C9F8003091F84320064626
:103CD0000C4612B10133C9F800302368990642BF7F
:103CE000D9F800300233C9F80030256815F0060510
:103CF00007D104F1190AE368D9F800209B1AAB42F6
:103D000028DC94F843302268003318BF0123920660
:103D10002DD404F1430239463046C047013020D04B
:103D20002368E568D9F8002003F00603042B08BFD8
:103D3000AD1AA36822690CBF25EAE57500259342F8
:103D4000C4BF9B1AED184FF000091A344D451AD123
:103D5000002008E00123524639463046C047013072
:103D600003D14FF0FF30BDE8F0870135C3E7E1181C
:103D70005A1C302081F84300224494F8451082F800
:103D800043100233C5E70123224639463046C04777
:103D90000130E6D009F10109D8E700002DE9F04330
:103DA00001F1430C0C46097E85B06E291746064684
:103DB00098460C9A00F0B38022D8632936D00AD8EE
:103DC000002900F0B980582900F0838004F14205F1
:103DD00084F8421032E0642901D06929F6D12068C4
:103DE0001368050603F104012AD51B681160002B36
:103DF00003DA2D225B4284F843206F480A2239E01F
:103E0000732900F09D8008D86F2920D07029DDD15A
:103E1000236843F02003236003E0752917D0782935
:103E2000D4D1782384F84530644855E01368191DCF
:103E30001B68116004F1420584F8423001238CE0D4
:103E40001B68116010F0400F18BF1BB2CFE713685A
:103E50002568181D1060280601D51B6802E0680659
:103E6000FBD51B8854486F2914BF0A220822002161
:103E700084F843106568A560002DC0F29580216824
:103E800021F004012160002B3DD1002D40F08E80F7
:103E90006546082A0BD12368DB0708D523696268C9
:103EA0009A42DEBF302305F8013C05F1FF35ACEB4B
:103EB00005032361CDF800803B4603AA2146304626
:103EC000FFF7F6FE01304DD14FF0FF3005B0BDE8F1
:103ED000F083394884F84510136821681D1D1B685C
:103EE00015600A060BD5CA0744BF41F020012160C6
:103EF0001BB9226822F0200222601022B7E74D068B
:103F000048BF9BB2EFE76546B3FBF2F102FB11330A
:103F1000C35C05F8013D0B460029F5D1B9E71368EC
:103F200025686169181D106028061B6801D5196095
:103F300002E06A06FBD51980002323616546B9E7D4
:103F40001368191D11601D6862680021284600F081
:103F500037F808B1401B606063682361002384F870
:103F60004330A7E723692A4639463046C047013027
:103F7000AAD023689B0713D4E068039B9842B8BF7C
:103F80001846A3E701234A4639463046C047013068
:103F90009AD00135E368039A9B1AAB42F2DCEBE757
:103FA000002504F11909F5E7002BACD1037884F85A
:103FB000423004F142056CE775D5000886D500084B
:103FC00001F0FF01102A2BDB10F0070F08D010F8CA
:103FD000013B013A8B422DD010F0070F42B3F6D1CE
:103FE000F0B441EA012141EA014122F007047FF0E7
:103FF00000070023F0E80256083C85EA010586EA3E
:10400000010685FA47F5A3FA87F586FA47F6A5FA79
:1040100087F68EB9EED1F0BC01F0FF0102F0070285
:1040200032B110F8013B013A83EA010313B1F8D130
:104030000020704701387047002D06BF3546033811
:10404000073815F0010F07D1013015F4807F02BF4A
:10405000013015F4C03F0130F0BC0138704700BF9B
:1040600010B5431E0A44914200D110BD11F8014B16
:1040700003F8014FF7E7884210B501EB020307D8B8
:10408000421E99420AD011F8014B02F8014FF8E79D
:104090008342F5D98118D21AD34200D110BD13F84A
:1040A000014D01F8014DF7E738B50546002945D027
:1040B00051F8043C0C1F002BB8BFE41800F0D2F8F4
:1040C0001F4A1368104633B9636014602846BDE880
:1040D000384000F0C8B8A3420CD921686218934256
:1040E00004BF1A685B68636004BF521822600460F2
:1040F000ECE713465A680AB1A242FAD9196858186F
:10410000A0420BD120680144581882421960DDD1C9
:10411000106852685A6001441960D7E702D90C232D
:104120002B60D3E7206821188A4204BF11685268C7
:10413000626004BF091821605C60C7E738BD00BF3A
:104140005408002070B5CD1C25F0030508350C2D52
:1041500038BF0C25002D064601DBA94203D90C23EC
:104160003360002070BD00F07DF8214A14682146BC
:1041700091B9204C23681BB9304600F063F82060E9
:104180002946304600F05EF8431C24D10C233360EE
:10419000304600F068F8E4E70B685B1B18D40B2B83
:1041A0000FD90B60CD50CC18304600F05CF804F10C
:1041B0000B00231D20F00700C31AD3D05A42E2504F
:1041C000D0E78C424B6816BF636013600C46EBE788
:1041D0000C464968CCE7C41C24F00304A04205D077
:1041E000211A304600F02EF80130CFD02560DBE7F1
:1041F0005408002058080020F8B5074614460E461B
:1042000021B91146BDE8F840FFF79CBF22B9FFF77E
:104210004BFF25462846F8BD00F026F8A0420FD2F5
:1042200021463846FFF78EFF05460028F2D031467A
:104230002246FFF715FF31463846FFF735FFE9E71D
:104240003546E7E738B5064C0023054608462360A7
:10425000FCF75AFD431C02D1236803B12B6038BD23
:10426000600800207047704751F8043C181F002B6D
:10427000BCBF0B58C01870472E2E2F73797374650E
:104280006D2F7372632F73746D333266342D6861D2
:104290006C2F73746D3332663478785F68616C5F4D
:1042A000636F727465782E630000000000000000E8
:1042B0000102030401020304060708092E2E2F73CE
:1042C000797374656D2F7372632F73746D333266F7
:1042D000342D68616C2F73746D3332663478785F77
:1042E00068616C5F7263632E6300000061626F72CD
:1042F0007428292C2065786974696E672E2E2E002B
:104300006173736572745F706172616D28292066D4
:1043100061696C65643A2066696C652022257322A8
:104320002C206C696E652025640A0000537461635B
:104330006B206672616D653A0A00000020523020E1
:104340003D2020253038580A00000000205231203E
:104350003D2020253038580A00000000205232202D
:104360003D2020253038580A00000000205233201C
:104370003D2020253038580A0000000020523132FC
:10438000203D20253038580A00000000204C5220E3
:104390003D2020253038580A0000000020504320DE
:1043A0003D2020253038580A00000000205053528C
:1043B000203D20253038580A000000004653522F77
:1043C0004641523A0A0000002043465352203D2005
:1043D00020253038580A00002048465352203D20FE
:1043E00020253038580A00002044465352203D20F2
:1043F00020253038580A00002041465352203D20E5
:1044000020253038580A0000204D4D464152203DAD
:1044100020253038580A00002042464152203D20D5
:1044200020253038580A00004D6973630A000000E7
:10443000204C522F4558435F52455455524E3D2013
:10444000253038580A0000005B4861726446617587
:104450006C745D0A000000005B4275734661756C08
:10446000745D0A005B55736167654661756C745DC8
:104470000A00000000000000000000000102030428
:1044800006070809000802000200010000090200F6
:10449000020001000006010000000000000A010007
:1044A000000000004261747465727900257525254D
:1044B00000000000436C6F636B0000004553502DFB
:1044C0003031205374617475730000004553503AC5
:1044D00020436F6E6E656374656400004553503A07
:1044E00020446973636F6E6E6563746564000000D9
:1044F00041524D6174726F6E000000004C696E6530
:104500002053656E736F72730000000049523A20A9
:10451000256420256420256420256420256400006E
:104520004E6F726D616C000054616E6B0000000094
:104530004D6F6465000000005374656572696E67B5
:10454000000000004261743A202564252500000027
:1045500055533A20252E316620636D0049523A208A
:10456000302030203020302025640000556C7472DB
:1045700061736F6E6963000044697374616E636593
:104580003A20252E316620636D0000004E6F206FAB
:10459000626A6563742064657465637465640000B1
:1045A00053656E736F72204572726F720000000067
:1045B0005741524E494E473A204F626A6563742014
:1045C000636C6F7365210000253032753A253032F7
:1045D000753A253032750000000000000000000030
:1045E00000000000000000000000000000000000CB
:1045F000000070007000700070007000700000001B
:10460000000070007000000000000000D800D8001A
:10461000D8000000000000000000000000000000C2
:1046200000000000000050005000FC01500050004D
:10463000FC015000500000000000000000000000DD
:104640002000F800A000F0002800F8002000000082
:1046500000000000000000000000C400C8001000BE
:104660002000400098001801000000000000000039
:10467000000000006000900090006000A200940024
:104680006800000000000000000000000000300092
:1046900030003000000000000000000000000000BA
:1046A0000000000000000000180030006000600002
:1046B0006000600060003000180000000000000092
:1046C00000006000300018001800180018001800E2
:1046D0003000600000000000000000000000440006
:1046E0002800FE0028004400000000000000000038
:1046F0000000000000000000100010001000FE008C
:104700001000100010000000000000000000000079
:104710000000000000000000000000003000300039
:1047200030006000000000000000000000000000F9
:104730000000FE000000000000000000000000007B
:104740000000000000000000000000000000000069
:1047500030003000000000000000000000000200F7
:10476000040008001000200040008000000000004D
:1047700000000000000000007800CC00C600C60069
:10478000C600C600CC007800000000000000000059
:104790000000300070003000300030003000300089
:1047A000FC00000000000000000000007800CC00C9
:1047B0000C00180030006000C000FC000000000089
:1047C0000000000000007800CC000C0038000C0055
:1047D0000C00CC0078000000000000000000000089
:1047E0001C003C006C00CC00FE000C000C001E0005
:1047F00000000000000000000000FC00C000C0003D
:10480000F8000C000C00CC00780000000000000054
:104810000000000038006000C000F800CC00CC00B0
:10482000CC00780000000000000000000000FC0048
:104830000C001800300030006000600060000000D4
:1048400000000000000000007800CC00CC007800E0
:10485000CC00CC00CC00780000000000000000007C
:1048600000007800CC00CC00CC007C000C001800CC
:1048700070000000000000000000000000000000C8
:104880003000300000000000300030000000000068
:1048900000000000000000000000300030000000B8
:1048A0000000300030002000400000000000000048
:1048B000000006001C006000800060001C00060074
:1048C00000000000000000000000000000000000E8
:1048D000FE000000FE0000000000000000000000DC
:1048E000000000000000C00070000C0002000C007E
:1048F0007000C00000000000000000000000780010
:10490000CC000C0018003000300000003000000027
:1049100000000000000000007C0082009A00AA0055
:10492000AA009E0080007C00000000000000000043
:10493000000030004800CC00CC00FC00CC00CC00D3
:10494000CC0000000000000000000000F800CC00D7
:10495000CC00F800CC00CC00CC00F8000000000037
:104960000000000000007800CC00C000C000C000C3
:10497000C000CC0078000000000000000000000033
:10498000F000C800CC00CC00CC00CC00C800F00087
:1049900000000000000000000000FC00C000C0009B
:1049A000F800C000C000C000FC00000000000000D3
:1049B00000000000FC00C000C000F800C000C00003
:1049C000C000C000000000000000000000007800EF
:1049D000CC00C000C000CE00CC00CC0078000000AD
:1049E0000000000000000000CC00CC00CC00FC0067
:1049F000CC00CC00CC00CC00000000000000000087
:104A00000000FC003000300030003000300030008A
:104A1000FC00000000000000000000001E000C0070
:104A20000C000C000C000C00CC0078000000000012
:104A3000000000000000CC00D800F000E000F00012
:104A4000D800CC00C60000000000000000000000FC
:104A5000C000C000C000C000C000C000C000FC001A
:104A6000000000000000000000008200C600EE0010
:104A7000FE00D600C600C600C60000000000000010
:104A800000000000CC00EC00FC00DC00CC00CC00FE
:104A9000CC00CC0000000000000000000000780006
:104AA000CC00CC00CC00CC00CC00CC0078000000C6
:104AB0000000000000000000F800CC00CC00F8006E
:104AC000C000C000C000C0000000000000000000E6
:104AD00000007800CC00CC00CC00CC00DC007800DA
:104AE0001C0000000000000000000000F800CC00E6
:104AF000CC00F800D800CC00CC00CC0000000000B6
:104B00000000000000007800CC00C0007000180019
:104B10000C00CC0078000000000000000000000045
:104B2000FC00300030003000300030003000300039
:104B300000000000000000000000CC00CC00CC0011
:104B4000CC00CC00CC00CC007800000000000000BD
:104B500000000000CC00CC00CC00CC00CC007800E1
:104B60007800300000000000000000000000C600D7
:104B7000C600C600D600FE00EE00C600820000009F
:104B80000000000000000000CC00CC0078003000E5
:104B90007800CC00CC00CC00000000000000000039
:104BA0000000CC00CC00CC00780030003000300099
:104BB000300000000000000000000000FC000C00BD
:104BC000180030006000C000C000FC0000000000C1
:104BD000000000000000F000C000C000C000C000E5
:104BE000C000C000C000C000F000000000000000D5
:104BF00080004000200010000800040002000000B7
:104C000000000000000000000000780018001800FC
:104C1000180018001800180018001800780000008C
:104C200000000000100038006C00C600000000000A
:104C30000000000000000000000000000000000074
:104C40000000000000000000000000000000000064
:104C5000FF0000000000000030001800000000000D
:104C60000000000000000000000000000000000044
:104C700000000000000078000C007C00CC00CC009C
:104C8000760000000000000000000000C000C0002E
:104C9000C000F800CC00CC00CC00F8000000000000
:104CA000000000000000000000007800CC00C00000
:104CB000C000CC00780000000000000000000000F0
:104CC0000C000C000C007C00CC00CC00CC0076006A
:104CD000000000000000000000000000000078005C
:104CE000CC00FC00C000CC007800000000000000F8
:104CF0000000000038006C006000F80060006000F8
:104D000060006000000000000000000000000000E3
:104D100000007600CC00CC00CC007C000C00CC0065
:104D20007800000000000000C000C000D800EC00C7
:104D3000CC00CC00CC00CC00000000000000000043
:104D40000000300000007000300030003000300003
:104D50007800000000000000000000000C000000CF
:104D60000C000C000C000C000C000C00CC007800B7
:104D7000000000000000C000C000CC00D800F0001F
:104D8000D800CC00C60000000000000000000000B9
:104D9000700030003000300030003000300078000B
:104DA0000000000000000000000000000000CC0037
:104DB000FE00FE00D600C600C60000000000000095
:104DC0000000000000000000D800EC00CC00CC0087
:104DD000CC00CC000000000000000000000000003B
:104DE00000007800CC00CC00CC00CC0078000000A3
:104DF000000000000000000000000000F800CC00EF
:104E0000CC00CC00F800C000C000C00000000000D2
:104E10000000000000007600CC00CC00CC007C003C
:104E20000C000C000C00000000000000000000005E
:104E3000DC007600600060006000600000000000A0
:104E4000000000000000000000007C00C0007000B6
:104E50001C000C00F8000000000000000000000032
:104E600010003000FC00300030003000340018002A
:104E70000000000000000000000000000000CC0066
:104E8000CC00CC00CC00CC0076000000000000007C
:104E90000000000000000000CC00CC00CC00780036
:104EA000780030000000000000000000000000005A
:104EB0000000C600D600FE00FE006C0044000000AA
:104EC000000000000000000000000000CC0078009E
:104ED00030007800CC00CC00000000000000000092
:104EE000000000000000CC00CC00CC0078003000B6
:104EF00030006000C0000000000000000000000062
:104F0000FC00180030006000C000FC000000000041
:104F10000000000000001C0030003000E000300005
:104F2000300030001C000000000000000000000005
:104F300018001800180000001800180018001800C9
:104F400000000000000000000000E0003000300021
:104F50001C00300030003000E000000000000000C5
:104F60000000000000007600DC00000000000000EF
:104F70000000000000000000000000000000000031
:104F800000040100000000000102000005320532AB
:104F900005322532263226322532263A253245324E
:104FA00045324532653A653A853AA53AA53AA53A79
:104FB000C542E5420543254B454B454B6553A6533A
:104FC000C75BE75BE85B29648B74CC7C3085718DB3
:104FD000B39DF6A518A639AE5BB65BB65BB65BB6FD
:104FE0005BB65BB65BB67BB67BB67BB65AB63AB6FB
:104FF00039B639B639AE38AE17A6F6A5D49DB395F5
:105000009295708D2E7DEC74CB74AA6CE874E87464
:1050100008750875287D287D487D487D487D487D38
:10502000687D688588858885A985A985A995A995BC
:10503000A995C995C995C995C995C895C995C995A1
:10504000C995C895C895A88DA88D888D67856885F0
:105050004785277D077DE774C774C874A874887472
:10506000886C696C496C496C296C296CE963E8634C
:10507000E963C863A85B885B67536753275327536B
:105080000753E752E752C752C64AA752A64A254AD3
:10509000097352C56E9C0442653A443A2442C339AE
:1050A0008652496B075B243AA229612921212121DB
:1050B000212101190119E118C010C010E118C11017
:1050C000E118021902194319263A2A5B0532053202
:1050D0002532253226322632263A263A45324532C4
:1050E00045324532653A853A853AA53AA53AC53AF8
:1050F000E5420543054B454B454B654B8553A65350
:10510000C65BE75BE75B08646A74CB7C0F85508DF8
:105110009395D59DF7A518A639AE3AAE3AAE3AAEFC
:105120005AB65AB65AB65AB65AB65AB639B639B641
:1051300019AE18AE18AE17AEF6A5D59DB3959295DB
:10514000708D4E850D7DEB74CA74AA6C0875097557
:105150000975297D297D497D497D6985487D687D61
:10516000688568858885A985A985A98DA995C9952A
:10517000C995C995C995C995C995C895C995C99540
:10518000C895C895C895A88D888D878D68856785D1
:105190004785277D077DE77CC774C874877488744A
:1051A000886C696C486C296C296C2964E963E86334
:1051B000E963C863A85B885B67536753275327532A
:1051C00007530753E752C752C752C652A64A665200
:1051D000CC8B52BDAB83043A653A653A4542454AA9
:1051E000E762496BA64AC32961212121212121219E
:1051F000212101190119E118C118C010E118011984
:10520000021902192219C529884A2A5B053225325A
:10521000253226322632263A263A453A453245325A
:105220004532653A653A853AA53AA542C542C54236
:10523000E5420543254B454B654B654B8553A553CF
:10524000C65BC65BE75B0864696CAA74ED7C2F855E
:10525000718DB395B59DD6A5F7A5F8A518AE18AE76
:1052600018AE38AE38AE39AE39AE39AE38B618AE43
:1052700017AE16A6F6A5F5A5D49DB395718D5085EC
:105280002E850C7DEB74CA74CA74CA74097D297D9D
:10529000297D297D497D6985698569856885688558
:1052A000888589858985A98DA98DA98DC995C99577
:1052B000C995E995E995E995C995C995E895E89560
:1052C000C895C895A88DA88D878D878D67854785DA
:1052D000477D277D0775C774C774A774886C886C71
:1052E000686C486C486C296C28640864E863E8635F
:1052F000E863C863A85B885B885B685B4753275398
:1053000027530753E752E752C752C752A64AE862EB
:10531000F0ACF1B4C86A0442654285424542865207
:1053200008630863243A822141212121212121217E
:10533000212101190119E118E118C118E118021918
:105340000219E218632168420A532A5B253225328A
:1053500025322532263A263A463A4532453A453AEA
:10536000653A653A853AA53AA542C542E542E54225
:105370000543254B254B454B644B644B8453A55348
:10538000C55BC65BE65B0764486C896CCC7C0D7DB5
:105390004F85718D9395B49DB59DD69DF6A5F6A5C7
:1053A000F6A5F6A516A616A617A617A616AE16A655
:1053B000F5A5D49DD49DB39D9295708D2E850D7DC0
:1053C000EC7CCA74CA74C974E9740A75297D297D94
:1053D000297D497D6985698589858985898589854D
:1053E0008985A985A98DA98DC98DC98DC995C995AD
:1053F000E995E995E995E995E995E895E895E895C0
:10540000C895C895A88D888D878D67854785477D08
:10541000277D077DE774C774A774A774876C686CD1
:10542000686C486C286C286408640864E863E86366
:10543000E863C863C863A85B885B685B47534753EE
:10544000275327530753E752E752C752A74A4A6BDD
:1054500093C56FA425524542653A443A4442A65248
:10546000E8628652043AA229822941212121212180
:1054700001190119E118E118E118E118E218E21820
:10548000E2182219E631C9524B5B4B5B25322532BB
:105490002532263A263A453A463A453A653A653A39
:1054A000653A853A853AA53AC542C5420543054362
:1054B0000543254B444B644B644B644BA453A453AA
:1054C000C553E55BE65B06642764476CAA74EB7C16
:1054D0002D854F8D708D719592959395B49DB49D4A
:1054E000D49DD49DD49DF49DF5A5F5A5F4A5D39D9B
:1054F000B39DB295B19590956F8D4E850C7D0B7DCA
:10550000EA74C974C974E9740975297D297D497DD6
:10551000497D497D6985898589858985A98DA98D7B
:10552000A98DA98DC98DCA8DCA8DCA8DC995E995D8
:10553000E995E9950996E995E995E995E895E8955C
:10554000C895C88DA88D878D87856785477D277D00
:10555000277D077DE774C774A774876C876C686CB8
:10556000486C486C2864086408640864E863E8636D
:10557000E863E863C863A85B885B885B6753485B44
:10558000475327530753E752E752E752A752CC7BC2
:1055900093C5EC8B044A864A443A0332A64AC75A5A
:1055A000A6522442E331E431A329422121210121E1
:1055B00001190119E1180119021902192221E11832
:1055C000E218A5296842EA522B5B4B5B2532253253
:1055D000453A453A453A463A663A663A663A653A4F
:1055E000853A853AA53AC542C542E6420543254B70
:1055F000254B454B444B644B644B8453A453C453D9
:10560000C453E55BE55B066426642664886CA97474
:10561000EB7C0C852E852F854F8D508D7195719566
:1056200091959195B295B295B29DB29DB195B19576
:105630009095908D8F8D6E8D4D852C850A7D0A7D80
:10564000097508750875297D297D497D497D497D44
:105650006985698589858985A98DA98DC98DC98D3A
:10566000C98DC98DEA8DEA8DEA8DEA8DE995E995B6
:10567000E9950996099609960996E995E895C895D8
:10568000C88DC88DA88D878567856785477D277DEF
:10569000077DE77CC774A774A774876C676C686C18
:1056A000486C486C2864086408640864E863E8632C
:1056B000E863E863C863A85BA85B885B675B675BBC
:1056C000485B285B275B0753E752E752C85A6F9441
:1056D00031B56A7B454A864A6542443A2863086385
:1056E000654AC331C331C331622101192121011936
:1056F0000119E118E11802190221022123210219DE
:105700004321273AC952EA520A534B5B2532453AA4
:10571000453A453A453A663A653A653A863A853AAF
:10572000853A853AA542C542E542E542254B254BDF
:10573000454B444B644B644B84538453C45BC45308
:10574000C45BE45B055C2564256425644664876C62
:10575000C974EA7CEB7C0C7D0C850D852E854E850D
:105760004E8D4F8D6F8D6F8D708D90958F8D6F8D50
:105770006E8D6E8D6D8D4C852B852A7D297D297DC5
:10578000287D287D487D497D69856985698569858C
:105790008985898DA98DC98DC98DC98DC995C995F1
:1057A000EA95EA95EA95EA95EA95EA95E995E99503
:1057B000E99509960996099609960996E995C99574
:1057C000C88DA88DA88D8885678547852885287D03
:1057D000077DE77CC774A774A774876C686C686CD6
:1057E000486C486C286C086408640864E863E863E3
:1057F000E863E863C863C863A85BA85B685B685B31
:10580000485B485B275B075B0753E75AE96232ADA9
:10581000B0A4096B6652454A854AC652696B286333
:1058200044428229A3296229211901190121011960
:10583000E118E118E118021902212321222164292B
:10584000E639894AEA520A5B0B5B2B5B453A453ADB
:10585000453A4532453A653A653A653A853A853A78
:10586000853AA53AA542C542E542E542254B254B7E
:10587000454B454B654B644B84538453C45BC45BBD
:10588000C45BE45B055C25642564055C25644664B3
:10589000876CC874C97CE97CEA7CEA7C0B850B8543
:1058A0000C852C854D8D4D8D4D8D4D8D6E8D6D8D59
:1058B0004D854C854B854A85297D287D287D487DF1
:1058C000488568856885698569858985898DA98DFB
:1058D000A98DC98DC98DE995E995EA95E995E9956F
:1058E000E995E995EA95EA95EA95EA95E995E995C4
:1058F0000A960A960A96099609960996C995C9952F
:10590000C98DA98D888D6885488548852885288515
:10591000087DE77CC774A7748774876C686C686CB3
:10592000486C486C286C096408640864E863E863A0
:10593000E863E863E863C863A85BA85B885B685BAF
:10594000685B485B285B085B0753E75A0A6BB4BD8A
:105950006F94E86286520442A65248636963075B0B
:10596000243A612962292121E11822210221011909
:10597000E118E118E1180219222123210219C53189
:10598000884AC952EA522B5B2B5BEA5245324532B8
:10599000453A653A663A863A863A863AA642A5423A
:1059A000A542C542C542E542E5420543254B454B6C
:1059B000454B655365538553A553A453C45BC45BE2
:1059C000E45B045C245C256445644564456465646B
:1059D000656C866CA774C774C874E87CC974E97C6C
:1059E0000A7D0A852A852B854B8D6C8D4C854C85CF
:1059F0004B856B856A856A85698589856885888513
:105A0000888D888DA98DA98DA98DA98DC995E995B8
:105A1000E995E995E9950996099609960A9E0A9EDF
:105A20000A9E0A9E0A9E0A9E0A9E0A9E2A9E2A9EF6
:105A30002A9E2A9E0A9E0A96E995EA95EA95C995B4
:105A4000A98DA98D898D69854885287D087D087D6A
:105A5000087DE77CC874A774A87488748874686C1F
:105A6000696C496C296C296C0964096408640864D0
:105A70000864E963E863C863C863A85B885B885B04
:105A8000485B485B275B285B285BA6528C7BF5C58F
:105A90004E8CA75A8652254A0863AA732863654A22
:105AA000A22941214121222101210119222101198B
:105AB000E118E1180219E118E11802196329063A00
:105AC000A952EA5AEA52EA520B5B2B5B4532453A3D
:105AD000653A653A653A853AA63AA53AC642C6425B
