:020000040800F2
:1000000000000120C5020008CB020008CF02000852
:1000100041030008450300088D03000800000000AC
:10002000000000000000000000000000D5030008F0
:10003000D903000800000000DD03000831160008A5
:10004000F1030008F1030008F1030008F1030008C0
:10005000F1030008F10300088D1C0008AD1C000826
:10006000F1030008F1030008F1030008F1030008A0
:10007000F1030008F1030008F1030008F103000890
:10008000F1030008F1030008F1030008000000007C
:10009000000000000000000000000000F103000864
:1000A000F1030008F1030008F1030008F103000860
:1000B000F1030008F1030008F1030008F103000850
:1000C000F1030008F1030008F1030008F103000840
:1000D000F1030008B1150008BB150008000000007E
:1000E000F1030008F1030008F1030008000000001C
:1000F000000000000000000000000000F103000804
:1001000000000000F1030008F1030008F1030008FB
:1001100000000000000000000000000000000000DF
:10012000F1030008F1030008F1030008F1030008DF
:10013000F1030008000000000000000000000000C3
:10014000000000000000000000000000F1030008B3
:10015000F1030008F1030008F1030008C5150008C9
:10016000F1030008F1030008000000000000000097
:10017000000000000000000000000000000000007F
:1001800000000000F1030008000000000000000073
:10019000F103000800B583B000F046FE384B394A41
:1001A0001360394A1360394900E02146384B9942BF
:1001B0000BD20A684B6801F10C0488689842F4D9A4
:1001C0001168196004330432F8E72E4B1A68314B7A
:1001D0009A4200D0FEE72C4B1A682F4B9A42F9D175
:1001E000274B2E4A13602E4A13602E4B05E0002049
:1001F000106004329342FAD80B462B4A934204D241
:10020000194651F8082B5B68F4E7244B1B6813B9B7
:10021000234B1B6803B1FEE701F05EFE694601A8AF
:1002200000F094FD214C224BE41AA4100025AC42AE
:1002300014DC204C204BE41AA4100025AC4213DC43
:100240000099019801F092FD05461C4C1C4BE41AE4
:10025000A410002C0EDC284600F04AFD144B53F885
:10026000253098470135E2E7134B53F8253098477E
:100270000135E3E7013C124B53F824309847E8E797
:10028000BABADECA0000002074000020F40300089F
:100290000C04000878563412325476987800002006
:1002A000700700200C0400081C0400081C0400084F
:1002B0001C0400081C0400081C0400081C0400089E
:1002C0001C04000808B5FFF765FF00BEFEE71EF03E
:1002D000040F0CBFEFF30880EFF309807146414A29
:1002E00010472DE9F04182B004468846124B5E6B00
:1002F0009F6B9D6A1B6B13F0020F03D00E4BDB6AE2
:10030000002B0CDB0D4800F033FDCDF800803B46A0
:1003100032462946204600F093FD00BEFEE74BF62C
:10032000AB6100F007FE0028ECD0034B4FF0004219
:10033000DA6202B0BDE8F08100ED00E0282A000892
:1003400000BEFEE71EF0040F0CBFEFF30880EFF3D2
:1003500009807146244A10472DE9F04182B00446D5
:100360008846084B5E6B9F6B9D6A074800F000FD56
:10037000CDF800803B4632462946204600F060FD1D
:1003800000BEFEE700ED00E0382A00081EF0040F72
:100390000CBFEFF30880EFF309807146134A104752
:1003A0002DE9F04182B004468846084B5E6B9F6B96
:1003B0009D6A074800F0DCFCCDF800803B463246E1
:1003C0002946204600F03CFD00BEFEE700ED00E0BF
:1003D000442A000800BEFEE700BEFEE700BEFEE7BE
:1003E00070470000E302000859030008A103000859
:0403F00000BEFEE766
:1003F400002B00080000002078000020002B0008DB
:100404000000001000000010780000207407002095
:080414000000001000000010C0
:1004200010B50446074B1868074BA3FB0030800942
:1004300000F090F8002221464FF0FF3000F044F821
:10044000002010BD0C000020D34D621008B50B4BEE
:100450001A6842F400721A601A6842F480621A60E4
:100460001A6842F480721A60032000F00FF80F201F
:10047000FFF7D6FF01F038FD002008BD003C024028
:10048000014B1868704700BF6807002010B504468C
:10049000C31E042B0FD80A4AD36823F4E0631B045D
:1004A0001B0C240204F4E064234343F0BF6343F4D1
:1004B0000033D36010BDA421024800F04FFCEAE7EE
:1004C00000ED00E05828000870B505460C461646B9
:1004D0000F2A25D80F2C28D81B4BDB68C3F3022327
:1004E000C3F10702042A28BF0422191D062921D9B5
:1004F000033B4FF0FF3101FA02F224EA02049C4070
:1005000001FA03F326EA03063443002D14DB240129
:10051000E4B205F1604505F5614585F8004370BD1D
:10052000BC210A4800F01AFCD4E7BD21074800F0BE
:1005300015FCD1E70023DCE705F00F052401E4B248
:10054000034B5C55EBE700BF00ED00E058280008C6
:1005500014ED00E00138B0F1807F0AD2064B5860FC
:10056000064AF02182F823100020986007221A60C2
:1005700070470120704700BF10E000E000ED00E090
:1005800010B50446042800D038B9042C0BD0094A11
:10059000136823F00403136010BD40F2B311064842
:1005A00000F0DCFBF1E7034A136843F00403136037
:1005B000F2E700BF10E000E05828000830B583B033
:1005C000044603680F2B29D8236813F0010F3DD090
:1005D0006368012B01D9052B25D1A34B9B6803F040
:1005E0000C03042B29D0A04B9B6803F00C03082BB1
:1005F0001ED022799D4B1A706368002B50D0FFF7F4
:100600003FFF0546984B1B6813F4003F1ED1FFF7D0
:1006100037FF401B6428F5D90320E3E1F521944816
:1006200000F09CFBD0E7FA21914800F097FBD4E75B
:100630008D4B5B6813F4800FDBD08B4B1B6813F47E
:10064000003F03D06368002B00F0C981236813F0DA
:10065000020F5DD0E368012B31D823691F2B34D8FA
:10066000814B9B6813F00C0F3AD07F4B9B6803F0D3
:100670000C03082B2FD0E368002B74D07D4B012294
:100680001A60FFF7FDFE0546774B1B6813F0020F5B
:100690005AD1FFF7F5FE401B0228F5D90320A1E14E
:1006A000FFF7EEFE0546704B1B6813F4003FCDD0FC
:1006B000FFF7E6FE401B6428F5D9032092E14FF4D2
:1006C00096716B4800F04AFBC7E740F22D1168486D
:1006D00000F044FBC4E7644B5B6813F4800FCAD19D
:1006E000614B1B6813F0020F04D0E368012B01D0AB
:1006F000012077E15C48036823F0F8032169F822C0
:1007000092FAA2F2B2FA82F201FA02F21343036001
:10071000236813F0080F50D06369012B35D8636943
:10072000002B38D0544B01221A60FFF7A9FE054672
:100730004D4B5B6F13F0020F3FD1FFF7A1FE401B43
:100740000228F5D903204DE14748036823F0F80358
:100750002169F82292FAA2F2B2FA82F201FA02F2C6
:1007600013430360D4E7434B00221A60FFF788FE6F
:1007700005463D4B1B6813F0020FC9D0FFF780FE02
:10078000401B0228F5D903202CE140F26D113848B6
:1007900000F0E4FAC3E7384B00221A60FFF770FE5E
:1007A0000546314B5B6F13F0020F06D0FFF768FE72
:1007B000401B0228F5D9032014E1236813F0040F2D
:1007C00060D0A368012B01D9052B1FD10023019311
:1007D000254B1A6C42F080521A641B6C03F0805354
:1007E0000193019B254A136843F480731360FFF75C
:1007F00047FE0546214B1B6813F4807F0CD1FFF7A1
:100800003FFE401B0228F5D90320EBE040F2971190
:10081000174800F0A3FAD9E7227A194B1A70A36897
:1008200083B1FFF72DFE05460F4B1B6F13F0020F30
:1008300028D1FFF725FE401B41F288339842F3D9B7
:100840000320CFE0FFF71CFE0546074B1B6F13F09C
:10085000020F17D0FFF714FE401B41F28833984275
:10086000F3D90320BEE000BF003802400238024046
:100870009C28000800004742800E4742007000405C
:1008800070380240A369022B39D8A369002B00F00D
:10089000A880564A926802F00C02082A00F0A48050
:1008A000022B40F08880E36913B1B3F5800F2CD19F
:1008B000236A3F2B2FD8636A323BB3F5BF7F30D812
:1008C000A36A022B05D0042B03D0062B01D0082BE2
:1008D0002DD1E36A043B0B2B2FD8454B00221A6025
:1008E000FFF7CEFD0546414B1B6813F0007F2AD071
:1008F000FFF7C6FD401B0228F5D9032072E04FF434
:10090000E6713C4800F02AFABFE740F2D5113948B9
:1009100000F024FACCE74FF4EB71364800F01EFAF1
:10092000C9E740F2D711334800F018FAC8E74FF48E
:10093000EC71304800F012FACBE740F2D9112D48A3
:1009400000F00CFAC9E7E369226A1343616A47F6CB
:10095000C07292FAA2F2B2FA82F201FA02F21343E0
:10096000A26A5208013A4FF4403191FAA1F1B1FA6A
:1009700081F18A401343E16A4FF0706292FAA2F269
:10098000B2FA82F201FA02F21343184A5360184B8A
:1009900001221A60FFF774FD0446144B1B6813F024
:1009A000007F06D1FFF76CFD001B0228F5D903205C
:1009B00018E0002016E00E4B00221A60FFF760FDE1
:1009C00004460A4B1B6813F0007F06D0FFF758FD62
:1009D000001B0228F5D9032004E0002002E00120DA
:1009E00000E0002003B030BD0120FBE700380240EA
:1009F000600047429C280008214B9B6803F00C03D1
:100A0000042B3AD0082B01D01E4870471C4B586865
:100A100000F03F005B6813F4800F1ED01A4AB2FB4F
:100A2000F0F2174B586847F6C073184093FAA3F3D7
:100A3000B3FA83F3D84000FB02F0114B5B6803F478
:100A400040334FF4403292FAA2F2B2FA82F2D3402B
:100A500001335B00B0FBF3F070470A4AB2FBF0F2DF
:100A6000074B586847F6C073184093FAA3F3B3FADC
:100A700083F3D84000FB02F0DFE70348704700BF74
:100A8000003802400024F40040787D0170B504462F
:100A90000D460368013B0E2B11D8072D15D88C4B42
:100AA0001B6803F00F03AB4215D2EBB2884A1370F8
:100AB000136803F00F03AB420DD0012070BD40F26C
:100AC0003721844800F04AF9E7E74FF40E71814876
:100AD00000F044F9E3E7236813F0020F18D0A3688D
:100AE0007BB1802B0DD0902B0BD0A02B09D0B02B3D
:100AF00007D0C02B05D0D02B03D0E02B01D0F02B9A
:100B000037D1754A936823F0F003A1680B439360D3
:100B1000236813F0010F73D06368032B2FD8636829
:100B2000012B32D09A1E012A36D96B4A126812F074
:100B3000020F00F0CA8068498A6822F0030213435A
:100B40008B60FFF79DFC06466368012B2BD0022BC0
:100B500038D0032B45D0604B9B6813F00C0F4FD05F
:100B6000FFF78EFC801B41F288339842F3D90320B3
:100B7000A4E740F24F21574800F0F0F8C1E740F2F7
:100B80005621544800F0EAF8C9E7534A126812F4B3
:100B9000003FD0D1012091E74F4A126812F0007F48
:100BA000C9D101208AE74C4B9B6803F00C03042B4E
:100BB00026D0FFF765FC801B41F288339842F2D9BA
:100BC00003207BE7444B9B6803F00C03082B17D0F2
:100BD000FFF756FC801B41F288339842F2D903207C
:100BE0006CE73D4B9B6803F00C030C2B08D0FFF720
:100BF00047FC801B41F288339842F2D903205DE71D
:100C0000334B1B6803F00F03AB4209D9EAB2304BF8
:100C10001A701B6803F00F03AB4201D001204DE7AF
:100C2000236813F0040F14D0E3685BB1B3F5805F61
:100C300008D0B3F5A05F05D0B3F5C05F02D0B3F51F
:100C4000E05F36D1244A936823F4E053E1680B4314
:100C50009360236813F0080F15D023695BB1B3F5D7
:100C6000805F08D0B3F5A05F05D0B3F5C05F02D0B8
:100C7000B3F5E05F23D1184A936823F460432169F8
:100C800043EAC1039360FFF7B7FE134B9B6803F081
:100C9000F003F02292FAA2F2B2FA82F2D3400F4AA3
:100CA000D35CD8400E4B18600F20FFF7B9FB002033
:100CB00004E74FF42D71074800F050F8C2E740F206
:100CC000BB21044800F04AF8D5E70120F6E600BF52
:100CD000003C02409C280008003802408C28000894
:100CE0000C000020014B1868704700BF0C0000206A
:100CF000FEE7000008B5034800F052F80120FFF7B6
:100D0000F7FF00BFCC28000808B503460C4A12685C
:100D10005AB10B4A1068033323F003030344094A12
:100D2000934206D8064A136008BD054A0649116079
:100D3000EFE701F0DBF80C2303604FF0FF30F3E73F
:100D40007C00002000FC00207407002001230360C9
:100D5000014B0B60704700BF0400002008B50A4635
:100D60000146024800F004F8FFF7C4FFE02800083D
:100D70000FB400B583B004AB53F8042B019380216A
:100D8000064801F021F9002803DD0146034800F080
:100D900047F803B05DF804EB04B07047840000200E
:100DA00010B5044601F0DCF80146204600F038F8A2
:100DB0000121024800F034F810BD00BF7C2A000871
:100DC0002DE9F04385B004460F4643560BB10E465D
:100DD0001EE0042528462146ABBE0446384605B031
:100DE000BDE8F08314F9011B04AA1A4402F8101C90
:100DF0000133AB42F6D304AA1344002203F8102CAB
:100E00004FF00408E94640464946ABBE8046761B93
:100E1000002EE3D03546102E28BF10250023E8E72A
:100E200008B5FFF7CDFF08BD08B500F093F8024AFA
:100E3000024B9A6008BD00BF0000000800ED00E012
:100E4000F8B504460D4617461E462748FFF790FFA3
:100E500021682648FFF78CFF61682548FFF788FF67
:100E6000A1682448FFF784FFE1682348FFF780FF6B
:100E700021692248FFF77CFF61692148FFF778FF6D
:100E8000A1692048FFF774FFE1691F48FFF770FF71
:100E90001E48FFF76DFF29461D48FFF769FF1D4CEF
:100EA000E16A1D48FFF764FF216B1C48FFF760FFF4
:100EB000E16B1B48FFF75CFF15F0800F0AD115F4BA
:100EC000004F0CD11748FFF753FF06991648FFF75C
:100ED0004FFFF8BD39461548FFF74AFFEFE73146A7
:100EE0001348FFF745FFEDE70C2900081C2900080F
:100EF0002C2900083C2900084C2900085C2900081E
:100F00006C2900087C2900088C2900089C2900080D
:100F1000A829000800ED00E0B8290008C829000849
:100F2000D8290008082A0008102A0008E829000823
:100F3000F829000883691A888A4201D00020704786
:100F40000268033A012A03D8023383610120704703
:100F5000002070470C4B1A6842F001021A60002111
:100F600099601A6822F0847222F480321A60074A6B
:100F70005A601A6822F480221A60D960044B4FF03C
:100F800000629A60704700BF0038024010300024B1
:100F900000ED00E0224B9B6803F00C03042B14D0FF
:100FA000082B16D01BB11F4B1F4A1A6002E01D4BC5
:100FB0001D4A1A601A4B9B68C3F303131B4AD15C8A
:100FC000184A1368CB4013607047164B184A1A60D2
:100FD000F0E7134B5A685B6803F03F0312F4800F8D
:100FE00013D0134AB2FBF3F20D4B5B68C3F38813C3
:100FF00003FB02F30A4A5268C2F301420132520073
:10100000B3FBF2F3074A1360D4E7074AB2FBF3F2EB
:10101000034B5B68C3F3881303FB02F3EAE700BFEB
:10102000003802400C0000200024F400542A00087C
:1010300040787D0120B400FB01F5B2FBF5F01860AB
:1010400005FB102000FB01F0B0FBF5F0C0B2082951
:1010500002D0187120BC704700F00700F9E70000CB
:10106000002800F0FB8070B582B00446C27A0AB94D
:101070000222C272227B0AB902222273627B0AB95F
:1010800003226273A27A0AB90122A272227A0AB9F1
:1010900001222272627A0AB9022262722278714EA9
:1010A00006FB02F6627832B1012A1DD0022A40F016
:1010B000D7806D4D00E06D4D012A1BD0B2B1022AE0
:1010C0001CD000F0C7FAEB6843F40053EB60237ABE
:1010D000012B17D0022B1AD0637A013B032B21D8A6
:1010E000DFE803F0581A464F614DE5E7252000F090
:1010F00001FCE6E7262000F0FDFBE2E7472000F0D8
:10110000F9FBDEE7EB6823F48053EB60E4E7EB6880
:1011100043F48053EB60DFE72B6923F440532B61EA
:101120002B692B61A37A022B42D0032B49D0012BD0
:1011300039D0E37A012B4DD0022B51D1EB6823F447
:101140000043EB601021237B012B4BD0022B4ED0B0
:10115000637B022B59D0032B60D0012B4CD06378DA
:10116000002B64D0012B77D0022B65D13E4A5FE083
:101170002B6923F440532B612B6943F440532B61BB
:10118000D0E72B6923F440532B612B6943F40053C0
:101190002B61C7E72B6923F440532B612B6943F480
:1011A00080532B61BEE7EB6823F48063EB60C0E7FC
:1011B000EB6843F48063EB60EB6823F40073EB604F
:1011C000B7E7EB6843F48063EB60EB6843F40073CC
:1011D000EB60AEE7EB6843F40043EB600821B2E755
:1011E0001021B0E76B6943F400636B61B0E76B6992
:1011F00023F400636B61ABE7EB6843F00803EB603B
:10120000EB6823F00403EB60A9E7EB6843F0040309
:10121000EB60EB6823F00803EB60A0E7EB6843F0BA
:101220000803EB60EB6843F00403EB6097E70F4AB9
:10123000D36843F02003D3606B4632466068FFF703
:10124000F9FE9DF8043003F00F03009A43EA0213FD
:10125000AB60002002B070BD054AE9E7012070478D
:101260000220F7E740420F00001401400010014047
:101270000044004038B5022847D8C201024491001A
:10128000244B0B4493F80322D2B293F80232DBB220
:101290009A423CD00446012827D010B3022828D017
:1012A0001C48E1010A199300034493F80322D2B2C7
:1012B000551CEDB283F803521A4492F80051EDB276
:1012C00093F80322D2B20B199900084480F8032244
:1012D000012C16D08CB1022C1AD1472000F00AFB49
:1012E00016E0252000F018FBDAE7262000F014FBBA
:1012F000D6E7472000F010FBD2E7252000F0FAFAED
:1013000006E0262000F0F6FA02E0022500E00025C3
:10131000284638BD04010020022816D810B40C4914
:10132000C2011418A3001C460B4493F80232214456
:1013300091F80302181A00F580704342C0B2DBB284
:1013400058BF5842C0B210BC70470220704700BF5F
:101350000401002002285AD800295AD070B5C201D1
:10136000024494002D4B234493F8005201356A4205
:10137000EDB2D2B258BF5542AAB293F801329342AD
:1013800049D00E46044601281CD0B8B102281DD011
:101390002249E301181982000A4492F80002C0B2FF
:1013A0001654EDB223449A00114481F800528CB1D6
:1013B000012C1BD0022C12D1194A0CE0252000F080
:1013C000ABFAE5E7262000F0A7FAE1E7472000F0B6
:1013D000A3FADDE7134AD36843F08003D360012CFE
:1013E0000BD02CB1022C0DD0002015E00E4AF2E7F4
:1013F000252000F07FFA00200EE0262000F07AFA87
:10140000002009E0472000F075FA002004E00220E7
:10141000704700207047052070BD00BF0401002008
:1014200000140140001001400044004038B505465A
:101430000C46217851B101342846FFF78BFF034653
:101440000028F6D00528F4D0184638BD0023FBE765
:101450002DE9F84306460C46174698463046FFF7F6
:101460005BFFD0B10F4DD5F800903046FFF702FF7B
:1014700004F809002B68E118E25C424506D07A1EA8
:10148000934203D20133074A1360E7E700230B704E
:10149000044A1360012F02D00020BDE8F883042025
:1014A000FBE700BF1007002001280FD018B1022869
:1014B0000AD0022070473A4970B448B101282AD0B6
:1014C000022821D1374B04E03649F5E73649F3E7E6
:1014D000334B1B6813F0200F16D04C68C201024436
:1014E0009500324B2B4493F80222E4B21A4482F85E
:1014F000004193F802220132D2B283F8022293F81B
:101500000222D2B283F8022248B1012832D0022846
:1015100003D0002041E0244BDBE7224B00E0204BCE
:101520001B6813F0800F37D0C201024494001F4B98
:10153000234493F80022D2B293F80132DBB29A42EC
:101540001AD01A4CC2011518AB00234493F801526B
:10155000EDB26E1CF6B283F801625D5DEDB24D60D6
:1015600093F80132DBB210448200144484F8013253
:10157000002012E00C4BD3E728B101280AD0022842
:1015800006D1084A00E0064AD36823F08003D360FE
:10159000002002E0044AF7E7002070BC704700BF5B
:1015A00000100140001401400044004004010020EC
:1015B00008B50020FFF778FF08BD08B50120FFF748
:1015C00073FF08BD08B50220FFF76EFF08BD0000DD
:1015D000044B586000229A601A6842F001021A60B7
:1015E000704700BF10E000E0024A136823F00103D7
:1015F0001360704710E000E008B540F6354303FB88
:1016000000F0094B00229A60421E084B9A4200D912
:1016100008BDFFF7DDFF044B1B6813F4803FFAD0D1
:10162000FFF7E2FFF4E700BF10E000E0FDFFFF007E
:1016300008B5064B1B6803B19847054B1B78012B77
:1016400000D008BDFFF7D0FFFBE700BF1807002060
:1016500014070020704700000B4B1A6842F48022E8
:101660001A601A6842F480321A60074B1B6813F440
:10167000003FFAD0044B9A6822F002029A609A68FE
:1016800042F001029A60704700380240032800F2DD
:101690002181DFE810F004005D006600D00016290B
:1016A00012D8DFE801F00C191F252B31373D11113D
:1016B0001111431111111111111111494F00864AD5
:1016C000136B43F0010313638348036B012202FA97
:1016D00001F11943016370477F4A136B43F0020322
:1016E0001363F1E77C4A136B43F004031363EBE7E6
:1016F000794A136B43F008031363E5E7764A136BEB
:1017000043F010031363DFE7734A136B43F02003C6
:101710001363D9E7704A136B43F040031363D3E7B5
:101720006D4A136B43F080031363CDE76A4A136B72
:1017300043F480531363C7E7674A136B43F4001302
:101740001363C1E7644A136B43F480031363BBE77D
:10175000072940F0BF80604A536B43F08003536316
:1017600070471C2900F2B680DFE811F01D0023004D
:1017700029002F00B400B400B400B400B400B400D9
:10178000B4003500B400B4003B004100B400470091
:10179000B400B400B4004D0053005900B400B400CC
:1017A000B400B4005F004C4A136C43F001031364AF
:1017B0007047494A136C43F0020313647047464A6A
:1017C000136C43F0040313647047434A136C43F0F3
:1017D000080313647047404A136C43F400631364B6
:1017E00070473D4A136C43F48043136470473A4A90
:1017F000136C43F4004313647047374A136C43F48B
:10180000003313647047344A136C43F400131364B9
:101810007047314A136C43F48003136470472E4AB7
:10182000136C43F40003136470472B4A136C43F0AA
:1018300080531364704712294CD8DFE801F00A4B3B
:101840004B4B10164B4B1C4B4B22282E344B3A4023
:101850004600214A536C43F00103536470471E4A0B
:10186000536C43F01003536470471B4A536C43F0AE
:10187000200353647047184A536C43F480735364D5
:101880007047154A536C43F4006353647047124A1F
:10189000536C43F48053536470470F4A536C43F4C2
:1018A0000053536470470C4A536C43F480435364B1
:1018B0007047094A536C43F4803353647047064AB7
:1018C000536C43F4003353647047034A536C43F43E
:1018D00080235364704700BF00380240044B9A686D
:1018E00022F0F0029A609A6842EA0010986070470D
:1018F0000038024010B44409064951F8243000F081
:101900001F00012202FA00F0184341F8240010BC25
:10191000704700BF00E100E010B44309074C2033DA
:1019200054F8232000F01F00012101FA00F022EA00
:10193000000044F8230010BC704700BF00E100E045
:1019400010B4044620B9A1F10D03DBB2022B24D957
:10195000012C07D0072C20D8DFE804F009130B0D69
:101960000F1F1F11CB1EDBB2012BF3D815E00C4C5F
:1019700008E00C4C06E00C4C04E00C4C02E00C4C73
:1019800000E00C4C4900032303FA01F0236823EA2A
:10199000000302FA01F11943216010BC704700BF37
:1019A0000000024000080240000C0240001002400B
:1019B000001C024000040240034620B9A1F10D00C2
:1019C000C0B202281CD9012B07D0072B18D8DFE89A
:1019D00003F009130B0D0F171711C81EC0B2012811
:1019E000F3D80DE00E4B08E00E4B06E00E4B04E082
:1019F0000E4B02E00E4B00E00E4B12B1012A08D054
:101A00007047012202FA01F15A6822EA01025A6083
:101A1000704702FA01F15A680A435A60F0E700BFC2
:101A20000000024000080240000C0240001002408A
:101A3000001C02400004024010B4044620B9A1F189
:101A40000D03DBB2022B24D9012C07D0072C20D8A0
:101A5000DFE804F009130B0D0F1F1F11CB1EDBB2C3
:101A6000012BF3D815E00C4C08E00C4C06E00C4CB4
:101A700004E00C4C02E00C4C00E00C4C4900032349
:101A800003FA01F0A36823EA000302FA01F1194303
:101A9000A16010BC704700BF000002400008024077
:101AA000000C024000100240001C024000040240F2
:101AB00010B4044620B9A1F10D03DBB2022B24D9E6
:101AC000012C07D0072C20D8DFE804F009130B0DF8
:101AD0000F1F1F11CB1EDBB2012BF3D815E00C4CEE
:101AE00008E00C4C06E00C4C04E00C4C02E00C4C02
:101AF00000E00C4C4900032303FA01F0E36823EAF9
:101B0000000302FA01F11943E16010BC704700BF05
:101B10000000024000080240000C02400010024099
:101B2000001C024000040240034620B9A1F10D0050
:101B3000C0B2022822D9012B07D0072B1ED8DFE81C
:101B400003F009130B0D0F1D1D11C81EC0B2012893
:101B5000F3D813E00D4B08E00D4B06E00D4B04E00D
:101B60000D4B02E00D4B00E00D4B012A07D0012286
:101B700002FA01F15A6922EA01025A61704702FA37
:101B800001F15A690A435A61704700BF00000240E0
:101B900000080240000C024000100240001C0240FD
:101BA00000040240034620B9A1F10D00C0B2022892
:101BB0000DD9012B07D0072B09D8DFE803F0091353
:101BC0000B0D0F080811C81EC0B20128F3D87047CA
:101BD000184808E0184806E0184804E0184802E0F1
:101BE000184800E0184810B4072913D9A1F10803D8
:101BF000DBB2072B1BD8083989000F2303FA01F445
:101C0000436A23EA040302F00F0202FA01F11943C6
:101C100041620CE089000F2303FA01F4036A23EA0E
:101C2000040302F00F0202FA01F11943016210BC31
:101C3000704700BF0000024000080240000C024054
:101C400000100240001C02400004024010B504468F
:101C5000827841780078FFF773FEE2786178207827
:101C6000FFF7AAFE227961782078FFF7E5FE627916
:101C700061782078FFF71CFFA378022B00D010BDFD
:101C8000A27961782078FFF78DFFF8E708B5054B5A
:101C90001B6803B19847044A536943F00103536139
:101CA00008BD00BF1C070020003C014008B5054BE3
:101CB0005B6803B19847044A536943F002035361D8
:101CC00008BD00BF1C070020003C014070B59CB05F
:101CD0000D461646114C20701149FFF7A7FB4FF433
:101CE000FA60FFF789FC0F492078FFF79FFB4FF45C
:101CF000FA70FFF781FC00962B460B4A642103A87B
:101D000000F0FAF803A92078FFF790FB41F2883041
:101D1000FFF772FC00201CB070BD00BF5C07002004
:101D2000642A0008702A0008802A000838B108B523
:101D30000146044B1878FFF779FB002008BD01200D
:101D4000704700BF5C07002058B108B509B90120F1
:101D500008BD0A460A23014603480078FFF778FBCE
:101D6000F6E70120704700BF5C07002000B5A5B072
:101D7000FFF772FC0020FFF7B1FD00210846FFF7D6
:101D800085FC01210020FFF781FC0E210320FFF7D5
:101D90007DFC04210320FFF779FC264C22AB94E85C
:101DA000030083E803001846FFF750FF20AB04F15F
:101DB000080292E8030083E803001846FFF746FF95
:101DC00000261E961F9603238DF8793001238DF887
:101DD0007A3002238DF87C308DF87D301EA8FFF715
:101DE00035FF1AAD103494E80F0085E80F0028463F
:101DF000FFF736F9104A11493046FFF767FF07E051
:101E0000012203210020FFF78FFE01A8FFF78EFFBC
:101E100041F28832642101A8FFF796FF9DF9043052
:101E2000612BEDD0622BF3D1002203211046FFF786
:101E30007BFEEDE7982A0008B82A0008C42A0008AB
:101E400070B594B000240194204B1A6C42F080527B
:101E50001A641B6C03F080530193019B02941C4B8A
:101E60001A6842F440421A601B6803F4404302932C
:101E7000029B0123089309934FF480030F931923C6
:101E800010934FF4A873119304261296072313930B
:101E900002250E9508A8FEF791FB0F2303930495E6
:101EA00005944FF4805306930794294603A8FEF740
:101EB000EDFDFEF717FF074BA3FB00308009FEF78F
:101EC00049FB3046FEF75CFB14B070BD00380240A1
:101ED00000700040D34D621008B5FEF7B7FAFFF767
:101EE000AFFFFFF757F808BD70470000014B1868B7
:101EF000704700BF100000200CB430B5174B0C1E0B
:101F00009DB01D6808DA8B232B604FF0FF301DB0A9
:101F1000BDE8304002B070474FF40273ADF81430A2
:101F200014BF04F1FF332346049307934FF6FF7366
:101F300002900690ADF81630209A21AB02A92846EF
:101F4000019300F0A9F8431CBCBF8B232B60002C2D
:101F5000DDD0029B00221A70D9E700BF10000020DC
:101F6000034613F8012B002AFBD1181A01387047D9
:101F700030B5141E05469BB0184605DA8B232B603E
:101F80004FF0FF301BB030BD4FF40273ADF80C3092
:101F900014BF04F1FF332346029305934FF6FF73FA
:101FA00000910491ADF80E3002461E9B694628460A
:101FB00000F072F8431CBCBF8B232B60002CE1D0D7
:101FC000009B00221A70DDE707B5009313460A460E
:101FD000014603480068FFF7CBFF03B05DF804FB40
:101FE000100000202DE9F0478E689E4282460C4684
:101FF0009046994637D88A8912F4906F31D0256877
:1020000009696F1A6569022305EB450595FBF3F530
:1020100009F101033B449D4238BF1D46530530D5AD
:10202000294600F07FFB064650B90C23CAF8003061
:10203000A38943F04003A3814FF0FF30BDE8F08750
:102040003A46216900F0FCFAA38923F4906343F037
:102050008003A381266165613E44ED1B2660A56077
:102060004E464E4500D94E4632464146206800F065
:10207000F2FAA3689B1BA36023681E44266000201D
:10208000DCE72A4600F0A8FB06460028E2D12169D9
:10209000504600F0F9FAC8E72DE9F04F9DB08046B0
:1020A00003938B891D060C4616460FD50B696BB939
:1020B000402100F037FB2060206128B90C23C8F8CC
:1020C00000304FF0FF30C7E04023636100230993E5
:1020D00020238DF8293030238DF82A304FF0010B62
:1020E00037463D4615F8013B0BB1252B3ED1B7EBEA
:1020F000060A0BD05346324621464046FFF772FF90
:10210000013000F0A480099B534409933B78002BD5
:1021100000F09D8000234FF0FF32CDE905230493AA
:1021200007938DF853301A932F46052217F8011B99
:102130004F4800F035FA049BD0B9D90644BF20229D
:102140008DF853201A0744BF2B228DF853202A788C
:102150002A2A15D0079A2F4600200A25394611F859
:10216000013B303B092B4DD9B8B10FE02F46B8E702
:102170003F4A801A0BFA00F0184304903D46D3E71B
:10218000039A111D12680391002A01DB079204E0F3
:10219000524243F00203079204933B782E2B0CD15A
:1021A0007B782A2B33D1039B1A1D1B680392002BCB
:1021B000B8BF4FF0FF33023705932E4D3978032215
:1021C000284600F0EDF938B14023401B03FA00F037
:1021D000049B034301370493397827488DF828106E
:1021E00006227E1C00F0DCF9002838D0234B13BBFC
:1021F000039B073323F0070308330393099B4B44E6
:1022000009936DE705FB023201200F46A6E7002384
:102210000137059319460A25384610F8012B303A44
:10222000092A03D9002BC8D00591C6E705FB012177
:1022300001230746F0E703AB00932246104B04A9A5
:102240004046AFF30080B0F1FF3F8146D6D1A3896D
:102250005B063FF536AF09981DB0BDE8F08F03ABC4
:1022600000932246064B04A9404600F081F8EAE7B5
:10227000CC2A0008D22A0008D62A00080000000054
:10228000E51F00082DE9F04791461F468A680B6953
:10229000DDF820809342B8BF1346C9F8003091F8AA
:1022A000432006460C4612B10133C9F800302368BA
:1022B000990642BFD9F800300233C9F800302568CA
:1022C00015F0060507D104F1190AE368D9F80020D2
:1022D0009B1AAB4228DC94F843302268003318BFC5
:1022E000012392062DD404F1430239463046C047FB
:1022F000013020D02368E568D9F8002003F00603F8
:10230000042B08BFAD1AA36822690CBF25EAE57546
:1023100000259342C4BF9B1AED184FF000091A34F0
:102320004D451AD1002008E0012352463946304677
:10233000C047013003D14FF0FF30BDE8F0870135D1
:10234000C3E7E1185A1C302081F84300224494F876
:10235000451082F843100233C5E70123224639466F
:102360003046C0470130E6D009F10109D8E7000046
:102370002DE9F04301F1430C0C46097E85B06E292E
:102380001746064698460C9A00F0B38022D8632977
:1023900036D00AD8002900F0B980582900F083808F
:1023A00004F1420584F8421032E0642901D0692921
:1023B000F6D120681368050603F104012AD51B68CD
:1023C0001160002B03DA2D225B4284F843206F4812
:1023D0000A2239E0732900F09D8008D86F2920D0A7
:1023E0007029DDD1236843F02003236003E07529C1
:1023F00017D07829D4D1782384F84530644855E043
:102400001368191D1B68116004F1420584F84230FD
:1024100001238CE01B68116010F0400F18BF1BB245
:10242000CFE713682568181D1060280601D51B68C2
:1024300002E06806FBD51B8854486F2914BF0A22A6
:102440000822002184F843106568A560002DC0F2C1
:102450009580216821F004012160002B3DD1002DE1
:1024600040F08E806546082A0BD12368DB0708D52B
:10247000236962689A42DEBF302305F8013C05F10A
:10248000FF35ACEB05032361CDF800803B4603AA82
:1024900021463046FFF7F6FE01304DD14FF0FF30B8
:1024A00005B0BDE8F083394884F845101368216809
:1024B0001D1D1B6815600A060BD5CA0744BF41F0F5
:1024C000200121601BB9226822F020022260102224
:1024D000B7E74D0648BF9BB2EFE76546B3FBF2F1A5
:1024E00002FB1133C35C05F8013D0B460029F5D111
:1024F000B9E7136825686169181D106028061B6814
:1025000001D5196002E06A06FBD51980002323611A
:102510006546B9E71368191D11601D6862680021DE
:10252000284600F03DF808B1401B606063682361F5
:10253000002384F84330A7E723692A46394630460A
:10254000C0470130AAD023689B0713D4E068039BDF
:102550009842B8BF1846A3E701234A463946304699
:10256000C04701309AD00135E368039A9B1AAB4209
:10257000F2DCEBE7002504F11909F5E7002BACD1FB
:10258000037884F8423004F142056CE7DD2A000844
:10259000EE2A00080000000000000000000000001B
:1025A00001F0FF01102A2BDB10F0070F08D010F804
:1025B000013B013A8B422DD010F0070F42B3F6D108
:1025C000F0B441EA012141EA014122F007047FF021
:1025D00000070023F0E80256083C85EA010586EA78
:1025E000010685FA47F5A3FA87F586FA47F6A5FAB4
:1025F00087F68EB9EED1F0BC01F0FF0102F00702C0
:1026000032B110F8013B013A83EA010313B1F8D16A
:102610000020704701387047002D06BF354603384B
:10262000073815F0010F07D1013015F4807F02BF84
:10263000013015F4C03F0130F0BC0138704700BFD5
:1026400010B5431E0A44914200D110BD11F8014B50
:1026500003F8014FF7E7884210B501EB020307D8F2
:10266000421E99420AD011F8014B02F8014FF8E7D7
:102670008342F5D98118D21AD34200D110BD13F884
:10268000014D01F8014DF7E738B50546002945D061
:1026900051F8043C0C1F002BB8BFE41800F0D2F82E
:1026A0001F4A1368104633B9636014602846BDE8BA
:1026B000384000F0C8B8A3420CD921686218934290
:1026C00004BF1A685B68636004BF5218226004602C
:1026D000ECE713465A680AB1A242FAD919685818A9
:1026E000A0420BD120680144581882421960DDD104
:1026F000106852685A6001441960D7E702D90C2368
:102700002B60D3E7206821188A4204BF1168526801
:10271000626004BF091821605C60C7E738BD00BF74
:102720006007002070B5CD1C25F0030508350C2D81
:1027300038BF0C25002D064601DBA94203D90C2326
:102740003360002070BD00F07DF8214A14682146F6
:1027500091B9204C23681BB9304600F063F8206023
:102760002946304600F05EF8431C24D10C23336028
:10277000304600F068F8E4E70B685B1B18D40B2BBD
:102780000FD90B60CD50CC18304600F05CF804F146
:102790000B00231D20F00700C31AD3D05A42E25089
:1027A000D0E78C424B6816BF636013600C46EBE7C2
:1027B0000C464968CCE7C41C24F00304A04205D0B1
:1027C000211A304600F02EF80130CFD02560DBE72B
:1027D0006007002064070020F8B5074614460E463F
:1027E00021B91146BDE8F840FFF79CBF22B9FFF7B9
:1027F0004BFF25462846F8BD00F026F8A0420FD230
:1028000021463846FFF78EFF05460028F2D03146B4
:102810002246FFF715FF31463846FFF735FFE9E757
:102820003546E7E738B5064C0023054608462360E1
:10283000FEF76AFA431C02D1236803B12B6038BD4E
:102840006C0700207047704751F8043C181F002B9C
:10285000BCBF0B58C01870472E2E2F737973746548
:102860006D2F7372632F73746D333266342D68610C
:102870006C2F73746D3332663478785F68616C5F87
:10288000636F727465782E63000000000000000022
:102890000102030401020304060708092E2E2F7308
:1028A000797374656D2F7372632F73746D33326631
:1028B000342D68616C2F73746D3332663478785FB1
:1028C00068616C5F7263632E6300000061626F7207
:1028D0007428292C2065786974696E672E2E2E0065
:1028E0006173736572745F706172616D282920660F
:1028F00061696C65643A2066696C652022257322E3
:102900002C206C696E652025640A00005374616395
:102910006B206672616D653A0A000000205230201B
:102920003D2020253038580A000000002052312078
:102930003D2020253038580A000000002052322067
:102940003D2020253038580A000000002052332056
:102950003D2020253038580A000000002052313236
:10296000203D20253038580A00000000204C52201D
:102970003D2020253038580A000000002050432018
:102980003D2020253038580A0000000020505352C6
:10299000203D20253038580A000000004653522FB1
:1029A0004641523A0A0000002043465352203D203F
:1029B00020253038580A00002048465352203D2038
:1029C00020253038580A00002044465352203D202C
:1029D00020253038580A00002041465352203D201F
:1029E00020253038580A0000204D4D464152203DE8
:1029F00020253038580A00002042464152203D2010
:102A000020253038580A00004D6973630A00000021
:102A1000204C522F4558435F52455455524E3D204D
:102A2000253038580A0000005B48617264466175C1
:102A30006C745D0A000000005B4275734661756C42
:102A4000745D0A005B55736167654661756C745D02
:102A50000A00000000000000000000000102030462
:102A60000607080941542B5253540D0A0000000078
:102A700041542B43574D4F44453D310D0A00000052
:102A800041542B43574A41503D222573222C222585
:102A900073220D0A0000000000010200020207007C
:102AA00000020200020207001900000000C201003B
:102AB0000102010202030000426F6F64793230307C
:102AC000300000004D41484D4F554400232D302B20
:102AD0002000686C4C00656667454647003031321F
:102AE0003334353637383941424344454600303176
:0F2AF000323334353637383961626364656600D6
:102B00007856341280000020000000000024F400F9
:102B10001400002000000000000000000000000081
:102B200000000000000000000000000000000000A5
:102B30000000000000000000000000000000000095
:102B40000000000000000000000000000000000085
:102B50000000000000000000000000000000000075
:102B60000000000000000000000000000000000065
:082B70000000000032547698C9
:040000050800019559
:00000001FF
