:020000040800F2
:100000000000012061020008650200086702000884
:100010007D0200087F020008950200080000000031
:10002000000000000000000000000000AB0200081B
:10003000AD02000800000000AF020008AD1000088B
:10004000C5020008C5020008C5020008C502000874
:10005000C5020008C5020008151A0008351A000874
:10006000C5020008C5020008551A0008C5020008AC
:10007000C5020008C5020008C5020008C502000844
:10008000C5020008C5020008C50200080000000003
:10009000000000000000000000000000C502000891
:1000A000C5020008C5020008C5020008C502000814
:1000B00075270008C5020008C5020008C50200082F
:1000C000C5020008C5020008C5020008C5020008F4
:1000D000C5020008850F00088B0F00080000000013
:1000E000C5020008C5020008C502000800000000A3
:1000F000000000000000000000000000C502000831
:1001000000000000C5020008C5020008C502000882
:1001100000000000000000000000000000000000DF
:10012000C5020008C5020008C5020008C502000893
:10013000C5020008000000000000000000000000F0
:10014000000000000000000000000000C5020008E0
:10015000C5020008C5020008C5020008910F00088A
:10016000C5020008C50200080000000000000000F1
:10017000000000000000000000000000000000007F
:1001800000000000C50200080000000000000000A0
:10019000C502000807B500F0D1FB274B2748834272
:1001A00026D3274B274900208B422DD302F000FE97
:1001B000254E264C01A9684600F0B8FBA41BA410EC
:1001C0000025AC4229DC224E224CA41BA4100025A1
:1001D000AC4227DCDDE9000102F0F8FC1E4D1F4CAB
:1001E000641B0646A410002C21DC304600F07CFB8A
:1001F000D3E900120C3353F8044C891A9442CED937
:10020000555815600432F9E753F8082B53F8044C9D
:100210009442C9D910600432FAE756F8253098475D
:100220000135CEE756F8253098470135D0E7013C37
:1002300055F824309847D6E7C8020008E0020008C5
:10024000E0020008F0020008F0020008F0020008D6
:10025000F0020008F0020008F0020008F0020008B6
:1002600014480047FEE71EF0040F0CBFEFF30880B0
:10027000EFF309807146104A1047FEE7FEE71EF0D3
:10028000040F0CBFEFF30880EFF3098071460B4AAF
:100290001047FEE71EF0040F0CBFEFF30880EFF3EA
:1002A00009807146064A1047FEE7FEE7FEE7FEE7D3
:1002B00070470000950100087B02000893020008C7
:0602C000A9020008FEE7A0
:1002C800A0D3000800000020BC000020A0D3000834
:1002D8000000001000000010BC0000202442002094
:0802E8000000001000000010EE
:1002F00010B5084B044618684FF47A73B0FBF3F05E
:1003000000F070F8002221464FF0FF3000F036F880
:10031000002010BD0800002008B50B4B1A6842F4FD
:1003200000721A601A6842F480621A601A6842F415
:1003300080721A60032000F00FF80F20FFF7D8FF3B
:1003400002F03FFD002008BD003C0240014B186850
:10035000704700BF18320020074AD36823F4E063D7
:100360001B041B0C43F0BF63000243F4003300F492
:10037000E0600343D360704700ED00E0174B70B5B9
:10038000DC68C4F30224C4F10705042D04F104035E
:1003900028BF04254FF0FF36062B06FA05F38CBF65
:1003A000033C002421EA0303A34006FA04F422EAF2
:1003B0000404002843EA0403A8BF00F160404FEAA8
:1003C0000313BCBF00F00F00054ADBB2AABF00F563
:1003D0006140135480F8003370BD00BF00ED00E0B1
:1003E00014ED00E00138B0F1807F0AD2064B074AD5
:1003F0005860F02182F823100020072298601A60CC
:1004000070470120704700BF10E000E000ED00E001
:10041000044B1A6804280CBF42F0040222F00402C4
:100420001A60704710E000E00368F7B50446D8078B
:1004300038D4236899076DD423681E0700F1B9806A
:1004400023685D0728D500230193A64BA64D1A6C9F
:1004500042F080521A641B6C03F080530193019B9D
:100460002B6843F480732B60FFF770FF06462B6800
:10047000DA0540F1C0809D4B227A1A70A368002BE8
:1004800000F0C780FFF762FF964D064641F28837BD
:100490002B6F9B0740F1B680A269002A40F0C9800B
:1004A000002015E08F4B9A6802F00C02042A07D056
:1004B0009A6802F00C02082A0CD15B685A0209D52E
:1004C000884B1B689B03B4D56368002BB1D1012016
:1004D00003B0F0BD864B22791A7063686BB1FFF7E9
:1004E00035FF804D06462B689F03A2D4FFF72EFFF1
:1004F000801B6428F7D90320EAE7FFF727FF794D2F
:1005000006462B68980394D5FFF720FF801B6428CC
:10051000F7D9F0E7734B9A6812F00C0F07D09A687E
:1005200002F00C02082A16D15B68590213D46D4BF5
:100530001A68920702D5E268012AC8D11868F82221
:1005400092FAA2F2B2FA82F122698A4020F0F8010E
:100550000A431A6070E7E268664BDAB101221A605A
:10056000FFF7F4FE5F4D06462B689B070CD5296804
:10057000F82393FAA3F3B3FA83F22369934021F0AB
:10058000F80213432B6057E7FFF7E0FE801B0228B9
:10059000EAD9B0E71A60FFF7D9FE524D06462B683C
:1005A0009F077FF549AFFFF7D1FE801B0228F6D9E0
:1005B000A1E76269504B7AB101221A60FFF7C6FECB
:1005C000484D06466B6F98073FF53AAFFFF7BEFE02
:1005D000801B0228F6D98EE71A60FFF7B7FE414D5F
:1005E00006466B6F99077FF52BAFFFF7AFFE801BB9
:1005F0000228F6D97FE7FFF7A9FE801B02287FF6C5
:1006000036AF78E7FFF7A2FE801BB8427FF640AF17
:1006100071E7FFF79BFE334D064641F288372B6F9B
:1006200098077FF539AFFFF791FE801BB842F6D9E6
:1006300061E72C4DAB6803F00C03082B3FF447AF88
:100640002E4E0023022A33603ED1FFF77FFE07467D
:100650002B68990132D447F6C07797FAA7F74FF481
:100660004032B7FA87F792FAA2F24FF07061B2FA0D
:1006700082F091FAA1F1D4E907321343626A02FAD7
:1006800007F7A26A5208013A82403B431343E26AE9
:10069000144CB1FA81F102FA01F10B436B600123B2
:1006A0003360FFF753FE054623689A013FF5F8AE25
:1006B000FFF74CFE401B0228F6D91CE7FFF746FE69
:1006C000C01B0228C4D916E7FFF740FE04462B687A
:1006D0009B017FF5E5AEFFF739FE001B0228F6D936
:1006E00009E700BF00380240007000407038024047
:1006F0000238024000004742800E474260004742F5
:10070000194A936803F00C03042B10B503D0082B8F
:1007100003D0164800E0164810BD5168536801F038
:100720003F0113F4800F47F6C074536894FAA4F0A5
:10073000B0FA80F003EA040323FA00F314BF0C4874
:100740000A48B0FBF1F05843074B4FF440325B6866
:1007500092FAA2F2B2FA82F203F44033D3400133A8
:100760005B00B0FBF3F0D7E7003802400024F40050
:1007700040787D01554B1A6802F00F028A422DE93C
:10078000F04105460E462FD32A68940736D4D00789
:100790003CD44E4B1A6802F00F02B24200F286803F
:1007A0002A68510700F18A80130707D5484A29694A
:1007B000936823F4604343EAC1039360FFF7A0FF0B
:1007C000434BF0229B6892FAA2F2B2FA82F203F053
:1007D000F003D3403F4AD35CD8403F4B18600F2012
:1007E000FFF786FD002007E0CAB21A701B6803F00D
:1007F0000F038B42C8D00120BDE8F0813449A868BE
:100800008B6823F0F00303438B60C0E76A68304BCA
:10081000012A1DD11B6813F4003FECD02C4CA368B7
:1008200023F003031343A360FFF790FD6B68012BD4
:10083000074641F2883815D1A36803F00C03042B56
:10084000A7D0FFF783FDC01B4045F5D90320D3E7B0
:10085000911E01291B6802D813F0007FDDE713F019
:10086000020FDAE7022B0AD1A36803F00C03082B6E
:100870008FD0FFF76BFDC01B4045F5D9E6E7032B92
:100880000FD1A36803F00C030C2B82D0FFF75EFDA1
:10089000C01B4045F5D9D9E7FFF758FDC01B4045BF
:1008A000D4D8A36813F00C0FF6D172E7F2B21A7025
:1008B0001B6803F00F03B3429DD171E70449E86858
:1008C0008B6823F4E05303438B606DE7003C0240E8
:1008D00000380240B840000808000020014B1868AA
:1008E000704700BF0800002008B500F033F8000092
:1008F0000B4A116808B5034609B90A491160106826
:100900000949033323F0030303448B4206D902F061
:100910002FFF0C2303604FF0FF3008BD1360FCE78E
:10092000BC0000202442002000FC002001230360C2
:10093000014B0B60704700BF0000002008B500F0BD
:100940001BF8024B024A9A6008BD00BF00ED00E0B0
:1009500000000008BFF34F8F0549064BCA6802F438
:10096000E0621343CB60BFF34F8F00BFFDE700BFD2
:1009700000ED00E00400FA050C4B1A68002142F07B
:1009800001021A6099601A6822F0847222F480329F
:100990001A60074A5A601A6822F480221A60D960E5
:1009A000044B4FF000629A60704700BF003802406D
:1009B0001030002400ED00E0174A1849936803F056
:1009C0000C03042B10B50DD0082B0DD0144B0B606D
:1009D000114B144A9B68C3F30313D25C0B68D340DA
:1009E0000B6010BD104BF2E7546850685268630208
:1009F000C2F3881200F03F004CBF0B4B084BB3FB17
:100A0000F0F35343044A5268C2F3014201325200E8
:100A1000B3FBF2F3DBE700BF003802400800002020
:100A20000024F400C840000840787D0110B5002182
:100A300086B0084600F090FC0821032000F08CFCF2
:100A400000244FF4403304A8CDE9043400F08CFFB7
:100A500002A802948DF80C4001F06EF8054B01A835
:100A60001A889B78ADF804208DF8063001F09AF8CA
:100A700006B010BDD840000807B5104B01A81A8871
:100A80009B788DF80630ADF8042001F0A3F840F60D
:100A9000C423984238BF184680B240F63443984287
:100AA00028BF1846A0F6C420642358434FF4B873F7
:100AB000B0FBF3F0C0B203B05DF804FBD84000080F
:100AC00030B500211C4C8BB0084600F045FC224696
:100AD0002068616802AB03C352F8080F516804AB89
:100AE00003C302A800F040FF04A800F03DFF00256A
:100AF0006846ADF800508DF8025000F025FD224602
:100B000006AB52F8100F516803C354F8180F616810
:100B100008AB03C306A800F027FF08A800F024FFD5
:100B2000019542F20F72019B934201DD0BB030BD83
:100B3000019B01330193F6E7DC40000810B5002269
:100B400004460621104600F07BFE002210460A21D2
:100B500000F076FE2146012000F03AFD21460220F9
:100B6000BDE8104000F034BD10B501220446062156
:100B7000002000F065FE01220A21002000F060FE46
:100B80002146012000F024FD21460220BDE810404E
:100B900000F01EBD08B50021012000F019FD002164
:100BA0000220BDE8084000F013BD10B50022044645
:100BB0000621104600F044FE21460120BDE8104009
:100BC00000F006BD10B5062104460122002000F009
:100BD00037FE21460120BDE8104000F0F9BC10B5F9
:100BE000002204460A21104600F02AFE2146022077
:100BF000BDE8104000F0ECBC10B50A21044601220B
:100C0000002000F01DFE21460220BDE8104000F04B
:100C1000DFBC012806D002D3022805D0704725206A
:100C200000F0F4BC2620FBE74720F9E7012806D0B6
:100C300002D3022805D07047252000F0F5BC2620FD
:100C4000FBE74720F9E7000030B1012806D0022871
:100C5000034818BF00207047024870470248704799
:100C600000140140001001400044004008B5FFF7A7
:100C7000EBFF38B1C268012303FA01F11143C160EF
:100C8000002008BD0220FCE730B500FB01F5B2FBF7
:100C9000F5F41C6005FB142401FB04F00829B0FBEB
:100CA000F5F0C0B208BF00F00700187130BD0000B9
:100CB000F7B50546002800F0CA80C37A0BB90223B5
:100CC000C3722B7B0BB902232B736B7B0BB90323F2
:100CD0006B73AB7A0BB90123AB722B7A0BB901237F
:100CE0002B726B7A0BB902236B726B781846FFF785
:100CF000ABFF0446002800F0AC8018462F78FFF7C1
:100D000088FFE36843F40053E3602B7A012B09D09A
:100D1000022B0CD06B7A013B032B12D8DFE803F0D7
:100D2000370B272FE36823F48053E360F2E7E3688F
:100D300043F48053F9E7236923F440532361236983
:100D40002361AB7A022B2AD0032B30D0012B03D1A5
:100D5000E36823F48063E360EB7A012B2FD0022B4E
:100D600003D1E36823F40043E36010262CE02369F9
:100D700023F440532361236943F44053E0E723699C
:100D800023F440532361236943F40053D8E72369D4
:100D900023F440532361236943F48053D0E7E3688D
:100DA00043F48063E360E36823F40073D3E7E3680C
:100DB00043F48063E360E36843F40073CBE7E368E4
:100DC00043F40043E36008262B7B012B26D0022B43
:100DD00029D06B7B022B2AD0032B30D0012B07D1DB
:100DE000E36843F00803E360E36823F00403E3608F
:100DF00005216878FFF73AFF174A68686B467A431F
:100E00003146FFF741FF9DF80430009A03F00F03CD
:100E100043EA0213A360002003B0F0BD636943F40A
:100E200000636361D5E7636923F40063F9E7E3686E
:100E300043F00403E360E36823F00803D7E7E368C3
:100E400043F00803E360E36843F00403CFE70120C5
:100E5000E2E70220E0E700BF40420F0002282DE950
:100E6000F04107460C4622D8F1B1134B41F204067B
:100E700006FB003606F5805841F2010398F8005051
:100E8000F35C01359D4214D0FFF7D0FE98F8003096
:100E9000DBB2EDB2F454072188F800503846FFF772
:100EA000E5FE3846FFF7B5FE0020BDE8F0810220E0
:100EB000FBE70520F9E700BFC100002038B5054673
:100EC0004C1E14F8011F09B9084606E02846FFF732
:100ED000C5FF0028F5D00528F3D038BD012870B52E
:100EE000014604D00CD3022808D0022005E0214D91
:100EF0000846FFF7A9FE28B9002070BD1E4DF7E790
:100F00001E4DF5E703689A0613D51D4B6E6841F236
:100F1000040202FB013241F20203F6B2D45C144433
:100F200084F80068D45C0134E4B2D454D45CE4B2F4
:100F3000D45403681B06DFD5114B41F2040202FBB7
:100F4000013303F58052147841F20102995C8C421E
:100F500004D1C36823F08003C360CDE7995CC9B2B4
:100F6000481CC0B29854595CC9B26960995CC9B256
:100F70009954C1E7004400400014014000100140B2
:100F8000C10000200020FFF7A9BF0120FFF7A6BF86
:100F90000220FFF7A3BF00000E4B1A6822F00102E7
:100FA0001A600278012A1A680CBF42F0020222F08D
:100FB00002021A604278012A04D11A6842F004023F
:100FC0001A607047022A01BF024A136823F0040323
:100FD0001360704710E000E0044B002258609A60F4
:100FE0001A6842F001021A60704700BF10E000E08A
:100FF000024A136823F001031360704710E000E019
:1010000008B540F635435843084B00229A60084A19
:10101000411E9142194608D8FFF7DEFF0B68DB033B
:10102000FCD5BDE80840FFF7E3BF08BD10E000E0D5
:10103000FDFFFF00024B58689B68C01A704700BF55
:1010400010E000E0084B01221A7040F63543584387
:10105000064B1960064B00229A60064B421E9A42CC
:1010600001D8FFF7B9BF7047CD300020D030002045
:1010700010E000E0FDFFFF00084B00221A7040F670
:1010800035435843064B1960064B9A60064B421E87
:101090009A4201D8FFF7A0BF704700BFCD300020B3
:1010A000D030002010E000E0FDFFFF0008B5064B47
:1010B0001B6803B19847054B1B78012B03D1BDE892
:1010C0000840FFF795BF08BDD0300020CD3000208C
:1010D00000F0FC0303F1804303F59C3300F00300B0
:1010E0009A6810B580000F24844022EA04029A60B6
:1010F0009A6801FA00F01043986010BD036843F449
:1011000000730360036843F480730360036823F48F
:1011100000630360036823F080030360036823F027
:1011200038030360036843F028030360036843F057
:1011300004030360036823F002030360036823F0E1
:1011400001030360036843F040030360704700003D
:101150000C4B826892070DD413F1FF33F9D2094B7F
:10116000C1608268D20709D413F1FF33F9D2C06895
:10117000C0B27047002BF2D1FF207047002BF6D190
:10118000FAE700BFA086010070B506460C468D1830
:10119000AC4200D170BD14F8011B3046FFF7D8FFF8
:1011A000F6E7030903EB830300F00F0000EB4300B5
:1011B000C0B270472F4B30491A6C42F080521A640B
:1011C0000A6842F480720A601A6F2C4942F4803235
:1011D0001A671A6F22F480321A671A6F42F00102FE
:1011E0001A671A46186F800701D40139FAD1136FB4
:1011F000990735D4536F43F0010353671D4B5A6F62
:101200009207FCD51A6F22F440721A671A6F42F4E3
:1012100000721A67174A136F43F400431367184BA1
:10122000CA21596253215962D96841F08001D960BD
:10123000D9684806FCD5126F91074CBF114A124A73
:101240001A610F4BDA6822F08002DA60FF225A62DC
:10125000DA6822F02002DA60DA689206FCD570477C
:10126000136F23F440731367136F43F48073136792
:10127000D0E700BF003802400070004041420F003C
:1012800000280040FF007F00F9007F00184B2DE987
:10129000F0411C6859680246C4F30540FFF781FF1E
:1012A0008046C4F30620FFF77CFF074604F07F006A
:1012B000FFF777FF0646C1F30740FFF772FF0546C9
:1012C000C1F30420FFF76DFF044601F03F00FFF774
:1012D00068FF0023C1F34231907182F8008057709B
:1012E0009670D37015715471D1711046BDE8F081BC
:1012F0000028004037B5044668460D46FFF7C6FF94
:101300009DF800305919172909DD18398DF800109A
:101310006B4603CB20602046616003B030BD0029DE
:10132000B8BF1831F2E700000A4B1A6842F4802275
:101330001A601A6842F480321A601A689203FCD567
:101340009A6822F002029A609A6842F001029A605A
:10135000704700BF00380240032800F2B380DFE886
:1013600000F002464E9E714B162911D8DFE801F0BD
:101370000C171B1F23272B2F1010101033101010C9
:101380001010101010373B001A6B42F001021A6364
:10139000186B012202FA01F10143196370471A6BBD
:1013A00042F00202F3E71A6B42F00402EFE71A6B15
:1013B00042F00802EBE71A6B42F01002E7E71A6B03
:1013C00042F02002E3E71A6B42F04002DFE71A6BBB
:1013D00042F08002DBE71A6B42F48052D7E71A6BC7
:1013E00042F40012D3E71A6B42F48002CFE70729D8
:1013F00068D14E4A536B43F08003536370471C29F6
:1014000060D8DFE801F00F151A1F5F5F5F5F5F5F55
:101410005F245F5F292E5F335F5F5F383D425F5F10
:101420005F5F4700414A136C43F001031364704748
:101430003E4A136C43F00203F8E73C4A136C43F056
:101440000403F3E7394A136C43F00803EEE7374A25
:10145000136C43F40063E9E7344A136C43F48043AC
:10146000E4E7324A136C43F40043DFE72F4A136C7E
:1014700043F40033DAE72D4A136C43F40013D5E745
:101480002A4A136C43F48003D0E7284A136C43F4D0
:101490000003CBE7254A136C43F08053C6E71229BB
:1014A00010D8DFE801F00A0F0F0F10150F0F1A0FF9
:1014B0000F1F24292E0F33383D001C4A536C43F074
:1014C000010353647047194A536C43F01003F8E763
:1014D000164A536C43F02003F3E7144A536C43F469
:1014E0008073EEE7114A536C43F40063E9E70F4A57
:1014F000536C43F48053E4E70C4A536C43F40053B9
:10150000DFE70A4A536C43F48043DAE7074A536C37
:1015100043F48033D5E7054A536C43F40033D0E7F6
:10152000024A536C43F48023CBE700BF00380240EB
:10153000044B9A6822F0F0029A609A6842EA00101E
:10154000986070470038024038B5002104460320F7
:10155000FFF702FF1C4B1D48182140F2E732C3E998
:101560000A12A1784A436421B2FBF1F29969C3E9F6
:101570000D22C3E90F22DA690140024040F608005B
:1015800041EA000510439D61D861207801280CBF15
:1015900047F6780046F668000243DA611A6A42F4B8
:1015A000885242F011021A625A6C014342F400421E
:1015B00099615A6459691A6841F0010142F0810247
:1015C00059611A6038BD00BF000001408F8FFFFFD6
:1015D000642940F2E73328BF64210138594364236A
:1015E000B1FBF3F103280ED8DFE800F00205080B89
:1015F000054B59637047044B99637047024BD9639D
:101600007047014B196470470000014043099B007B
:1016100003F1604303F5614300F01F0219680120E4
:10162000904008431860704743099B0003F16043F2
:1016300003F5614300F01F00D3F88020012101FA77
:1016400000F022EA0000C3F88000704710B580B9AE
:10165000A1F10D03022B0BD9164B4900032000FA10
:1016600001F4186802FA01F120EA0400014319604C
:1016700010BD012804D1CB1E012BF9D90E4BECE78C
:1016800002380528F4D801A353F820F0A516000865
:10169000B1160008A9160008711600087116000896
:1016A000AD160008054BD8E7054BD6E7054BD4E748
:1016B000054BD2E70000024000040240000802404F
:1016C00000100240001C0240000C024068B9A1F169
:1016D0000D03022B26D9144BF2B9012000FA01F2B6
:1016E000586820EA020058607047012804D1CB1ED8
:1016F000012B17D90D4BEFE70238052812D8DFE888
:1017000000F0030905111107094BE5E7094BE3E771
:10171000094BE1E7094BDFE7012A01BF8A4059681D
:101720000A435A60704700BF0000024000040240B4
:101730000008024000100240001C0240000C024061
:1017400010B580B9A1F10D03022B0BD9164B49003E
:10175000032000FA01F4986802FA01F120EA04007B
:101760000143996010BD012804D1CB1E012BF9D98A
:101770000E4BECE702380528F4D801A353F820F00B
:1017800099170008A51700089D170008651700089D
:1017900065170008A1170008054BD8E7054BD6E7E9
:1017A000054BD4E7054BD2E700000240000402409D
:1017B0000008024000100240001C0240000C0240E1
:1017C00010B580B9A1F10D03022B0BD9164B4900BE
:1017D000032000FA01F4D86802FA01F120EA0400BB
:1017E0000143D96010BD012804D1CB1E012BF9D9CA
:1017F0000E4BECE702380528F4D801A353F820F08B
:1018000019180008251800081D180008E517000819
:10181000E517000821180008054BD8E7054BD6E767
:10182000054BD4E7054BD2E700000240000402401C
:101830000008024000100240001C0240000C024060
:1018400010B570B9A1F10D03022B09D9154B5869D8
:10185000012404FA01F1A2420CBF084388435861F5
:1018600010BD012804D1CB1E012BF9D90E4BEEE798
:1018700002380528F4D801A353F820F09518000881
:10188000A1180008991800086118000861180008DC
:101890009D180008054BDAE7054BD8E7054BD6E75E
:1018A000054BD4E70000024000040240000802405B
:1018B00000100240001C0240000C024010B5A0B90C
:1018C000A1F10D03022B0FD9214B07292ED8890036
:1018D0000F2000FA01F4186A02F00F0220EA040057
:1018E00002FA01F10143196210BD012804D1CB1E97
:1018F000012BF9D9174BE8E702380528F4D801A3E2
:1019000053F820F01D1900082919000821190008B2
:10191000E9180008E9180008251900080E4BD4E75B
:101920000E4BD2E70E4BD0E70E4BCEE70839C8B2CC
:101930000728D9D889000F2000FA01F4586A02F06C
:101940000F0220EA040002FA01F101435962CBE7D9
:101950000000024000040240000802400010024063
:10196000001C0240000C024010B504468278417809
:101970000078FFF76BFEE27861782078FFF7A6FE2B
:10198000227961782078FFF7DBFE62796178207830
:10199000FFF716FFA378022B06D1A2796178207891
:1019A000BDE81040FFF78ABF10BD0000024B4FF0AA
:1019B000FF325A61704700BF003C01400F2810B54C
:1019C0000BD80F4B01221C6802FA00F0044391422D
:1019D0001C600BD002D302290FD010BD9A680243BD
:1019E0009A60DA6822EA0000D860F6E79A6822EA8C
:1019F00000029A60DA681043F6E79A680243F8E753
:101A0000003C01400F299CBF014B43F82100704767
:101A1000D430002008B5054B1B6803B19847044A31
:101A2000536943F00103536108BD00BFD430002067
:101A3000003C014008B5054B5B6803B19847044A78
:101A4000536943F00203536108BD00BFD430002046
:101A5000003C014008B5054B1B6903B19847044A97
:101A6000536943F01003536108BD00BFD430002018
:101A7000003C0140092810B50ED8104B00EB400087
:101A80001A690724844022EA04021A611A6901FAD9
:101A900000F01043186110BD0F28FCD8074B0A381E
:101AA000DA6800EB40000724844022EA0402DA608E
:101AB000DA6801FA00F01043D860ECE7002001403A
:101AC000421ED3B2052B10B50ED81A4802EB820283
:101AD000436B1F24944023EA04034363436B01FADE
:101AE00002F21A43426310BDC31FDAB2052A0ED8B0
:101AF000104A03EB8303106B1F249C4020EA040070
:101B00001063106B01FA03F303431363EBE70D3823
:101B1000C3B2032BE7D8074C00EB8000E36A1F2217
:101B2000824023EA0203E362E26A01FA00F0104312
:101B3000E062D8E70020014010B50446FFF7F4FB4F
:101B400008210320FFF708FC154B5A6822F0407269
:101B50005A605A68217842EA01625A606278012A22
:101B60009A680CBF42F0020222F002029A609A6860
:101B700022F070629A609A68A17842EA01629A60E3
:101B8000227942B99A6822F400629A609A6842F017
:101B900001029A6010BD9A6842F40062F5E700BF46
:101BA0000020014010B5044641780078FFF762FF3D
:101BB0002178A078FFF784FF054BDA6A22F47002DF
:101BC000DA62A178DA6A013942EA0152DA6210BDBA
:101BD0000020014037B50578417804462846FFF7D4
:101BE00049FF2946A078FFF76BFF074B9A6842F040
:101BF00080429A601A689207FCD5D86C1B680193E2
:101C000080B203B030BD00BF002001402DE9F0419B
:101C100005460E46FFF70EFA002280460D210120F0
:101C2000FFF70EFE104F2C46FFF704FAA0EB08005A
:101C300064284FF0010206D910460D21FFF700FE7F
:101C40000020BDE8F081214638460134FFF79CFAB8
:101C5000631B9BB2B342E7D3012210460D21FFF76D
:101C6000EFFD0120EDE700BF0030014013B5184B38
:101C7000009302246846ADF80440FFF775FE0F2379
:101C800068468DF80130FFF76FFE40F60153684655
:101C9000ADF80030FFF768FE4FF4A0636846ADF87A
:101CA00000308DF80240FFF75FFE0522114600204C
:101CB000FFF704FE072468468DF80140FFF754FE45
:101CC000052221460020FFF7F9FD02B010BD00BF3C
:101CD000010E010008B500220E210120FFF7B0FD22
:101CE0006420FFF78DF9012210460E21FFF7A8FDB1
:101CF000C820BDE80840FFF783B913B502AC002245
:101D000004F8010D0F210120FFF79AFD0121204663
:101D1000FFF77CFF02B010BD13B502AC012204F83E
:101D2000010D0F211046FFF78BFD01212046FFF723
:101D30006DFF02B010BD13B5012204460F211046FD
:101D4000FFF77EFD230A022101A88DF804308DF8EB
:101D50000540FFF75BFF02B010BDF8B507462A202B
:101D60000D4616461C46FFF7C8FF380AFFF7D4FF9A
:101D7000F8B2FFF7D1FF300AFFF7CEFFF0B2FFF75E
:101D8000CBFF2B20FFF7B9FF280AFFF7C5FFE8B20A
:101D9000FFF7C2FF200AFFF7BFFFE0B2FFF7BCFF6B
:101DA0002C20BDE8F840FFF7A8BF000070B5002167
:101DB0007F23A0B004469F220846FFF7CEFF0023F2
:101DC0002DF813400133402BFAD1012210460F2188
:101DD000FFF736FD00220D210120FFF731FD0A4EED
:101DE0004FF4A044402C254628BF40256A00694690
:101DF0003046FFF7C9F9641BF4D101220D211046CA
:101E0000FFF71EFD20B070BD003001402DE9F0410C
:101E100090421C4688BF03468046154684BF9046C4
:101E20001D46A14288BF0B460E4684BF26461C466F
:101E30002346A0B001342A4631464046A5EB0805AA
:101E4000A41BBDF8987005FB0444FFF786FF002330
:101E50002DF813700133402BFAD1012210460F21C7
:101E6000FFF7EEFC00220D210120FFF7E9FC0A4EEE
:101E70003CB901220D211046FFF7E2FC20B0BDE87D
:101E8000F081402C254628BF40256A00694630462F
:101E9000FFF77AF9641BEBE70030014010B5044608
:101EA0003620FFF72AFF032C0ED8DFE804F00207E4
:101EB000090BC020BDE81040FFF72EBFA020F9E7B6
:101EC0000020F7E76020F5E710BD08B5FFF7CEFE6C
:101ED000FFF700FF0120FFF710FF9620FFF790F8B3
:101EE0001120FFF70AFF9620FFF78AF83A20FFF744
:101EF00004FF5520FFF710FF3620FFF7FEFEC82035
:101F0000FFF70AFF2920FFF7F8FE3220FFF778F8E5
:101F10000020BDE80840FFF749BF9F2838B50B46B1
:101F2000154609D87F2907D80246FFF716FF28462D
:101F3000BDE83840FFF7FFBE38BD2DE9F74F8242BC
:101F40009A46BDF8303000938BBF171A871A0123C9
:101F50004FF0FF338A458CBFA1EB0A08AAEB0108BA
:101F600005460C4691468CBF4FF0010B4FF0FF3BEE
:101F700007EB0806009A019321462846FFF7CDFF9C
:101F80004D45019B01D154450BD072004245A2BF83
:101F9000ED184644ADB2BA42ECDC5C443E44A4B217
:101FA000E8E703B0BDE8F08F2DE9F341BDF820501C
:101FB00000951C46804617460B460E46FFF7BDFFB0
:101FC00023463A46214640460095FFF7B6FF234692
:101FD0004246314640460095FFF7AFFF23463A465A
:101FE00031463846089502B0BDE8F041FFF7A5BF7D
:101FF0002DE9F04F85B0203A0193BDF838300293B7
:10200000D3B25E2B824688460DD89DF83D709DF870
:102010003C907A4354000D4609F1FF3BA5EB0803C1
:10202000DBB29F4202D805B0BDE8F08F109B1B5B6E
:102030000026F2B2914503D801350234ADB2EDE786
:10204000ABEB060243FA02F212F0010F0393DDE953
:1020500001320AEB060018BF1A46294680B2FFF784
:102060005CFF0136039BE4E72DE9FF470CAC054616
:1020700034F804AB88469946561E01AF16F9012F75
:1020800012B904B0BDE8F08794E803004B4687E836
:1020900003002846CDF800A04146FFF7A9FF9DF8B0
:1020A00034301D44ADB2E9E77FB50024372305463F
:1020B0000E4600941946C8220A20FFF7A7FE074AD9
:1020C00092E8030001AB83E803002A4600943346FC
:1020D00037210A20FFF7C8FF04B070BD0C000020B4
:1020E00070B504462A200D46FFF707FE0020FFF7D3
:1020F00013FE0020FFF710FE0020FFF70DFE9F20CB
:10210000FFF70AFE2B20FFF7F8FD0020FFF704FE83
:102110000020FFF701FE0020FFF7FEFD7F20FFF704
:10212000FBFD2C20FFF7E9FD023C04EB4505AC422A
:1021300000D170BD34F8026F300AFFF7EDFDF0B248
:10214000FFF7EAFDF3E7F7B502F114030D46164673
:102150004FF6FF7701F1280204469BB292B2314656
:1021600028460097FFF720FF06F10F0305F12C0228
:10217000711D05F1290000979BB292B289B280B21D
:10218000FFF744FE132C1AD9312C4FF6E07788BFA5
:102190004FF4FC6704EBC4029200642492FBF4F257
:1021A0005AB1A81C80B206F112030244B11C009778
:1021B0009BB292B289B2FFF729FE03B0F0BD4FF493
:1021C0007847E7E7014B1860704700BF18310020DF
:1021D000014B1868704700BF18310020014B187080
:1021E000704700BF1C310020014B1878704700BFBA
:1021F000153100207FB500250E4B0F4E1D7028466F
:10220000FFF7D4FD304601F015FB0C4B1C7844431E
:1022100093E80300640801AAC4F1500482E80300B3
:102220004FF47843009532463221A0B2FFF71CFFED
:1022300004B070BD153100203E4100080C000020A4
:1022400070B58AB0FEF7F2FB174D184B0222002042
:102250001A70FFF7ABFD95E8030001AC002640F2D1
:10226000FF7384E80300124A009614211E20FFF732
:10227000FBFEFEF701FC3C222821FFF764FFFEF77E
:10228000FBFB0C49024605A801F0B4FA95E80300EF
:102290004FF4FC6384E8030005AA00963C215A2011
:1022A000FFF7E2FE0AB070BD0C00002015310020DF
:1022B000FC400008044100082DE9FF41244C254B57
:1022C000032200201A70FFF771FD94E80300002735
:1022D00001AE86E803004FF6E073142100971E4A12
:1022E0002820FFF7C1FE1D4B1D4A93F800801D4BAF
:1022F000B8450CBF90469846404601F09BFA2578B9
:10230000454394E803006D08C5F1500586E80300D5
:1023100042464FF4FC633C21A8B20097FFF7A4FEAD
:10232000114801F087FA25780F4A454394E80300E5
:102330006D08C5F1500586E803004FF4FC63009773
:102340006421A8B2FFF790FE04B0BDE8F08100BFA1
:102350000C000020153100207341000814310020CA
:10236000674100086E410008784100082DE9F043FC
:10237000374B384C384D8DB0042200201A70FFF7CF
:1023800015FD94E8030001AF4FF0000987E8030052
:1023900040F2FF73314ACDF8009014211E20FFF760
:1023A00063FE2E680021304601F088F9804600283F
:1023B00039D0304600F06AFE0B460246284904A890
:1023C00001F018FA2868274901F064F9484594E8B3
:1023D000030018BF4FF4784387E8030008BF4FF4A9
:1023E000FC63CDF8009004AA3C210A20FFF73CFED4
:1023F0002D681C49284601F04DF988B10021284676
:1024000001F05CF960B194E80300002387E8030061
:10241000154A00935A214FF478430A20FFF724FE0F
:102420000DB0BDE8F0831149304601F029F90346AB
:1024300094E8030087E803002BB1CDF800804FF645
:10244000E0730B4AD0E700930A4A4FF47843CBE796
:10245000153100200C00002018310020A641000892
:10246000B141000800002041E3410008000080BFA6
:10247000C3410008D64100081FB5154C05230020B4
:102480002370FFF793FC134A92E8030001AB83E843
:10249000030000230093104A40F2FF7314211E2012
:1024A000FFF7E2FD0D4B1A7823784AB1052B0DD1C9
:1024B0000B484FF4FC6104B0BDE81040FFF7F4BDD9
:1024C000052B03D14FF478410648F4E704B010BD62
:1024D000153100200C0000200F4100081C310020A5
:1024E0001D4100082C41000870B5164B164E8EB0E9
:1024F000062200201A70FFF759FC96E8030000241A
:1025000001AD85E803004FF6E07300940F4A0A21FD
:102510001E20FFF7A9FD23462246CDE90144009481
:102520000B4904A801F066F996E803004FF6FF7323
:1025300085E8030004AA00943C211420FFF794FDD1
:102540000EB070BD153100200C000020474100087E
:1025500054410008F0B5244B244D9DB007460C466D
:10256000072200201A70FFF721FC2246204905A807
:1025700001F040F995E8030001AC84E8030000266F
:10258000052105AA4FF4FC6308460096FFF76CFD91
:10259000384600F07BFD02460B460AA8154901F0BB
:1025A00029F995E803004FF6FF7384E803000AAAAF
:1025B0001E2100960520FFF757FD384601F092F8DE
:1025C0000D49024612A801F015F995E803004FF6EF
:1025D000E07384E8030012AA00963C210520FFF76F
:1025E00043FD1DB0F0BD00BF153100200C000020E0
:1025F000814100088B41000897410008064A137882
:10260000B3FA83F35B091370044B1B78032B01D1DE
:10261000FFF752BE704700BF143100201531002073
:1026200030B51A4B1B78012B8DB02CD1022105A897
:10263000FEF760FE9DF816109DF815309DF81420E9
:1026400000910025124907A801F0D4F86423A022C4
:102650003C2128460095FFF7D9FB07A801F0EAF8CE
:102660000C4B1C78444393E80300640801AAC4F1AE
:10267000500482E803004FF4FC63009507AA3C2154
:10268000A0B2FFF7F1FC0DB030BD00BF1531002046
:10269000FA4100080C0000201FB50D4B012200205C
:1026A0001A70FFF783FB0B4A92E8030001AB83E843
:1026B000030000230093084A4FF6E07314212820FA
:1026C000FFF7D2FC05B05DF804EBFFF7A9BF00BF30
:1026D000153100200C00002009410008034B1B7835
:1026E000022B01D1FFF7ACBD704700BF15310020B0
:1026F000034B1B78042B01D1FFF738BE704700BF96
:10270000153100200138062805D8DFE800F006085A
:102710000A0C0E101200FFF76DBDFFF7BDBFFFF7EB
:102720008FBDFFF7C9BDFFF721BEFFF7A5BEFFF7BD
:10273000DBBE024B46211868FFF70CBF18310020A2
:10274000F8B5094D094E0A4F00242B78E1B28B42AF
:1027500004F1010400D8F8BD337838781944002218
:10276000C9B2FFF76DF8F0E71F3100201E310020DD
:10277000203100202DE9F843364B1A68D20715D5D1
:102780001A68354F354C364D22F001021A603B680D
:10279000344A0A3393423B603E4609D9FFF7D0FFE3
:1027A000314A00233B6023802B801370BDE8F883FF
:1027B000B4F800802D4FB8F1000F1FD1DFF8A890BA
:1027C0002B4B197899F8003019442A4B01221878BC
:1027D000C9B2FFF735F8284A99F80030A5F800800B
:1027E000D35CB42B28BFB4231A4640F2DC535343C6
:1027F000B422B3FBF2F303F5FA733B8022882B88F3
:102800000A320A3322803A889BB29A422B800AD835
:10281000174B1978144B1B781944164B0022C9B278
:102820001878FFF70DF8154B22881B889A42BDD304
:102830000D49002323802B800B785A1C104B1878ED
:1028400092FBF0F300FB13230B70002BAED133602F
:10285000ACE700BF100000402431002030310020E0
:10286000223100209F8601001D31002034310020DC
:102870001E3100202031002028310020323100207C
:102880001F31002070B4184C002318462246012541
:1028900003F1110104EB81014968A1F57A76F92E63
:1028A00016D805FA03F120EA01000133082BEFD115
:1028B000002390701C461370537002EB83010133A8
:1028C000322B4C60F9D1094B1B685BB170BC1847C7
:1028D000A1F5FA61B1F5E17F3EBF05FA03F10843C6
:1028E000C0B2E2E770BC70473831002004320020EB
:1028F00038B5124C237803F0FF0243B90123104985
:1029000023700F206270BDE83840FEF79BBBFEF7D6
:1029100091FB6378312B0ED86578EDB26B1CDBB27E
:10292000637000F0C1FC074900F0CAFD00F000FF31
:1029300004EB8504606002490420E4E7383100209C
:1029400085280008000048407FB50021064608465B
:10295000FEF702FD0E210320FEF7FEFC00240425F5
:1029600002A8CDE902448DF80950FEF7FDFF04A846
:1029700020F80C4DFFF71AF828460121FFF71EF842
:1029800029460948FFF73EF80A20FEF73FFE214698
:102990002846FEF79DFB054B1E60054B1C705C70C6
:1029A0009C7004B070BD00BFF12800080432002004
:1029B0003831002000B54FF4805293B000212948EF
:1029C00000F0DCFE284B294A1B681193284B254850
:1029D0001B681093274B1B680F93274B1B680E93A4
:1029E000264B1B680D93264B1B680C93254B1B68CD
:1029F0000B93254B1B680A93244B1B680993244BAC
:102A00001B680893234B1B680793234B1B68069393
:102A1000224B1B680593224B1B680493214B1B68B8
:102A20000393214B1B680293204B1B680193204B9F
:102A30001B6800931F4B4FF480511B6800F0A6FEEB
:102A4000B0F5805F034605D31B4A06484FF480511A
:102A500000F09CFE0349022013B05DF804EBFEF782
:102A60002DBA00BF213200204000002097D100087D
:102A700038000020440000203C00002024000020FA
:102A8000280000200C320020340000202C00002000
:102A900008320020300000205000002054000020A8
:102AA0004C000020480000201C00002014000020E2
:102AB000200000201800002044D30008192808B581
:102AC0005AD01AD80C2834D00DD8082837D0092865
:102AD0004AD0072855D11E20FEF774F81E20BDE805
:102AE0000840FEF77CB8162821D0182823D01528D6
:102AF00047D1BDE80840FEF74DB8452812D007D8A9
:102B000040282CD0422823D01C283AD106200AE0A5
:102B10005A2816D05E2810D0462832D1BDE8084089
:102B2000FFF76CBD0020BDE80840FFF7EBBD0120BA
:102B3000F9E70220F7E70320F5E70420F3E7052093
:102B4000F1E7FFF745FB4621BDE80840FFF702BD6E
:102B500044F2E0210B48BDE80840FFF7C1BA282045
:102B6000BDE80840FDF7EABF1E20FEF71EF81E2054
:102B7000BDE80840FEF740B82820BDE80840FDF752
:102B8000F3BF08BDC24B00080020FFF71BBB08B510
:102B9000FFF72AFB042803D1BDE80840FFF7A8BDD2
:102BA00008BD08B5FFF720FB022803D1BDE80840A7
:102BB000FFF794BD08BD08B5FFF716FB012803D148
:102BC000BDE80840FFF72CBD08BD000080B58EB001
:102BD000FEF7AAFB0020FEF7ABFC00210846FEF73B
:102BE000BBFB01210020FEF7B7FB05210320FEF708
:102BF000B3FB0C2103200024FEF7AEFB0326FDF7F8
:102C00005FFF08250B23022706A80694ADF81C4099
:102C10008DF819308DF81C60ADF81E508DF81A70C3
:102C2000FEF7A2FEADF82650324D08940C2308A8FA
:102C3000ADF824408DF821308DF824608DF8227095
:102C4000FEF792FE95E80F000AAE86E80F003046C8
:102C5000FEF72EF82B8AADF8143005A8FEF79CF984
:102C6000FFF704F82448FEF749FAFFF72EF9012090
:102C7000FFF714F9FEF79EFA2046FFF7AFFA1F4957
:102C80004FF47A70FEF7F8F91D494FF4FA60FEF739
:102C9000F3F91C494FF4FA70FEF7EEF91A494FF4B4
:102CA0009670FEF7E9F919494FF47A60FEF7E4F9F6
:102CB0001748FFF749FEFFF79DFA5F23C82250210E
:102CC0000A200094FFF7A2F8124A92E8030001AB31
:102CD00083E80300104A00944FF6E07350210A2065
:102CE000FFF7C2F900945F23C82250210A20FFF7A2
:102CF0008DF8FEE7B04B000800300140B72B00080C
:102D0000A32B00088F2B0008892B0008B529000889
:102D1000BD2A00080C00002082D1000870B594B0D4
:102D20000024214B01941A6C42F080521A641B6CEF
:102D300003F080530193019B1C4B02941A6842F4E8
:102D400040421A601B6803F440430293029B012334
:102D50004FF48002CDE908331923CDE90F2304266F
:102D60004FF4A8730225CDE9113608A80723139361
:102D70000E95FDF759FB0F232946CDE9033503A82E
:102D80004FF48053CDE906340594FDF7F3FCFDF7CD
:102D9000A5FD4FF47A73B0FBF3F0FDF723FB30464B
:102DA000FDF736FB14B070BD0038024000700040E3
:102DB00008B5FDF7B1FAFFF7B1FFBDE80840FDF730
:102DC000FBBD704781F0004102E000BF83F000438B
:102DD00030B54FEA41044FEA430594EA050F08BFB6
:102DE00090EA020F1FBF54EA000C55EA020C7FEA7A
:102DF000645C7FEA655C00F0E2804FEA5454D4EBF7
:102E00005555B8BF6D420CDD2C4480EA020281EAC0
:102E1000030382EA000083EA010180EA020281EAF8
:102E20000303362D88BF30BD11F0004F4FEA01314A
:102E30004FF4801C4CEA113102D0404261EB410159
:102E400013F0004F4FEA03334CEA133302D05242DF
:102E500063EB430394EA050F00F0A780A4F101049B
:102E6000D5F1200E0DDB02FA0EFC22FA05F28018D5
:102E700041F1000103FA0EF2801843FA05F35941BB
:102E80000EE0A5F120050EF1200E012A03FA0EFC3A
:102E900028BF4CF0020C43FA05F3C01851EBE37164
:102EA00001F0004507D54FF0000EDCF1000C7EEB81
:102EB00000006EEB0101B1F5801F1BD3B1F5001FBF
:102EC0000CD349085FEA30004FEA3C0C04F10104DE
:102ED0004FEA445212F5800F80F09A80BCF1004F07
:102EE00008BF5FEA500C50F1000041EB045141EA89
:102EF000050130BD5FEA4C0C404141EB010111F48A
:102F0000801FA4F10104E9D191F0000F04BF014634
:102F10000020B1FA81F308BF2033A3F10B03B3F112
:102F200020020CDA0C3208DD02F1140CC2F10C02A2
:102F300001FA0CF021FA02F10CE002F11402D8BF00
:102F4000C2F1200C01FA02F120FA0CFCDCBF41EACC
:102F50000C019040E41AA2BF01EB0451294330BD9B
:102F60006FEA04041F3C1CDA0C340EDC04F1140478
:102F7000C4F1200220FA04F001FA02F340EA03004F
:102F800021FA04F345EA030130BDC4F10C04C4F195
:102F9000200220FA02F001FA04F340EA0300294675
:102FA00030BD21FA04F0294630BD94F0000F83F4BF
:102FB000801306BF81F480110134013D4EE77FEAA2
:102FC000645C18BF7FEA655C29D094EA050F08BFEE
:102FD00090EA020F05D054EA000C04BF19461046CF
:102FE00030BD91EA030F1EBF0021002030BD5FEA13
:102FF000545C05D14000494128BF41F0004130BD3B
:1030000014F580043CBF01F5801130BD01F000458E
:1030100045F0FE4141F470014FF0000030BD7FEA01
:10302000645C1ABF194610467FEA655C1CBF0B46FC
:10303000024650EA013406BF52EA033591EA030F13
:1030400041F4002130BD00BF90F0000F04BF00210B
:10305000704730B54FF4806404F132044FF000053E
:103060004FF0000150E700BF90F0000F04BF0021B7
:10307000704730B54FF4806404F1320410F000451D
:1030800048BF40424FF000013EE700BF42004FEA18
:10309000E2014FEA31014FEA02701FBF12F07F4395
:1030A00093F07F4F81F06051704732F07F4208BF4C
:1030B000704793F07F4F04BF41F40021704730B553
:1030C0004FF4607401F0004521F000411CE700BF9F
:1030D00050EA010208BF704730B54FF000050AE022
:1030E00050EA010208BF704730B511F0004502D523
:1030F000404261EB41014FF4806404F132045FEA25
:10310000915C3FF4D8AE4FF003025FEADC0C18BFCD
:1031100003325FEADC0C18BF033202EBDC02C2F1BF
:10312000200300FA03FC20FA02F001FA03FE40EA51
:103130000E0021FA02F11444BDE600BF80F0004009
:1031400002E000BF81F0004142001FBF5FEA41037F
:1031500092EA030F7FEA226C7FEA236C6AD04FEA7F
:103160001262D2EB1363C1BFD218414048404140C4
:10317000B8BF5B42192B88BF704710F0004F40F476
:10318000000020F07F4018BF404211F0004F41F492
:10319000000121F07F4118BF494292EA030F3FD05E
:1031A000A2F1010241FA03FC10EB0C00C3F1200371
:1031B00001FA03F100F0004302D5494260EB400000
:1031C000B0F5000F13D3B0F1807F06D340084FEA6B
:1031D000310102F10102FE2A51D2B1F1004F40EB60
:1031E000C25008BF20F0010040EA030070474900C8
:1031F00040EB000010F4000FA2F10102EDD1B0FA93
:1032000080FCACF1080CB2EB0C0200FA0CF0AABF87
:1032100000EBC25052421843BCBFD0401843704725
:1032200092F0000F81F4000106BF80F4000001322B
:10323000013BB5E74FEA41037FEA226C18BF7FEA02
:10324000236C21D092EA030F04D092F0000F08BF44
:103250000846704790EA010F1CBF0020704712F02B
:103260007F4F04D1400028BF40F00040704712F16A
:1032700000723CBF00F50000704700F0004343F0CF
:10328000FE4040F4000070477FEA226216BF084605
:103290007FEA23630146420206BF5FEA412390EAC8
:1032A000010F40F4800070474FF0000304E000BFBE
:1032B00010F0004348BF40425FEA000C08BF70476F
:1032C00043F0964301464FF000001CE050EA010233
:1032D00008BF70474FF000030AE000BF50EA010248
:1032E00008BF704711F0004302D5404261EB410135
:1032F0005FEA010C02BF84460146002043F0B6435A
:1033000008BFA3F18053A3F50003BCFA8CF2083A7E
:10331000A3EBC25310DB01FA02FC634400FA02FC87
:10332000C2F12002BCF1004F20FA02F243EB02008E
:1033300008BF20F00100704702F1200201FA02FCF0
:10334000C2F1200250EA4C0021FA02F243EB0200E3
:1033500008BF20EADC7070474FF0FF0C1CEAD05227
:103360001EBF1CEAD15392EA0C0F93EA0C0F6FD0E8
:103370001A4480EA010C400218BF5FEA41211ED0C6
:103380004FF0006343EA501043EA5111A0FB0131B2
:103390000CF00040B1F5000F3EBF490041EAD37187
:1033A0005B0040EA010062F17F02FD2A1DD8B3F103
:1033B000004F40EBC25008BF20F00100704790F072
:1033C000000F0CF0004C08BF49024CEA502040EAC4
:1033D00051207F3AC2BFD2F1FF0340EAC25070478A
:1033E00040F400004FF00003013A5DDC12F1190FC8
:1033F000DCBF00F000407047C2F10002410021FA3A
:1034000002F1C2F1200200FA02FC5FEA310040F151
:10341000000053EA4C0308BF20EADC70704792F0CA
:10342000000F00F0004C02BF400010F4000F013A02
:10343000F9D040EA0C0093F0000F01F0004C02BFFD
:10344000490011F4000F013BF9D041EA0C018FE76C
:103450000CEAD15392EA0C0F18BF93EA0C0F0AD072
:1034600030F0004C18BF31F0004CD8D180EA010098
:1034700000F00040704790F0000F17BF90F0004F31
:10348000084691F0000F91F0004F14D092EA0C0F13
:1034900001D142020FD193EA0C0F03D14B0218BFA6
:1034A000084608D180EA010000F0004040F0FE40EC
:1034B00040F40000704740F0FE4040F44000704788
:1034C0004FF0FF0C1CEAD0521EBF1CEAD15392EA07
:1034D0000C0F93EA0C0F69D0A2EB030280EA010CF7
:1034E00049024FEA402037D04FF0805343EA111190
:1034F00043EA10130CF000408B4238BF5B0042F1EE
:103500007D024FF4000C8B4224BF5B1A40EA0C0092
:10351000B3EB510F24BFA3EB510340EA5C00B3EBC4
:10352000910F24BFA3EB910340EA9C00B3EBD10FB2
:1035300024BFA3EBD10340EADC001B0118BF5FEA04
:103540001C1CE0D1FD2A3FF650AF8B4240EBC2502D
:1035500008BF20F0010070470CF0004C4CEA5020EE
:103560007F32C2BFD2F1FF0340EAC250704740F43D
:1035700000004FF00003013A37E792F0000F00F02F
:10358000004C02BF400010F4000F013AF9D040EAAD
:103590000C0093F0000F01F0004C02BF490011F441
:1035A000000F013BF9D041EA0C0195E70CEAD15339
:1035B00092EA0C0F08D142027FF47DAF93EA0C0F20
:1035C0007FF470AF084676E793EA0C0F04D14B0204
:1035D0003FF44CAF08466EE730F0004C18BF31F0B6
:1035E000004CCAD130F000427FF45CAF31F00043B0
:1035F0007FF43CAF5FE700BF4FF0FF3C06E000BF49
:103600004FF0010C02E000BF4FF0010C4DF804CD6B
:103610004FEA40024FEA41037FEA226C18BF7FEA7B
:10362000236C11D001B052EA530C18BF90EA010F7D
:1036300058BFB2EB030088BFC81738BF6FEAE1700C
:1036400018BF40F0010070477FEA226C02D15FEAA8
:10365000402C05D17FEA236CE4D15FEA412CE1D014
:103660005DF8040B704700BF844608466146FFE7DB
:103670000FB5FFF7C9FF002848BF10F1000F0FBDBD
:103680004DF808EDFFF7F4FF0CBF012000205DF8B6
:1036900008FB00BF4DF808EDFFF7EAFF34BF01203B
:1036A00000205DF808FB00BF4DF808EDFFF7E0FFD4
:1036B00094BF012000205DF808FB00BF4DF808ED25
:1036C000FFF7D2FF94BF012000205DF808FB00BF88
:1036D0004DF808EDFFF7C8FF34BF012000205DF86A
:1036E00008FB00BF4FEA4002B2F1FE4F0FD34FF08C
:1036F0009E03B3EB12620DD94FEA002343F000435F
:1037000010F0004F23FA02F018BF404270474FF00C
:103710000000704712F1610F01D1420205D110F093
:10372000004008BF6FF0004070474FF00000704746
:1037300042000ED2B2F1FE4F0BD34FF09E03B3EB1B
:10374000126209D44FEA002343F0004323FA02F047
:1037500070474FF00000704712F1610F01D1420233
:1037600002D14FF0FF3070474FF00000704700BFAC
:10377000014B1868704700BF580000200244034600
:10378000934200D1704703F8011BF9E70CB430B540
:10379000174B0C1E9DB01D6808DA8B232B604FF071
:1037A000FF301DB0BDE8304002B070474FF40273E7
:1037B000ADF8143014BF04F1FF332346049307938C
:1037C0004FF6FF7302900690ADF81630209A21ABA9
:1037D00002A92846019300F08FF8431CBCBF8B233D
:1037E0002B60002CDDD0029B00221A70D9E700BFAD
:1037F000580000200EB400B59CB01DAB029006909E
:103800006FF00041094807910491094953F8042BCE
:1038100005910068019302A900F06EF8029B002256
:103820001A701CB05DF804EB03B07047580000201C
:103830000802FFFF034613F8012B002AFBD1181AD8
:10384000013870472DE9F0478E689E4282460C464B
:103850009046994637D88A8912F4906F31D02568FE
:1038600009696F1A6569022305EB450595FBF3F5B8
:1038700009F101033B449D4238BF1D46530530D535
:10388000294600F07FFB064650B90C23CAF80030E9
:10389000A38943F04003A3814FF0FF30BDE8F087D8
:1038A0003A46216900F0FCFAA38923F4906343F0BF
:1038B0008003A381266165613E44ED1B2660A560FF
:1038C0004E464E4500D94E4632464146206800F0ED
:1038D000F2FAA3689B1BA36023681E4426600020A5
:1038E000DCE72A4600F0A8FB06460028E2D1216961
:1038F000504600F0F9FAC8E72DE9F04F9DB0804638
:1039000003938B891D060C4616460FD50B696BB9C0
:10391000402100F037FB2060206128B90C23C8F853
:1039200000304FF0FF30C7E040236361002309936C
:1039300020238DF8293030238DF82A304FF0010BE9
:1039400037463D4615F8013B0BB1252B3ED1B7EB71
:10395000060A0BD05346324621464046FFF772FF17
:10396000013000F0A480099B534409933B78002B5D
:1039700000F09D8000234FF0FF32CDE90523049332
:1039800007938DF853301A932F46052217F8011B21
:103990004F4800F035FA049BD0B9D90644BF202225
:1039A0008DF853201A0744BF2B228DF853202A7814
:1039B0002A2A15D0079A2F4600200A25394611F8E1
:1039C000013B303B092B4DD9B8B10FE02F46B8E78A
:1039D0003F4A801A0BFA00F0184304903D46D3E7A3
:1039E000039A111D12680391002A01DB079204E07B
:1039F000524243F00203079204933B782E2B0CD1E2
:103A00007B782A2B33D1039B1A1D1B680392002B52
:103A1000B8BF4FF0FF33023705932E4D397803229C
:103A2000284600F0EDF938B14023401B03FA00F0BE
:103A3000049B034301370493397827488DF82810F5
:103A400006227E1C00F0DCF9002838D0234B13BB83
:103A5000039B073323F0070308330393099B4B446D
:103A600009936DE705FB023201200F46A6E700230C
:103A70000137059319460A25384610F8012B303ACC
:103A8000092A03D9002BC8D00591C6E705FB0121FF
:103A900001230746F0E703AB00932246104B04A92D
:103AA0004046AFF30080B0F1FF3F8146D6D1A389F5
:103AB0005B063FF536AF09981DB0BDE8F08F03AB4C
:103AC00000932246064B04A9404600F081F8EAE73D
:103AD0006CD3000872D3000876D300080000000001
:103AE000453800082DE9F04791461F468A680B6962
:103AF000DDF820809342B8BF1346C9F8003091F832
:103B0000432006460C4612B10133C9F80030236841
:103B1000990642BFD9F800300233C9F80030256851
:103B200015F0060507D104F1190AE368D9F8002059
:103B30009B1AAB4228DC94F843302268003318BF4C
:103B4000012392062DD404F1430239463046C04782
:103B5000013020D02368E568D9F8002003F006037F
:103B6000042B08BFAD1AA36822690CBF25EAE575CE
:103B700000259342C4BF9B1AED184FF000091A3478
:103B80004D451AD1002008E00123524639463046FF
:103B9000C047013003D14FF0FF30BDE8F087013559
:103BA000C3E7E1185A1C302081F84300224494F8FE
:103BB000451082F843100233C5E7012322463946F7
:103BC0003046C0470130E6D009F10109D8E70000CE
:103BD0002DE9F04301F1430C0C46097E85B06E29B6
:103BE0001746064698460C9A00F0B38022D86329FF
:103BF00036D00AD8002900F0B980582900F0838017
:103C000004F1420584F8421032E0642901D06929A8
:103C1000F6D120681368050603F104012AD51B6854
:103C20001160002B03DA2D225B4284F843206F4899
:103C30000A2239E0732900F09D8008D86F2920D02E
:103C40007029DDD1236843F02003236003E0752948
:103C500017D07829D4D1782384F84530644855E0CA
:103C60001368191D1B68116004F1420584F8423085
:103C700001238CE01B68116010F0400F18BF1BB2CD
:103C8000CFE713682568181D1060280601D51B684A
:103C900002E06806FBD51B8854486F2914BF0A222E
:103CA0000822002184F843106568A560002DC0F249
:103CB0009580216821F004012160002B3DD1002D69
:103CC00040F08E806546082A0BD12368DB0708D5B3
:103CD000236962689A42DEBF302305F8013C05F192
:103CE000FF35ACEB05032361CDF800803B4603AA0A
:103CF00021463046FFF7F6FE01304DD14FF0FF3040
:103D000005B0BDE8F083394884F845101368216890
:103D10001D1D1B6815600A060BD5CA0744BF41F07C
:103D2000200121601BB9226822F0200222601022AB
:103D3000B7E74D0648BF9BB2EFE76546B3FBF2F12C
:103D400002FB1133C35C05F8013D0B460029F5D198
:103D5000B9E7136825686169181D106028061B689B
:103D600001D5196002E06A06FBD5198000232361A2
:103D70006546B9E71368191D11601D686268002166
:103D8000284600F03DF808B1401B6060636823617D
:103D9000002384F84330A7E723692A463946304692
:103DA000C0470130AAD023689B0713D4E068039B67
:103DB0009842B8BF1846A3E701234A463946304621
:103DC000C04701309AD00135E368039A9B1AAB4291
:103DD000F2DCEBE7002504F11909F5E7002BACD183
:103DE000037884F8423004F142056CE77DD3000883
:103DF0008ED300080000000000000000000000005A
:103E000001F0FF01102A2BDB10F0070F08D010F88B
:103E1000013B013A8B422DD010F0070F42B3F6D18F
:103E2000F0B441EA012141EA014122F007047FF0A8
:103E300000070023F0E80256083C85EA010586EAFF
:103E4000010685FA47F5A3FA87F586FA47F6A5FA3B
:103E500087F68EB9EED1F0BC01F0FF0102F0070247
:103E600032B110F8013B013A83EA010313B1F8D1F2
:103E70000020704701387047002D06BF35460338D3
:103E8000073815F0010F07D1013015F4807F02BF0C
:103E9000013015F4C03F0130F0BC0138704700BF5D
:103EA00010B5431E0A44914200D110BD11F8014BD8
:103EB00003F8014FF7E7884210B501EB020307D87A
:103EC000421E99420AD011F8014B02F8014FF8E75F
:103ED0008342F5D98118D21AD34200D110BD13F80C
:103EE000014D01F8014DF7E738B50546002945D0E9
:103EF00051F8043C0C1F002BB8BFE41800F0D2F8B6
:103F00001F4A1368104633B9636014602846BDE841
:103F1000384000F0C8B8A3420CD921686218934217
:103F200004BF1A685B68636004BF521822600460B3
:103F3000ECE713465A680AB1A242FAD91968581830
:103F4000A0420BD120680144581882421960DDD18B
:103F5000106852685A6001441960D7E702D90C23EF
:103F60002B60D3E7206821188A4204BF1168526889
:103F7000626004BF091821605C60C7E738BD00BFFC
:103F80001032002070B5CD1C25F0030508350C2D2E
:103F900038BF0C25002D064601DBA94203D90C23AE
:103FA0003360002070BD00F07DF8214A146821467E
:103FB00091B9204C23681BB9304600F063F82060AB
:103FC0002946304600F05EF8431C24D10C233360B0
:103FD000304600F068F8E4E70B685B1B18D40B2B45
:103FE0000FD90B60CD50CC18304600F05CF804F1CE
:103FF0000B00231D20F00700C31AD3D05A42E25011
:10400000D0E78C424B6816BF636013600C46EBE749
:104010000C464968CCE7C41C24F00304A04205D038
:10402000211A304600F02EF80130CFD02560DBE7B2
:104030001032002014320020F8B5074614460E4610
:1040400021B91146BDE8F840FFF79CBF22B9FFF740
:104050004BFF25462846F8BD00F026F8A0420FD2B7
:1040600021463846FFF78EFF05460028F2D031463C
:104070002246FFF715FF31463846FFF735FFE9E7DF
:104080003546E7E738B5064C002305460846236069
:10409000FCF72EFC431C02D1236803B12B6038BD12
:1040A0001C3200207047704751F8043C181F002B49
:1040B000BCBF0B58C0187047000000000102030489
:1040C00001020304060708090000000000000000C8
:1040D00001020304060708090003010000080200AA
:1040E00002000100000902000200010000060100B8
:1040F00000000000000A010000000000426174742A
:10410000657279002575252500436C6F636B00454A
:1041100053502D30312053746174757300455350E2
:104120003A20436F6E6E6563746564004553503A80
:1041300020446973636F6E6E6563746564004152F9
:104140004D6174726F6E004C696E652053656E73BD
:104150006F72730049523A2025642025642025643B
:10416000202564202564004E6F726D616C005461DF
:104170006E6B004D6F6465005374656572696E67A0
:10418000004261743A20256425250055533A2025C4
:104190002E316620636D0049523A203020302030A5
:1041A000203020256400556C747261736F6E6963F2
:1041B0000044697374616E63653A20252E31662070
:1041C000636D004E6F206F626A656374206465746E
:1041D00065637465640053656E736F722045727217
:1041E0006F72005741524E494E473A204F626A65FE
:1041F000637420636C6F73652100253032753A2536
:104200003032753A253032750000000000000000A1
:10421000000000000000000000000000000000009E
:1042200000000000700070007000700070007000EE
:104230000000000070007000000000000000D800C6
:10424000D800D800000000000000000000000000BE
:10425000000000000000000050005000FC01500071
:104260005000FC0150005000000000000000000061
:1042700000002000F800A000F0002800F800200056
:10428000000000000000000000000000C400C800A2
:1042900010002000400098001801000000000000FD
:1042A0000000000000006000900090006000A2008C
:1042B0009400680000000000000000000000000002
:1042C000300030003000000000000000000000005E
:1042D0000000000000000000000018003000600036
:1042E0006000600060006000300018000000000006
:1042F00000000000600030001800180018001800CE
:104300001800300060000000000000000000000005
:1043100044002800FE0028004400000000000000C7
:10432000000000000000000000001000100010005D
:10433000FE0010001000100000000000000000004F
:10434000000000000000000000000000000030003D
:10435000300030006000000000000000000000009D
:1043600000000000FE00000000000000000000004F
:10437000000000000000000000000000000000003D
:1043800000003000300000000000000000000000CD
:10439000020004000800100020004000800000001F
:1043A000000000000000000000007800CC00C60003
:1043B000C600C600C600CC00780000000000000067
:1043C000000000003000700030003000300030008D
:1043D0003000FC0000000000000000000000780039
:1043E000CC000C00180030006000C000FC00000091
:1043F00000000000000000007800CC000C00380035
:104400000C000C00CC007800000000000000000050
:1044100000001C003C006C00CC00FE000C000C00F6
:104420001E0000000000000000000000FC00C000B2
:10443000C000F8000C000C00CC0078000000000068
:1044400000000000000038006000C000F800CC0050
:10445000CC00CC007800000000000000000000004C
:10446000FC000C00180030003000600060006000AC
:10447000000000000000000000007800CC00CC002C
:104480007800CC00CC00CC007800000000000000D8
:10449000000000007800CC00CC00CC007C000C00B8
:1044A0001800700000000000000000000000000084
:1044B000000030003000000000003000300000003C
:1044C000000000000000000000000000300030008C
:1044D000000000003000300020004000000000001C
:1044E0000000000006001C006000800060001C004E
:1044F00006000000000000000000000000000000B6
:104500000000FE000000FE000000000000000000AF
:104510000000000000000000C00070000C0002005D
:104520000C007000C000000000000000000000004F
:104530007800CC000C001800300030000000300083
:10454000000000000000000000007C0082009A00D3
:10455000AA00AA009E0080007C000000000000006D
:104560000000000030004800CC00CC00FC00CC0073
:10457000CC00CC0000000000000000000000F800AB
:10458000CC00CC00F800CC00CC00CC00F80000003F
:1045900000000000000000007800CC00C000C00057
:1045A000C000C000CC007800000000000000000047
:1045B0000000F000C800CC00CC00CC00CC00C8004B
:1045C000F00000000000000000000000FC00C0003F
:1045D000C000F800C000C000C000FC0000000000E7
:1045E000000000000000FC00C000C000F800C00097
:1045F000C000C000C000000000000000000000007B
:104600007800CC00C000C000CE00CC00CC00780008
:1046100000000000000000000000CC00CC00CC0036
:10462000FC00CC00CC00CC00CC000000000000005E
:1046300000000000FC00300030003000300030008E
:104640003000FC00000000000000000000001E0020
:104650000C000C000C000C000C00CC0078000000DA
:104660000000000000000000CC00D800F000E000D6
:10467000F000D800CC00C6000000000000000000E0
:104680000000C000C000C000C000C000C000C000EA
:10469000FC00000000000000000000008200C600D6
:1046A000EE00FE00D600C600C600C60000000000F6
:1046B000000000000000CC00EC00FC00DC00CC009E
:1046C000CC00CC00CC000000000000000000000086
:1046D0007800CC00CC00CC00CC00CC00CC00780022
:1046E00000000000000000000000F800CC00CC003A
:1046F000F800C000C000C000C000000000000000C2
:10470000000000007800CC00CC00CC00CC00DC0025
:1047100078001C0000000000000000000000F8000D
:10472000CC00CC00F800D800CC00CC00CC000000BD
:1047300000000000000000007800CC00C000700005
:1047400018000C00CC007800000000000000000001
:104750000000FC003000300030003000300030003D
:10476000300000000000000000000000CC00CC0081
:10477000CC00CC00CC00CC00CC00780000000000C5
:10478000000000000000CC00CC00CC00CC00CC002D
:1047900078007800300000000000000000000000F9
:1047A000C600C600C600D600FE00EE00C6008200AD
:1047B00000000000000000000000CC00CC007800E9
:1047C00030007800CC00CC00CC00000000000000DD
:1047D00000000000CC00CC00CC007800300030009D
:1047E0003000300000000000000000000000FC006D
:1047F0000C00180030006000C000C000FC00000089
:104800000000000000000000F000C000C000C00078
:10481000C000C000C000C000C000F00000000000E8
:10482000000080004000200010000800040002008A
:1048300000000000000000000000000078001800E8
:104840001800180018001800180018001800780048
:10485000000000000000100038006C00C6000000DE
:104860000000000000000000000000000000000048
:104870000000000000000000000000000000000038
:104880000000FF00000000000000300018000000E1
:104890000000000000000000000000000000000018
:1048A000000000000000000078000C007C00CC003C
:1048B000CC00760000000000000000000000C000F6
:1048C000C000C000F800CC00CC00CC00F800000014
:1048D0000000000000000000000000007800CC0094
:1048E000C000C000CC007800000000000000000004
:1048F00000000C000C000C007C00CC00CC00CC00B4
:104900007600000000000000000000000000000031
:104910007800CC00FC00C000CC0078000000000053
:1049200000000000000038006C006000F80060002B
:104930006000600060000000000000000000000057
:10494000000000007600CC00CC00CC007C000C0005
:10495000CC007800000000000000C000C000D800BB
:10496000EC00CC00CC00CC00CC000000000000002B
:104970000000000030000000700030003000300007
:1049800030007800000000000000000000000C0073
:1049900000000C000C000C000C000C000C00CC0003
:1049A0007800000000000000C000C000CC00D8006B
:1049B000F000D800CC00C60000000000000000009D
:1049C0000000700030003000300030003000300057
:1049D000780000000000000000000000000000005F
:1049E000CC00FE00FE00D600C600C600000000009D
:1049F00000000000000000000000D800EC00CC0027
:104A0000CC00CC00CC000000000000000000000042
:104A1000000000007800CC00CC00CC00CC00780076
:104A20000000000000000000000000000000F8008E
:104A3000CC00CC00CC00F800C000C000C0000000DA
:104A400000000000000000007600CC00CC00CC008C
:104A50007C000C000C000C000000000000000000B6
:104A60000000DC0076006000600060006000000074
:104A70000000000000000000000000007C00C000FA
:104A800070001C000C00F800000000000000000096
:104A9000000010003000FC00300030003000340016
:104AA00018000000000000000000000000000000EE
:104AB000CC00CC00CC00CC00CC0076000000000084
:104AC00000000000000000000000CC00CC00CC0082
:104AD00078007800300000000000000000000000B6
:104AE00000000000C600D600FE00FE006C0044007E
:104AF0000000000000000000000000000000CC00EA
:104B0000780030007800CC00CC00000000000000ED
:104B10000000000000000000CC00CC00CC007800B9
:104B2000300030006000C000000000000000000005
:104B30000000FC00180030006000C000FC00000015
:104B400000000000000000001C0030003000E00009
:104B50003000300030001C000000000000000000A9
:104B600000001800180018000000180018001800B5
:104B7000180000000000000000000000E00030000D
:104B800030001C00300030003000E0000000000069
:104B900000000000000000007600DC0000000000C3
:104BA0000000000000000000000000000000000005
:104BB0001902000000C2010001020102020300000C
:104BC00001020532053205322532263226322532DF
:104BD000263A2532453245324532653A653A853ABC
:104BE000A53AA53AA53AC542E5420543254B454BB2
:104BF000454B6553A653C75BE75BE85B29648B7441
:104C0000CC7C3085718DB39DF6A518A639AE5BB608
:104C10005BB65BB65BB65BB65BB65BB67BB67BB6CC
:104C20007BB65AB63AB639B639B639AE38AE17A6EB
:104C3000F6A5D49DB3959295708D2E7DEC74CB74B2
:104C4000AA6CE874E87408750875287D287D487D8D
:104C5000487D487D487D687D688588858885A985EB
:104C6000A985A995A995A995C995C995C995C995E4
:104C7000C895C995C995C995C895C895A88DA88D99
:104C8000888D678568854785277D077DE774C774AC
:104C9000C874A8748874886C696C496C496C296CF8
:104CA000296CE963E863E963C863A85B885B6753C1
:104CB0006753275327530753E752E752C752C64A51
:104CC000A752A64A254A097352C56E9C0442653A0A
:104CD000443A2442C3398652496B075B243AA229DD
:104CE000612921212121212101190119E118C01077
:104CF000C010E118C110E118021902194319263A2F
:104D00002A5B053205322532253226322632263AF2
:104D1000263A4532453245324532653A853A853A3A
:104D2000A53AA53AC53AE5420543054B454B454BE7
:104D3000654B8553A653C65BE75BE75B08646A7403
:104D4000CB7C0F85508D9395D59DF7A518A639AED0
:104D50003AAE3AAE3AAE5AB65AB65AB65AB65AB64B
:104D60005AB639B639B619AE18AE18AE17AEF6A5A2
:104D7000D59DB3959295708D4E850D7DEB74CA745B
:104D8000AA6C087509750975297D297D497D497DBC
:104D90006985487D687D688568858885A985A98538
:104DA000A98DA995C995C995C995C995C995C9955B
:104DB000C895C995C995C895C895C895A88D888D79
:104DC000878D688567854785277D077DE77CC77464
:104DD000C87487748874886C696C486C296C296CF9
:104DE0002964E963E863E963C863A85B885B675388
:104DF00067532753275307530753E752C752C752E6
:104E0000C652A64A6652CC8B52BDAB83043A653A71
:104E1000653A4542454AE762496BA64AC329612182
:104E2000212121212121212101190119E118C11874
:104E3000C010E1180119021902192219C529884A5E
:104E40002A5B05322532253226322632263A263A88
:104E5000453A453245324532653A653A853AA53A92
:104E6000A542C542C542E5420543254B454B654B2E
:104E7000654B8553A553C65BC65BE75B0864696CED
:104E8000AA74ED7C2F85718DB395B59DD6A5F7A538
:104E9000F8A518AE18AE18AE38AE38AE39AE39AE89
:104EA00039AE38B618AE17AE16A6F6A5F5A5D49D40
:104EB000B395718D50852E850C7DEB74CA74CA74C0
:104EC000CA74097D297D297D297D497D698569858A
:104ED000698568856885888589858985A98DA98D75
:104EE000A98DC995C995C995E995E995E995C9959A
:104EF000C995E895E895C895C895A88DA88D878D22
:104F0000878D67854785477D277D0775C774C7747B
:104F1000A774886C886C686C486C486C296C286431
:104F20000864E863E863E863C863A85B885B885B40
:104F3000685B4753275327530753E752E752C7523B
:104F4000C752A64AE862F0ACF1B4C86A04426542AE
:104F500085424542865208630863243A82214121F2
:104F6000212121212121212101190119E118E11813
:104F7000C118E11802190219E218632168420A53A4
:104F80002A5B2532253225322532263A263A463A00
:104F90004532453A453A653A653A853AA53AA542D9
:104FA000C542E542E5420543254B254B454B644B45
:104FB000644B8453A553C55BC65BE65B0764486CD2
:104FC000896CCC7C0D7D4F85718D9395B49DB59D7D
:104FD000D69DF6A5F6A5F6A5F6A516A616A617A6BD
:104FE00017A616AE16A6F5A5D49DD49DB39D929591
:104FF000708D2E850D7DEC7CCA74CA74C974E974F9
:105000000A75297D297D297D497D6985698589857F
:105010008985898589858985A985A98DA98DC98D68
:10502000C98DC995C995E995E995E995E995E995F8
:10503000E895E895E895C895C895A88D888D878DE1
:1050400067854785477D277D077DE774C774A7740B
:10505000A774876C686C686C486C286C286408645A
:105060000864E863E863E863C863C863A85B885BB7
:10507000685B47534753275327530753E752E75279
:10508000C752A74A4A6B93C56FA425524542653A59
:10509000443A4442A652E8628652043AA22982293E
:1050A00041212121212101190119E118E118E118FB
:1050B000E118E218E218E2182219E631C9524B5BF6
:1050C0004B5B253225322532263A263A453A463A76
:1050D000453A653A653A653A853A853AA53AC54210
:1050E000C542054305430543254B444B644B644B84
:1050F000644BA453A453C553E55BE65B0664276485
:10510000476CAA74EB7C2D854F8D708D71959295AF
:105110009395B49DB49DD49DD49DD49DF49DF5A547
:10512000F5A5F4A5D39DB39DB295B19590956F8DDE
:105130004E850C7D0B7DEA74C974C974E9740975D8
:10514000297D297D497D497D497D698589858985B7
:105150008985A98DA98DA98DA98DC98DCA8DCA8D65
:10516000CA8DC995E995E995E9950996E995E99575
:10517000E995E895E895C895C88DA88D878D8785B0
:105180006785477D277D277D077DE774C774A774F2
:10519000876C876C686C486C486C28640864086489
:1051A0000864E863E863E863E863C863A85B885B56
:1051B000885B6753485B475327530753E752E752CF
:1051C000E752A752CC7B93C5EC8B044A864A443AFB
:1051D0000332A64AC75AA6522442E331E431A32936
:1051E00042212121012101190119E1180119021996
:1051F00002192221E118E218A5296842EA522B5B24
:105200004B5B25322532453A453A453A463A663AAD
:10521000663A663A653A853A853AA53AC542C54244
:10522000E6420543254B254B454B444B644B644BB1
:105230008453A453C453C453E55BE55B06642664FE
:105240002664886CA974EB7C0C852E852F854F8D88
:10525000508D7195719591959195B295B295B29D3C
:10526000B29DB195B1959095908D8F8D6E8D4D8538
:105270002C850A7D0A7D097508750875297D297DAB
:10528000497D497D497D6985698589858985A98D9E
:10529000A98DC98DC98DC98DC98DEA8DEA8DEA8D1B
:1052A000EA8DE995E995E995099609960996099691
:1052B000E995E895C895C88DC88DA88D87856785BF
:1052C0006785477D277D077DE77CC774A774A77432
:1052D000876C676C686C486C486C28640864086468
:1052E0000864E863E863E863E863C863A85BA85BF5
:1052F000885B675B675B485B285B275B0753E7520C
:10530000E752C85A6F9431B56A7B454A864A65426E
:10531000443A28630863654AC331C331C33162210B
:105320000119212101190119E118E11802190221BD
:105330000221232102194321273AC952EA520A5372
:105340004B5B2532453A453A453A453A663A653A25
:10535000653A863A853A853A853AA542C542E5429C
:10536000E542254B254B454B444B644B644B8453E2
:105370008453C45BC453C45BE45B055C256425644F
:1053800025644664876CC974EA7CEB7C0C7D0C85D3
:105390000D852E854E854E8D4F8D6F8D6F8D708D49
:1053A00090958F8D6F8D6E8D6E8D6D8D4C852B854F
:1053B0002A7D297D297D287D287D487D497D698537
:1053C0006985698569858985898DA98DC98DC98D0D
:1053D000C98DC995C995EA95EA95EA95EA95EA9540
:1053E000EA95E995E995E995099609960996099648
:1053F0000996E995C995C88DA88DA88D888567857A
:1054000047852885287D077DE77CC774A774A77426
:10541000876C686C686C486C486C286C086408641D
:105420000864E863E863E863E863C863C863A85B8B
:10543000A85B685B685B485B485B275B075B07535F
:10544000E75AE96232ADB0A4096B6652454A854A13
:10545000C652696B286344428229A3296229211913
:10546000011901210119E118E118E11802190221BD
:10547000232122216429E639894AEA520A5B0B5B1F
:105480002B5B453A453A453A4532453A653A653AE5
:10549000653A853A853A853AA53AA542C542E5423C
:1054A000E542254B254B454B454B654B644B84539F
:1054B0008453C45BC45BC45BE45B055C2564256406
:1054C000055C25644664876CC874C97CE97CEA7C09
:1054D000EA7C0B850B850C852C854D8D4D8D4D8D76
:1054E0004D8D6E8D6D8D4D854C854B854A85297D05
:1054F000287D287D487D488568856885698569851A
:105500008985898DA98DA98DC98DC98DE995E99563
:10551000EA95E995E995E995E995EA95EA95EA9597
:10552000EA95E995E9950A960A960A9609960996E2
:105530000996C995C995C98DA98D888D68854885B5
:10554000488528852885087DE77CC774A7748774FB
:10555000876C686C686C486C486C286C09640864DB
:105560000864E863E863E863E863E863C863A85B2A
:10557000A85B885B685B685B485B285B085B0753DC
:10558000E75A0A6BB4BD6F94E86286520442A65291
:1055900048636963075B243A612962292121E11884
:1055A000222102210119E118E118E1180219222132
:1055B00023210219C531884AC952EA522B5B2B5B61
:1055C000EA5245324532453A653A663A863A863A73
:1055D000863AA642A542A542C542C542E542E542F9
:1055E0000543254B454B454B655365538553A553A3
:1055F000A453C45BC45BE45B045C245C2564456425
:10560000456445646564656C866CA774C774C8742A
:10561000E87CC974E97C0A7D0A852A852B854B8D37
:105620006C8D4C854C854B856B856A856A85698553
:10563000898568858885888D888DA98DA98DA98D96
:10564000A98DC995E995E995E995E9950996099690
:1056500009960A9E0A9E0A9E0A9E0A9E0A9E0A9E13
:105660000A9E2A9E2A9E2A9E2A9E0A9E0A96E995AC
:10567000EA95EA95C995A98DA98D898D6985488591
:10568000287D087D087D087DE77CC874A774A87410
:1056900088748874686C696C496C296C296C09641D
:1056A0000964086408640864E963E863C863C8635C
:1056B000A85B885B885B485B485B275B285B285B53
:1056C000A6528C7BF5C54E8CA75A8652254A086394
:1056D000AA732863654AA22941214121222101217F
:1056E000011922210119E118E1180219E118E11844
:1056F00002196329063AA952EA5AEA52EA520B5BA6
:105700002B5B4532453A653A653A653A853AA63AA1
:10571000A53AC642C642C542C542E54205430543D5
:10572000054B454B454B454B655365538553A55339
:10573000A453C55BE45BE45B045C245C25644564C2
:105740004564656C656C856C856CA574C674C6749F
:10575000E674C774E87C087D2985298549856985B3
:105760006A8D6A856A8D6A8D6A8D8A8D898D898D2B
:10577000888DA88DA88DA88DA88DC895C995C99527
:10578000C99509960996099E099E099E099E299E1A
:10579000299E299E2A9E2A9E2A9E2A9E2A9E2A9ECB
:1057A0002A9E2A9E2B9E2B9E2A9E0A9E0A9EEA9D38
:1057B000EA95EA95CA95A98D898D898D698D498566
:1057C0002885087D087D087DE87CC874A874A874C5
:1057D000887488746974696C496C296C296C0964D3
:1057E0000964086408640964E963E963C963C86318
:1057F000A863A85B885B685B485B485B285B285BA9
:10580000E7520E94D5C5ED838652A752A652696B16
:10581000AA73075B6542A22961214121422101212E
:1058200001190119E118E118E118E118C118E1188E
:105830000221C5314742C952EA52EA52EA52EA52BB
:105840000A53653A653A653A853A853AA63AA53AE1
:10585000A642C642C642C542E542E5420543254B43
:10586000264B454B454B454B655385538553A553B7
:10587000A553C55BE45B045C045C24644464446439
:105880006464846C846CA46CA46CC474C474E57487
:10589000E574E574067D077D27852785478568853E
:1058A000888D898D898DA98DA98DA98DC995C8955A
:1058B000C895C895C895E895E895E99D099E099E03
:1058C000099E299E299E299E299E299E49A649A670
:1058D00049A649A649A64AA64AA64AA64AA64AA64B
:1058E0004AA64BA64BA64BA62A9E2A9E0A9E0A9E15
:1058F000EA9DEA95CA95A98D898D8A8D698D49851C
:105900002985087D087DE87CE87CC87CA874A8749B
:10591000887468746974696C496C296C296C096CA9
:10592000096C096409640964E963E963C963C963CB
:10593000A963A85B885B89636963485B285B085B34
:105940002863F2B4B4C58B734642E85A496B8A7B2C
:10595000496BC652443AA2296221622942210119A7
:10596000E118E118E118E118E118C010C11002199E
:105970004329474A884AC952C952C952EA52CA52AF
:10598000C94A653A653A853A853AA53AA642A64299
:10599000C642E642E642E542E5420543254B254B39
:1059A000264B454B454B655365538553A553A5532E
:1059B000C553E55BE55B045C24644464446464644F
:1059C000646CA46CA46CA474C474C374E374E374B2
:1059D000E374E474047D257D458546856685868D62
:1059E000868DC895C895C895E895E895E895E89599
:1059F000E895089E089E089E089E28A628A628A628
:105A000028A648A648A648A648A669A669A669A6E3
:105A100069A669A669A66AA66AA66AA66AA66AA609
:105A20006AA64BA64BA64BA64AA62AA62A9E0A9E63
:105A30000A9EEA9DCA95A9958A8D8A8D698D4985A8
:105A400029850885087D087DE87CC87CC874A87411
:105A5000887489746974696C496C296C296C096C47
:105A6000096C096C096CE963E963E963C963C9639B
:105A7000A963A95B685B896369634963285B085311
:105A8000AA6BD6D574BD4A6B66422963AA7BAA7BF2
:105A9000E762654A033AA22982296229422101214B
:105AA000E118C018E11801190119C118C01022210C
:105AB000C431A852C952C952A94AC952EA52CA525B
:105AC000A94A853A853A853AA542A642C642C642C7
:105AD000C642E64A064306430543054B254B464B63
