:020000040800F2
:100000000000012061020008650200086702000884
:100010007D0200087F020008950200080000000031
:10002000000000000000000000000000AB0200081B
:10003000AD02000800000000AF020008550C0008E7
:10004000C5020008C5020008C5020008C502000874
:10005000C5020008C5020008C1120008E11200082C
:10006000C5020008C5020008C5020008C502000854
:10007000C5020008C5020008C5020008C502000844
:10008000C5020008C5020008C50200080000000003
:10009000000000000000000000000000C502000891
:1000A000C5020008C5020008C5020008C502000814
:1000B00059140008C5020008C5020008C50200085E
:1000C000C5020008C5020008C5020008C5020008F4
:1000D000C5020008310C0008370C000800000000C1
:1000E000C5020008C5020008C502000800000000A3
:1000F000000000000000000000000000C502000831
:1001000000000000C5020008C5020008C502000882
:1001100000000000000000000000000000000000DF
:10012000C5020008C5020008C5020008C502000893
:10013000C5020008000000000000000000000000F0
:10014000000000000000000000000000C5020008E0
:10015000C5020008C5020008C50200083D0C0008E1
:10016000C5020008C50200080000000000000000F1
:10017000000000000000000000000000000000007F
:1001800000000000C50200080000000000000000A0
:10019000C502000807B500F0B3FB274B2748834290
:1001A00026D3274B274900208B422DD301F0C4FAD8
:1001B000254E264C01A9684600F09AFBA41BA4100A
:1001C0000025AC4229DC224E224CA41BA4100025A1
:1001D000AC4227DCDDE9000101F0C6F91E4D1F4CE1
:1001E000641B0646A410002C21DC304600F07CFB8A
:1001F000D3E900120C3353F8044C891A9442CED937
:10020000555815600432F9E753F8082B53F8044C9D
:100210009442C9D910600432FAE756F8253098475D
:100220000135CEE756F8253098470135D0E7013C37
:1002300055F824309847D6E7C8020008E0020008C5
:10024000E0020008F0020008F0020008F0020008D6
:10025000F0020008F0020008F0020008F0020008B6
:1002600014480047FEE71EF0040F0CBFEFF30880B0
:10027000EFF309807146104A1047FEE7FEE71EF0D3
:10028000040F0CBFEFF30880EFF3098071460B4AAF
:100290001047FEE71EF0040F0CBFEFF30880EFF3EA
:1002A00009807146064A1047FEE7FEE7FEE7FEE7D3
:1002B00070470000950100087B02000893020008C7
:0602C000A9020008FEE7A0
:1002C8008C170008000000200C0000208C17000884
:1002D80000000010000000100C0000208006002024
:0802E8000000001000000010EE
:1002F00010B5084B044618684FF47A73B0FBF3F05E
:1003000000F070F8002221464FF0FF3000F036F880
:10031000002010BD0800002008B50B4B1A6842F4FD
:1003200000721A601A6842F480621A601A6842F415
:1003300080721A60032000F00FF80F20FFF7D8FF3B
:1003400001F003FA002008BD003C0240014B186890
:10035000704700BF7C060020074AD36823F4E0639F
:100360001B041B0C43F0BF63000243F4003300F492
:10037000E0600343D360704700ED00E0174B70B5B9
:10038000DC68C4F30224C4F10705042D04F104035E
:1003900028BF04254FF0FF36062B06FA05F38CBF65
:1003A000033C002421EA0303A34006FA04F422EAF2
:1003B0000404002843EA0403A8BF00F160404FEAA8
:1003C0000313BCBF00F00F00054ADBB2AABF00F563
:1003D0006140135480F8003370BD00BF00ED00E0B1
:1003E00014ED00E00138B0F1807F0AD2064B074AD5
:1003F0005860F02182F823100020072298601A60CC
:1004000070470120704700BF10E000E000ED00E001
:10041000044B1A6804280CBF42F0040222F00402C4
:100420001A60704710E000E00368F7B50446D8078B
:1004300038D4236899076DD423681E0700F1B9806A
:1004400023685D0728D500230193A64BA64D1A6C9F
:1004500042F080521A641B6C03F080530193019B9D
:100460002B6843F480732B60FFF770FF06462B6800
:10047000DA0540F1C0809D4B227A1A70A368002BE8
:1004800000F0C780FFF762FF964D064641F28837BD
:100490002B6F9B0740F1B680A269002A40F0C9800B
:1004A000002015E08F4B9A6802F00C02042A07D056
:1004B0009A6802F00C02082A0CD15B685A0209D52E
:1004C000884B1B689B03B4D56368002BB1D1012016
:1004D00003B0F0BD864B22791A7063686BB1FFF7E9
:1004E00035FF804D06462B689F03A2D4FFF72EFFF1
:1004F000801B6428F7D90320EAE7FFF727FF794D2F
:1005000006462B68980394D5FFF720FF801B6428CC
:10051000F7D9F0E7734B9A6812F00C0F07D09A687E
:1005200002F00C02082A16D15B68590213D46D4BF5
:100530001A68920702D5E268012AC8D11868F82221
:1005400092FAA2F2B2FA82F122698A4020F0F8010E
:100550000A431A6070E7E268664BDAB101221A605A
:10056000FFF7F4FE5F4D06462B689B070CD5296804
:10057000F82393FAA3F3B3FA83F22369934021F0AB
:10058000F80213432B6057E7FFF7E0FE801B0228B9
:10059000EAD9B0E71A60FFF7D9FE524D06462B683C
:1005A0009F077FF549AFFFF7D1FE801B0228F6D9E0
:1005B000A1E76269504B7AB101221A60FFF7C6FECB
:1005C000484D06466B6F98073FF53AAFFFF7BEFE02
:1005D000801B0228F6D98EE71A60FFF7B7FE414D5F
:1005E00006466B6F99077FF52BAFFFF7AFFE801BB9
:1005F0000228F6D97FE7FFF7A9FE801B02287FF6C5
:1006000036AF78E7FFF7A2FE801BB8427FF640AF17
:1006100071E7FFF79BFE334D064641F288372B6F9B
:1006200098077FF539AFFFF791FE801BB842F6D9E6
:1006300061E72C4DAB6803F00C03082B3FF447AF88
:100640002E4E0023022A33603ED1FFF77FFE07467D
:100650002B68990132D447F6C07797FAA7F74FF481
:100660004032B7FA87F792FAA2F24FF07061B2FA0D
:1006700082F091FAA1F1D4E907321343626A02FAD7
:1006800007F7A26A5208013A82403B431343E26AE9
:10069000144CB1FA81F102FA01F10B436B600123B2
:1006A0003360FFF753FE054623689A013FF5F8AE25
:1006B000FFF74CFE401B0228F6D91CE7FFF746FE69
:1006C000C01B0228C4D916E7FFF740FE04462B687A
:1006D0009B017FF5E5AEFFF739FE001B0228F6D936
:1006E00009E700BF00380240007000407038024047
:1006F0000238024000004742800E474260004742F5
:10070000194A936803F00C03042B10B503D0082B8F
:1007100003D0164800E0164810BD5168536801F038
:100720003F0113F4800F47F6C074536894FAA4F0A5
:10073000B0FA80F003EA040323FA00F314BF0C4874
:100740000A48B0FBF1F05843074B4FF440325B6866
:1007500092FAA2F2B2FA82F203F44033D3400133A8
:100760005B00B0FBF3F0D7E7003802400024F40050
:1007700040787D01554B1A6802F00F028A422DE93C
:10078000F04105460E462FD32A68940736D4D00789
:100790003CD44E4B1A6802F00F02B24200F286803F
:1007A0002A68510700F18A80130707D5484A29694A
:1007B000936823F4604343EAC1039360FFF7A0FF0B
:1007C000434BF0229B6892FAA2F2B2FA82F203F053
:1007D000F003D3403F4AD35CD8403F4B18600F2012
:1007E000FFF786FD002007E0CAB21A701B6803F00D
:1007F0000F038B42C8D00120BDE8F0813449A868BE
:100800008B6823F0F00303438B60C0E76A68304BCA
:10081000012A1DD11B6813F4003FECD02C4CA368B7
:1008200023F003031343A360FFF790FD6B68012BD4
:10083000074641F2883815D1A36803F00C03042B56
:10084000A7D0FFF783FDC01B4045F5D90320D3E7B0
:10085000911E01291B6802D813F0007FDDE713F019
:10086000020FDAE7022B0AD1A36803F00C03082B6E
:100870008FD0FFF76BFDC01B4045F5D9E6E7032B92
:100880000FD1A36803F00C030C2B82D0FFF75EFDA1
:10089000C01B4045F5D9D9E7FFF758FDC01B4045BF
:1008A000D4D8A36813F00C0FF6D172E7F2B21A7025
:1008B0001B6803F00F03B3429DD171E70449E86858
:1008C0008B6823F4E05303438B606DE7003C0240E8
:1008D000003802404C17000808000020014B18683F
:1008E000704700BF0800002008B500F015F80000B0
:1008F00001230360014B0B60704700BF0000002024
:1009000008B500F01BF8024B024A9A6008BD00BF10
:1009100000ED00E000000008BFF34F8F0549064BD3
:10092000CA6802F4E0621343CB60BFF34F8F00BF8D
:10093000FDE700BF00ED00E00400FA050C4B1A686B
:10094000002142F001021A6099601A6822F0847254
:1009500022F480321A60074A5A601A6822F4802210
:100960001A60D960044B4FF000629A60704700BF74
:10097000003802401030002400ED00E0174A18490A
:10098000936803F00C03042B10B50DD0082B0DD089
:10099000144B0B60114B144A9B68C3F30313D25CD6
:1009A0000B68D3400B6010BD104BF2E754685068E1
:1009B00052686302C2F3881200F03F004CBF0B4B39
:1009C000084BB3FBF0F35343044A5268C2F30142AD
:1009D00001325200B3FBF2F3DBE700BF0038024004
:1009E000080000200024F4005C17000840787D0116
:1009F00030B500211C4C8BB0084600F055F922465A
:100A00002068616802AB03C352F8080F516804AB59
:100A100003C302A800F032FC04A800F02FFC00255C
:100A20006846ADF800508DF8025000F029FA2246D1
:100A300006AB52F8100F516803C354F8180F6168E1
:100A400008AB03C306A800F019FC08A800F016FCC8
:100A5000019542F20F72019B934201DD0BB030BD54
:100A6000019B01330193F6E76C17000810B50022D3
:100A700004460621104600F06DFB002210460721B7
:100A800000F068FB2146012000F03EFA21460220DA
:100A9000BDE8104000F038BA10B501220446062126
:100AA000002000F057FB01220721002000F052FB3C
:100AB0002146012000F028FA21460220BDE810401E
:100AC00000F022BA08B50021012000F01DFA002133
:100AD0000220BDE8084000F017BA10B50022044615
:100AE0000621104600F036FB21460120BDE81040EB
:100AF00000F00ABA10B5072104460122002000F0D8
:100B000029FB21460220BDE8104000F0FDB900217C
:100B1000012000F0F9B90021022000F0F5B9002110
:100B200008B5084600F0C0F80021084600F0BCF8FF
:100B300000210846022200F0F1FB5A210020BDE806
:100B4000084000F0DDBB0146002000F0D9BB0146A3
:100B5000012000F0D5BB000030B1012806D00228EA
:100B6000034818BF0020704702487047024870478A
:100B7000001401400010014000440040012838B535
:100B8000014604D00CD3022808D0022005E0244CF2
:100B90000846FFF7E1FF28B9002038BD214CF7E7F0
:100BA000214CF5E703689A0616D5204B65684FF48B
:100BB000017202FB0132EDB292F80232134483F863
:100BC000005192F802320133DBB282F8023292F81D
:100BD0000232DBB282F8023203681B06DCD5134A0C
:100BE0004FF4017303FB012393F8001293F80122E1
:100BF000914204D1C36823F08003C360CCE793F82B
:100C00000122D2B2511CC9B283F801129A5CD2B24D
:100C1000626093F80122D2B283F80122BCE700BFE0
:100C20000044004000140140001001400D0000206D
:100C30000020FFF7A3BF0120FFF7A0BF0220FFF7AE
:100C40009DBF0000024A136823F001031360704740
:100C500010E000E008B5064B1B6803B19847054B50
:100C60001B78012B03D1BDE80840FFF7EBBF08BD9F
:100C70001C060020190600200A4B1A6842F4802244
:100C80001A601A6842F480321A601A689203FCD51E
:100C90009A6822F002029A609A6842F001029A6011
:100CA000704700BF00380240032800F2B380DFE83D
:100CB00000F002464E9E714B162911D8DFE801F074
:100CC0000C171B1F23272B2F101010103310101080
:100CD0001010101010373B001A6B42F001021A631B
:100CE000186B012202FA01F10143196370471A6B74
:100CF00042F00202F3E71A6B42F00402EFE71A6BCC
:100D000042F00802EBE71A6B42F01002E7E71A6BB9
:100D100042F02002E3E71A6B42F04002DFE71A6B71
:100D200042F08002DBE71A6B42F48052D7E71A6B7D
:100D300042F40012D3E71A6B42F48002CFE707298E
:100D400068D14E4A536B43F08003536370471C29AC
:100D500060D8DFE801F00F151A1F5F5F5F5F5F5F0C
:100D60005F245F5F292E5F335F5F5F383D425F5FC7
:100D70005F5F4700414A136C43F0010313647047FF
:100D80003E4A136C43F00203F8E73C4A136C43F00D
:100D90000403F3E7394A136C43F00803EEE7374ADC
:100DA000136C43F40063E9E7344A136C43F4804363
:100DB000E4E7324A136C43F40043DFE72F4A136C35
:100DC00043F40033DAE72D4A136C43F40013D5E7FC
:100DD0002A4A136C43F48003D0E7284A136C43F487
:100DE0000003CBE7254A136C43F08053C6E7122972
:100DF00010D8DFE801F00A0F0F0F10150F0F1A0FB0
:100E00000F1F24292E0F33383D001C4A536C43F02A
:100E1000010353647047194A536C43F01003F8E719
:100E2000164A536C43F02003F3E7144A536C43F41F
:100E30008073EEE7114A536C43F40063E9E70F4A0D
:100E4000536C43F48053E4E70C4A536C43F400536F
:100E5000DFE70A4A536C43F48043DAE7074A536CEE
:100E600043F48033D5E7054A536C43F40033D0E7AD
:100E7000024A536C43F48023CBE700BF00380240A2
:100E800038B5002104460320FFF70EFF1C4B1D4818
:100E9000182140F2E732C3E90A12A1784A436421DB
:100EA000B2FBF1F29969C3E90D22C3E90F22DA69B5
:100EB0000140024040F6080041EA000510439D61F0
:100EC000D861207801280CBF47F6780046F6680004
:100ED0000243DA611A6A42F4885242F011021A623D
:100EE0005A6C014342F4004299615A6459691A6884
:100EF00041F0010142F0810259611A6038BD00BF22
:100F0000000001408F8FFFFF642940F2E73328BFC4
:100F10006421013859436423B1FBF3F103280ED84F
:100F2000DFE800F00205080B054B59637047044BDE
:100F300099637047024BD9637047014B196470473E
:100F40000000014043099B0003F1604303F5614346
:100F500000F01F0219680120904008431860704794
:100F600010B580B9A1F10D03022B0BD9164B490026
:100F7000032000FA01F4186802FA01F120EA0400E3
:100F80000143196010BD012804D1CB1E012BF9D9F2
:100F90000E4BECE702380528F4D801A353F820F0F3
:100FA000B90F0008C50F0008BD0F0008850F000825
:100FB000850F0008C10F0008054BD8E7054BD6E7A1
:100FC000054BD4E7054BD2E7000002400004024085
:100FD0000008024000100240001C0240000C0240C9
:100FE00068B9A1F10D03022B26D9144BF2B90120E7
:100FF00000FA01F2586820EA0200586070470128A0
:1010000004D1CB1E012B17D90D4BEFE70238052871
:1010100012D8DFE800F0030905111107094BE5E7D5
:10102000094BE3E7094BE1E7094BDFE7012A01BF81
:101030008A4059680A435A60704700BF0000024066
:10104000000402400008024000100240001C024060
:10105000000C024010B580B9A1F10D03022B0BD991
:10106000164B4900032000FA01F4986802FA01F1D6
:1010700020EA04000143996010BD012804D1CB1E71
:10108000012BF9D90E4BECE702380528F4D801A35F
:1010900053F820F0AD100008B9100008B110000896
:1010A0007910000879100008B5100008054BD8E742
:1010B000054BD6E7054BD4E7054BD2E700000240CD
:1010C000000402400008024000100240001C0240E0
:1010D000000C024010B580B9A1F10D03022B0BD911
:1010E000164B4900032000FA01F4D86802FA01F116
:1010F00020EA04000143D96010BD012804D1CB1EB1
:10110000012BF9D90E4BECE702380528F4D801A3DE
:1011100053F820F02D110008391100083111000892
:10112000F9100008F910000835110008054BD8E740
:10113000054BD6E7054BD4E7054BD2E7000002404C
:10114000000402400008024000100240001C02405F
:10115000000C024010B570B9A1F10D03022B09D9A2
:10116000154B5869012404FA01F1A2420CBF08434F
:101170008843586110BD012804D1CB1E012BF9D939
:101180000E4BEEE702380528F4D801A353F820F0FF
:10119000A9110008B5110008AD110008751100086B
:1011A00075110008B1110008054BDAE7054BD8E7C7
:1011B000054BD6E7054BD4E700000240000402408F
:1011C0000008024000100240001C0240000C0240D7
:1011D00010B5A0B9A1F10D03022B0FD9214B07299E
:1011E0002ED889000F2000FA01F4186A02F00F02CD
:1011F00020EA040002FA01F10143196210BD01283E
:1012000004D1CB1E012BF9D9174BE8E7023805288A
:10121000F4D801A353F820F0311200083D12000861
:1012200035120008FD110008FD11000839120008F0
:101230000E4BD4E70E4BD2E70E4BD0E70E4BCEE76A
:101240000839C8B20728D9D889000F2000FA01F45C
:10125000586A02F00F0220EA040002FA01F1014389
:101260005962CBE70000024000040240000802403F
:1012700000100240001C0240000C024010B5044661
:10128000827841780078FFF76BFEE2786178207809
:10129000FFF7A6FE227961782078FFF7DBFE6279FE
:1012A00061782078FFF716FFA378022B06D1A27988
:1012B00061782078BDE81040FFF78ABF10BD0000BC
:1012C00008B5054B1B6803B19847044A536943F0BE
:1012D0000103536108BD00BF20060020003C01400F
:1012E00008B5054B5B6803B19847044A536943F05E
:1012F0000203536108BD00BF20060020003C0140EE
:10130000044B1B78834204D9B429034B28BFB42172
:1013100019547047620600206C060020082A134604
:1013200028BF08230F2928BF0F212DE9F047CC182B
:10133000102C3CD9C1F11003DBB22F4E2F4D304F92
:10134000337044F62062B2FBF3F32E4ADFF8D090FC
:1013500013802870397000235FFA83F803F1010AC3
:101360003378434527D8284B00241C70274B1C801A
:10137000274B1C80274B214602201C60FFF794FC62
:10138000254B18221A6009225A60244A43F8044C5B
:10139000136843F0010313604FF080421C20136870
:1013A00043F001031360BDE8F047FFF7CBBD002A0F
:1013B000C3D1BDE8F0873C7828784444E4B20122E8
:1013C0002146FFF7CDFD002221462878FFF708FED1
:1013D000012221462878FFF73DFE00222146287889
:1013E000FFF778FE002221462878FFF7B3FE5A2344
:1013F00009F808305346AFE7620600206306002074
:1014000061060020760600206006002064060020A9
:101410007406002068060020280000400C000040F0
:101420006C060020F8B5094D094E0A4F00242B78B0
:10143000E1B28B4204F1010400D8F8BD337838786A
:1014400019440022C9B2FFF785FEF0E762060020CA
:1014500061060020630600202DE9F843364B1A6828
:10146000D20715D51A68354F354C364D22F001029A
:101470001A603B68344A0A3393423B603E4609D9BE
:10148000FFF7D0FF314A00233B6023802B8013708D
:10149000BDE8F883B4F800802D4FB8F1000F1FD1DC
:1014A000DFF8A8902B4B197899F8003019442A4B93
:1014B00001221878C9B2FFF74DFE284A99F800308A
:1014C000A5F80080D35CB42B28BFB4231A4640F2A1
:1014D000DC535343B422B3FBF2F303F5FA733B80BE
:1014E00022882B880A320A3322803A889BB29A4299
:1014F0002B800AD8174B1978144B1B781944164BBC
:101500000022C9B21878FFF725FE154B22881B88E8
:101510009A42BDD30D49002323802B800B785A1C9F
:10152000104B187892FBF0F300FB13230B70002B89
:10153000AED13360ACE700BF100000406806002069
:1015400074060020640600209F86010060060020CB
:101550007806002061060020630600206C0600204B
:1015600076060020620600202DE9F04F87B0FFF7D5
:1015700083FBFFF73DFAFFF7D2FA474E474FDFF8FC
:101580002081002425464FF06409A2462846FFF733
:101590006DFA94FBF9F0C0B2FFF7D5FA604290FB08
:1015A000F9F04C38C0B2FFF7D2FACDF800A0009B9A
:1015B000B3425FDD04F5617444F6D41305359C42F3
:1015C000EDB2E3D1FFF77EFA00230193019BBB420A
:1015D00054DD002425464FF064092846FFF75CFAE5
:1015E00094FBF9F04C38C0B2FFF7ADFA604290FBC3
:1015F000F9F0C0B2FFF7ABFA00230293029BB342AB
:101600003FDDA4F5617405354445EDB2E5D1FFF742
:1016100059FA00230393039BBB4235DD00252C467A
:101620004FF0640AAB462046FFF757FA2046FFF713
:1016300061FA95FBFAF95FFA89F94846FFF783FAF0
:101640004846FFF784FACDF810B0049BB3421EDD84
:101650000534E4B2692C05F56175E4D1FFF757FA5A
:10166000FFF759FA00230593059BBB4289DC059BD4
:101670000133F8E7009B0133009398E7019B0133A6
:10168000A3E7029B0133B8E7039B0133C2E7049B46
:1016900001330493D9E700BFEF4902001FA10700FF
:1016A0002CB6FFFF70B594B00024214B01941A6C46
:1016B00042F080521A641B6C03F080530193019B2B
:1016C0001C4B02941A6842F440421A601B6803F4EF
:1016D00040430293029B01234FF48002CDE908337B
:1016E0001923CDE90F2304264FF4A8730225CDE971
:1016F000113608A8072313930E95FEF795FE0F23C6
:101700002946CDE9033503A84FF48053CDE90634CB
:101710000594FFF72FF8FFF7E1F84FF47A73B0FB69
:10172000F3F0FEF75FFE3046FEF772FE14B070BDB8
:10173000003802400070004008B5FEF7EDFDFFF7ED
:10174000B1FFBDE80840FFF719B97047000000007D
:101750000102030401020304060708090000000057
:101760000000000001020304060708090008020047
:101770000200010000090200020001000006010051
:0C17800000000000000701000000000055
:0C178C000C000020000000000024F4000D
:040000050800019559
:00000001FF
