:020000040800F2
:100000000000012061020008650200086702000884
:100010007D0200087F020008950200080000000031
:10002000000000000000000000000000AB0200081B
:10003000AD02000800000000AF020008A90E000891
:10004000C5020008C5020008C5020008C502000874
:10005000C5020008C50200086515000885150008DE
:10006000C5020008C5020008C5020008C502000854
:10007000C5020008C5020008C5020008C502000844
:10008000C5020008C5020008C50200080000000003
:10009000000000000000000000000000C502000891
:1000A000C5020008C5020008C5020008C502000814
:1000B000C5020008C5020008C5020008C502000804
:1000C000C5020008C5020008C5020008C5020008F4
:1000D000C5020008F90D0008FF0D0008000000002F
:1000E000C5020008C5020008C502000800000000A3
:1000F000000000000000000000000000C502000831
:1001000000000000C5020008C5020008C502000882
:1001100000000000000000000000000000000000DF
:10012000C5020008C5020008C5020008C502000893
:10013000C5020008000000000000000000000000F0
:10014000000000000000000000000000C5020008E0
:10015000C5020008C5020008C5020008050E000817
:10016000C5020008C50200080000000000000000F1
:10017000000000000000000000000000000000007F
:1001800000000000C50200080000000000000000A0
:10019000C502000807B500F0D1FB274B2748834272
:1001A00026D3274B274900208B422DD301F0C0FDD9
:1001B000254E264C01A9684600F0B8FBA41BA410EC
:1001C0000025AC4229DC224E224CA41BA4100025A1
:1001D000AC4227DCDDE9000101F0D2FB1E4D1F4CD3
:1001E000641B0646A410002C21DC304600F07CFB8A
:1001F000D3E900120C3353F8044C891A9442CED937
:10020000555815600432F9E753F8082B53F8044C9D
:100210009442C9D910600432FAE756F8253098475D
:100220000135CEE756F8253098470135D0E7013C37
:1002300055F824309847D6E7C8020008E0020008C5
:10024000E0020008F0020008F0020008F0020008D6
:10025000F0020008F0020008F0020008F0020008B6
:1002600014480047FEE71EF0040F0CBFEFF30880B0
:10027000EFF309807146104A1047FEE7FEE71EF0D3
:10028000040F0CBFEFF30880EFF3098071460B4AAF
:100290001047FEE71EF0040F0CBFEFF30880EFF3EA
:1002A00009807146064A1047FEE7FEE7FEE7FEE7D3
:1002B00070470000950100087B02000893020008C7
:0602C000A9020008FEE7A0
:1002C800E83B00080000002078000020E83B000818
:1002D8000000001000000010780000200C0800202A
:0802E8000000001000000010EE
:1002F00010B5084B044618684FF47A73B0FBF3F05E
:1003000000F070F8002221464FF0FF3000F036F880
:10031000002010BD0800002008B50B4B1A6842F4FD
:1003200000721A601A6842F480621A601A6842F415
:1003300080721A60032000F00FF80F20FFF7D8FF3B
:1003400001F0FFFC002008BD003C0240014B186892
:10035000704700BFD8060020074AD36823F4E06343
:100360001B041B0C43F0BF63000243F4003300F492
:10037000E0600343D360704700ED00E0174B70B5B9
:10038000DC68C4F30224C4F10705042D04F104035E
:1003900028BF04254FF0FF36062B06FA05F38CBF65
:1003A000033C002421EA0303A34006FA04F422EAF2
:1003B0000404002843EA0403A8BF00F160404FEAA8
:1003C0000313BCBF00F00F00054ADBB2AABF00F563
:1003D0006140135480F8003370BD00BF00ED00E0B1
:1003E00014ED00E00138B0F1807F0AD2064B074AD5
:1003F0005860F02182F823100020072298601A60CC
:1004000070470120704700BF10E000E000ED00E001
:10041000044B1A6804280CBF42F0040222F00402C4
:100420001A60704710E000E00368F7B50446D8078B
:1004300038D4236899076DD423681E0700F1B9806A
:1004400023685D0728D500230193A64BA64D1A6C9F
:1004500042F080521A641B6C03F080530193019B9D
:100460002B6843F480732B60FFF770FF06462B6800
:10047000DA0540F1C0809D4B227A1A70A368002BE8
:1004800000F0C780FFF762FF964D064641F28837BD
:100490002B6F9B0740F1B680A269002A40F0C9800B
:1004A000002015E08F4B9A6802F00C02042A07D056
:1004B0009A6802F00C02082A0CD15B685A0209D52E
:1004C000884B1B689B03B4D56368002BB1D1012016
:1004D00003B0F0BD864B22791A7063686BB1FFF7E9
:1004E00035FF804D06462B689F03A2D4FFF72EFFF1
:1004F000801B6428F7D90320EAE7FFF727FF794D2F
:1005000006462B68980394D5FFF720FF801B6428CC
:10051000F7D9F0E7734B9A6812F00C0F07D09A687E
:1005200002F00C02082A16D15B68590213D46D4BF5
:100530001A68920702D5E268012AC8D11868F82221
:1005400092FAA2F2B2FA82F122698A4020F0F8010E
:100550000A431A6070E7E268664BDAB101221A605A
:10056000FFF7F4FE5F4D06462B689B070CD5296804
:10057000F82393FAA3F3B3FA83F22369934021F0AB
:10058000F80213432B6057E7FFF7E0FE801B0228B9
:10059000EAD9B0E71A60FFF7D9FE524D06462B683C
:1005A0009F077FF549AFFFF7D1FE801B0228F6D9E0
:1005B000A1E76269504B7AB101221A60FFF7C6FECB
:1005C000484D06466B6F98073FF53AAFFFF7BEFE02
:1005D000801B0228F6D98EE71A60FFF7B7FE414D5F
:1005E00006466B6F99077FF52BAFFFF7AFFE801BB9
:1005F0000228F6D97FE7FFF7A9FE801B02287FF6C5
:1006000036AF78E7FFF7A2FE801BB8427FF640AF17
:1006100071E7FFF79BFE334D064641F288372B6F9B
:1006200098077FF539AFFFF791FE801BB842F6D9E6
:1006300061E72C4DAB6803F00C03082B3FF447AF88
:100640002E4E0023022A33603ED1FFF77FFE07467D
:100650002B68990132D447F6C07797FAA7F74FF481
:100660004032B7FA87F792FAA2F24FF07061B2FA0D
:1006700082F091FAA1F1D4E907321343626A02FAD7
:1006800007F7A26A5208013A82403B431343E26AE9
:10069000144CB1FA81F102FA01F10B436B600123B2
:1006A0003360FFF753FE054623689A013FF5F8AE25
:1006B000FFF74CFE401B0228F6D91CE7FFF746FE69
:1006C000C01B0228C4D916E7FFF740FE04462B687A
:1006D0009B017FF5E5AEFFF739FE001B0228F6D936
:1006E00009E700BF00380240007000407038024047
:1006F0000238024000004742800E474260004742F5
:10070000194A936803F00C03042B10B503D0082B8F
:1007100003D0164800E0164810BD5168536801F038
:100720003F0113F4800F47F6C074536894FAA4F0A5
:10073000B0FA80F003EA040323FA00F314BF0C4874
:100740000A48B0FBF1F05843074B4FF440325B6866
:1007500092FAA2F2B2FA82F203F44033D3400133A8
:100760005B00B0FBF3F0D7E7003802400024F40050
:1007700040787D01554B1A6802F00F028A422DE93C
:10078000F04105460E462FD32A68940736D4D00789
:100790003CD44E4B1A6802F00F02B24200F286803F
:1007A0002A68510700F18A80130707D5484A29694A
:1007B000936823F4604343EAC1039360FFF7A0FF0B
:1007C000434BF0229B6892FAA2F2B2FA82F203F053
:1007D000F003D3403F4AD35CD8403F4B18600F2012
:1007E000FFF786FD002007E0CAB21A701B6803F00D
:1007F0000F038B42C8D00120BDE8F0813449A868BE
:100800008B6823F0F00303438B60C0E76A68304BCA
:10081000012A1DD11B6813F4003FECD02C4CA368B7
:1008200023F003031343A360FFF790FD6B68012BD4
:10083000074641F2883815D1A36803F00C03042B56
:10084000A7D0FFF783FDC01B4045F5D90320D3E7B0
:10085000911E01291B6802D813F0007FDDE713F019
:10086000020FDAE7022B0AD1A36803F00C03082B6E
:100870008FD0FFF76BFDC01B4045F5D9E6E7032B92
:100880000FD1A36803F00C030C2B82D0FFF75EFDA1
:10089000C01B4045F5D9D9E7FFF758FDC01B4045BF
:1008A000D4D8A36813F00C0FF6D172E7F2B21A7025
:1008B0001B6803F00F03B3429DD171E70449E86858
:1008C0008B6823F4E05303438B606DE7003C0240E8
:1008D000003802406826000808000020014B186814
:1008E000704700BF0800002008B500F033F8000092
:1008F0000B4A116808B5034609B90A491160106826
:100900000949033323F0030303448B4206D901F062
:1009100019FA0C2303604FF0FF3008BD1360FCE7A9
:10092000780000200C08002000FC00200123036058
:10093000014B0B60704700BF0000002008B500F0BD
:100940001BF8024B024A9A6008BD00BF00ED00E0B0
:1009500000000008BFF34F8F0549064BCA6802F438
:10096000E0621343CB60BFF34F8F00BFFDE700BFD2
:1009700000ED00E00400FA050C4B1A68002142F07B
:1009800001021A6099601A6822F0847222F480329F
:100990001A60074A5A601A6822F480221A60D960E5
:1009A000044B4FF000629A60704700BF003802406D
:1009B0001030002400ED00E0174A1849936803F056
:1009C0000C03042B10B50DD0082B0DD0144B0B606D
:1009D000114B144A9B68C3F30313D25C0B68D340DA
:1009E0000B6010BD104BF2E7546850685268630208
:1009F000C2F3881200F03F004CBF0B4B084BB3FB17
:100A0000F0F35343044A5268C2F3014201325200E8
:100A1000B3FBF2F3DBE700BF003802400800002020
:100A20000024F4007826000840787D01012806D0D3
:100A300002D3022805D07047252000F0ABBB26204A
:100A4000FBE74720F9E7012806D002D3022805D0AA
:100A50007047252000F0ACBB2620FBE74720F9E7D4
:100A600030B1012806D00228034818BF0020704783
:100A700002487047024870470014014000100140CE
:100A80000044004008B5FFF7EBFF38B1C26801230E
:100A900003FA01F11143C160002008BD0220FCE708
:100AA00030B500FB01F5B2FBF5F41C6005FB142426
:100AB00001FB04F00829B0FBF5F0C0B208BF00F05C
:100AC0000700187130BD0000F7B50546002800F09A
:100AD000CC80C37A0BB90223C3722B7B0BB90223E0
:100AE0002B736B7B0BB903236B73AB7A0BB90123AD
:100AF000AB722B7A0BB901232B726B7A0BB90223E1
:100B00006B726B781846FFF7ABFF0446002800F0C5
:100B1000AE8018462F78FFF789FF00F0D7F9E36819
:100B200043F40053E3602B7A012B09D0022B0CD045
:100B30006B7A013B032B12D8DFE803F0370B272F2A
:100B4000E36823F48053E360F2E7E36843F48053FF
:100B5000F9E7236923F44053236123692361AB7AC6
:100B6000022B2AD0032B30D0012B03D1E36823F4CE
:100B70008063E360EB7A012B2FD0022B03D1E36873
:100B800023F40043E36010262CE0236923F4405350
:100B90002361236943F44053E0E7236923F440537E
:100BA0002361236943F40053D8E7236923F44053B6
:100BB0002361236943F48053D0E7E36843F48063FF
:100BC000E360E36823F40073D3E7E36843F48063EE
:100BD000E360E36843F40073CBE7E36843F4004366
:100BE000E36008262B7B012B26D0022B29D06B7BC0
:100BF000022B2AD0032B30D0012B07D1E36843F01E
:100C00000803E360E36823F00403E36005216878E8
:100C1000FFF738FF174A68686B467A433146FFF79B
:100C20003FFF9DF80430009A03F00F0343EA0213DC
:100C3000A360002003B0F0BD636943F40063636107
:100C4000D5E7636923F40063F9E7E36843F004033D
:100C5000E360E36823F00803D7E7E36843F00803A1
:100C6000E360E36843F00403CFE70120E2E70220FA
:100C7000E0E700BF40420F00022870B5064621D8C9
:100C8000124B4FF4017404FB003494F8032294F8DF
:100C900002329A4218D0FFF7D6FE94F80332DBB244
:100CA0005A1CD2B2234484F8032293F8005194F8DA
:100CB0000332DBB284F803323046EDB2FFF7B6FE02
:100CC000284670BD0225FBE70025F9E77D000020DE
:100CD0000228F8B507460C461ED8D9B1104B4FF480
:100CE000017505FB003595F8006295F80132013673
:100CF000F6B29E4212D0FFF7A6FE95F80032DBB2A4
:100D00000721EC54384685F80062FFF7BBFE3846F1
:100D1000FFF78CFE0020F8BD0220FCE70520FAE773
:100D20007D00002038B505464C1E14F8011F09B996
:100D3000084606E02846FFF7CBFF0028F5D0052837
:100D4000F3D038BD012838B5014604D00CD30228B1
:100D500008D0022005E0244C0846FFF781FE28B9A0
:100D6000002038BD214CF7E7214CF5E703689A06CF
:100D700016D5204B65684FF4017202FB0132EDB2CB
:100D800092F80232134483F8005192F80232013390
:100D9000DBB282F8023292F80232DBB282F802321F
:100DA00003681B06DCD5134A4FF4017303FB0123D0
:100DB00093F8001293F80122914204D1C36823F002
:100DC0008003C360CCE793F80122D2B2511CC9B2B0
:100DD00083F801129A5CD2B2626093F80122D2B217
:100DE00083F80122BCE700BF00440040001401402A
:100DF000001001407D0000200020FFF7A3BF01206C
:100E0000FFF7A0BF0220FFF79DBF00000E4B1A683E
:100E100022F001021A600278012A1A680CBF42F01F
:100E2000020222F002021A604278012A04D11A68F2
:100E300042F004021A607047022A01BF024A136896
:100E400023F004031360704710E000E0044B00221D
:100E500058609A601A6842F001021A60704700BF39
:100E600010E000E0024A136823F0010313607047AA
:100E700010E000E008B540F635435843084B002227
:100E80009A60084A411E9142194608D8FFF7DEFFD2
:100E90000B68DB03FCD5BDE80840FFF7E3BF08BDE6
:100EA00010E000E0FDFFFF0008B5064B1B6803B132
:100EB0009847054B1B78012B03D1BDE80840FFF78D
:100EC000D1BF08BD8C06002089060020704703684A
:100ED00043F400730360036843F4807303600368A2
:100EE00023F400630360036823F080030360036856
:100EF00023F038030360036843F0280303600368AA
:100F000043F004030360036823F0020303600368F3
:100F100023F001030360036843F04003036070475C
:100F20000C4B826892070DD413F1FF33F9D2094BB1
:100F3000C1608268D20709D413F1FF33F9D2C068C7
:100F4000C0B27047002BF2D1FF207047002BF6D1C2
:100F5000FAE700BFA086010070B506460C468D1862
:100F6000AC4200D170BD14F8011B3046FFF7D8FF2A
:100F7000F6E700000A4B1A6842F480221A601A68E9
:100F800042F480321A601A689203FCD59A6822F003
:100F900002029A609A6842F001029A60704700BFAC
:100FA00000380240032800F2B380DFE800F0024678
:100FB0004E9E714B162911D8DFE801F00C171B1F4C
:100FC00023272B2F1010101033101010101010109A
:100FD00010373B001A6B42F001021A63186B0122B2
:100FE00002FA01F10143196370471A6B42F00202E1
:100FF000F3E71A6B42F00402EFE71A6B42F00802C3
:10100000EBE71A6B42F01002E7E71A6B42F020029E
:10101000E3E71A6B42F04002DFE71A6B42F080020E
:10102000DBE71A6B42F48052D7E71A6B42F40012E6
:10103000D3E71A6B42F48002CFE7072968D14E4A02
:10104000536B43F08003536370471C2960D8DFE87B
:1010500001F00F151A1F5F5F5F5F5F5F5F245F5FC7
:10106000292E5F335F5F5F383D425F5F5F5F470000
:10107000414A136C43F00103136470473E4A136CFA
:1010800043F00203F8E73C4A136C43F00403F3E730
:10109000394A136C43F00803EEE7374A136C43F404
:1010A0000063E9E7344A136C43F48043E4E7324ACF
:1010B000136C43F40043DFE72F4A136C43F400330F
:1010C000DAE72D4A136C43F40013D5E72A4A136C70
:1010D00043F48003D0E7284A136C43F40003CBE7C2
:1010E000254A136C43F08053C6E7122910D8DFE875
:1010F00001F00A0F0F0F10150F0F1A0F0F1F2429E1
:101100002E0F33383D001C4A536C43F001035364E7
:101110007047194A536C43F01003F8E7164A536CB2
:1011200043F02003F3E7144A536C43F48073EEE773
:10113000114A536C43F40063E9E70F4A536C43F4DC
:101140008053E4E70C4A536C43F40053DFE70A4A48
:10115000536C43F48043DAE7074A536C43F480331B
:10116000D5E7054A536C43F40033D0E7024A536C89
:1011700043F48023CBE700BF00380240044B9A6859
:1011800022F0F0029A609A6842EA00109860704774
:101190000038024043099B0003F1604303F56143BB
:1011A00000F01F0219680120904008431860704742
:1011B00043099B0003F1604303F5614300F01F0006
:1011C000D3F88020012101FA00F022EA0000C3F8E0
:1011D0008000704710B580B9A1F10D03022B0BD927
:1011E000164B4900032000FA01F4186802FA01F1D5
:1011F00020EA04000143196010BD012804D1CB1E70
:10120000012BF9D90E4BECE702380528F4D801A3DD
:1012100053F820F02D12000839120008311200088E
:10122000F9110008F911000835120008054BD8E73C
:10123000054BD6E7054BD4E7054BD2E7000002404B
:10124000000402400008024000100240001C02405E
:10125000000C024068B9A1F10D03022B26D9144BF2
:10126000F2B9012000FA01F2586820EA0200586041
:101270007047012804D1CB1E012B17D90D4BEFE786
:101280000238052812D8DFE800F00309051111071C
:10129000094BE5E7094BE3E7094BE1E7094BDFE7DA
:1012A000012A01BF8A4059680A435A60704700BF4B
:1012B000000002400004024000080240001002400A
:1012C000001C0240000C024010B580B9A1F10D03D2
:1012D000022B0BD9164B4900032000FA01F4986841
:1012E00002FA01F120EA04000143996010BD0128CF
:1012F00004D1CB1E012BF9D90E4BECE7023805289F
:10130000F4D801A353F820F0211300082D1300088E
:1013100025130008ED120008ED120008291300083B
:10132000054BD8E7054BD6E7054BD4E7054BD2E78D
:101330000000024000040240000802400010024089
:10134000001C0240000C024010B580B9A1F10D0351
:10135000022B0BD9164B4900032000FA01F4D86880
:1013600002FA01F120EA04000143D96010BD01280E
:1013700004D1CB1E012BF9D90E4BECE7023805281E
:10138000F4D801A353F820F0A1130008AD1300080E
:10139000A51300086D1300086D130008A9130008B9
:1013A000054BD8E7054BD6E7054BD4E7054BD2E70D
:1013B0000000024000040240000802400010024009
:1013C000001C0240000C024010B570B9A1F10D03E1
:1013D000022B09D9154B5869012404FA01F1A242E4
:1013E0000CBF08438843586110BD012804D1CB1EAF
:1013F000012BF9D90E4BEEE702380528F4D801A3EA
:1014000053F820F01D1400082914000821140008C6
:10141000E9130008E913000825140008054BDAE772
:10142000054BD8E7054BD6E7054BD4E70000024053
:10143000000402400008024000100240001C02406C
:10144000000C0240012807D002D302280AD07047BE
:10145000054B5A69012001E0044B5A69884050400D
:1014600058617047024BF4E700000240000402405C
:101470000008024010B5A0B9A1F10D03022B0FD94D
:10148000214B07292ED889000F2000FA01F4186A91
:1014900002F00F0220EA040002FA01F1014319628E
:1014A00010BD012804D1CB1E012BF9D9174BE8E759
:1014B00002380528F4D801A353F820F0D514000809
:1014C000E1140008D9140008A1140008A1140008B0
:1014D000DD1400080E4BD4E70E4BD2E70E4BD0E7DD
:1014E0000E4BCEE70839C8B20728D9D889000F209B
:1014F00000FA01F4586A02F00F0220EA040002FA2E
:1015000001F101435962CBE70000024000040240B0
:101510000008024000100240001C0240000C024083
:1015200010B50446827841780078FFF753FEE278E0
:1015300061782078FFF78EFE227961782078FFF7B6
:10154000C3FE627961782078FFF7FEFEA378022B54
:1015500006D1A27961782078BDE81040FFF78ABFF4
:1015600010BD000008B5054B1B6803B19847044A3D
:10157000536943F00103536108BD00BF900600208A
:10158000003C014008B5054B5B6803B19847044A2D
:10159000536943F00203536108BD00BF9006002069
:1015A000003C014013B54FF4833302246846009396
:1015B000ADF80440FFF7B4FF092368468DF8013009
:1015C000FFF7AEFF40F201636846ADF80030FFF769
:1015D000A7FF4FF4A0636846ADF800308DF80240D5
:1015E000FFF79EFF052211460020FFF743FF072467
:1015F00068468DF80140FFF793FF05222146002041
:10160000FFF738FF02B010BD08B5002210460621D2
:10161000FFF7DAFE6420FFF72DFC002001220621EF
:10162000FFF7D2FEC820BDE80840FFF723BC00004A
:1016300013B502AC002204F8010D09211046FFF792
:10164000C3FE002206210120FFF7BEFE2146012233
:101650000448FFF781FC012206211046FFF7B4FE83
:1016600002B010BD0030014013B502AC012204F8F5
:10167000010D09210020FFF7A7FE0022062101200D
:10168000FFF7A2FE214601220448FFF765FC012274
:1016900006211046FFF798FE02B010BD0030014051
:1016A000F8B507462A200D4616461C46FFF7C0FF30
:1016B000380AFFF7D9FFF8B2FFF7D6FF300AFFF775
:1016C000D3FFF0B2FFF7D0FF2B20FFF7B1FF280ABE
:1016D000FFF7CAFFE8B2FFF7C7FF200AFFF7C4FF12
:1016E000E0B2FFF7C1FF2C20BDE8F840FFF7A0BF34
:1016F00010B50446000AFFF7B7FFE0B2BDE810409E
:10170000FFF7B2BF70B500217F23A0B004469F222F
:101710000846FFF7C5FF00232DF813400133402B87
:10172000FAD14FF4A044402C26464FF0000528BFC4
:1017300040263DF815000135FFF7DAFFAE42F8D13B
:10174000A41BF0D120B070BD10B504463620FFF7C1
:101750006FFF032C0ED8DFE804F00207090BC0204E
:10176000BDE81040FFF780BFA020F9E70020F7E7B1
:101770006020F5E710BD08B5FFF714FFFFF744FF41
:101780000120FFF755FF9620FFF774FB1120FFF7AC
:101790004FFF9620FFF76EFB3A20FFF749FF5520D9
:1017A000FFF762FF3620FFF743FFC820FFF75CFF1B
:1017B0002920FFF73DFF3220FFF75CFB0020BDE84A
:1017C0000840FFF79FBF10B50B4614460246FFF7CF
:1017D00067FF2046BDE81040FFF78ABF2DE9F04FB4
:1017E00085B0203A0193BDF838300293D3B25E2B16
:1017F000824688460DD89DF83D709DF83C907A430E
:1018000054000D4609F1FF3BA5EB0803DBB29F42F4
:1018100002D805B0BDE8F08F109B1B5B0026F2B22A
:10182000914503D801350234ADB2EDE7ABEB0602CA
:1018300043FA02F212F0010F0393DDE901320AEBE1
:10184000060018BF1A46294680B2FFF7BCFF0136D2
:10185000039BE4E72DE9FF470CAC054634F804ABE5
:1018600088469946561E01AF16F9012F12B904B0E9
:10187000BDE8F08794E803004B4687E8030028465C
:10188000CDF800A04146FFF7A9FF9DF834301D4474
:10189000ADB2E9E72DE9F043124E8046894602EBEE
:1018A000820296E8030085B002EB820202F10A048C
:1018B000002701AD85E803003B46214600970A4A10
:1018C0000A20FFF7C7FF96E803004B4685E80300B0
:1018D0004246009721460A20FFF7BCFF05B0BDE84D
:1018E000F08300BF0C000020F63900082DE9F84F06
:1018F00015460F460A46002104460A2600F028FA3B
:101900006E43DFF874A0DFF874B00025A946AE423C
:1019100004D119F1000018BF012016E00020FFF7E4
:10192000ABF9421ED2B2FD2A1ED87A1E4A451BD9F7
:1019300009F10108002304F809000E4904F80830F1
:10194000204600F041FA10B10120BDE8F88F514661
:10195000204600F039FA0028F6D15946204600F01A
:1019600033FA0028F0D1C1460120FFF783FA013590
:10197000CDE700BF503B0008833A00080F3A00084B
:101980002DE9F0419AB0FFF7F5FA0020FFF7F6FBDA
:1019900000210846FFF706FB01210020FFF702FBAC
:1019A000A14E04210320FFF7FDFA0C210320FFF7CD
:1019B000F9FA3068716801AB03C301A8FFF7B0FD05
:1019C000324603AB52F8080F516803C303A8FFF770
:1019D000A7FD0025012740F202234FF0030805A8C8
:1019E000CDE90555ADF818308DF815808DF81670D5
:1019F000FFF796FD06F110030FCB07AC84E80F004C
:101A00002046FFF761F8338CADF800306846FFF7E9
:101A1000FDF9FFF7C7FD8548FFF759FAFFF7ABFE61
:101A20003846FFF791FE2846FFF76CFE2A464FF630
:101A3000FF717F48FFF72EFF3A464FF6FF717D4852
:101A4000FFF728FF4FF4FA60FFF714FA42464FF60B
:101A5000E0717948FFF71EFF78492846FFF762F9E1
:101A60004FF47A70FFF706FA40F6B8324FF49671E9
:101A70007348FFF73BFF0546002800F0918071494D
:101A80006F4800F0A1F90422002879D06E484FF485
:101A9000FC61FFF7FFFE40F6B830FFF7EBF90822D4
:101AA0004FF6E0716948FFF7F5FE69490020FFF73E
:101AB00039F940F6B8324FF496716148FFF716FFD6
:101AC0000922002800F09D8062484FF4FC61FFF776
:101AD000E1FE4FF4FA60FFF7CDF90A224FF6E0710C
:101AE0005D48FFF7D7FE5D490020FFF71BF940F680
:101AF000B8324FF496715248FFF7F8FE0B220028D7
:101B000000F0838056484FF4FC61FFF7C3FE554E4A
:101B10004A4F4B4D00240134234632461E2112A861
:101B200000F01EF90D224FF6FF7112A8FFF7B2FE6A
:101B300039460020FFF7F6F84FF4FA624FF4967139
:101B40002846FFF7D3FE0E22002862D04FF4FC6136
:101B50004548FFF79FFE03210020FFF773FC434A2F
:101B600019212B460BA800F0FBF80F2240F2FF7161
:101B70000BA8FFF78FFE41F28830FFF77BF9CAE729
:101B80004FF6E0713A48FFF785FE3A4A2C4B19218F
:101B900012A800F0E5F8052240F2FF7112A878E7DC
:101BA00004224FF478413448FFF774FE05224FF6C3
:101BB000FF713248FFF76EFE06224FF6E0713048A3
:101BC000FFF768FE4FF4165320460893FEF77CFF9C
:101BD0004FF4FA70FFF74EF918492846FFF7A2F8BC
:101BE00040F6B8324FF496711548FFF77FFE072292
:101BF00018B14FF4FC6123484BE74FF47841224879
:101C000047E74FF47841214861E74FF47841204895
:101C10007BE74FF478411F48FFF73CFE0F224FF659
:101C2000FF711D48A5E700BFD4390008003001400E
:101C3000153A00082A3A00083F3A0008503A0008CE
:101C4000E0060020833A0008553A0008F03A000800
:101C5000043B00080D3B0008333B0008463B0008EE
:101C6000533B0008733B0008833B00088C3A000894
:101C70006E3A0008863A0008923A0008A33A000833
:101C8000B63A0008CA3A0008DB3A0008233B0008CD
:101C9000613B0008923B0008A23B000870B594B07D
:101CA0000024214B01941A6C42F080521A641B6C80
:101CB00003F080530193019B1C4B02941A6842F479
:101CC00040421A601B6803F440430293029B0123C5
:101CD0004FF48002CDE908331923CDE90F23042600
:101CE0004FF4A8730225CDE9113608A807231393F2
:101CF0000E95FEF799FB0F232946CDE9033503A87E
:101D00004FF48053CDE906340594FEF733FDFEF71A
:101D1000E5FD4FF47A73B0FBF3F0FEF763FB30465A
:101D2000FEF776FB14B070BD003802400070004032
:101D300008B5FEF7F1FAFFF7B1FFBDE80840FEF77E
:101D40003BBE7047014B1868704700BF140000206D
:101D500002440346934200D1704703F8011BF9E7A0
:101D60000CB430B5174B0C1E9DB01D6808DA8B23E0
:101D70002B604FF0FF301DB0BDE8304002B070471F
:101D80004FF40273ADF8143014BF04F1FF3323464F
:101D9000049307934FF6FF7302900690ADF8163048
:101DA000209A21AB02A92846019300F081F8431C38
:101DB000BCBF8B232B60002CDDD0029B00221A704D
:101DC000D9E700BF14000020F0B503787BB10446CA
:101DD00023782046661C7BB14A1E631E12F8015F01
:101DE0004DB113F8017FAF423446F7D0F0E70B78DE
:101DF000002B18BF0020F0BD1846FCE72DE9F04786
:101E00008E689E4282460C469046994637D88A890B
:101E100012F4906F31D0256809696F1A6569022341
:101E200005EB450595FBF3F509F101033B449D42A4
:101E300038BF1D46530530D5294600F07BFB0646CA
:101E400050B90C23CAF80030A38943F04003A381A2
:101E50004FF0FF30BDE8F0873A46216900F0F8FA0C
:101E6000A38923F4906343F08003A3812661656115
:101E70003E44ED1B2660A5604E464E4500D94E46B9
:101E800032464146206800F0EEFAA3689B1BA3602F
:101E900023681E4426600020DCE72A4600F0A4FBED
:101EA00006460028E2D12169504600F0F5FAC8E75D
:101EB0002DE9F04F9DB0804603938B891D060C469B
:101EC00016460FD50B696BB9402100F033FB20603B
:101ED000206128B90C23C8F800304FF0FF30C7E06C
:101EE000402363610023099320238DF82930302398
:101EF0008DF82A304FF0010B37463D4615F8013B6F
:101F00000BB1252B3ED1B7EB060A0BD05346324618
:101F100021464046FFF772FF013000F0A480099B84
:101F2000534409933B78002B00F09D8000234FF031
:101F3000FF32CDE90523049307938DF853301A93AC
:101F40002F46052217F8011B4F4800F031FA049B79
:101F5000D0B9D90644BF20228DF853201A0744BFB8
:101F60002B228DF853202A782A2A15D0079A2F463B
:101F700000200A25394611F8013B303B092B4DD989
:101F8000B8B10FE02F46B8E73F4A801A0BFA00F0CD
:101F9000184304903D46D3E7039A111D126803913C
:101FA000002A01DB079204E0524243F00203079249
:101FB00004933B782E2B0CD17B782A2B33D1039BB7
:101FC0001A1D1B680392002BB8BF4FF0FF33023776
:101FD00005932E4D39780322284600F0E9F938B1EF
:101FE0004023401B03FA00F0049B03430137049392
:101FF000397827488DF8281006227E1C00F0D8F981
:10200000002838D0234B13BB039B073323F007036F
:1020100008330393099B4B4409936DE705FB023298
:1020200001200F46A6E700230137059319460A252C
:10203000384610F8012B303A092A03D9002BC8D0B2
:102040000591C6E705FB012101230746F0E703AB35
:1020500000932246104B04A94046AFF30080B0F134
:10206000FF3F8146D6D1A3895B063FF536AF09987D
:102070001DB0BDE8F08F03AB00932246064B04A9C8
:10208000404600F081F8EAE7B53B0008BB3B00089A
:10209000BF3B000800000000FD1D00082DE9F047CF
:1020A00091461F468A680B69DDF820809342B8BFCD
:1020B0001346C9F8003091F8432006460C4612B189
:1020C0000133C9F800302368990642BFD9F80030BF
:1020D0000233C9F80030256815F0060507D104F170
:1020E000190AE368D9F800209B1AAB4228DC94F85F
:1020F00043302268003318BF012392062DD404F127
:10210000430239463046C047013020D02368E56895
:10211000D9F8002003F00603042B08BFAD1AA3680A
:1021200022690CBF25EAE57500259342C4BF9B1ABE
:10213000ED184FF000091A344D451AD1002008E07F
:102140000123524639463046C047013003D14FF093
:10215000FF30BDE8F0870135C3E7E1185A1C302095
:1021600081F84300224494F8451082F8431002336A
:10217000C5E70123224639463046C0470130E6D044
:1021800009F10109D8E700002DE9F04301F1430C02
:102190000C46097E85B06E291746064698460C9A6D
:1021A00000F0B38022D8632936D00AD8002900F085
:1021B000B980582900F0838004F1420584F8421068
:1021C00032E0642901D06929F6D120681368050638
:1021D00003F104012AD51B681160002B03DA2D22BC
:1021E0005B4284F843206F480A2239E0732900F0EB
:1021F0009D8008D86F2920D07029DDD1236843F055
:102200002003236003E0752917D07829D4D17823DF
:1022100084F84530644855E01368191D1B68116047
:1022200004F1420584F8423001238CE01B68116000
:1022300010F0400F18BF1BB2CFE713682568181DB8
:102240001060280601D51B6802E06806FBD51B88D4
:1022500054486F2914BF0A220822002184F8431031
:102260006568A560002DC0F29580216821F0040109
:102270002160002B3DD1002D40F08E806546082A5C
:102280000BD12368DB0708D5236962689A42DEBF59
:10229000302305F8013C05F1FF35ACEB0503236164
:1022A000CDF800803B4603AA21463046FFF7F6FEF4
:1022B00001304DD14FF0FF3005B0BDE8F083394813
:1022C00084F84510136821681D1D1B6815600A06F7
:1022D0000BD5CA0744BF41F0200121601BB9226819
:1022E00022F0200222601022B7E74D0648BF9BB2C1
:1022F000EFE76546B3FBF2F102FB1133C35C05F86F
:10230000013D0B460029F5D1B9E7136825686169DD
:10231000181D106028061B6801D5196002E06A06C6
:10232000FBD51980002323616546B9E71368191DA1
:1023300011601D6862680021284600F039F808B174
:10234000401B606063682361002384F84330A7E783
:1023500023692A4639463046C0470130AAD023684F
:102360009B0713D4E068039B9842B8BF1846A3E7C5
:1023700001234A4639463046C04701309AD00135DC
:10238000E368039A9B1AAB42F2DCEBE7002504F109
:102390001909F5E7002BACD1037884F8423004F139
:1023A00042056CE7C63B0008D73B00080000000070
:1023B00001F0FF01102A2BDB10F0070F08D010F8F6
:1023C000013B013A8B422DD010F0070F42B3F6D1FA
:1023D000F0B441EA012141EA014122F007047FF013
:1023E00000070023F0E80256083C85EA010586EA6A
:1023F000010685FA47F5A3FA87F586FA47F6A5FAA6
:1024000087F68EB9EED1F0BC01F0FF0102F00702B1
:1024100032B110F8013B013A83EA010313B1F8D15C
:102420000020704701387047002D06BF354603383D
:10243000073815F0010F07D1013015F4807F02BF76
:10244000013015F4C03F0130F0BC0138704700BFC7
:1024500010B5431E0A44914200D110BD11F8014B42
:1024600003F8014FF7E7884210B501EB020307D8E4
:10247000421E99420AD011F8014B02F8014FF8E7C9
:102480008342F5D98118D21AD34200D110BD13F876
:10249000014D01F8014DF7E738B50546002945D053
:1024A00051F8043C0C1F002BB8BFE41800F0D2F820
:1024B0001F4A1368104633B9636014602846BDE8AC
:1024C000384000F0C8B8A3420CD921686218934282
:1024D00004BF1A685B68636004BF5218226004601E
:1024E000ECE713465A680AB1A242FAD9196858189B
:1024F000A0420BD120680144581882421960DDD1F6
:10250000106852685A6001441960D7E702D90C2359
:102510002B60D3E7206821188A4204BF11685268F3
:10252000626004BF091821605C60C7E738BD00BF66
:10253000D006002070B5CD1C25F0030508350C2D04
:1025400038BF0C25002D064601DBA94203D90C2318
:102550003360002070BD00F07DF8214A14682146E8
:1025600091B9204C23681BB9304600F063F8206015
:102570002946304600F05EF8431C24D10C2333601A
:10258000304600F068F8E4E70B685B1B18D40B2BAF
:102590000FD90B60CD50CC18304600F05CF804F138
:1025A0000B00231D20F00700C31AD3D05A42E2507B
:1025B000D0E78C424B6816BF636013600C46EBE7B4
:1025C0000C464968CCE7C41C24F00304A04205D0A3
:1025D000211A304600F02EF80130CFD02560DBE71D
:1025E000D0060020D4060020F8B5074614460E4653
:1025F00021B91146BDE8F840FFF79CBF22B9FFF7AB
:102600004BFF25462846F8BD00F026F8A0420FD221
:1026100021463846FFF78EFF05460028F2D03146A6
:102620002246FFF715FF31463846FFF735FFE9E749
:102630003546E7E738B5064C0023054608462360D3
:10264000FEF756F9431C02D1236803B12B6038BD55
:10265000DC0600207047704751F8043C181F002B1F
:10266000BCBF0B58C01870470000000001020304F3
:102670000102030406070809000000000000000032
:102680000102030406070809000000000000000022
:10269000000000000000000000000000000000003A
:1026A000000000000000000000000000000000002A
:1026B000000000000000000000000000E003E00354
:1026C000E003E003E003E003E003E003C003C00332
:1026D000C001C001C001C001C00100000000000035
:1026E000E003E003E0030000000000000000000041
:1026F0003C1E3C1E3C1E3C1E3C1E3C1E3C1E000064
:1027000000000000000000000000000000000000C9
:1027100000000000000000000000000000000000B9
:1027200000000000CE01CE03DE039E039C039C0745
:10273000FF3FFF7F3807380F780F780F780EFFFFC5
:10274000FFFFF01EF01CE01CE03CE03DE039000023
:102750000000000000000000FC03FE0FEE1FE01E62
:10276000E01EE01EE01EE01FE00FE007F003FC01AA
:10277000FE01FE01FE01FE01FE01FE01FE3DFC3FE9
:10278000F00FE001E001000000000000033E07F749
:102790008FE78EE79EE3BCE3B8E7F8E7F0F7E03FAA
:1027A000C001FF03FF07F307F30FF31EF33CF338F9
:1027B000F3787FF03FE00000000000000000000020
:1027C000E007F80F780F781F781F781F780FF00F49
:1027D000E00F801FC37FC3FBE7F3F7F1F7F0FFF0D3
:1027E0007FF03EF87F7CFF3FEF1F000000000000FD
:1027F00000000000E003E003E003E003E003C003A7
:10280000C001000000000000000000000000000007
:1028100000000000000000000000000000000000B8
:1028200000000000000000003F007C00F001E0011B
:10283000C003C00780078007800F000F000F000F44
:10284000000F000F000F800F80078007C007C00334
:10285000E001F0017C003F000F000000007E001F3F
:10286000C007C003E001F001F000F000F8007800BC
:1028700078007800780078007800F800F000F00028
:10288000F001E001C003C007001F007E00780000D7
:10289000E003C003C001CE39FF3F7F3F2003700338
:1028A000F807780F3C1F3806000000000000000009
:1028B0000000000000000000000000000000000018
:1028C0000000000000000000000000000000000008
:1028D000C001C001C001C001C001C001C001FFFFB3
:1028E000FFFFC001C001C001C001C001C001000064
:1028F00000000000000000000000000000000000D8
:1029000000000000000000000000000000000000C7
:1029100000000000000000000000E003E003E0030E
:10292000E003E001E001E001C001800300000000DD
:102930000000000000000000000000000000000097
:102940000000FE3FFE3F000000000000000000000D
:102950000000000000000000000000000000000077
:102960000000000000000000000000000000000067
:102970000000000000000000000000000000000057
:102980000000E003E003E003E003000000000000BB
:10299000000000000F000F001E001E003C003C0065
:1029A00078007800F000F000E001E001C003C0030F
:1029B00080078007000F000F001E001E003C003C37
:1029C0000078007800F00000F007F80F7C1F3E3E12
:1029D0001E3C1F7C1F7C0F780F780F780F780F78C4
:1029E0000F780F781F7C1F7C1E3C3E3E7C1FF80F2B
:1029F000F00700000000000000000000F000F007F9
:102A0000F03FF03FF001F001F001F001F001F001C2
:102A1000F001F001F001F001F001F001F001F0012E
:102A2000F001FF3FFF3F0000000000000000000039
:102A3000E00FF83F7C3C3C003E003E003E003C0086
:102A40003C007C00F800F001E003C0078007000FA5
:102A5000001E003E003CFE3FFE3F00000000000064
:102A600000000000F00FF81F7C1C3E003E003E00FE
:102A70003C003C00F800F00FF80F7C003E001E0008
:102A80001E001E001E003E007C1CF81FE01F000000
:102A900000000000000000007800F800F800F801D5
:102AA000F803F807F807780F781E781E783C7878D6
:102AB0007878FFFFFFFF78007800780078007800D2
:102AC000780000000000000000000000FC1FFC1F58
:102AD000FC1F001E001E001E001E001EE01FF81F2F
:102AE000FC007C003E003E001E003E003E003C001C
:102AF0007C1CF81FE01F0000000000000000000028
:102B0000FC01FE078E0F001F001E003E003C003C33
:102B1000F83DFC3F3E7F1F7E0F3C0F3C0F3C0F3CBF
:102B20000F3E1F1E3E1FFC0FF003000000000000C0
:102B300000000000FF3FFF3FFF3F0F001E001E0090
:102B40003C0038007800F000F000E001E001C00334
:102B5000C0038007800F800F000F001F001F0000C0
:102B60000000000000000000F807FC0F3E1F1E1EC2
:102B70001E3E1E3E1E1E3C1FF80FF007F80FFC1EE7
:102B80003E3E1F3C1F7C0F7C0F7C1F3C3E3FFC1FCA
:102B9000F00700000000000000000000F007F80F40
:102BA0007C1E3E3C1E3C1F7C1F7C1F7C1F7C1F3CF0
:102BB0003F3EFF1FEF071F001E001E003E003C00AF
:102BC000F838F03FE01F00000000000000000000A7
:102BD000000000000000000000000000E003E0032F
:102BE000E003E0030000000000000000000000001F
:102BF0000000E003E003E003E00300000000000049
:102C000000000000000000000000000000000000C4
:102C1000E003E003E003E003000000000000000028
:102C2000000000000000E003E003E003E003E00137
:102C3000E001E001C003800300000000000000008C
:102C40000000000003000F003F00FC00F003C00F75
:102C5000003F00FE003FC00FF003FC003F000F00EC
:102C60000300000000000000000000000000000061
:102C70000000000000000000000000000000000054
:102C8000FFFFFFFF000000000000FFFFFFFF00004C
:102C90000000000000000000000000000000000034
:102CA00000000000000000000000000000E000F84C
:102CB000007E801FE007F8017E001F007E00F80103
:102CC000E007801F007E00F800E000000000000028
:102CD00000000000F01FFC3F3E381F381F381E0068
:102CE0001E003C007800F000E001C003C003C007F4
:102CF000C007000000000000C007C007C0070000B8
:102D00000000000000000000F803FE0F1E1F0F3E31
:102D10007F3CFF78EF79C773C7F38FF38FF38FF39F
:102D20009FF39FF3FF73FF7BF779003C1C1FFC0FA1
:102D3000F803000000000000000000000000000098
:102D40000000E003E003F007F007F007780F780FCA
:102D50007C0E3C1E3C1E3E3CFE3FFF3F1F780F7822
:102D60000FF007F007F00000000000000000000076
:102D7000000000000000F83FFC3F3E3C1E3C1E3CB3
:102D80001E3C3E3C7C3CF03FF83F7E3C1F3C1F3CE1
:102D90000F3C0F3C1F3CFE3FF83F000000000000CE
:102DA00000000000000000000000FF01FF07871F77
:102DB000003E003C007C00780078007800780078C5
:102DC000007C007C003E003F831FFF07FF010000E6
:102DD0000000000000000000000000000000F07F84
:102DE000FC7F7E781F781F780F780F780F780F7828
:102DF0000F780F780F780F781F781E787E78F87F1D
:102E0000E07F000000000000000000000000000063
:102E10000000FF3FFF3F003E003E003E003E003E00
:102E2000003EFE3FFE3F003E003E003E003E003EB4
:102E3000003EFF3FFF3F00000000000000000000D8
:102E4000000000000000FF1FFF1F001E001E001EEC
:102E5000001E001E001EFF1FFF1F001E001E001E82
:102E6000001E001E001E001E001E000000000000CC
:102E700000000000000000000000FE03FF0F871F9D
:102E8000003E007C007C007800F800F87FF87FF8B6
:102E90000F780F7C0F7C0F3E8F1FFF0FFE0300008B
:102EA00000000000000000000000000000001F7C87
:102EB0001F7C1F7C1F7C1F7C1F7C1F7C1F7CFF7F57
:102EC000FF7F1F7C1F7C1F7C1F7C1F7C1F7C1F7C47
:102ED0001F7C000000000000000000000000000057
:102EE0000000FF3FFF3FE003E003E003E003E003F7
:102EF000E003E003E003E003E003E003E003E003BA
:102F0000E003FF3FFF3F0000000000000000000062
:102F1000000000000000FC1FFC1F7C007C007C0007
:102F20007C007C007C007C007C007C007C007C00C1
:102F300078007800F838F03FC03F00000000000043
:102F4000000000000000000000001F3C1E3C3C3C54
:102F5000783CF03CE03DE03FC03F803FC03FE03F79
:102F6000F03DF03C783C7C3C3E3C1F3C0F3C00007C
:102F70000000000000000000000000000000003E13
:102F8000003E003E003E003E003E003E003E003E51
:102F9000003E003E003E003E003E003E003EFF3F41
:102FA000FF3F0000000000000000000000000000E3
:102FB00000001FF81FFC1FFC3FFE3FFE3FFE7FFF8F
:102FC00077FF77FFF7F7E7F7E7F3E7F3C7F307F0E4
:102FD00007F007F007F0000000000000000000000C
:102FE0000000000000000F7C0F7C0F7E0F7F0F7F22
:102FF0008F7F8F7FCF7FEF7BEF79FF79FF78FF782F
:103000007F783F783F781F781F780000000000002D
:1030100000000000000000000000F007FC1F3E3E22
:103020001F7C0F780F780FF80FF80FF80FF80FF8D4
:103030000FF80F780F781F7C3E3EFC1FF007000052
:103040000000000000000000000000000000FC3F45
:10305000FF3F1F3E0F3E0F3E0F3E0F3E1F3E3F3EC7
:10306000FC3FF03F003E003E003E003E003E003E82
:10307000003E000000000000000000000000000012
:103080000000F007FC1F3E3E1F7C0F780F780FF802
:103090000FF80FF80FF80FF80FF80F780F781F7C64
:1030A0003E3EFC1FF8077C003F000F0003000000BD
:1030B000000000000000F03FFC3F7E3C3E3C1E3C18
:1030C0001E3C3E3C3C3CFC3CF03FE03FF03DF83CCD
:1030D0007C3C3E3C1E3C1F3C0F3C000000000000BE
:1030E00000000000000000000000FC07FE1F0E3E74
:1030F000003C003C003C003EC01FF80FFE037F0078
:103100001F000F000F001F203E3CFC3FF01F00007F
:103110000000000000000000000000000000FFFFB1
:10312000FFFFE003E003E003E003E003E003E0036C
:10313000E003E003E003E003E003E003E003E00377
:10314000E00300000000000000000000000000009C
:1031500000000F7C0F7C0F7C0F7C0F7C0F7C0F7CA2
:103160000F7C0F7C0F7C0F7C0F7C0F7C1E3C1E3C69
:103170003E3EFC1FF00700000000000000000000C1
:1031800000000000000007F007F007F80F780F7C40
:103190001E3C1E3C1E3E3C1E3C1F781F780FF80F45
:1031A000F007F007F007E003E00300000000000074
:1031B0000000000000000000000003E003F003F046
:1031C00007F0E7F3E7F3E7F3E773F77BF77FFF7FBA
:1031D0007F7F7F7F7E7F7E3F3E3E3E3E3E3E0000C5
:1031E000000000000000000000000000000007F8E0
:1031F0000F7C1E3E3E3E3C1FF80FF007E007E00349
:10320000E003F007F80F7C0F7C1E3E3C1F780F7820
:103210000FF00000000000000000000000000000AF
:10322000000007F807780F7C1E3C1E3E3C1F780FFD
:10323000F80FF007E003E003E003E003E003E0033E
:10324000E003E003E00300000000000000000000D5
:10325000000000000000FF7FFF7F0F001F003E0006
:103260007C00F800F000E001E003C007800F000FD1
:10327000001E003E007CFF7FFF7F0000000000007A
:1032800000000000FF078007800780078007800795
:1032900080078007800780078007800780078007F6
:1032A00080078007800780078007800780078007E6
:1032B0008007FF07FF07000000780078003C003C13
:1032C000001E001E000F000F80078007C003C00310
:1032D000E001E001F000F000780078003C003C00E4
:1032E0001E001E000F000F0007000000F07FF0001E
:1032F000F000F000F000F000F000F000F000F0004E
:10330000F000F000F000F000F000F000F000F0003D
:10331000F000F000F000F000F000F07FF07F00001F
:10332000C000C001C001E003E003F007F007780728
:10333000780F380F3C1E3C1E1E3C1E3C0F380F7889
:1033400007780000000000000000000000000000FE
:10335000000000000000000000000000000000006D
:10336000000000000000000000000000000000005D
:103370000000000000000000000000000000FFFF4F
:10338000FFFF000000000000F0000000000000004F
:10339000000000000000000000000000000000002D
:1033A000000000000000000000000000000000001D
:1033B000000000000000000000000000000000000D
:1033C0000000000000000000F80FFC3F7C3C3E00C5
:1033D0003E003E00FE07FE1F3E3E3E7C3E783E7CA9
:1033E0007E7CFF3FCF1F00000000000000000000B7
:1033F000003C003C003C003C003C003CF83DFE3FF3
:103400003E3F1F3E0F3C0F3C0F3C0F3C0F3C0F3C20
:103410001F3C1E3C3E3FFC3FF03B00000000000014
:10342000000000000000000000000000000000009C
:10343000FE03FF0F871F003E003E003C007C007C27
:10344000007C003C003E003E871FFF0FFE03000093
:1034500000000000000000001F001F001F001F00F0
:103460001F001F00FF07FF1F3F3E1F3C1F7C1F7CEC
:103470001F7C1F781F781F7C1F7C3F3C7F3EFF1FF7
:10348000DF0F00000000000000000000000000004E
:103490000000000000000000F803FC0F3E1F1E3E6D
:1034A0001F3C1F7CFF7FFF7F007C007C003C003EB8
:1034B000071FFF0FFE0300000000000000000000D7
:1034C000FF01E103C003C007C007C007FF7FFF7F04
:1034D000C007C007C007C007C007C007C007C007B4
:1034E000C007C007C007C007C007000000000000F9
:1034F00000000000000000000000000000000000CC
:10350000EF07FF1F7F3E1F3C1F7C1F7C1F781F782B
:103510001F781F7C1F7C3F3C7F3EFF1FDF0F1E007C
:103520001E001E007C38F83F003C003C003C003C84
:10353000003C003CFC3DFE3F9E3F1F3F1F3E1F3CAA
:103540001F3C1F3C1F3C1F3C1F3C1F3C1F3C1F3CA3
:103550001F3C00000000000000000000F001F0012E
:103560000000000000000000E07FE07FE001E001DB
:10357000E001E001E001E001E001E001E001E00143
:10358000E001E001E0010000000000000000000098
:10359000F800F8000000000000000000F83FF83FCD
:1035A000F800F800F800F800F800F800F800F8005B
:1035B000F800F800F800F800F800F800F800F00053
:1035C000F071E07F003C003C003C003C003C003CD3
:1035D0001F3C3E3C7C3CF83CF03DE03DC03FC03FE2
:1035E000E03FF03DF83C7C3C3E3C1F3C1F3C000073
:1035F0000000000000000000F07FF001F001F00189
:10360000F001F001F001F001F001F001F001F00132
:10361000F001F001F001F001F001F001F001F00122
:10362000F0010000000000000000000000000000A9
:1036300000000000000000009EF7FFFFFFFFFFFFFB
:10364000E7FBE7F9C7F1C7F1C7F1C7F1C7F1C7F168
:10365000C7F1C7F1C7F10000000000000000000042
:10366000000000000000000000000000FC3DFE3FE4
:103670009E3F1F3F1F3E1F3C1F3C1F3C1F3C1F3CEB
:103680001F3C1F3C1F3C1F3C1F3C00000000000073
:10369000000000000000000000000000000000002A
:1036A000F007FC1F3E3E1F3C1F7C0F780F780F7801
:1036B0000F780F781F7C1F3C3E3EFC1FF007000078
:1036C00000000000000000000000000000000000FA
:1036D00000000000F83DFE3F3E3F1F3E0F3C0F3C08
:1036E0000F3C0F3C0F3C0F3C1F3C1E3E3E3FFC3F3F
:1036F000F83F003C003C003C003C003C0000000067
:103700000000000000000000EE07FE1F7E3E1E3C91
:103710001E7C1E781E781E781E781E781E7C3E7CCD
:103720007E3EFE1FDE0F1E001E001E001E001E003D
:103730000000000000000000000000007F1FFF1FCD
:10374000E71FC71F871F001F001F001F001F001F4C
:10375000001F001F001F001F001F000000000000CE
:103760000000000000000000000000000000000059
:10377000FC07FE1F0E1E003E003E003FE01FFC0740
:10378000FE003E001E001E003E3CFC3FF01F0000FD
:1037900000000000000000000000000000008007A2
:1037A00080078007FF7FFF7F8007800780078007F3
:1037B000800780078007800780078007C007FF0316
:1037C000FF010000000000000000000000000000F9
:1037D00000000000000000001E3C1E3C1E3C1E3C81
:1037E0001E3C1E3C1E3C1E3C1E3C1E3C3E3C7E3C89
:1037F000FE3EFE1FDE0F0000000000000000000083
:1038000000000000000000000000000007F00F783A
:103810000F781E3C1E3C1E3E3C1E3C1E780F780F4F
:10382000F00FF007F007E003E003000000000000E5
:103830000000000000000000000000000000000088
:1038400003F0E3F1E3F3E7F3F7F3F7F3F77F777FC1
:103850007F7F7F7F7F7F3E3E3E3E3E3E3E3E00007E
:103860000000000000000000000000000000000058
:10387000000000000F7C1E3E3C3E3C1FF80FF0078E
:10388000F007E003F007F807F80F7C1E3E3E1F3CF0
:103890001F78000000000000000000000000000091
:1038A000000000000000000007F80F780F7C1E3CAD
:1038B0001E3C3C1E3C1E3C1F780FF80FF007F00723
:1038C000E003E003C003C003C0038007800F007F54
:1038D000000000000000000000000000FF3FFF3F6C
:1038E0001F003E007C00F800F001E003C007800FDD
:1038F000001F001E003CFF7FFF7F00000000000053
:1039000000000000FE01E003C003C003C003C003C9
:10391000E001E001E001C001C003803F803FC0033F
:10392000C001E001E001E001C003C003C003C00327
:10393000E003FE017E000000C001C001C001C00123
:10394000C001C001C001C001C001C001C001C0016F
:10395000C001C001C001C001C001C001C001C0015F
:10396000C001C001C001C001C0010000C03FE003B0
:10397000E001E001E001E001C001C003C003C001BB
:10398000E001FE00FE00E001C001C003C003C00171
:10399000E001E001E001E001E003C03F003F000082
:1039A0000000000000000000000000000000000017
:1039B000000000000000073FC77FE773FFF17EF0C3
:1039C00000000000000000000000000000000000F7
:1039D00000000000000102000201070000020200D6
:1039E000020107001900000000C2010001020102EB
:1039F000020300000102202020202020202020207F
:103A000020202020202020202020202020200045B1
:103A100052524F52004553502D303120486172644C
:103A2000776172652054657374003D3D3D3D3D3DB9
:103A30003D3D3D3D3D3D3D3D3D3D3D3D3D3D0054DC
:103A400065737420313A20426173696320415400E8
:103A500041540D0A0041543A204F4B202D2045532C
:103A60005020726573706F6E64696E6721004154F7
:103A70003A20476F74206461746120627574206E0F
:103A80006F74204F4B00446174613A20252E323010
:103A9000730041543A204E6F20726573706F6E73DD
:103AA000652100436865636B20776972696E672FD3
:103AB000706F77657200547279696E67203936309D
:103AC0003020626175642E2E2E003936303020622F
:103AD00061756420776F726B732100393630302046
:103AE00062617564206661696C656420746F6F0043
:103AF0005465737420323A2047657420566572739A
:103B0000696F6E0041542B474D520D0A0056657285
:103B100073696F6E20696E666F2072656365697682
:103B20006564004E6F2076657273696F6E20696EF2
:103B3000666F005465737420333A20436865636B85
:103B4000204D6F64650041542B43574D4F44453F12
:103B50000D0A004D6F6465207175657279204F4BB9
:103B6000004D6F6465207175657279206661696CBE
:103B700065640054657374206379636C653A20252D
:103B80006C750045535020726573706F6E64696E7A
:103B900067004E6F2045535020726573706F6E73CF
:103BA0006500436865636B20636F6E6E656374695F
:103BB0006F6E732100232D302B2000686C4C006544
:103BC0006667454647003031323334353637383949
:103BD000414243444546003031323334353637387C
:083BE00039616263646566004F
:103BE8007C000020000000000024F400101A0000EF
:103BF80088260008180000200000000000000000CF
:103C080000000000000000000000000000000000AC
:103C1800000000000000000000000000000000009C
:103C2800000000000000000000000000000000008C
:103C3800000000000000000000000000000000007C
:103C4800000000000000000000000000000000006C
:083C5800000000000000000064
:040000050800019559
:00000001FF
